:020000040800F2
:100000000080012039890008F51A0008FB1A000851
:10001000011B0008071B00080D1B00080000000062
:10002000000000000000000000000000017800084F
:10003000131B000800000000417A0008A97A00089C
:100040008989000889890008898900088989000848
:100050008989000889890008898900088989000838
:100060008989000889890008898900088989000828
:10007000211B0008898900088989000889890008EE
:100080008989000889890008898900088989000808
:1000900089890008898900088989000889890008F8
:1000A00089890008898900088989000889890008E8
:1000B00089890008898900088989000889890008D8
:1000C00089890008898900088989000889890008C8
:1000D00089890008898900088989000889890008B8
:1000E00089890008898900088989000889890008A8
:1000F0008989000889890008898900088989000898
:100100008989000889890008898900088989000887
:100110008989000889890008351B00088989000839
:100120008989000889890008898900088989000867
:100130008989000889890008898900088989000857
:100140008989000889890008898900088989000847
:100150008989000889890008898900088989000837
:100160008989000889890008898900088989000827
:100170008989000889890008898900080000000031
:08018000898900088989000843
:1001900010B5054C237833B9044B13B10448AFF3C1
:1001A00000800123237010BD7400002000000000B7
:1001B000E0A2000808B5034B1BB103490348AFF3A5
:1001C000008008BD0000000078000020E0A20008C8
:1001D000034613F8012B002AFBD1181A0138704787
:1001E00001F0FF01102A2BDB10F0070F08D010F8E8
:1001F000013B013A8B422DD010F0070F42B3F6D1EC
:10020000F0B441EA012141EA014122F007047FF004
:1002100000070023F0E80256083C85EA010586EA5B
:10022000010685FA47F5A3FA87F586FA47F6A5FA97
:1002300087F68EB9EED1F0BC01F0FF0102F00702A3
:1002400032B110F8013B013A83EA010313B1F8D14E
:100250000020704701387047002D06BF354603382F
:10026000073815F0010F07D1013015F4807F02BF68
:10027000013015F4C03F0130F0BC0138704700BFB9
:1002800081F0004102E000BF83F0004330B54FEA47
:1002900041044FEA430594EA050F08BF90EA020FB4
:1002A0001FBF54EA000C55EA020C7FEA645C7FEA47
:1002B000655C00F0E2804FEA5454D4EB5555B8BF6A
:1002C0006D420CDD2C4480EA020281EA030382EADB
:1002D000000083EA010180EA020281EA0303362D6D
:1002E00088BF30BD11F0004F4FEA01314FF4801C40
:1002F0004CEA113102D0404261EB410113F0004F52
:100300004FEA03334CEA133302D0524263EB430308
:1003100094EA050F00F0A780A4F10104D5F1200EA6
:100320000DDB02FA0EFC22FA05F2801841F1000101
:1003300003FA0EF2801843FA05F359410EE0A5F1D5
:1003400020050EF1200E012A03FA0EFC28BF4CF006
:10035000020C43FA05F3C01851EBE37101F00045BC
:1003600007D54FF0000EDCF1000C7EEB00006EEBC9
:100370000101B1F5801F1BD3B1F5001F0CD3490853
:100380005FEA30004FEA3C0C04F101044FEA4452AA
:1003900012F5800F80F09A80BCF1004F08BF5FEA31
:1003A000500C50F1000041EB045141EA050130BD11
:1003B0005FEA4C0C404141EB010111F4801FA4F1B4
:1003C0000104E9D191F0000F04BF01460020B1FA09
:1003D00081F308BF2033A3F10B03B3F120020CDA41
:1003E0000C3208DD02F1140CC2F10C0201FA0CF01F
:1003F00021FA02F10CE002F11402D8BFC2F1200C84
:1004000001FA02F120FA0CFCDCBF41EA0C01904039
:10041000E41AA2BF01EB0451294330BD6FEA040482
:100420001F3C1CDA0C340EDC04F11404C4F120026D
:1004300020FA04F001FA02F340EA030021FA04F37F
:1004400045EA030130BDC4F10C04C4F1200220FAD6
:1004500002F001FA04F340EA0300294630BD21FA14
:1004600004F0294630BD94F0000F83F4801306BFDA
:1004700081F480110134013D4EE77FEA645C18BFCE
:100480007FEA655C29D094EA050F08BF90EA020F65
:1004900005D054EA000C04BF1946104630BD91EA5D
:1004A000030F1EBF0021002030BD5FEA545C05D160
:1004B0004000494128BF41F0004130BD14F580049F
:1004C0003CBF01F5801130BD01F0004545F0FE4113
:1004D00041F470014FF0000030BD7FEA645C1ABF48
:1004E000194610467FEA655C1CBF0B46024650EA7F
:1004F000013406BF52EA033591EA030F41F40021AB
:1005000030BD00BF90F0000F04BF0021704730B530
:100510004FF4806404F132044FF000054FF0000105
:1005200050E700BF90F0000F04BF0021704730B5C6
:100530004FF4806404F1320410F0004548BF40429B
:100540004FF000013EE700BF42004FEAE2014FEAF0
:1005500031014FEA02701FBF12F07F4393F07F4FCB
:1005600081F06051704792F0000F14BF93F07F4FFD
:10057000704730B54FF4607401F0004521F0004140
:1005800020E700BF50EA010208BF704730B54FF0C6
:1005900000050AE050EA010208BF704730B511F0CB
:1005A000004502D5404261EB41014FF4806404F103
:1005B00032045FEA915C3FF4DCAE4FF003025FEA85
:1005C000DC0C18BF03325FEADC0C18BF033202EB0D
:1005D000DC02C2F1200300FA03FC20FA02F001FA67
:1005E00003FE40EA0E0021FA02F11444C1E600BF06
:1005F00070B54FF0FF0C4CF4E06C1CEA11541DBFB9
:100600001CEA135594EA0C0F95EA0C0F00F0DEF883
:100610002C4481EA030621EA4C5123EA4C5350EA68
:10062000013518BF52EA033541F4801143F48013B9
:1006300038D0A0FB02CE4FF00005E1FB02E506F04A
:100640000042E0FB03E54FF00006E1FB03569CF09F
:10065000000F18BF4EF0010EA4F1FF04B6F5007FA5
:1006600064F5407404D25FEA4E0E6D4146EB060617
:1006700042EAC62141EA55514FEAC52040EA5E50A0
:100680004FEACE2EB4F1FD0C88BFBCF5E06F1ED84A
:10069000BEF1004F08BF5FEA500E50F1000041EB81
:1006A000045170BD06F0004646EA010140EA02002E
:1006B00081EA0301B4EB5C04C2BFD4EB0C0541EA50
:1006C000045170BD41F480114FF0000E013C00F365
:1006D000AB8014F1360FDEBF002001F0004170BD89
:1006E000C4F10004203C35DA0C341BDC04F11404A2
:1006F000C4F1200500FA05F320FA04F001FA05F22E
:1007000040EA020001F0004221F0004110EBD370FA
:1007100021FA04F642EB06015EEA430E08BF20EA26
:10072000D37070BDC4F10C04C4F1200500FA04F3C9
:1007300020FA05F001FA04F240EA020001F000415B
:1007400010EBD37041F100015EEA430E08BF20EACE
:10075000D37070BDC4F1200500FA05F24EEA020E16
:1007600020FA04F301FA05F243EA020321FA04F045
:1007700001F0004121FA04F220EA020000EBD370FC
:100780005EEA430E08BF20EAD37070BD94F0000FFC
:100790000FD101F00046400041EB010111F4801F30
:1007A00008BF013CF7D041EA060195F0000F18BFE1
:1007B000704703F00046520043EB030313F4801F1D
:1007C00008BF013DF7D043EA0603704794EA0C0FD7
:1007D0000CEA135518BF95EA0C0F0CD050EA4106ED
:1007E00018BF52EA4306D1D181EA030101F000416A
:1007F0004FF0000070BD50EA410606BF1046194692
:1008000052EA430619D094EA0C0F02D150EA01369D
:1008100013D195EA0C0F05D152EA03361CBF1046DE
:1008200019460AD181EA030101F0004141F0FE417D
:1008300041F470014FF0000070BD41F0FE4141F401
:10084000780170BD70B54FF0FF0C4CF4E06C1CEA01
:1008500011541DBF1CEA135594EA0C0F95EA0C0FB6
:1008600000F0A7F8A4EB050481EA030E52EA033571
:100870004FEA013100F088804FEA03334FF0805592
:1008800045EA131343EA12634FEA022245EA1115BF
:1008900045EA10654FEA00260EF000419D4208BF70
:1008A000964244F1FD0404F5407402D25B084FEA1D
:1008B0003202B61A65EB03055B084FEA32024FF4C9
:1008C00080104FF4002CB6EB020E75EB030E22BF26
:1008D000B61A754640EA0C005B084FEA3202B6EBE6
:1008E000020E75EB030E22BFB61A754640EA5C0095
:1008F0005B084FEA3202B6EB020E75EB030E22BF25
:10090000B61A754640EA9C005B084FEA3202B6EB25
:10091000020E75EB030E22BFB61A754640EADC00E4
:1009200055EA060E18D04FEA051545EA16754FEA46
:1009300006164FEAC30343EA52734FEAC2025FEA64
:100940001C1CC0D111F4801F0BD141EA00014FF0F3
:1009500000004FF0004CB6E711F4801F04BF0143C4
:100960000020B4F1FD0C88BFBCF5E06F3FF6AFAEE0
:10097000B5EB030C04BFB6EB020C5FEA500C50F170
:10098000000041EB045170BD0EF0004E4EEA1131F3
:1009900014EB5C04C2BFD4EB0C0541EA045170BDFA
:1009A00041F480114FF0000E013C90E645EA060E3E
:1009B0008DE60CEA135594EA0C0F08BF95EA0C0F6C
:1009C0003FF43BAF94EA0C0F0AD150EA01347FF4B4
:1009D00034AF95EA0C0F7FF425AF104619462CE78B
:1009E00095EA0C0F06D152EA03353FF4FDAE1046EE
:1009F000194622E750EA410618BF52EA43067FF43F
:100A0000C5AE50EA41047FF40DAF52EA43057FF4CE
:100A1000EBAE12E74FF0FF3C06E000BF4FF0010CD9
:100A200002E000BF4FF0010C4DF804CD4FEA410C3D
:100A30007FEA6C5C4FEA430C18BF7FEA6C5C1BD00A
:100A400001B050EA410C0CBF52EA430C91EA030F8B
:100A500002BF90EA020F0020704710F1000F91EAE8
:100A6000030F58BF994208BF90422CBFD8176FEAB6
:100A7000E37040F0010070474FEA410C7FEA6C5C84
:100A800002D150EA013C07D14FEA430C7FEA6C5C8B
:100A9000D6D152EA033CD3D05DF8040B704700BFB7
:100AA0008446104662468C461946634600E000BF05
:100AB00001B5FFF7B7FF002848BF10F1000F01BDD7
:100AC0004DF808EDFFF7F4FF0CBF012000205DF8A2
:100AD00008FB00BF4DF808EDFFF7EAFF34BF012027
:100AE00000205DF808FB00BF4DF808EDFFF7E0FFC0
:100AF00094BF012000205DF808FB00BF4DF808ED11
:100B0000FFF7CEFF94BF012000205DF808FB00BF77
:100B10004DF808EDFFF7C4FF34BF012000205DF859
:100B200008FB00BF4FEA410212F5001215D211D5A1
:100B30006FF47873B3EB625212D94FEAC12343F0DA
:100B4000004343EA505311F0004F23FA02F018BF5C
:100B5000404270474FF00000704750EA013005D125
:100B600011F0004008BF6FF0004070474FF00000E8
:100B7000704700BF4A0011D212F5001211D20DD5F4
:100B80006FF47873B3EB62520ED44FEAC12343F093
:100B9000004343EA505323FA02F070474FF000003D
:100BA000704750EA013002D14FF0FF3070474FF0EC
:100BB000000070474FEA4102B2F1E04324BFB3F5B1
:100BC000001CDCF1FE5C0DD901F0004C4FEAC002C4
:100BD0004CEA5070B2F1004F40EB830008BF20F0A8
:100BE0000100704711F0804F21D113F13872BCBF62
:100BF00001F00040704741F480114FEA5252C2F1B7
:100C00001802C2F1200C10FA0CF320FA02F018BFFF
:100C100040F001004FEAC1234FEAD32303FA0CFC52
:100C200040EA0C0023FA02F34FEA4303CCE77FEAE1
:100C3000625307D150EA01331EBF4FF0FE4040F42B
:100C40004000704701F0004040F0FE4040F40000DA
:100C5000704700BF53B94AB9002908BF00281CBF1C
:100C60004FF0FF314FF0FF3000F07AB9ADF1080CD2
:100C70006DE904CE00F006F8DDF804E0DDE90223BA
:100C800004B070472DE9F0478C460D460446089E97
:100C9000002B51D18A4217466DD9B2FA82FEBEF1BD
:100CA000000F0BD0CEF1200C01FA0EF520FA0CFC4F
:100CB00002FA0EF74CEA050C00FA0EF44FEA174A56
:100CC000250CBCFBFAF81FFA87F90AFB18CC45EA99
:100CD0000C4508FB09F3AB420AD9ED1908F1FF32C4
:100CE00080F02381AB4240F22081A8F102083D440C
:100CF000ED1AA4B2B5FBFAF00AFB105544EA05441C
:100D000000FB09F9A14509D9E41900F1FF3380F08E
:100D10000A81A14540F2078102383C44A4EB090452
:100D200040EA08400021002E61D024FA0EF400238E
:100D300034607360BDE8F0878B4207D9002E54D031
:100D4000002186E821000846BDE8F087B3FA83F168
:100D5000002940F08E80AB4202D3824200F2FA803A
:100D6000841A65EB03050120AC46002E3FD086E8CF
:100D70001010BDE8F08712B90127B7FBF2F7B7FAF8
:100D800087FEBEF1000F34D1EB1B3A0C1FFA87FC33
:100D90000121B3FBF2F8250C02FB183345EA0345A9
:100DA0000CFB08F3AB4207D9ED1908F1FF3002D272
:100DB000AB4200F2D1808046ED1AA3B2B5FBF2F04F
:100DC00002FB105543EA05440CFB00FCA44507D97F
:100DD000E41900F1FF3302D2A44500F2B8801846AE
:100DE000A4EB0C0440EA08409DE731463046BDE8DC
:100DF000F087CEF1200405FA0EF307FA0EF720FA79
:100E000004F83A0C25FA04F448EA0308B4FBF2F1BA
:100E10004FEA184502FB11441FFA87FC45EA0445D6
:100E200001FB0CF3AB4200FA0EF409D9ED1901F104
:100E3000FF3080F08A80AB4240F2878002393D4427
:100E4000EB1A1FFA88F5B3FBF2F002FB103345EA08
:100E5000034500FB0CF3AB4207D9ED1900F1FF3855
:100E60006FD2AB426DD902383D44EB1A40EA0141E2
:100E70008FE7C1F1200722FA07F88B4005FA01F449
:100E800048EA030320FA07FE4FEA134CFD404EEAFE
:100E9000040EB5FBFCF94FEA1E440CFB19551FFA72
:100EA00083F844EA054509FB08F4AC4202FA01F272
:100EB00000FA01FA08D9ED1809F1FF3043D2AC422B
:100EC00041D9A9F102091D442D1B1FFA8EFEB5FB65
:100ED000FCF00CFB10554EEA054400FB08F8A04559
:100EE00007D9E41800F1FF3529D2A04527D90238E7
:100EF0001C4440EA0940A4EB0804A0FB02894C45CD
:100F0000C6464D4615D312D056B1BAEB0E0364EB6C
:100F1000050404FA07F7CB401F43CC4037607460E8
:100F20000021BDE8F0871846F8E69046E0E6C245A5
:100F3000EAD2B8EB020E69EB03050138E4E7284674
:100F4000D7E7404691E78146BEE7014678E7023899
:100F50003C4445E7084608E7A8F102083D442BE772
:100F6000704700BF80B485B000AFF860B9607A60A8
:100F7000FB68074A1A60BB68064A1A607B688022D1
:100F80001A6000BF1437BD465DF8047B704700BF90
:100F900090000020E400002080B485B000AFF8602D
:100FA000B9607A603B60FB68D8B21C49FA681346A6
:100FB0009B0013440B4402461A707B68D8B2174951
:100FC000FA6813469B0013440B44013302461A701F
:100FD000BB68D8B21149FA6813469B0013440B440E
:100FE000023302461A703B68D8B20C49FA681346BD
:100FF0009B0013440B44033302461A700749FA68F6
:1010000013469B0013440B44043300221A7000BFA4
:101010001437BD465DF8047B704700BF4C100020BC
:10102000B0B586B000AF78607B682D2B01DD2D2335
:101030007B6000237B6182E047497A6913469B000D
:1010400013440B44187845497A6913469B001344AE
:101050000B4402461A7001233B616AE07B68C3F1CE
:101060005A0307EE903AF8EEE77AC7ED037AF8688C
:10107000FFF76AFA36A3D3E90023FFF7B9FA03466C
:101080000C46184621464FF00002354BFFF7DAFBBD
:1010900003460C4618462146FFF78CFD0346FB60CD
:1010A0007B682D2B25D02C497A6913469B0013446D
:1010B000CA183B6913441B781846FFF733FA0446F5
:1010C0000D46F868FFF740FA02460B4643EC102B3A
:1010D00008F0AEF853EC102B20462946FFF7B2FB80
:1010E00003460C4618462146FFF744FD0346DAB294
:1010F00013E019497A6913469B001344CA183B69E7
:1011000013441B781846FFF70DFA03460C461846A1
:101110002146FFF72FFD0346DAB2104879690B46E6
:101120009B000B44C1183B690B441A703B690133A7
:101130003B613B69042B91DD7B6901337B617B69FA
:10114000262B7FF779AF00BF1837BD46B0BD00BF73
:10115000F1D4C853FB2109404C100020101100208D
:101160000080664080B586B000AF00237B6100231D
:101170003B6140E033493A6913469B0013440B44FA
:1011800001331B7819062F483A6913469B00134414
:10119000034402331B781B0419432A483A69134657
:1011A0009B001344034403331B781B020B437B60F7
:1011B0001F23FB6019E00122FB6802FA03F31A46C1
:1011C0007B681340002B05D01F4A7B69402122F821
:1011D000131004E01C4A7B69202122F813107B695C
:1011E00001337B61FB68013BFB60FB68002BE2DAAB
:1011F0003B6901333B613B69262BBBDD0023BB60B0
:101200000AE0114A7B69002122F813107B6901333F
:101210007B61BB680133BB60BB68312BF1DD7B694F
:101220009BB2094A0021094804F040F800BF084B6E
:101230001B68002BFBD0064B00221A6000BF18373A
:10124000BD4680BD10110020381200205C1C00201B
:10125000E402002080B582B000AF7860002105482C
:1012600004F03CFA044B01221A6000BF0837BD4667
:1012700080BD00BF5C1C0020E4020020B0B58AB035
:1012800000AF00F0BFFC00F023F800F01BFA00F004
:10129000FBF900F0A7F800F0C7F900F019F90A4BC4
:1012A0003C461D460FCD0FC495E8070084E80700B3
:1012B0003B460021184606F02DF90246034B1A6002
:1012C00006F021F9FEE700BF04A300084810002043
:1012D00080B5B8B000AF07F19C0344220021184646
:1012E00007F089FB07F1880300221A605A609A60B0
:1012F000DA601A613B4688220021184607F07BFB22
:101300001023C7F89C300123C7F8B4300023C7F876
:10131000B8306023C7F8BC300223C7F8C4300123BB
:10132000C7F8C8300123C7F8CC302823C7F8D0301D
:101330000723C7F8D4300223C7F8D8300223C7F8F0
:10134000DC3007F19C03184602F0BAFB0346002B81
:1013500001D000F047FA0F23C7F888300323C7F8FD
:101360008C300023C7F890300023C7F89430002356
:10137000C7F8983007F188030421184602F086FF69
:101380000346002B01D000F02DFA44F202033B602B
:101390000023FB634FF08053BB6701237B60012375
:1013A000BB601023FB6007233B6102237B610223A8
:1013B000BB614FF08073FB613B46184603F09CF91C
:1013C0000346002B01D000F00DFA4FF4007002F03C
:1013D00021FB0346002B01D000F004FA00BFE037E8
:1013E000BD4680BD80B58AB000AF07F11C03002266
:1013F0001A605A609A603B1D00221A605A609A6017
:10140000DA601A615A612F4B2F4A1A602D4B002265
:101410005A602C4B00229A602A4B0022DA60294B3A
:1014200000221A61274B04225A61264B00221A76A9
:10143000244B00225A76234B0122DA61214B0022F1
:1014400083F820201F4B00229A621E4B0022DA6292
:101450001C4B002283F830201A4B00225A63194B90
:10146000002283F83820174800F0E8FD0346002BDF
:1014700001D000F0B7F90023FB6107F11C03194606
:10148000104801F049FD0346002B01D000F0AAF9F5
:101490000E4B7B600623BB600023FB607F233B6118
:1014A00004237B610023BB613B1D1946054801F005
:1014B000BBF80346002B01D000F094F900BF283799
:1014C000BD4680BDD411002000000450020030044D
:1014D00080B59AB000AF07F1580300221A605A6035
:1014E0009A60DA6007F14C0300221A605A609A6031
:1014F00007F1300300221A605A609A60DA601A61BC
:101500005A619A613B1D2C220021184607F073FA9C
:10151000434B444A1A60424B00225A60404B00221F
:101520009A603F4B6322DA603D4B00221A613C4BCC
:1015300000225A613A4B00229A61394803F08CFD2F
:101540000346002B01D000F04DF94FF48053BB65EA
:1015500007F158031946324804F0E0FB0346002B1C
:1015600001D000F03FF92E4803F03EFE0346002B69
:1015700001D000F037F90023FB6400233B65002312
:101580007B6507F14C031946254805F0B3F903467E
:10159000002B01D000F026F960233B6300237B631E
:1015A0000023BB630023FB6300233B6400237B64B5
:1015B0000023BB6407F1300300221946184804F0E9
:1015C0009DFA0346002B01D000F00CF900237B604C
:1015D0000023BB600023FB6000233B6100237B6191
:1015E0004FF40053BB610023FB6100233B624FF0CB
:1015F00000737B620023BB620023FB623B1D194624
:10160000074805F0FFF90346002B01D000F0EAF887
:10161000034800F09FF900BF6837BD4680BD00BF9A
:101620005C1C0020002C014080B500AF144B154A13
:101630001A60134B4FF4E1325A60114B00229A604A
:101640000F4B0022DA600E4B00221A610C4B0C2269
:101650005A610B4B00229A61094B0022DA61084B58
:1016600000221A62064B00225A62054805F066FA0B
:101670000346002B01D000F0B5F800BF80BD00BFCD
:10168000A81C00200044004080B582B000AF0C4A86
:101690000B4B9B6C43F001039364094B9B6C03F071
:1016A00001037B607B68002205210C2001F09AFD7C
:1016B0000C2001F0B3FD00BF0837BD4680BD00BF60
:1016C0000010024080B483B000AF0F4A0E4BDB6CB9
:1016D00043F00403D3640C4BDB6C03F004037B6026
:1016E0007B68094A084BDB6C43F00103D364064B6B
:1016F000DB6C03F001033B603B6800BF0C37BD4669
:101700005DF8047B704700BF0010024080B588B0D0
:1017100000AF78600023BB6108E028235A2296219D
:10172000B869FFF739FCBB690133BB61BB69262B84
:10173000F3DD204800F0D8FD4FF0FF311D4800F0E8
:101740008DFE1C4800F062FF0346FB82FB8B042BDE
:1017500003D9FB8B053BFB8307E0FB8B002B04D0FD
:10176000FB8B042B01D80023FB83FB8A40F6D86255
:10177000934201D92D23FB83FA8AFB8B07F10C00DE
:101780000D4907F041F907F10C031846FEF720FD5B
:1017900003469AB207F10C016423084805F01CFACD
:1017A000FB8B1846FFF73CFCFFF7DCFC012005F043
:1017B000FDFEBEE7D411002020A30008A81C0020D5
:1017C00080B582B000AF78607B681B68044A9342A2
:1017D00001D100F02FFA00BF0837BD4680BD00BF21
:1017E0000010004080B400AF72B6FEE780B582B052
:1017F00000AF114A104B1B6E43F0010313660E4BF2
:101800001B6E03F001037B607B680B4A0A4B9B6DE8
:1018100043F080539365084B9B6D03F080533B600E
:101820003B6800220F216FF0010001F0DBFC00BFDC
:101830000837BD4680BD00BF0010024080B58AB0A9
:1018400000AF786007F1140300221A605A609A60B2
:10185000DA601A617B681B68154A934223D1154AE6
:10186000144BDB6C43F40053D364124BDB6C03F476
:1018700000533B613B690F4A0E4BDB6C43F00403A2
:10188000D3640C4BDB6C03F00403FB60FB680123A7
:101890007B610B23BB610023FB6107F11403194635
:1018A000054801F001FF00BF2837BD4680BD00BFDD
:1018B00000000450001002400008004880B584B0C9
:1018C00000AF78607B681B681E4A934236D11E4A7F
:1018D0001D4B1B6E43F4006313661B4B1B6E03F41E
:1018E0000063FB60FB68194B194A1A60174B07220B
:1018F0005A60164B10229A60144B0022DA60134B88
:1019000080221A61114B4FF480725A610F4B4FF4D1
:1019100080629A610D4B0022DA610C4B00221A6240
:101920000A4801F089FC0346002B01D0FFF75AFF5B
:101930007B68064A5A62054A7B68936200BF10378B
:10194000BD4680BD002C0140001002400010002068
:101950001C00024080B588B000AF786007F10C032E
:1019600000221A605A609A60DA601A617B681B680C
:10197000124A93421DD1124A114BDB6C43F0010312
:10198000D3640F4BDB6C03F00103BB60BB684FF407
:101990008073FB6002233B6100237B610023BB61FA
:1019A0000123FB6107F10C0319464FF0904001F051
:1019B0007BFE00BF2037BD4680BD00BF002C01402C
:1019C0000010024080B58AB000AF786007F11403C0
:1019D00000221A605A609A60DA601A617B681B689C
:1019E000174A934228D1174A164B9B6D43F4003394
:1019F0009365144B9B6D03F400333B613B69114AC3
:101A0000104BDB6C43F00103D3640E4BDB6C03F033
:101A10000103FB60FB680C237B610223BB61002395
:101A2000FB6103233B6207237B6207F11403194622
:101A30004FF0904001F038FE00BF2837BD4680BD12
:101A4000004400400010024080B58CB000AF7860C8
:101A50000023FB620023BB6200227968362001F07C
:101A6000C1FB362001F0DAFB1E4A1E4B9B6D43F092
:101A7000100393651B4B9B6D03F01003FB60FB6829
:101A800007F1100207F114031146184602F0A2FDF7
:101A900002F074FDF862FB6A134AA2FB03239B0C5D
:101AA000013BBB62114B124A1A60104B40F2E73205
:101AB000DA600E4ABB6A53600C4B00221A610B4B72
:101AC00000229A60094803F0C7FA0346002B04D1AC
:101AD000064803F019FB034600E00123184630379F
:101AE000BD4680BD0010024083DE1B432C1D00203C
:101AF0000010004080B400AFFEE780B400AFFEE706
:101B000080B400AFFEE780B400AFFEE780B400AF62
:101B1000FEE780B400AF00BFBD465DF8047B7047B0
:101B200080B500AF024801F0E0FC00BF80BD00BFFF
:101B30000010002080B500AF024803F0BFFE00BFD8
:101B400080BD00BF2C1D002080B584B000AF786040
:101B5000114B1B68002B02D10F4B104A1A600E4B21
:101B60001B68FB600C4B1A687B6813446A469342FF
:101B700007D906F00BFF02460C2313604FF0FF332A
:101B800006E0054B1A687B681344034A1360FB6840
:101B900018461037BD4680BDE8020020801D002099
:101BA00080B400AF154A154BD3F8883043F4700366
:101BB000C2F88830124A124B1B6843F001031360CD
:101BC0000F4B00229A600E4A0D4B1B6823F0A8535E
:101BD00023F4102313600A4B4FF48052DA60084A52
:101BE000074B1B6823F480231360054B00229A6186
:101BF00000BFBD465DF8047B704700BF00ED00E00C
:101C00000010024080B582B000AF0023FB710320BA
:101C100001F0DDFA0020FFF717FF0346002B02D08A
:101C20000123FB7101E0FFF7E1FDFB79184608375E
:101C3000BD4680BD80B400AF064B1B781A46064BEC
:101C40001B681344044A136000BFBD465DF8047B63
:101C5000704700BF08000020781D002080B400AF4E
:101C6000034B1B681846BD465DF8047B704700BFF8
:101C7000781D002080B483B000AF786039607B6845
:101C80009B6823F47C123B681A437B689A6000BF10
:101C90000C37BD465DF8047B704780B483B000AF5D
:101CA000786039607B689B6823F0E0723B681A4378
:101CB0007B689A6000BF0C37BD465DF8047B7047B7
:101CC00080B483B000AF78607B689B6803F0E073FA
:101CD00018460C37BD465DF8047B704780B487B06A
:101CE00000AFF860B9607A603B60FB6860331A4609
:101CF000BB689B0013447B617B691A68084B1340E7
:101D00007A6802F0F8413A680A43134343F000420C
:101D10007B691A6000BF1C37BD465DF8047B7047C5
:101D200000F0FF0380B485B000AF786039607B6855
:101D300060331A463B689B001344FB60FB681B68DA
:101D400003F0F84318461437BD465DF8047B70472E
:101D500080B487B000AFF860B9607A60FB68603328
:101D60001A46BB689B0013447B617B691B6823F0A8
:101D700000427B681A437B691A6000BF1C37BD466E
:101D80005DF8047B704780B483B000AF78607B68F7
:101D9000DB6803F44063002B01D1012300E0002342
:101DA00018460C37BD465DF8047B704780B487B099
:101DB00000AFF860B9607A60FB6830331A46BB68E0
:101DC0001B0A9B0003F00C0313447B617B691A68B8
:101DD000BB6803F01F031F2101FA03F3DB431A4022
:101DE0007B689B0E03F01F01BB6803F01F0301FA21
:101DF00003F31A437B691A6000BF1C37BD465DF8C8
:101E0000047B704780B487B000AFF860B9607A6037
:101E1000FB6814331A46BB685B0E9B0003F0040397
:101E200013447B617B691A68BB681B0D03F01F03B9
:101E3000072101FA03F3DB431A40BB681B0D03F0D3
:101E40001F03796801FA03F31A437B691A6000BF24
:101E50001C37BD465DF8047B7047000080B485B038
:101E600000AFF860B9607A60FB68D3F8B020BB6857
:101E7000C3F31203DB431A407B6803F018030849DD
:101E8000D940BB680B40C3F312031A43FB68C3F885
:101E9000B02000BF1437BD465DF8047B704700BF1B
:101EA000FFFF070080B483B000AF78607B689B6859
:101EB00003F01F0318460C37BD465DF8047B7047DE
:101EC00080B483B000AF78607B689B6803F46043A4
:101ED00018460C37BD465DF8047B704780B483B06C
:101EE00000AF78607B689B6823F0204323F03F03BA
:101EF0007A68936000BF0C37BD465DF8047B70477D
:101F000080B483B000AF78607B689B6803F00053B7
:101F1000B3F1005F01D1012300E0002318460C3724
:101F2000BD465DF8047B704780B483B000AF786035
:101F30007B689B6823F0104323F03F0343F08052FB
:101F40007B689A6000BF0C37BD465DF8047B704724
:101F500080B483B000AF78607B689B6803F08053E7
:101F6000B3F1805F01D1012300E0002318460C3754
:101F7000BD465DF8047B704780B483B000AF7860E5
:101F80007B689B6823F0004323F03F0343F001028A
:101F90007B689A6000BF0C37BD465DF8047B7047D4
:101FA00080B483B000AF78607B689B6803F0010366
:101FB000012B01D1012300E0002318460C37BD4658
:101FC0005DF8047B704780B483B000AF78607B68B5
:101FD0009B6823F0004323F03F0343F004027B6837
:101FE0009A6000BF0C37BD465DF8047B704780B433
:101FF00083B000AF78607B689B6803F00403042B18
:1020000001D1012300E0002318460C37BD465DF8DE
:10201000047B704780B483B000AF78607B689B68B6
:1020200003F00803082B01D1012300E00023184628
:102030000C37BD465DF8047B7047000090B589B051
:1020400000AF78600023FB770023BB607B68002B28
:1020500001D1012336E17B681B69002B7B685B6D36
:10206000002B09D17868FFF7E9FB7B6800229A65AD
:102070007B68002283F850207B681B681846FFF7B6
:102080003FFF0346002B04D07B681B681846FFF710
:1020900025FF7B681B681846FFF75AFF0346002B95
:1020A00015D17B681B681846FFF73EFF874B1B68FE
:1020B0009B09874AA2FB03239B0901335B00BB609A
:1020C00002E0BB68013BBB60BB68002BF9D17B68B9
:1020D0001B681846FFF73CFF0346002B0DD17B68B9
:1020E0005B6D43F010027B685A657B689B6D43F023
:1020F00001027B689A650123FB777B681B681846A1
:10210000FFF775FF78617B685B6D03F01003002BB0
:1021100040F0CF807B69002B40F0CB807B685B6D0B
:1021200023F4817343F002027B685A657B681B6865
:102130001846FFF735FF0346002B15D16548FFF71A
:102140002FFF04466448FFF72BFF03461C436348F8
:10215000FFF726FF03462343002B05D17B685B680E
:1021600019465F48FFF786FD7B685B7E5A037B68F4
:102170005B6B1A437B68DB681A437B689B681A4376
:102180007B6893F820301B041343BB617B6893F892
:102190002030012B06D17B685B6A013B5B04BA6986
:1021A0001343BB617B689B6A002B09D07B689B6AE9
:1021B00003F470727B68DB6A1343BA691343BB6133
:1021C0007B681A687B681B68D968464B0B40B96905
:1021D0000B43D3607B681B681846FFF708FF386124
:1021E0007B681B681846FFF715FFF8603B69002BFA
:1021F0003DD1FB68002B3AD17B681B7E9A037B683C
:1022000093F830305B001343BB617B681A687B68CE
:102210001B68DB6823F4804323F00203B9690B4396
:10222000D3607B6893F83830012B18D17B681A682B
:102230007B681B681B6923F4FF6323F00403796840
:10224000C86B7968096C08437968496C08437968F8
:10225000896C01430B4343F00103136107E07B6882
:102260001B687A681268126922F001021A617B68A1
:102270001B69012B0CD17B681B687A681268126B92
:1022800022F00F017A68D269013A0A431A6307E023
:102290007B681B687A681268126B22F00F021A635F
:1022A0007B685B6D23F0030343F001027B685A6592
:1022B00007E07B685B6D43F010027B685A65012381
:1022C000FB77FB7F18462437BD4690BD00000020F9
:1022D000632D3E050000045000010450000204502C
:1022E0000003045007C0F0FF80B586B000AF7860EF
:1022F0005748FFF7D7FD38617B681B681846FFF722
:1023000076FE0346002B40F09C807B6893F85030AB
:10231000012B01D1022397E07B68012283F8502032
:10232000786800F071FD0346FB75FB7D002B40F0E3
:1023300083807B685B6D23F4706323F0010343F4B7
:1023400080727B685A657B681B68424A934202D060
:102350007B681B6800E0404B7A681268934202D0A9
:102360003B69002B05D17B685B6D23F480127B6891
:102370005A657B685B6D03F48053B3F5805F06D1CB
:102380007B689B6D23F006027B689A6502E07B68A0
:1023900000229A657B681B681C221A607B680022F9
:1023A00083F850207B681B682A4A934202D07B68DE
:1023B0001B6800E0284B7A681268934208D03B699A
:1023C000002B05D03B69052B02D03B69092B14D1AA
:1023D0007B681B68DB6803F00073002B07D07B6809
:1023E0005B6D23F4405343F480527B685A657B68ED
:1023F0001B681846FFF7E7FD25E07B685B6D43F43B
:1024000080127B685A657B681B68124A934202D02F
:102410007B681B6800E0104BFB60FB68DB6803F027
:102420000073002B0FD07B685B6D23F4405343F4A3
:1024300080527B685A6506E07B68002283F8502052
:1024400001E00223FB75FB7D18461837BD4680BDB1
:1024500000030450000104500000045080B588B00F
:1024600000AF786039606648FFF71CFD78617B68D3
:102470005B69082B02D10823FB612AE07B69002BF2
:1024800005D07B69052B02D07B69092B11D17B68B4
:102490001B68DB6803F00103002B07D07B685B6DD2
:1024A00043F020027B685A650123A4E00423FB610A
:1024B0000FE05348FFF704FD0346002B07D07B686D
:1024C0005B6D43F020027B685A65012393E004238F
:1024D000FB61FFF7C3FB386121E03B68B3F1FF3FCD
:1024E0001DD0FFF7BBFB02463B69D21A3B689A42FC
:1024F00002D83B68002B12D17B681B681A68FB6905
:102500001340002B0BD17B685B6D43F004027B68AA
:102510005A657B68002283F8502003236BE07B68B8
:102520001B681A68FB691340002BD6D07B685B6D73
:1025300043F400727B685A657B681B681846FFF796
:1025400022FC0346002B1CD07B685B7E002B18D13D
:102550007B681B681B6803F00803082B11D17B689C
:102560005B6D23F480727B685A657B685B6D03F456
:102570008053002B05D17B685B6D43F001027B68C3
:102580005A657B681B681F4A934202D07B681B68B0
:1025900000E01D4B7A681268934208D07B69002BDB
:1025A00005D07B69052B02D07B69092B04D17B68A0
:1025B0001B68DB68BB610CE07B681B68114A9342B7
:1025C00002D07B681B6800E00F4BFB60FB68DB6898
:1025D000BB61FB69082B04D17B681B6808221A6069
:1025E00008E0BB6903F48043002B03D17B681B68C0
:1025F0000C221A60002318462037BD4680BD00BF5C
:1026000000030450000104500000045080B483B063
:1026100000AF78607B681B681B6C18460C37BD46A2
:102620005DF8047B7047000080B5B6B000AF7860FD
:102630003960002387F8D7300023FB607B6893F86C
:102640005030012B01D10223C7E37B68012283F8BC
:1026500050207B681B681846FFF7C9FC0346002B17
:1026600040F0A8833B685B68052B24D83B685B6817
:10267000023B032B1BD801A252F823F08D26000841
:10268000952600089D260008A52600083B680C2218
:102690005A6010E03B6812225A600CE03B68182236
:1026A0005A6008E03B684FF480725A6003E03B6870
:1026B00006225A6000BF7B6818683B6859683B680F
:1026C0001B681A46FFF772FB7B681B681846FFF70A
:1026D0008EFCC7F8D0007B681B681846FFF79AFC91
:1026E000C7F8CC00D7F8D030002B40F0A681D7F83F
:1026F000CC30002B40F0A1817B6818683B681968DA
:102700003B689B681A46FFF77DFB3B685A697B680C
:102710001B68DB68DB0803F003035B0002FA03F3CA
:10272000C7F8C8303B681B69042B0AD07B6818685F
:102730003B6819693B681A68D7F8C830FFF7CEFACA
:102740007BE17B681B6800211846FFF7EBFA034624
:10275000C3F31203002B0AD17B681B6800211846C3
:10276000FFF7E0FA03469B0E03F01F021EE07B68B2
:102770001B6800211846FFF7D5FA0346C7F8BC309E
:10278000D7F8BC3093FAA3F3C7F8B830D7F8B8300D
:10279000C7F8C030D7F8C030002B01D1202304E0A7
:1027A000D7F8C030B3FA83F3DBB21A463B681B6834
:1027B000C3F31203002B05D13B681B689B0E03F08B
:1027C0001F0318E03B681B68C7F8B030D7F8B0307B
:1027D00093FAA3F3C7F8AC30D7F8AC30C7F8B430ED
:1027E000D7F8B430002B01D1202304E0D7F8B4305F
:1027F000B3FA83F3DBB29A4206D17B681B680022EE
:1028000000211846FFF7A4FA7B681B6801211846CF
:10281000FFF788FA0346C3F31203002B0AD17B6843
:102820001B6801211846FFF77DFA03469B0E03F053
:102830001F021EE07B681B6801211846FFF772FA31
:102840000346C7F8A430D7F8A43093FAA3F3C7F827
:10285000A030D7F8A030C7F8A830D7F8A830002BA0
:1028600001D1202304E0D7F8A830B3FA83F3DBB218
:102870001A463B681B68C3F31203002B05D13B6863
:102880001B689B0E03F01F0318E03B681B68C7F82A
:102890009830D7F8983093FAA3F3C7F89430D7F864
:1028A0009430C7F89C30D7F89C30002B01D12023FE
:1028B00004E0D7F89C30B3FA83F3DBB29A4206D136
:1028C0007B681B68002201211846FFF741FA7B68EC
:1028D0001B6802211846FFF725FA0346C3F31203CB
:1028E000002B0AD17B681B6802211846FFF71AFAF1
:1028F00003469B0E03F01F021EE07B681B6802214B
:102900001846FFF70FFA0346C7F88C30D7F88C301B
:1029100093FAA3F3C7F88830D7F88830C7F8903017
:10292000D7F89030002B01D1202304E0D7F8903065
:10293000B3FA83F3DBB21A463B681B68C3F3120396
:10294000002B05D13B681B689B0E03F01F0316E0AC
:102950003B681B68C7F88030D7F8803093FAA3F340
:10296000FB67FB6FC7F88430D7F88430002B01D1A8
:10297000202304E0D7F88430B3FA83F3DBB29A4221
:1029800006D17B681B68002202211846FFF7E0F998
:102990007B681B6803211846FFF7C4F90346C3F39D
:1029A0001203002B0AD17B681B6803211846FFF72E
:1029B000B9F903469B0E03F01F0217E07B681B6802
:1029C00003211846FFF7AEF903467B677B6F93FA46
:1029D000A3F33B673B6FBB67BB6F002B01D1202389
:1029E00003E0BB6FB3FA83F3DBB21A463B681B68A4
:1029F000C3F31203002B05D13B681B689B0E03F049
:102A00001F0311E03B681B68BB66BB6E93FAA3F320
:102A10007B667B6EFB66FB6E002B01D1202303E0FF
:102A2000FB6EB3FA83F3DBB29A4206D17B681B6874
:102A3000002203211846FFF78BF97B681B681846B4
:102A4000FFF7AEFA0346002B40F040817B68186820
:102A50003B6819683B68DB681A46FFF7FFF93B687B
:102A6000DB688F4A934240F031817B6818683B688D
:102A70001B68C3F31203002B0BD13B681B689B0E32
:102A8000013303F01F03092B94BF01230023DBB2A2
:102A900019E03B681B68FB65FB6D93FAA3F3BB650C
:102AA000BB6D3B663B6E002B01D1202303E03B6EE8
:102AB000B3FA83F3DBB2013303F01F03092B94BF96
:102AC00001230023DBB2002B79D03B681B68C3F3E2
:102AD0001203002B07D13B681B689B0E01339B063A
:102AE00003F0F84215E03B681B683B653B6D93FAC9
:102AF000A3F3FB64FB6C7B657B6D002B01D1202372
:102B000003E07B6DB3FA83F3DBB201339B0603F082
:102B1000F8423B681B68C3F31203002B09D13B68E2
:102B20001B689B0E013303F01F03012101FA03F31D
:102B300017E03B681B687B647B6C93FAA3F33B64F0
:102B40003B6CBB64BB6C002B01D1202303E0BB6C4E
:102B5000B3FA83F3DBB2013303F01F03012101FA5F
:102B600003F342EA03013B681B68C3F31203002B23
:102B70000AD13B681B689B0E013303F01F0213460A
:102B80005B0013441B0518E03B681B68BB63BB6B11
:102B900093FAA3F37B637B6BFB63FB6B002B01D18D
:102BA000202303E0FB6BB3FA83F3DBB2013303F0C2
:102BB0001F0213465B0013441B050B4381E03B6877
:102BC0001B68C3F31203002B07D13B681B689B0EE5
:102BD00001339B0603F0F84215E03B681B68FB627B
:102BE000FB6A93FAA3F3BB62BB6A3B633B6B002BAC
:102BF00001D1202303E03B6BB3FA83F3DBB2013353
:102C00009B0603F0F8423B681B68C3F31203002BDA
:102C100009D13B681B689B0E013303F01F030121A0
:102C200001FA03F317E03B681B683B623B6A93FAC7
:102C3000A3F3FB61FB697B627B6A002B01D120233C
:102C400003E07B6AB3FA83F3DBB2013303F01F03C3
:102C5000012101FA03F342EA03013B681B68C3F355
:102C60001203002B0DD13B681B689B0E013303F050
:102C70001F0213465B0013441E3B1B0543F0007309
:102C80001EE03B681B687B617B6993FAA3F33B61A1
:102C90003B69BB61BB69002B04D1202306E000BF68
:102CA00000007F40BB69B3FA83F3DBB2013303F06A
:102CB0001F0213465B0013441E3B1B0543F00073C9
:102CC0000B433A6892681946FFF79CF83B681A680C
:102CD000444B1340002B7AD04348FEF7F1FFC7F86E
:102CE000C4003B681B68414A93422CD1D7F8C430DA
:102CF00003F40003002B26D17B681B683C4A9342F7
:102D000004D07B681B683B4A93425DD1D7F8C4303E
:102D100043F4000319463448FEF7BFFF364B1B68E7
:102D20009B09364AA2FB03239B095A1C13465B00EE
:102D300013449B00FB6002E0FB68013BFB60FB6807
:102D4000002BF9D140E03B681B682D4A934218D113
:102D5000D7F8C43003F08073002B12D17B681B6856
:102D6000234A934204D07B681B68224A93422DD1A8
:102D7000D7F8C43043F0807319461B48FEF78DFF27
:102D800024E03B681B681F4A934220D1D7F8C43027
:102D900003F48003002B1AD17B681B68144A93420A
:102DA00015D1D7F8C43043F4800319460E48FEF716
:102DB00074FF0CE07B685B6D43F020027B685A6512
:102DC000012387F8D73002E000BF00E000BF7B6836
:102DD000002283F8502097F8D7301846D837BD46E0
:102DE00080BD00BF0000088000030450000052C7EF
:102DF000000004500002045000000020632D3E0536
:102E0000000084CB0100008080B584B000AF786002
:102E10007B681B681846FFF7C3F80346002B4DD1AB
:102E20007B681B689A68284B1340002B0DD07B6889
:102E30005B6D43F010027B685A657B689B6D43F0C5
:102E400001027B689A65012339E07B681B6818469C
:102E5000FFF792F8FEF702FFF86028E07B681B6836
:102E60001846FFF79DF80346002B04D17B681B68CA
:102E70001846FFF781F8FEF7F1FE0246FB68D31A09
:102E8000022B14D97B681B681B6803F00103012B1C
:102E90000DD07B685B6D43F010027B685A657B68E0
:102EA0009B6D43F001027B689A65012307E07B6814
:102EB0001B681B6803F00103012BCFD100231846C8
:102EC0001037BD4680BD00BF3F00008080B483B096
:102ED00000AF78607B689B6803F00103012B01D190
:102EE000012300E0002318460C37BD465DF8047B43
:102EF000704780B483B000AF78607B689B6803F054
:102F00000403042B01D1012300E0002318460C37F1
:102F1000BD465DF8047B704790B59FB000AF786008
:102F20003960002387F877307B6893F85030012BA5
:102F300001D1022393E07B68012283F85020002313
:102F4000FB6500233B667B681B68474A934202D1BE
:102F5000464BBB6001E00023BB60BB68002B0BD17C
:102F60007B685B6D43F020027B685A657B680022BA
:102F700083F85020012372E0BB681846FFF7B9FFC1
:102F800038677B681B681846FFF7B3FF0346002BC2
:102F900054D13B6F002B51D1354BFB663B681B680E
:102FA000002B2CD0FB6E9B6823F460423B68596871
:102FB0007B6893F830305B030B431A43FB6E9A60D7
:102FC0002948FFF783FF04462848FFF77FFF0346A1
:102FD0001C432848FFF77AFF03462343002B37D1D1
:102FE000FB6E9B6823F4716323F00F033A6811684A
:102FF0003A6892680A431A43FB6E9A6028E0FB6EB7
:103000009B6823F46042FB6E9A601748FFF75EFFEF
:1030100004461648FFF75AFF03461C431548FFF7BE
:1030200055FF03462343002B12D1FB6E9B6823F40C
:10303000716323F00F03FA6E936009E07B685B6DA8
:1030400043F020027B685A65012387F8773000E05F
:1030500000BF7B68002283F8502097F8773018462D
:103060007C37BD4690BD00BF0000045000010450F5
:10307000000304500002045080B485B000AF7860B3
:103080007B6803F00703FB600C4BDB68BB60BA682E
:103090004FF6FF031340BB60FB681A02BB68134383
:1030A00043F0BF6343F40033BB60044ABB68D360A2
:1030B00000BF1437BD465DF8047B704700ED00E0AB
:1030C00080B400AF044BDB681B0A03F0070318460B
:1030D000BD465DF8047B704700ED00E080B483B02E
:1030E00000AF0346FB7197F90730002B0BDB094952
:1030F00097F907305B09FA7902F01F02012000FA04
:1031000002F241F8232000BF0C37BD465DF8047B76
:10311000704700BF00E100E080B483B000AF034619
:103120003960FB7197F90730002B0ADB0D4997F9DD
:1031300007303A68D2B21201D2B20B4483F80023AE
:103140000AE00949FB7903F00F03043B3A68D2B265
:103150001201D2B20B441A7600BF0C37BD465DF89F
:10316000047B704700E100E000ED00E080B489B02E
:1031700000AFF860B9607A60FB6803F00703FB6199
:10318000FB69C3F10703042B28BF0423BB61FB6960
:103190000433062B02D9FB69033B00E000237B616B
:1031A0000122BB6902FA03F35A1EBB681A407B690D
:1031B0009A4001217B6901FA03F3591E7B680B4099
:1031C000134318462437BD465DF8047B704780B52D
:1031D00082B000AF78607868FFF74EFF00BF083715
:1031E000BD4680BD80B586B000AF0346B9607A6049
:1031F000FB7300237B61FFF763FF78617A68B9682E
:103200007869FFF7B3FF024697F90F301146184669
:10321000FFF782FF00BF1837BD4680BD80B582B082
:1032200000AF0346FB7197F907301846FFF756FFCA
:1032300000BF0837BD4680BD80B485B000AF786060
:103240007B68002B01D1012398E07B681B681A463C
:103250004D4B9A420FD87B681B681A464B4B134460
:103260004B4AA2FB03231B099A007B685A647B68C4
:10327000484A1A640EE07B681B681A46464B1344A2
:10328000434AA2FB03231B099A007B685A647B68AC
:10329000424A1A647B68022283F825207B681B68F7
:1032A0001B68FB60FB6823F4FF4323F07003FB60A3
:1032B0007B689A687B68DB681A437B681B691A43E2
:1032C0007B685B691A437B689B691A437B68DB698F
:1032D0001A437B681B6A1343FA681343FB607B68DD
:1032E0001B68FA681A607B689B68B3F5804F39D019
:1032F0007B681B6C274A93421AD12949284B1A68CC
:103300007B685B6C03F01C030F2000FA03F3DB43C4
:1033100013400B602248224B1A687B6859687B680F
:103320005B6C03F01C0301FA03F31343036019E021
:103330001C491C4B1A687B685B6C03F01C030F2054
:1033400000FA03F3DB4313400B601648154B1A6871
:103350007B6859687B685B6C03F01C0301FA03F31C
:10336000134303607B680022DA637B68012283F8E1
:1033700025207B68002283F8242000231846143778
:10338000BD465DF8047B704707040240F8FFFDBFAF
:10339000CDCCCCCC00000240F8FBFDBF00040240C5
:1033A000A8000240A804024080B586B000AFF860D3
:1033B000B9607A603B600023FB75FB6893F82430AA
:1033C000012B01D102234BE0FB68012283F824206A
:1033D000FB6893F82530DBB2012B3AD1FB6802225F
:1033E00083F82520FB680022DA63FB681B68FA6813
:1033F0001268126822F001021A603B687A68B968A4
:10340000F86800F021F9FB681B6B002B08D0FB6803
:103410001B68FA681268126842F00E021A600FE028
:10342000FB681B68FA681268126822F004021A60CE
:10343000FB681B68FA681268126842F00A021A6098
:10344000FB681B68FA681268126842F001021A6091
:1034500005E0FB68002283F824200223FB75FB7D36
:1034600018461837BD4680BD80B584B000AF78607F
:103470000023FB737B6893F82530DBB2022B05D069
:103480007B680422DA630123FB7329E07B681B68F5
:103490007A681268126822F00E021A607B681B6854
:1034A0007A681268126822F001021A607B681B6C4D
:1034B0007A68526C02F01C02012101FA02F25A6091
:1034C0007B68012283F825207B68002283F8242072
:1034D0007B689B6B002B03D07B689B6B786898475D
:1034E000FB7B18461037BD4680BD80B584B000AF69
:1034F00078607B681B6C1B68FB607B681B681B68C3
:10350000BB607B685B6C03F01C0304229A40FB6881
:103510001340002B26D0BB6803F00403002B21D0FE
:103520007B681B681B6803F02003002B07D17B68B6
:103530001B687A681268126822F004021A607B68BD
:103540001B6C7A68526C02F01C02042101FA02F230
:103550005A607B681B6B002B71D07B681B6B786893
:1035600098476CE07B685B6C03F01C0302229A4076
:10357000FB681340002B2ED0BB6803F00203002B26
:1035800029D07B681B681B6803F02003002B0BD13C
:103590007B681B687A681268126822F00A021A6057
:1035A0007B68012283F825207B681B6C7A68526C4B
:1035B00002F01C02022101FA02F25A607B6800222A
:1035C00083F824207B68DB6A002B38D07B68DB6AB9
:1035D0007868984733E07B685B6C03F01C03082233
:1035E0009A40FB681340002B2AD0BB6803F0080305
:1035F000002B25D07B681B687A681268126822F05D
:103600000E021A607B681B6C7A68526C02F01C0216
:10361000012101FA02F25A607B680122DA637B68B9
:10362000012283F825207B68002283F824207B6810
:103630005B6B002B04D07B685B6B7868984700BF9E
:1036400000BF1037BD4680BD80B485B000AFF860C4
:10365000B9607A603B60FB681B6CFA68526C02F0E0
:103660001C02012101FA02F25A60FB681B683A68E9
:103670005A60FB689B68102B08D1FB681B687A684E
:103680009A60FB681B68BA68DA6007E0FB681B6831
:10369000BA689A60FB681B687A68DA6000BF143702
:1036A000BD465DF8047B704780B487B000AF78609A
:1036B000396000237B617FE13B681A6801217B69E7
:1036C00001FA03F31340FB60FB68002B00F07181EB
:1036D0003B685B68012B0BD03B685B68022B07D013
:1036E0003B685B68112B03D03B685B68122B30D1C1
:1036F0007B689B683B617B695B00032202FA03F3F2
:10370000DB433A6913403B613B68DA687B695B00E5
:1037100002FA03F33A6913433B617B683A699A60A2
:103720007B685B683B6101227B6902FA03F3DB4340
:103730003A6913403B613B685B681B0903F0010277
:103740007B6902FA03F33A6913433B617B683A6988
:103750005A603B685B6803F00303032B18D17B6856
:10376000DB6A3B6101227B6902FA03F3DB433A69BE
:1037700013403B613B685B68DB0803F001027B6937
:1037800002FA03F33A6913433B617B683A69DA62F0
:103790007B68DB683B617B695B00032202FA03F311
:1037A000DB433A6913403B613B689A687B695B0085
:1037B00002FA03F33A6913433B617B683A69DA60C2
:1037C0003B685B68022B03D03B685B68122B23D1FC
:1037D0007B69DA087B68083253F822303B617B69E9
:1037E00003F007039B000F2202FA03F3DB433A695D
:1037F00013403B613B681A697B6903F007039B0038
:1038000002FA03F33A6913433B617B69DA087B6888
:103810000832396943F822107B681B683B617B6979
:103820005B00032202FA03F3DB433A6913403B6176
:103830003B685B6803F003027B695B0002FA03F3F9
:103840003A6913433B617B683A691A603B685B687D
:1038500003F08053002B00F0AC805E4A5D4B1B6E82
:1038600043F0010313665B4B1B6E03F00103BB6067
:10387000BB68594A7B699B08023352F823303B618D
:103880007B6903F003039B000F2202FA03F3DB437F
:103890003A6913403B617B68B3F1904F25D07B6858
:1038A0004E4A93421FD07B684D4A934219D07B68A1
:1038B0004C4A934213D07B684B4A93420DD07B68AD
:1038C0004A4A934207D07B68494A934201D1062372
:1038D0000CE007230AE0052308E0042306E00323A5
:1038E00004E0022302E0012300E000237A6902F0F1
:1038F0000302920093403A6913433B6136497B6966
:103900009B0802333A6941F823203A4B1B683B611C
:10391000FB68DB433A6913403B613B685B6803F437
:103920008033002B03D03A69FB6813433B61314A73
:103930003B6913602F4B5B683B61FB68DB433A6973
:1039400013403B613B685B6803F40033002B03D0FA
:103950003A69FB6813433B61264A3B695360254B38
:103960009B683B61FB68DB433A6913403B613B6802
:103970005B6803F48013002B03D03A69FB681343A0
:103980003B611C4A3B6993601A4BDB683B61FB68F7
:10399000DB433A6913403B613B685B6803F4001307
:1039A000002B03D03A69FB6813433B61114A3B6922
:1039B000D3607B6901337B613B681A687B6922FABB
:1039C00003F3002B7FF478AE00BF1C37BD465DF8D3
:1039D000047B7047001002400000014000040048D2
:1039E00000080048000C004800100048001400487F
:1039F000001800480004014080B400AF044B1B686D
:103A000003F4C0631846BD465DF8047B704700BFF1
:103A10000070004080B485B000AF78607B68B3F57B
:103A2000007F30D1234B1B6803F4C063B3F5007FE4
:103A300038D0204A1F4B1B6823F4C06343F4007343
:103A400013601D4B1B68322202FB03F31B4AA2FBCF
:103A500003239B0C0133FB6002E0FB68013BFB602E
:103A6000144B5B6903F48063B3F5806F02D1FB688C
:103A7000002BF2D10F4B5B6903F48063B3F5806FC9
:103A800010D103230FE00B4B1B6803F4C063B3F5A5
:103A9000806F07D0074A074B1B6823F4C06343F4C9
:103AA00080631360002318461437BD465DF8047B1D
:103AB000704700BF007000400000002083DE1B4301
:103AC00080B588B000AF78607B68002B01D10123FE
:103AD000D4E3A14B9B6803F00C03BB619E4BDB68F6
:103AE00003F003037B617B681B6803F01003002B6A
:103AF00000F0E480BB69002B07D0BB690C2B40F0C1
:103B00008B807B69012B40F08780934B1B6803F00F
:103B10000203002B05D07B689B69002B01D1012398
:103B2000ACE37B681A6A8C4B1B6803F00803002B1C
:103B300004D0894B1B6803F0F00305E0864BD3F8F3
:103B400094301B0903F0F0039A4223D97B681B6A67
:103B5000184600F071FD0346002B01D001238DE3D0
:103B60007D4A7D4B1B6843F0080313607A497A4B0A
:103B70001B6823F0F0027B681B6A13430B607649D5
:103B8000754B5B6823F47F427B68DB691B02134340
:103B90004B6025E0704A704B1B6843F008031360CC
:103BA0006D496D4B1B6823F0F0027B681B6A134361
:103BB0000B606949684B5B6823F47F427B68DB6973
:103BC0001B0213434B60BB69002B09D17B681B6A46
:103BD000184600F031FD0346002B01D001234DE3D0
:103BE00000F036FC01465C4B9B681B0903F00F0399
:103BF0005A4AD35C03F01F0321FA03F3584A1360B7
:103C0000584B1B681846FDF71FFF0346FB73FB7BF1
:103C1000002B52D0FB7B31E37B689B69002B32D0B9
:103C20004D4A4D4B1B6843F001031360FEF716F835
:103C3000386108E0FEF712F802463B69D31A022BFE
:103C400001D903231AE3444B1B6803F00203002B42
:103C5000F0D0414A404B1B6843F0080313603E49D3
:103C60003D4B1B6823F0F0027B681B6A13430B601B
:103C70003949394B5B6823F47F427B68DB691B025F
:103C800013434B601AE0344A334B1B6823F00103A3
:103C90001360FDF7E3FF386108E0FDF7DFFF024640
:103CA0003B69D31A022B01D90323E7E22A4B1B6895
:103CB00003F00203002BF0D100E000BF7B681B681B
:103CC00003F00103002B74D0BB69082B05D0BB693E
:103CD0000C2B0ED17B69032B0BD11F4B1B6803F4FC
:103CE0000033002B64D07B685B68002B60D101231C
:103CF000C4E27B685B68B3F5803F06D1164A164B79
:103D00001B6843F4803313601DE07B685B68B3F588
:103D1000A02F0CD1104A104B1B6843F48023136072
:103D20000D4A0D4B1B6843F4803313600BE00A4AC5
:103D3000094B1B6823F480331360074A064B1B684A
:103D400023F4802313607B685B68002B1CD0FDF795
:103D500085FF386111E000BF0010024034A3000865
:103D60000000002004000020FDF778FF02463B69B8
:103D7000D31A642B01D9032380E2AF4B1B6803F4F1
:103D80000033002BF0D014E0FDF768FF386108E045
:103D9000FDF764FF02463B69D31A642B01D9032364
:103DA0006CE2A54B1B6803F40033002BF0D100E05C
:103DB00000BF7B681B6803F00203002B60D0BB6967
:103DC000042B05D0BB690C2B19D17B69022B16D1B2
:103DD000994B1B6803F48063002B05D07B68DB687C
:103DE000002B01D1012349E29349934B5B6823F0F7
:103DF000F8527B681B691B0613434B6040E07B68ED
:103E0000DB68002B23D08C4A8B4B1B6843F48073F8
:103E10001360FDF723FF386108E0FDF71FFF02463E
:103E20003B69D31A022B01D9032327E2824B1B687B
:103E300003F48063002BF0D07F497F4B5B6823F055
:103E4000F8527B681B691B0613434B6018E07A4AE3
:103E5000794B1B6823F480731360FDF7FFFE386114
:103E600008E0FDF7FBFE02463B69D31A022B01D99D
:103E7000032303E2704B1B6803F48063002BF0D133
:103E80007B681B6803F00803002B3CD07B685B69F0
:103E9000002B1CD0684A684BD3F8943043F00103E0
:103EA000C2F89430FDF7DAFE386108E0FDF7D6FE7F
:103EB00002463B69D31A022B01D90323DEE15E4B94
:103EC000D3F8943003F00203002BEFD01BE05A4AE2
:103ED000594BD3F8943023F00103C2F89430FDF726
:103EE000BDFE386108E0FDF7B9FE02463B69D31A12
:103EF000022B01D90323C1E14F4BD3F8943003F0D7
:103F00000203002BEFD17B681B6803F00403002B36
:103F100000F0A6800023FB77474B9B6D03F0805396
:103F2000002B0DD1444A444B9B6D43F08053936565
:103F3000414B9B6D03F08053BB60BB680123FB7753
:103F40003E4B1B6803F48073002B18D13B4A3B4B5C
:103F50001B6843F480731360FDF780FE386108E04E
:103F6000FDF77CFE02463B69D31A022B01D90323DD
:103F700084E1324B1B6803F48073002BF0D07B6824
:103F80009B68012B08D12C4A2B4BD3F8903043F07F
:103F90000103C2F8903024E07B689B68052B10D1A8
:103FA000254A254BD3F8903043F00403C2F89030F3
:103FB000214A214BD3F8903043F00103C2F89030EE
:103FC0000FE01D4A1C4BD3F8903023F00103C2F8D8
:103FD0009030194A184BD3F8903023F00403C2F8FC
:103FE00090307B689B68002B16D0FDF737FE386158
:103FF0000AE0FDF733FE02463B69D31A41F28832EC
:10400000934201D9032339E10B4BD3F8903003F0ED
:104010000203002BEDD01AE0FDF720FE38610FE01F
:10402000FDF71CFE02463B69D31A41F288329342E7
:1040300006D9032322E100BF0010024000700040B7
:10404000904BD3F8903003F00203002BE8D1FB7FB4
:10405000012B05D18B4A8B4B9B6D23F080539365CD
:104060007B689B6A002B00F008817B689B6A022BAF
:1040700040F0D080834BDB687B617B6903F00302F7
:104080007B68DB6A9A4230D17B6903F070027B68FF
:104090001B6B013B1B019A4227D17B6903F4FE4253
:1040A0007B685B6B1B029A421FD17B6903F4003370
:1040B0007A68926B072A14BF01220022D2B293427F
:1040C00013D17B6903F4C0027B68DB6B5B08013BA7
:1040D0005B059A4209D17B6903F0C0627B681B6C67
:1040E0005B08013B5B069A426ED0BB690C2B69D022
:1040F000644B1B6803F08063002B05D1614B1B6888
:1041000003F08053002B01D00123B7E05D4A5D4BE3
:104110001B6823F080731360FDF7A0FD386108E091
:10412000FDF79CFD02463B69D31A022B01D90323FC
:10413000A4E0544B1B6803F00073002BF0D15148EE
:10414000504BDA68504B13407A68D16A7A68126B28
:10415000013A120111437A68526B120211437A68D4
:10416000D26B5208013A520511437A68126C520818
:10417000013A520611437A68926B120952040A43BB
:104180001343C3603F4A3F4B1B6843F08073136087
:104190003C4A3C4BDB6843F08073D360FDF75EFD27
:1041A000386108E0FDF75AFD02463B69D31A022B3D
:1041B00001D9032362E0334B1B6803F00073002B2B
:1041C000F0D05AE0012359E02E4B1B6803F0007336
:1041D000002B52D12B4A2B4B1B6843F0807313608A
:1041E000284A284BDB6843F08073D360FDF736FD27
:1041F000386108E0FDF732FD02463B69D31A022B15
:1042000001D903233AE01F4B1B6803F00073002B16
:10421000F0D032E0BB690C2B2DD01A4A194B1B6829
:1042200023F080731360174B1B6803F02053002B9F
:1042300005D1144A134BDB6823F00303D360114A02
:10424000104BDB6823F0887323F48033D360FDF7D1
:1042500005FD386108E0FDF701FD02463B69D31A10
:10426000022B01D9032309E0064B1B6803F00073FE
:10427000002BF0D101E0012300E000231846203795
:10428000BD4680BD001002408C809DF980B584B091
:1042900000AF786039607B68002B01D10123C8E052
:1042A000664B1B6803F007023B689A4210D26349D1
:1042B000624B1B6823F007023B6813430B605F4BA4
:1042C0001B6803F007023B689A4201D00123B0E06B
:1042D0007B681B6803F00103002B4CD07B685B6894
:1042E000032B07D1564B1B6803F00073002B21D121
:1042F00001239EE07B685B68022B07D1504B1B6853
:1043000003F40033002B15D1012392E07B685B6836
:10431000002B07D14A4B1B6803F00203002B09D185
:10432000012386E0464B1B6803F48063002B01D118
:1043300001237EE04249424B9B6823F003027B68E5
:104340005B6813438B60FDF789FCF8600AE0FDF7BA
:1043500085FC0246FB68D31A41F28832934201D9A8
:10436000032366E0364B9B6803F00C027B685B68B6
:104370009B009A42EBD17B681B6803F00203002B81
:1043800008D02F492E4B9B6823F0F0027B689B6876
:1043900013438B60294B1B6803F007023B689A426A
:1043A00010D92649254B1B6823F007023B681343AD
:1043B0000B60224B1B6803F007023B689A4201D056
:1043C000012336E07B681B6803F00403002B08D050
:1043D0001B491B4B9B6823F4E0627B68DB6813433B
:1043E0008B607B681B6803F00803002B09D014491D
:1043F000134B9B6823F460527B681B69DB001343FB
:104400008B6000F025F801460D4B9B681B0903F0FB
:104410000F030C4AD35C03F01F0321FA03F30A4A8B
:1044200013600A4B1B681846FDF70EFB0346FB7230
:10443000FB7A18461037BD4680BD00BF0020024001
:104440000010024034A300080000002004000020F7
:1044500080B489B000AF0023FB610023BB613D4BFA
:104460009B6803F00C033B613A4BDB6803F00303EA
:10447000FB603B69002B05D03B690C2B21D1FB680D
:10448000012B1ED1334B1B6803F00803002B07D10F
:10449000304BD3F894301B0A03F00F03FB6105E0A7
:1044A0002C4B1B681B0903F00F03FB612A4AFB69B5
:1044B00052F82330FB613B69002B0DD1FB69BB61D6
:1044C0000AE03B69042B02D1244BBB6104E03B6949
:1044D000082B01D1224BBB613B690C2B33D11D4B07
:1044E000DB6803F00303BB60BB68022B02D0032B25
:1044F00003D005E0194B7B6105E0194B7B6102E0BD
:10450000FB697B6100BF134BDB681B0903F00703EA
:1045100001337B600F4BDB681B0A03F07F037A6972
:1045200002FB03F27B68B2FBF3F37B61094BDB68B0
:104530005B0E03F0030301335B003B607A693B6869
:10454000B2FBF3F3BB61BB6918462437BD465DF887
:10455000047B7047001002404CA300080024F400C4
:1045600000127A0080B400AF034B1B681846BD46AA
:104570005DF8047B704700BF0000002080B500AFED
:10458000FFF7F0FF0146064B9B681B0A03F0070389
:10459000044AD35C03F01F0321FA03F3184680BDDD
:1045A0000010024044A3000880B500AFFFF7DAFF17
:1045B0000146064B9B68DB0A03F00703044AD35C01
:1045C00003F01F0321FA03F3184680BD00100240D8
:1045D00044A3000880B483B000AF786039607B6882
:1045E0000F221A60124B9B6803F003027B685A602B
:1045F0000F4B9B6803F0F0027B689A600C4B9B6842
:1046000003F4E0627B68DA60094B9B68DB0803F423
:10461000E0627B681A61074B1B6803F007023B6886
:104620001A6000BF0C37BD465DF8047B704700BFC1
:10463000001002400020024080B586B000AF7860D4
:1046400000233B612A4B9B6D03F08053002B03D06A
:10465000FFF7D2F9786114E0254A254B9B6D43F0B2
:1046600080539365224B9B6D03F08053FB60FB6886
:10467000FFF7C2F978611E4A1D4B9B6D23F08053F2
:1046800093657B69B3F5007F0BD17B68802B19D9CB
:104690007B68A02B02D902233B6113E001233B611D
:1046A00010E07B68802B02D903233B610AE07B6822
:1046B000802B02D102233B6104E07B68702B01D187
:1046C00001233B610B490B4B1B6823F007023B693D
:1046D00013430B60074B1B6803F007023B699A42C8
:1046E00001D0012300E0002318461837BD4680BDE5
:1046F000001002400020024080B586B000AF786014
:104700000023FB740023BB747B681B6803F4006305
:10471000002B3FD07B685B6EB3F5800F1CD0B3F5E8
:10472000800F02D8002B0ED01FE0B3F5000F03D08E
:10473000B3F5400F1CD018E0854A854BDB6843F485
:104740008033D36015E07B6804330021184600F005
:10475000B9FA0346FB740CE07B682033002118464D
:1047600000F0A0FB0346FB7403E00123FB7400E0B0
:1047700000BFFB7C002B0BD17549754BD3F88830FB
:1047800023F440027B685B6E1343C1F8883001E07C
:10479000FB7CBB747B681B6803F48053002B3FD009
:1047A0007B689B6EB3F1807F1CD0B3F1807F02D811
:1047B000002B0ED01FE0B3F1007F03D0B3F1407F98
:1047C0001CD018E0624A624BDB6843F48033D3604C
:1047D00015E07B6804330021184600F073FA0346A5
:1047E000FB740CE07B6820330021184600F05AFB74
:1047F0000346FB7403E00123FB7400E000BFFB7C75
:10480000002B0BD15249524BD3F8883023F0407221
:104810007B689B6E1343C1F8883001E0FB7CBB745E
:104820007B681B6803F40033002B00F0A08000239A
:104830007B74474B9B6D03F08053002B01D1012308
:1048400000E00023002B0DD0414A414B9B6D43F00B
:10485000805393653E4B9B6D03F08053BB60BB68F8
:1048600001237B743B4A3B4B1B6843F4807313600A
:10487000FDF7F4F9F86009E0FDF7F0F90246FB688E
:10488000D31A022B02D90323FB7405E0314B1B68BA
:1048900003F48073002BEFD0FB7C002B5CD12C4BFE
:1048A000D3F8903003F440737B617B69002B1FD0F9
:1048B0007B68D3F884207B699A4219D0244BD3F8C3
:1048C000903023F440737B61214A214BD3F8903020
:1048D00043F48033C2F890301D4A1D4BD3F890301A
:1048E00023F48033C2F89030194A7B69C2F89030C3
:1048F0007B6903F00103002B16D0FDF7AFF9F860D8
:104900000BE0FDF7ABF90246FB68D31A41F288329F
:10491000934202D90323FB7406E00D4BD3F8903089
:1049200003F00203002BECD0FB7C002B0CD10849D8
:10493000074BD3F8903023F440727B68D3F884306F
:104940001343C1F8903009E0FB7CBB7406E000BF64
:104950000010024000700040FB7CBB747B7C012B8C
:1049600005D19E4A9D4B9B6D23F0805393657B68D8
:104970001B6803F00103002B0AD09849974BD3F82A
:10498000883023F003027B689B6B1343C1F88830A7
:104990007B681B6803F00203002B0AD08F498F4B02
:1049A000D3F8883023F00C027B68DB6B1343C1F82B
:1049B00088307B681B6803F00403002B0AD087490A
:1049C000864BD3F8883023F030027B681B6C13438E
:1049D000C1F888307B681B6803F00803002B0AD0FD
:1049E0007E497E4BD3F8883023F0C0027B685B6C35
:1049F0001343C1F888307B681B6803F01003002B59
:104A00000AD07649754BD3F8883023F440727B681E
:104A10009B6C1343C1F888307B681B6803F020034C
:104A2000002B0AD06D496D4BD3F8883023F44062D7
:104A30007B68DB6C1343C1F888307B681B6803F428
:104A40000073002B0AD06549644BD3F8883023F4F7
:104A500040227B68DB6D1343C1F888307B681B689C
:104A600003F48063002B0AD05C495C4BD3F8883098
:104A700023F440127B681B6E1343C1F888307B68B7
:104A80001B6803F04003002B0AD05449534BD3F862
:104A9000883023F440527B681B6D1343C1F8883083
:104AA0007B681B6803F08003002B0AD04B494B4BFB
:104AB000D3F8883023F440427B685B6D1343C1F820
:104AC00088307B681B6803F48073002B0AD043494D
:104AD000424BD3F8883023F440327B689B6D1343FC
:104AE000C1F888307B681B6803F40053002B28D082
:104AF0003A493A4BD3F8883023F040627B68DB6E4A
:104B00001343C1F888307B68DB6EB3F1006F06D1C8
:104B1000324A324BDB6843F48013D36011E07B6888
:104B2000DB6EB3F1806F0CD17B6804330121184632
:104B300000F0C8F80346FB74FB7C002B01D0FB7C23
:104B4000BB747B681B6803F40023002B28D0234927
:104B5000224BD3F8883023F040627B681B6F1343ED
:104B6000C1F888307B681B6FB3F1006F06D11B4A18
:104B70001A4BDB6843F48013D36011E07B681B6F32
:104B8000B3F1806F0CD17B6804330121184600F02B
:104B900099F80346FB74FB7C002B01D0FB7CBB74B3
:104BA0007B681B6803F48023002B2BD00B490B4B35
:104BB000D3F8883023F040627B685B6F1343C1F801
:104BC00088307B685B6FB3F1006F09D1034A034BF8
:104BD000DB6843F48013D36014E000BF0010024090
:104BE0007B685B6FB3F1806F0CD17B68043301216C
:104BF000184600F067F80346FB74FB7C002B01D0DD
:104C0000FB7CBB747B681B6803F48043002B2FD0B4
:104C10002B492B4BD3F8883023F040527B689B6F95
:104C20001343C1F888307B689B6FB3F1805F0DD16F
:104C30007B6804330221184600F044F80346FB74F5
:104C4000FB7C002B14D0FB7CBB7411E07B689B6F5A
:104C5000B3F1005F0CD17B6820330221184600F0CD
:104C600021F90346FB74FB7C002B01D0FB7CBB7459
:104C70007B681B6803F40043002B0AD01049104BDB
:104C8000D3F8883023F080427B68DB6F1343C1F890
:104C900088307B681B6803F48033002B0BD00849F5
:104CA000074BD3F8883023F000427B68D3F880307C
:104CB0001343C1F88830BB7C18461837BD4680BD09
:104CC0000010024080B584B000AF786039600023E6
:104CD000FB73734BDB6803F00303002B18D0704B9E
:104CE000DB6803F003027B681B689A420DD17B6886
:104CF0001B68002B09D06A4BDB681B0903F0070314
:104D00005A1C7B685B689A4244D00123FB7341E0E4
:104D10007B681B68022B0CD0032B13D0012B20D1F6
:104D20005F4B1B6803F00203002B1DD10123FB73B3
:104D30001AE05B4B1B6803F48063002B16D1012340
:104D4000FB7313E0564B1B6803F40033002B0FD1A9
:104D5000534B1B6803F48023002B09D10123FB7301
:104D600006E00123FB7304E000BF02E000BF00E0A7
:104D700000BFFB7B002B0DD14948494BDB6823F07A
:104D800073027B6819687B685B68013B1B010B43FE
:104D90001343C360FB7B002B7DD1414A404B1B6812
:104DA00023F080631360FCF759FFB86009E0FCF75B
:104DB00055FF0246BB68D31A022B02D90323FB73AB
:104DC00005E0374B1B6803F00063002BEFD1FB7B42
:104DD000002B60D13B68002B11D13148304B1B694F
:104DE00023F41F3323F440737A68926811027A68BF
:104DF000D268120952040A431343036127E03B6857
:104E0000012B12D12648264B1B6923F4C00323F43F
:104E1000FE437A68926811027A6812695208013A70
:104E200052050A431343036111E01D481C4B1B69E3
:104E300023F0C06323F4FE437A68926811027A6813
:104E400052695208013A52060A4313430361144A55
:104E5000134B1B6843F080631360FCF7FFFEB860E0
:104E600009E0FCF7FBFE0246BB68D31A022B02D90D
:104E70000323FB7305E00A4B1B6803F00063002B60
:104E8000EFD0FB7B002B06D10549054B1A697B68E7
:104E90009B6913430B61FB7B18461037BD4680BDF1
:104EA0000010024080B584B000AF78603960002304
:104EB000FB73684BDB6803F00303002B18D0654BD2
:104EC000DB6803F003027B681B689A420DD17B68A4
:104ED0001B68002B09D05F4BDB681B0903F007033D
:104EE0005A1C7B685B689A4244D00123FB7341E003
:104EF0007B681B68022B0CD0032B13D0012B20D115
:104F0000544B1B6803F00203002B1DD10123FB73DC
:104F10001AE0504B1B6803F48063002B16D1012369
:104F2000FB7313E04B4B1B6803F40033002B0FD1D2
:104F3000484B1B6803F48023002B09D10123FB732A
:104F400006E00123FB7304E000BF02E000BF00E0C5
:104F500000BFFB7B002B0DD13E483E4BDB6823F0AE
:104F600073027B6819687B685B68013B1B010B431C
:104F70001343C360FB7B002B67D1364A354B1B685C
:104F800023F080531360FCF769FEB86009E0FCF77A
:104F900065FE0246BB68D31A022B02D90323FB73BA
:104FA00005E02C4B1B6803F00053002BEFD1FB7B7B
:104FB000002B4AD13B68002B11D12648254B5B6959
:104FC00023F41F3323F440737A68926811027A68DD
:104FD000D268120952040A431343436111E01D4889
:104FE0001C4B5B6923F0C06323F4FE437A6892682C
:104FF00011027A6812695208013A52060A431343B1
:105000004361144A134B1B6843F080531360FCF751
:1050100025FEB86009E0FCF721FE0246BB68D31A02
:10502000022B02D90323FB7305E00A4B1B6803F034
:105030000053002BEFD0FB7B002B06D10549054B1D
:105040005A697B685B6913434B61FB7B18461037D9
:10505000BD4680BD0010024080B582B000AF7860D0
:105060007B68002B01D1012349E07B6893F83D3038
:10507000DBB2002B06D17B68002283F83C207868E5
:10508000FCF71CFC7B68022283F83D207B681A68D1
:105090007B6804331946104600F0FCFF7B68012250
:1050A00083F848207B68012283F83E207B68012238
:1050B00083F83F207B68012283F840207B6801222F
:1050C00083F841207B68012283F842207B6801221B
:1050D00083F843207B68012283F844207B68012207
:1050E00083F845207B68012283F846207B680122F3
:1050F00083F847207B68012283F83D20002318466F
:105100000837BD4680BD000080B485B000AF786030
:105110007B6893F83D30DBB2012B01D001234FE0D7
:105120007B68022283F83D207B681B687A681268DE
:10513000D26842F00102DA607B681B68234A93421E
:105140001DD07B681B68B3F1804F18D07B681B684B
:105150001F4A934213D07B681B681E4A93420ED0AD
:105160007B681B681C4A934209D07B681B681B4AFA
:10517000934204D07B681B68194A934215D17B681F
:105180001B689A68174B1340FB60FB68062B15D011
:10519000FB68B3F5803F11D07B681B687A681268A2
:1051A000126842F001021A6008E07B681B687A68A6
:1051B0001268126842F001021A6000E000BF00238A
:1051C00018461437BD465DF8047B7047002C01403B
:1051D0000004004000080040000C00400034014082
:1051E000004001400700010080B582B000AF786048
:1051F0007B68002B01D1012349E07B6893F83D30A7
:10520000DBB2002B06D17B68002283F83C20786853
:1052100000F041F87B68022283F83D207B681A6821
:105220007B6804331946104600F034FF7B68012286
:1052300083F848207B68012283F83E207B680122A6
:1052400083F83F207B68012283F840207B6801229D
:1052500083F841207B68012283F842207B68012289
:1052600083F843207B68012283F844207B68012275
:1052700083F845207B68012283F846207B68012261
:1052800083F847207B68012283F83D2000231846DD
:105290000837BD4680BD80B483B000AF786000BFE2
:1052A0000C37BD465DF8047B7047000080B586B0C2
:1052B00000AFF860B9607A607B80BB68002B09D1D1
:1052C000FB6893F83E30DBB2022B0CBF01230023B6
:1052D000DBB23CE0BB68042B09D1FB6893F83F309C
:1052E000DBB2022B0CBF01230023DBB22FE0BB6833
:1052F000082B09D1FB6893F84030DBB2022B0CBFBE
:1053000001230023DBB222E0BB680C2B09D1FB6830
:1053100093F84130DBB2022B0CBF01230023DBB238
:1053200015E0BB68102B09D1FB6893F84230DBB263
:10533000022B0CBF01230023DBB208E0FB6893F8CB
:105340004330DBB2022B0CBF01230023DBB2002B66
:1053500001D00223A6E1BB68002B09D1FB6893F8BA
:105360003E30DBB2012B0CBF01230023DBB23CE05B
:10537000BB68042B09D1FB6893F83F30DBB2012BEB
:105380000CBF01230023DBB22FE0BB68082B09D13F
:10539000FB6893F84030DBB2012B0CBF01230023E4
:1053A000DBB222E0BB680C2B09D1FB6893F84130DB
:1053B000DBB2012B0CBF01230023DBB215E0BB687D
:1053C000102B09D1FB6893F84230DBB2012B0CBFE4
:1053D00001230023DBB208E0FB6893F84330DBB223
:1053E000012B0CBF01230023DBB2002B34D07B68E0
:1053F000002B04D17B88002B01D0012352E1BB6834
:10540000002B04D1FB68022283F83E2026E0BB6813
:10541000042B04D1FB68022283F83F201EE0BB6806
:10542000082B04D1FB68022283F8402016E0BB68F9
:105430000C2B04D1FB68022283F841200EE0BB68EC
:10544000102B04D1FB68022283F8422006E0FB689F
:10545000022283F8432001E0012323E1BB680C2BE7
:1054600000F2AE8001A252F823F000BFA154000860
:10547000C1550008C1550008C1550008E95400088D
:10548000C1550008C1550008C15500083155000834
:10549000C1550008C1550008C155000879550008DC
:1054A000FB685B6A814ADA62FB685B6A804A1A635E
:1054B000FB685B6A7F4A5A63FB68586A7968FB68D5
:1054C0001B6834331A467B88FDF76EFF0346002BBA
:1054D00001D00123E6E0FB681B68FA681268D26815
:1054E00042F40072DA606CE0FB689B6A6F4ADA6231
:1054F000FB689B6A6E4A1A63FB689B6A6D4A5A6333
:10550000FB68986A7968FB681B6838331A467B88A1
:10551000FDF74AFF0346002B01D00123C2E0FB68E0
:105520001B68FA681268D26842F48062DA6048E068
:10553000FB68DB6A5D4ADA62FB68DB6A5C4A1A6315
:10554000FB68DB6A5B4A5A63FB68D86A7968FB6868
:105550001B683C331A467B88FDF726FF0346002B69
:1055600001D001239EE0FB681B68FA681268D268CC
:1055700042F40062DA6024E0FB681B6B4B4ADA629B
:10558000FB681B6B4A4A1A63FB681B6B494A5A63E8
:10559000FB68186B7968FB681B6840331A467B8888
:1055A000FDF702FF0346002B01D001237AE0FB68E0
:1055B0001B68FA681268D26842F48052DA6000E030
:1055C00000BFFB681B680122B968184601F06CF93E
:1055D000FB681B68384A934213D0FB681B68374A44
:1055E00093420ED0FB681B68354A934209D0FB6892
:1055F0001B68344A934204D0FB681B68324A9342CA
:1056000001D1012300E00023002B07D0FB681B68B9
:10561000FA681268526C42F400425A64FB681B68D4
:10562000254A93421DD0FB681B68B3F1804F18D008
:10563000FB681B68254A934213D0FB681B68244A09
:1056400093420ED0FB681B68224A934209D0FB6844
:105650001B681A4A934204D0FB681B68184A93429D
:1056600015D1FB681B689A681B4B13407B617B69F3
:10567000062B15D07B69B3F5803F11D0FB681B6802
:10568000FA681268126842F001021A6008E0FB68CA
:105690001B68FA681268126842F001021A6000E0A2
:1056A00000BF002318461837BD4680BD855F00083F
:1056B0002D600008F35E0008002C0140003401401A
:1056C0000040014000440140004801400004004007
:1056D00000080040000C00400700010080B582B0C7
:1056E00000AF786039603B680C2B55D801A252F8A6
:1056F00023F000BF29570008995700089957000860
:10570000995700084557000899570008995700080D
:1057100099570008615700089957000899570008E1
:10572000995700087D5700087B681B687A681268E3
:10573000D26822F40072DA607B685B6A1846FDF773
:1057400093FE2AE07B681B687A681268D26822F4AC
:105750008062DA607B689B6A1846FDF785FE1CE074
:105760007B681B687A681268D26822F40062DA608B
:105770007B68DB6A1846FDF777FE0EE07B681B68E6
:105780007A681268D26822F48052DA607B681B6BF8
:105790001846FDF769FE00E000BF7B681B68002229
:1057A0003968184601F080F87B681B683E4A9342CE
:1057B00013D07B681B683D4A93420ED07B681B6800
:1057C0003B4A934209D07B681B683A4A934204D013
:1057D0007B681B68384A934201D1012300E0002313
:1057E000002B17D07B681B681A6A41F21113134013
:1057F000002B0FD17B681B681A6A40F244431340A8
:10580000002B07D17B681B687A681268526C22F4FF
:1058100000425A647B681B681A6A41F211131340F4
:10582000002B0FD17B681B681A6A40F24443134077
:10583000002B07D17B681B687A681268126822F017
:1058400001021A603B68002B04D17B68012283F8B7
:105850003E2023E03B68042B04D17B68012283F8BF
:105860003F201BE03B68082B04D17B68012283F8B2
:10587000402013E03B680C2B04D17B68012283F8A5
:1058800041200BE03B68102B04D17B68012283F898
:10589000422003E07B68012283F84320002318465E
:1058A0000837BD4680BD00BF002C014000340140D8
:1058B00000400140004401400048014080B582B0F2
:1058C00000AF78607B681B681B6903F00203022B42
:1058D00022D17B681B68DB6803F00203022B1BD11B
:1058E0007B681B686FF002021A617B6801221A77DD
:1058F0007B681B689B6903F00303002B03D0786867
:1059000000F0CFFA05E0786800F0C1FA7868FBF79C
:10591000A1FC7B6800221A777B681B681B6903F077
:105920000403042B22D17B681B68DB6803F00403AB
:10593000042B1BD17B681B686FF004021A617B6823
:1059400002221A777B681B689B6903F44073002B63
:1059500003D0786800F0A5FA05E0786800F097FABF
:105960007868FBF777FC7B6800221A777B681B68F6
:105970001B6903F00803082B22D17B681B68DB68D6
:1059800003F00803082B1BD17B681B686FF008022B
:105990001A617B6804221A777B681B68DB6903F055
:1059A0000303002B03D0786800F07BFA05E07868E9
:1059B00000F06DFA7868FBF74DFC7B6800221A77DF
:1059C0007B681B681B6903F01003102B22D17B68D6
:1059D0001B68DB6803F01003102B1BD17B681B686E
:1059E0006FF010021A617B6808221A777B681B68C7
:1059F000DB6903F44073002B03D0786800F051FAA0
:105A000005E0786800F043FA7868FBF723FC7B68D0
:105A100000221A777B681B681B6903F00103012BC6
:105A20000ED17B681B68DB6803F00103012B07D1F3
:105A30007B681B686FF001021A617868FBF7C0FE93
:105A40007B681B681B6903F08003802B0ED17B6889
:105A50001B68DB6803F08003802B07D17B681B6821
:105A60006FF080021A61786801F054F87B681B6857
:105A70001B6903F48073B3F5807F0ED17B681B68CC
:105A8000DB6803F08003802B07D17B681B686FF411
:105A900080721A61786801F047F87B681B681B699F
:105AA00003F04003402B0ED17B681B68DB6803F0DA
:105AB0004003402B07D17B681B686FF040021A61DE
:105AC000786800F002FA7B681B681B6903F020030A
:105AD000202B0ED17B681B68DB6803F02003202B92
