:020000040800F2
:100000000080012019560008F50B0008FB0B0008C2
:10001000010C0008070C00080D0C0008000000008F
:10002000000000000000000000000000413A00084D
:10003000130C000800000000813C0008E93C0008A7
:100040006956000869560008695600086956000894
:100050006956000869560008695600086956000884
:100060006956000869560008695600086956000874
:100070006956000869560008695600086956000864
:100080006956000869560008695600086956000854
:100090006956000869560008695600086956000844
:1000A00069560008210C00086956000869560008C6
:1000B0006956000869560008695600086956000824
:1000C0006956000869560008695600086956000814
:1000D0006956000869560008695600086956000804
:1000E00069560008695600086956000869560008F4
:1000F00069560008695600086956000869560008E4
:1001000069560008695600086956000869560008D3
:1001100069560008695600086956000869560008C3
:1001200069560008695600086956000869560008B3
:1001300069560008695600086956000869560008A3
:100140006956000869560008695600086956000893
:100150006956000869560008695600086956000883
:100160006956000869560008695600086956000873
:10017000695600086956000869560008000000002A
:080180006956000869560008E9
:1001900010B5054C237833B9044B13B10448AFF3C1
:1001A00000800123237010BD7400002000000000B7
:1001B0000C5F000808B5034B1BB103490348AFF3BC
:1001C000008008BD00000000780000200C5F0008DF
:1001D000034613F8012B002AFBD1181A0138704787
:1001E00001F0FF01102A2BDB10F0070F08D010F8E8
:1001F000013B013A8B422DD010F0070F42B3F6D1EC
:10020000F0B441EA012141EA014122F007047FF004
:1002100000070023F0E80256083C85EA010586EA5B
:10022000010685FA47F5A3FA87F586FA47F6A5FA97
:1002300087F68EB9EED1F0BC01F0FF0102F00702A3
:1002400032B110F8013B013A83EA010313B1F8D14E
:100250000020704701387047002D06BF354603382F
:10026000073815F0010F07D1013015F4807F02BF68
:10027000013015F4C03F0130F0BC0138704700BFB9
:1002800053B94AB9002908BF00281CBF4FF0FF31FD
:100290004FF0FF3000F07AB9ADF1080C6DE904CEF3
:1002A00000F006F8DDF804E0DDE9022304B0704751
:1002B0002DE9F0478C460D460446089E002B51D18F
:1002C0008A4217466DD9B2FA82FEBEF1000F0BD0FA
:1002D000CEF1200C01FA0EF520FA0CFC02FA0EF712
:1002E0004CEA050C00FA0EF44FEA174A250CBCFB49
:1002F000FAF81FFA87F90AFB18CC45EA0C4508FB07
:1003000009F3AB420AD9ED1908F1FF3280F02381DD
:10031000AB4240F22081A8F102083D44ED1AA4B29C
:10032000B5FBFAF00AFB105544EA054400FB09F955
:10033000A14509D9E41900F1FF3380F00A81A145F4
:1003400040F2078102383C44A4EB090440EA08402B
:100350000021002E61D024FA0EF400233460736073
:10036000BDE8F0878B4207D9002E54D0002186E8E3
:1003700021000846BDE8F087B3FA83F1002940F078
:100380008E80AB4202D3824200F2FA80841A65EB7F
:1003900003050120AC46002E3FD086E81010BDE8D2
:1003A000F08712B90127B7FBF2F7B7FA87FEBEF163
:1003B000000F34D1EB1B3A0C1FFA87FC0121B3FB71
:1003C000F2F8250C02FB183345EA03450CFB08F351
:1003D000AB4207D9ED1908F1FF3002D2AB4200F26F
:1003E000D1808046ED1AA3B2B5FBF2F002FB1055A6
:1003F00043EA05440CFB00FCA44507D9E41900F1CD
:10040000FF3302D2A44500F2B8801846A4EB0C04D6
:1004100040EA08409DE731463046BDE8F087CEF11E
:10042000200405FA0EF307FA0EF720FA04F83A0C46
:1004300025FA04F448EA0308B4FBF2F14FEA184540
:1004400002FB11441FFA87FC45EA044501FB0CF34B
:10045000AB4200FA0EF409D9ED1901F1FF3080F03A
:100460008A80AB4240F2878002393D44EB1A1FFA82
:1004700088F5B3FBF2F002FB103345EA034500FBBD
:100480000CF3AB4207D9ED1900F1FF386FD2AB4244
:100490006DD902383D44EB1A40EA01418FE7C1F1C2
:1004A000200722FA07F88B4005FA01F448EA030313
:1004B00020FA07FE4FEA134CFD404EEA040EB5FB4E
:1004C000FCF94FEA1E440CFB19551FFA83F844EA65
:1004D000054509FB08F4AC4202FA01F200FA01FA00
:1004E00008D9ED1809F1FF3043D2AC4241D9A9F146
:1004F00002091D442D1B1FFA8EFEB5FBFCF00CFB00
:1005000010554EEA054400FB08F8A04507D9E41849
:1005100000F1FF3529D2A04527D902381C4440EA12
:100520000940A4EB0804A0FB02894C45C6464D4691
:1005300015D312D056B1BAEB0E0364EB050404FADE
:1005400007F7CB401F43CC40376074600021BDE803
:10055000F0871846F8E69046E0E6C245EAD2B8EBE6
:10056000020E69EB03050138E4E72846D7E7404669
:1005700091E78146BEE7014678E702383C4445E70B
:10058000084608E7A8F102083D442BE7704700BF82
:1005900080B485B000AFF860B9607A60FB68074A44
:1005A0001A60BB68064A1A607B6880221A6000BF26
:1005B0001437BD465DF8047B704700BF90000020F3
:1005C000E400002080B584B002AF00F091FB00F0A1
:1005D00067F800F00DF900F0DBF800220C21022092
:1005E00003F01CFE0246214B1A60204B1B68002BB7
:1005F0000DD11F4B7B607868FFF7EAFD03469AB286
:100600004FF0FF3379681B4802F082FC0CE01A4B74
:100610003B603868FFF7DCFD03469AB24FF0FF33CA
:100620003968144802F074FC144B019302230093C0
:10063000002380221249134804F088F9124B0193D9
:1006400002230093002380221049114804F07EF910
:10065000104B019301230093002380220E490F4881
:1006600004F074F904F0DCFAFEE700BF0410002087
:10067000245F000810100020485F000808100020C8
:10068000705F0008210800080C100020785F000847
:10069000E508000800100020805F0008A909000894
:1006A00080B5B8B000AF07F19C0344220021184682
:1006B00005F011F807F1880300221A605A609A6069
:1006C000DA601A613B4688220021184605F003F8DB
:1006D0001023C7F89C300123C7F8B4300023C7F8B3
:1006E000B8306023C7F8BC300223C7F8C4300123F8
:1006F000C7F8C8300123C7F8CC302823C7F8D0305A
:100700000723C7F8D4300223C7F8D8300223C7F82C
:10071000DC3007F19C03184600F00EFE0346002B68
:1007200001D000F0A3F90F23C7F888300323C7F8DE
:100730008C300023C7F890300023C7F89430002392
:10074000C7F8983007F188030421184601F0DAF958
:100750000346002B01D000F089F902233B600023FF
:10076000FB633B46184601F003FC0346002B01D017
:1007700000F07CF94FF4007000F088FD0346002B78
:1007800001D000F073F900BFE037BD4680BD000026
:1007900080B500AF144B154A1A60134B4FF4E13289
:1007A0005A60114B00229A600F4B0022DA600E4B08
:1007B00000221A610C4B0C225A610B4B00229A61E9
:1007C000094B0022DA61084B00221A62064B002214
:1007D0005A62054802F04EFB0346002B01D000F0A0
:1007E00045F900BF80BD00BF10100020004400404C
:1007F00080B483B000AF094A084BDB6C43F00103BF
:10080000D364064BDB6C03F001037B607B6800BFA5
:100810000C37BD465DF8047B704700BF00100240F6
:1008200080B586B000AF78604FF4FA637B61274BE8
:100830003B613869FFF7CCFC03469AB24FF0FF33B7
:100840003969234802F064FB0C2003F09BFA03464D
:10085000BB60BB681F4A126801325A60BB681D4A00
:10086000126892B2114689000A4411468800114666
:1008700002460A44920092B202F57A7292B21A814A
:10088000BB68154A1A60154B186807F10801002368
:100890004FF0FF3203F01AFD0346012B0CD1104B31
:1008A000FB60F868FFF794FC03469AB24FF0FF3301
:1008B000F968074802F02CFB064B1B680133054A18
:1008C0001360786904F078F9B1E700BF8C5F000825
:1008D00010100020E4020020C45F00080410002073
:1008E000DC5F000880B586B000AF78604FF4FA6333
:1008F0007B61274B3B613869FFF76AFC03469AB27C
:100900004FF0FF333969234802F002FB0C2003F05B
:1009100039FA0346BB60BB681F4A126801325A604D
:10092000BB681D4A126892B2114689000A441146FA
:100930008800114602460A44920092B202F57A7289
:1009400092B21A81BB68154A1A60154B186807F1F4
:10095000080100234FF0FF3203F0B8FC0346012BDF
:100960000CD1104BFB60F868FFF732FC03469AB2DB
:100970004FF0FF33F968074802F0CAFA064B1B68CC
:100980000133054A1360786904F016F9B1E700BF36
:100990001C60000810100020E402002054600008D1
:1009A000041000206C60000880B588B002AF786049
:1009B00040F6B8337B61204B3B613869FFF708FC98
:1009C00003469AB24FF0FF3339691C4802F0A0FA8F
:1009D0001B4B1B6807F108014FF0FF32184603F06C
:1009E0006FFD0346012B1ED1642003F0CBF9F860A4
:1009F000BB685A68BB681B891946BB681B680093B3
:100A00000B461049F86804F06FFEF868FFF7E0FB4A
:100A100003469AB24FF0FF33F968084802F078FABB
:100A2000F86803F077FABB68184603F073FA786940
:100A300004F0C2F8BFE700BFAC600008101000204F
:100A400004100020E860000880B582B000AF786034
:100A50007B681B68044A934201D100F061F900BF32
:100A60000837BD4680BD00BF002C014080B400AFF8
:100A700072B6FEE780B582B000AF114A104B1B6E14
:100A800043F0010313660E4B1B6E03F001037B6002
:100A90007B680B4A0A4B9B6D43F080539365084B70
:100AA0009B6D03F080533B603B6800220F216FF089
:100AB000010000F00BFA00BF0837BD4680BD00BF43
:100AC0000010024080B58AB000AF786007F11403CF
:100AD00000221A605A609A60DA601A617B681B68AB
:100AE000174A934228D1174A164B9B6D43F40033A3
:100AF0009365144B9B6D03F400333B613B69114AD2
:100B0000104BDB6C43F00103D3640E4BDB6C03F042
:100B10000103FB60FB680C237B610223BB610023A4
:100B2000FB6103233B6207237B6207F11403194631
:100B30004FF0904000F0F4F900BF2837BD4680BD6B
:100B4000004400400010024080B58CB000AF7860D7
:100B50000023FB620023BB6200227968192000F0A9
:100B6000B5F9192000F0CEF91E4A1E4B1B6E43F456
:100B7000006313661B4B1B6E03F40063FB60FB6892
:100B800007F1100207F114031146184601F05EF94F
:100B900001F046F9F862FB6A134AA2FB03239B0C9F
:100BA000013BBB62114B124A1A60104B40F2E73214
:100BB000DA600E4ABB6A53600C4B00221A610B4B81
:100BC00000229A60094801F083FE0346002B04D1FD
:100BD000064801F0DFFE034600E0012318463037E7
:100BE000BD4680BD0010024083DE1B4394100020F0
:100BF000002C014080B400AFFEE780B400AFFEE7F8
:100C000080B400AFFEE780B400AFFEE780B400AF71
:100C1000FEE780B400AF00BFBD465DF8047B7047BF
:100C200080B500AF024801F025FF00BF80BD00BFC6
:100C30009410002080B584B000AF7860114B1B6821
:100C4000002B02D10F4B104A1A600E4B1B68FB6041
:100C50000C4B1A687B6813446A46934207D904F028
:100C600005FD02460C2313604FF0FF3306E0054BF1
:100C70001A687B681344034A1360FB6818461037F0
:100C8000BD4680BDE8020020E810002080B400AF1F
:100C9000154A154BD3F8883043F47003C2F88830F6
:100CA000124A124B1B6843F0010313600F4B0022E2
:100CB0009A600E4A0D4B1B6823F0A85323F41023AF
:100CC00013600A4B4FF48052DA60084A074B1B68E6
:100CD00023F480231360054B00229A6100BFBD46B8
:100CE0005DF8047B704700BF00ED00E0001002409B
:100CF00080B582B000AF0023FB71032000F0DBF869
:100D00000020FFF721FF0346002B02D00123FB71D7
:100D100001E0FFF7AFFEFB7918460837BD4680BDFE
:100D200080B400AF064B1B781A46064B1B68134471
:100D3000044A136000BFBD465DF8047B704700BFE6
:100D400008000020E010002080B400AF034B1B68B7
:100D50001846BD465DF8047B704700BFE0100020D8
:100D600080B485B000AF78607B6803F00703FB6058
:100D70000C4BDB68BB60BA684FF6FF031340BB60E7
:100D8000FB681A02BB68134343F0BF6343F40033AC
:100D9000BB60044ABB68D36000BF1437BD465DF832
:100DA000047B704700ED00E080B400AF044BDB68CB
:100DB0001B0A03F007031846BD465DF8047B704725
:100DC00000ED00E080B483B000AF0346FB7197F9FB
:100DD0000730002B0BDB094997F907305B09FA79DB
:100DE00002F01F02012000FA02F241F8232000BFA6
:100DF0000C37BD465DF8047B704700BF00E100E0A2
:100E000080B483B000AF03463960FB7197F90730B7
:100E1000002B0ADB0D4997F907303A68D2B212016C
:100E2000D2B20B4483F800230AE00949FB7903F0AE
:100E30000F03043B3A68D2B21201D2B20B441A76C5
:100E400000BF0C37BD465DF8047B704700E100E051
:100E500000ED00E080B489B000AFF860B9607A605E
:100E6000FB6803F00703FB61FB69C3F10703042B75
:100E700028BF0423BB61FB690433062B02D9FB693D
:100E8000033B00E000237B610122BB6902FA03F30C
:100E90005A1EBB681A407B699A4001217B6901FA9E
:100EA00003F3591E7B680B40134318462437BD4695
:100EB0005DF8047B704780B582B000AF78607868D9
:100EC000FFF74EFF00BF0837BD4680BD80B586B036
:100ED00000AF0346B9607A60FB7300237B61FFF7C4
:100EE00063FF78617A68B9687869FFF7B3FF0246F3
:100EF00097F90F3011461846FFF782FF00BF1837E9
:100F0000BD4680BD80B582B000AF0346FB7197F946
:100F100007301846FFF756FF00BF0837BD4680BDB3
:100F200080B487B000AF7860396000237B617FE1D7
:100F30003B681A6801217B6901FA03F31340FB60E7
:100F4000FB68002B00F071813B685B68012B0BD0C4
:100F50003B685B68022B07D03B685B68112B03D0B2
:100F60003B685B68122B30D17B689B683B617B6977
:100F70005B00032202FA03F3DB433A6913403B614F
:100F80003B68DA687B695B0002FA03F33A69134352
:100F90003B617B683A699A607B685B683B610122D0
:100FA0007B6902FA03F3DB433A6913403B613B6818
:100FB0005B681B0903F001027B6902FA03F33A69DB
:100FC00013433B617B683A695A603B685B6803F096
:100FD0000303032B18D17B68DB6A3B6101227B6929
:100FE00002FA03F3DB433A6913403B613B685B68F9
:100FF000DB0803F001027B6902FA03F33A69134349
:101000003B617B683A69DA627B68DB683B617B69DC
:101010005B00032202FA03F3DB433A6913403B61AE
:101020003B689A687B695B0002FA03F33A691343F1
:101030003B617B683A69DA603B685B68022B03D0EE
:101040003B685B68122B23D17B69DA087B68083226
:1010500053F822303B617B6903F007039B000F22AA
:1010600002FA03F3DB433A6913403B613B681A69B8
:101070007B6903F007039B0002FA03F33A69134309
:101080003B617B69DA087B680832396943F82210D2
:101090007B681B683B617B695B00032202FA03F3F8
:1010A000DB433A6913403B613B685B6803F0030232
:1010B0007B695B0002FA03F33A6913433B617B6887
:1010C0003A691A603B685B6803F08053002B00F0BC
:1010D000AC805E4A5D4B1B6E43F0010313665B4BB5
:1010E0001B6E03F00103BB60BB68594A7B699B0818
:1010F000023352F823303B617B6903F003039B000A
:101100000F2202FA03F3DB433A6913403B617B6829
:10111000B3F1904F25D07B684E4A93421FD07B6835
:101120004D4A934219D07B684C4A934213D07B6856
:101130004B4A93420DD07B684A4A934207D07B6862
:10114000494A934201D106230CE007230AE0052314
:1011500008E0042306E0032304E0022302E0012365
:1011600000E000237A6902F00302920093403A699A
:1011700013433B6136497B699B0802333A6941F866
:1011800023203A4B1B683B61FB68DB433A69134001
:101190003B613B685B6803F48033002B03D03A6902
:1011A000FB6813433B61314A3B6913602F4B5B681B
:1011B0003B61FB68DB433A6913403B613B685B681A
:1011C00003F40033002B03D03A69FB6813433B61FF
:1011D000264A3B695360254B9B683B61FB68DB43B8
:1011E0003A6913403B613B685B6803F48013002B52
:1011F00003D03A69FB6813433B611C4A3B69936027
:101200001A4BDB683B61FB68DB433A6913403B6187
:101210003B685B6803F40013002B03D03A69FB685A
:1012200013433B61114A3B69D3607B6901337B61A6
:101230003B681A687B6922FA03F3002B7FF478AECF
:1012400000BF1C37BD465DF8047B704700100240AC
:10125000000001400004004800080048000C00485D
:101260000010004800140048001800480004014025
:1012700080B400AF044B1B6803F4C0631846BD463E
:101280005DF8047B704700BF0070004080B485B0FB
:1012900000AF78607B68B3F5007F30D1234B1B68CB
:1012A00003F4C063B3F5007F38D0204A1F4B1B689E
:1012B00023F4C06343F4007313601D4B1B68322298
:1012C00002FB03F31B4AA2FB03239B0C0133FB60CD
:1012D00002E0FB68013BFB60144B5B6903F4806335
:1012E000B3F5806F02D1FB68002BF2D10F4B5B6925
:1012F00003F48063B3F5806F10D103230FE00B4B31
:101300001B6803F4C063B3F5806F07D0074A074B2F
:101310001B6823F4C06343F4806313600023184602
:101320001437BD465DF8047B704700BF0070004075
:101330000000002083DE1B4380B588B000AF7860DA
:101340007B68002B01D10123D4E3A14B9B6803F000
:101350000C03BB619E4BDB6803F003037B617B687E
:101360001B6803F01003002B00F0E480BB69002B26
:1013700007D0BB690C2B40F08B807B69012B40F0C0
:101380008780934B1B6803F00203002B05D07B681A
:101390009B69002B01D10123ACE37B681A6A8C4B5B
:1013A0001B6803F00803002B04D0894B1B6803F073
:1013B000F00305E0864BD3F894301B0903F0F003EB
:1013C0009A4223D97B681B6A184600F071FD0346D8
:1013D000002B01D001238DE37D4A7D4B1B6843F038
:1013E000080313607A497A4B1B6823F0F0027B688C
:1013F0001B6A13430B607649754B5B6823F47F428D
:101400007B68DB691B0213434B6025E0704A704B1D
:101410001B6843F0080313606D496D4B1B6823F094
:10142000F0027B681B6A13430B606949684B5B6879
:1014300023F47F427B68DB691B0213434B60BB696B
:10144000002B09D17B681B6A184600F031FD03466A
:10145000002B01D001234DE300F036FC01465C4B2C
:101460009B681B0903F00F035A4AD35C03F01F0368
:1014700021FA03F3584A1360584B1B681846FFF7CC
:1014800063FB0346FB73FB7B002B52D0FB7B31E3FA
:101490007B689B69002B32D04D4A4D4B1B6843F053
:1014A00001031360FFF750FC386108E0FFF74CFCC4
:1014B00002463B69D31A022B01D903231AE3444B9A
:1014C0001B6803F00203002BF0D0414A404B1B681D
:1014D00043F0080313603E493D4B1B6823F0F002C4
:1014E0007B681B6A13430B603949394B5B6823F4F3
:1014F0007F427B68DB691B0213434B601AE0344A6E
:10150000334B1B6823F001031360FFF71DFC3861A8
:1015100008E0FFF719FC02463B69D31A022B01D9F8
:101520000323E7E22A4B1B6803F00203002BF0D1F0
:1015300000E000BF7B681B6803F00103002B74D040
:10154000BB69082B05D0BB690C2B0ED17B69032B23
:101550000BD11F4B1B6803F40033002B64D07B6856
:101560005B68002B60D10123C4E27B685B68B3F544
:10157000803F06D1164A164B1B6843F48033136034
:101580001DE07B685B68B3F5A02F0CD1104A104BAF
:101590001B6843F4802313600D4A0D4B1B6843F412
:1015A000803313600BE00A4A094B1B6823F4803335
:1015B0001360074A064B1B6823F4802313607B6883
:1015C0005B68002B1CD0FFF7BFFB386111E000BF48
:1015D00000100240386100080000002004000020D4
:1015E000FFF7B2FB02463B69D31A642B01D90323F0
:1015F00080E2AF4B1B6803F40033002BF0D014E003
:10160000FFF7A2FB386108E0FFF79EFB02463B694B
:10161000D31A642B01D903236CE2A54B1B6803F496
:101620000033002BF0D100E000BF7B681B6803F0A3
:101630000203002B60D0BB69042B05D0BB690C2BC7
:1016400019D17B69022B16D1994B1B6803F4806377
:10165000002B05D07B68DB68002B01D1012349E218
:101660009349934B5B6823F0F8527B681B691B0618
:1016700013434B6040E07B68DB68002B23D08C4A2F
:101680008B4B1B6843F480731360FFF75DFB38617D
:1016900008E0FFF759FB02463B69D31A022B01D938
:1016A000032327E2824B1B6803F48063002BF0D0F6
:1016B0007F497F4B5B6823F0F8527B681B691B06F0
:1016C00013434B6018E07A4A794B1B6823F480730C
:1016D0001360FFF739FB386108E0FFF735FB02467E
:1016E0003B69D31A022B01D9032303E2704B1B6819
:1016F00003F48063002BF0D17B681B6803F00803C0
:10170000002B3CD07B685B69002B1CD0684A684B7F
:10171000D3F8943043F00103C2F89430FFF714FB80
:10172000386108E0FFF710FB02463B69D31A022B31
:1017300001D90323DEE15E4BD3F8943003F00203BA
:10174000002BEFD01BE05A4A594BD3F8943023F0CA
:101750000103C2F89430FFF7F7FA386108E0FFF7A9
:10176000F3FA02463B69D31A022B01D90323C1E1E4
:101770004F4BD3F8943003F00203002BEFD17B687A
:101780001B6803F00403002B00F0A6800023FB7706
:10179000474B9B6D03F08053002B0DD1444A444BC3
:1017A0009B6D43F080539365414B9B6D03F08053D9
:1017B000BB60BB680123FB773E4B1B6803F480735F
:1017C000002B18D13B4A3B4B1B6843F480731360DA
:1017D000FFF7BAFA386108E0FFF7B6FA02463B694C
:1017E000D31A022B01D9032384E1324B1B6803F483
:1017F0008073002BF0D07B689B68012B08D12C4AAA
:101800002B4BD3F8903043F00103C2F8903024E022
:101810007B689B68052B10D1254A254BD3F8903067
:1018200043F00403C2F89030214A214BD3F89030A2
:1018300043F00103C2F890300FE01D4A1C4BD3F86F
:10184000903023F00103C2F89030194A184BD3F8B6
:10185000903023F00403C2F890307B689B68002B23
:1018600016D0FFF771FA38610AE0FFF76DFA024609
:101870003B69D31A41F28832934201D9032339E1FB
:101880000B4BD3F8903003F00203002BEDD01AE09D
:10189000FFF75AFA38610FE0FFF756FA02463B6944
:1018A000D31A41F28832934206D9032322E100BFC2
:1018B0000010024000700040904BD3F8903003F0CD
:1018C0000203002BE8D1FB7F012B05D18B4A8B4B08
:1018D0009B6D23F0805393657B689B6A002B00F01F
:1018E00008817B689B6A022B40F0D080834BDB68C9
:1018F0007B617B6903F003027B68DB6A9A4230D12B
:101900007B6903F070027B681B6B013B1B019A42F1
:1019100027D17B6903F4FE427B685B6B1B029A4212
:101920001FD17B6903F400337A68926B072A14BFD6
:1019300001220022D2B2934213D17B6903F4C00288
:101940007B68DB6B5B08013B5B059A4209D17B69D5
:1019500003F0C0627B681B6C5B08013B5B069A422C
:101960006ED0BB690C2B69D0644B1B6803F080639D
:10197000002B05D1614B1B6803F08053002B01D075
:101980000123B7E05D4A5D4B1B6823F08073136051
:10199000FFF7DAF9386108E0FFF7D6F902463B694C
:1019A000D31A022B01D90323A4E0544B1B6803F084
:1019B0000073002BF0D15148504BDA68504B134064
:1019C0007A68D16A7A68126B013A120111437A6817
:1019D000526B120211437A68D26B5208013A5205D7
:1019E00011437A68126C5208013A520611437A6820
:1019F000926B120952040A431343C3603F4A3F4BA0
:101A00001B6843F0807313603C4A3C4BDB6843F037
:101A10008073D360FFF798F9386108E0FFF794F915
:101A200002463B69D31A022B01D9032362E0334BF0
:101A30001B6803F00073002BF0D05AE0012359E03B
:101A40002E4B1B6803F00073002B52D12B4A2B4BFB
:101A50001B6843F080731360284A284BDB6843F00F
:101A60008073D360FFF770F9386108E0FFF76CF915
:101A700002463B69D31A022B01D903233AE01F4BDC
:101A80001B6803F00073002BF0D032E0BB690C2B15
:101A90002DD01A4A194B1B6823F080731360174B23
:101AA0001B6803F02053002B05D1144A134BDB684D
:101AB00023F00303D360114A104BDB6823F08873D3
:101AC00023F48033D360FFF73FF9386108E0FFF774
:101AD0003BF902463B69D31A022B01D9032309E0E3
:101AE000064B1B6803F00073002BF0D101E00123CB
:101AF00000E0002318462037BD4680BD001002409C
:101B00008C809DF980B584B000AF786039607B68C7
:101B1000002B01D10123C8E0664B1B6803F00702CC
:101B20003B689A4210D26349624B1B6823F007025C
:101B30003B6813430B605F4B1B6803F007023B6875
:101B40009A4201D00123B0E07B681B6803F00103D7
:101B5000002B4CD07B685B68032B07D1564B1B686E
:101B600003F00073002B21D101239EE07B685B68AA
:101B7000022B07D1504B1B6803F40033002B15D107
:101B8000012392E07B685B68002B07D14A4B1B68FE
:101B900003F00203002B09D1012386E0464B1B68AA
:101BA00003F48063002B01D101237EE04249424BC4
:101BB0009B6823F003027B685B6813438B60FFF72D
:101BC000C3F8F8600AE0FFF7BFF80246FB68D31AD3
:101BD00041F28832934201D9032366E0364B9B6879
:101BE00003F00C027B685B689B009A42EBD17B6838
:101BF0001B6803F00203002B08D02F492E4B9B6873
:101C000023F0F0027B689B6813438B60294B1B68B1
:101C100003F007023B689A4210D92649254B1B68FE
:101C200023F007023B6813430B60224B1B6803F051
:101C300007023B689A4201D0012336E07B681B68AB
:101C400003F00403002B08D01B491B4B9B6823F4B3
:101C5000E0627B68DB6813438B607B681B6803F082
:101C60000803002B09D01449134B9B6823F46052DE
:101C70007B681B69DB0013438B6000F025F801468D
:101C80000D4B9B681B0903F00F030C4AD35C03F058
:101C90001F0321FA03F30A4A13600A4B1B68184614
:101CA000FEF752FF0346FB72FB7A18461037BD461B
:101CB00080BD00BF002002400010024038610008D3
:101CC000000000200400002080B489B000AF002391
:101CD000FB610023BB613D4B9B6803F00C033B6140
:101CE0003A4BDB6803F00303FB603B69002B05D034
:101CF0003B690C2B21D1FB68012B1ED1334B1B6898
:101D000003F00803002B07D1304BD3F894301B0AA3
:101D100003F00F03FB6105E02C4B1B681B0903F06C
:101D20000F03FB612A4AFB6952F82330FB613B69D0
:101D3000002B0DD1FB69BB610AE03B69042B02D18A
:101D4000244BBB6104E03B69082B01D1224BBB61F2
:101D50003B690C2B33D11D4BDB6803F00303BB60E5
:101D6000BB68022B02D0032B03D005E0194B7B612B
:101D700005E0194B7B6102E0FB697B6100BF134BFF
:101D8000DB681B0903F0070301337B600F4BDB6843
:101D90001B0A03F07F037A6902FB03F27B68B2FB44
:101DA000F3F37B61094BDB685B0E03F00303013344
:101DB0005B003B607A693B68B2FBF3F3BB61BB69D4
:101DC00018462437BD465DF8047B7047001002407A
:101DD000506100080024F40000127A0080B400AFC3
:101DE000034B1B681846BD465DF8047B704700BF77
:101DF0000000002080B500AFFFF7F0FF0146064B62
:101E00009B681B0A03F00703044AD35C03F01F031B
:101E100021FA03F3184680BD001002404861000813
:101E200080B500AFFFF7DAFF0146064B9B68DB0A7F
:101E300003F00703044AD35C03F01F0321FA03F302
:101E4000184680BD001002404861000880B483B08D
:101E500000AF786039607B680F221A60124B9B6874
:101E600003F003027B685A600F4B9B6803F0F0029B
:101E70007B689A600C4B9B6803F4E0627B68DA60D5
:101E8000094B9B68DB0803F4E0627B681A61074B2F
:101E90001B6803F007023B681A6000BF0C37BD46A1
:101EA0005DF8047B704700BF001002400020024034
:101EB00080B586B000AF786000233B612A4B9B6DF4
:101EC00003F08053002B03D0FFF7D2F9786114E0C0
:101ED000254A254B9B6D43F080539365224B9B6DA8
:101EE00003F08053FB60FB68FFF7C2F978611E4A7C
:101EF0001D4B9B6D23F0805393657B69B3F5007F89
:101F00000BD17B68802B19D97B68A02B02D90223C7
:101F10003B6113E001233B6110E07B68802B02D919
:101F200003233B610AE07B68802B02D102233B61E3
:101F300004E07B68702B01D101233B610B490B4B03
:101F40001B6823F007023B6913430B60074B1B68B8
:101F500003F007023B699A4201D0012300E000230D
:101F600018461837BD4680BD0010024000200240D0
:101F700080B586B000AF78600023FB740023BB748B
:101F80007B681B6803F40063002B3FD07B685B6EAB
:101F9000B3F5800F1CD0B3F5800F02D8002B0ED004
:101FA0001FE0B3F5000F03D0B3F5400F1CD018E0CD
:101FB000854A854BDB6843F48033D36015E07B684A
:101FC00004330021184600F0B9FA0346FB740CE014
:101FD0007B6820330021184600F0A0FB0346FB7409
:101FE00003E00123FB7400E000BFFB7C002B0BD15E
:101FF0007549754BD3F8883023F440027B685B6EDB
:102000001343C1F8883001E0FB7CBB747B681B681C
:1020100003F48053002B3FD07B689B6EB3F1807F2D
:102020001CD0B3F1807F02D8002B0ED01FE0B3F19B
:10203000007F03D0B3F1407F1CD018E0624A624BAE
:10204000DB6843F48033D36015E07B680433002100
:10205000184600F073FA0346FB740CE07B682033EB
:102060000021184600F05AFB0346FB7403E00123ED
:10207000FB7400E000BFFB7C002B0BD15249524B9C
:10208000D3F8883023F040727B689B6E1343C1F80D
:10209000883001E0FB7CBB747B681B6803F4003371
:1020A000002B00F0A08000237B74474B9B6D03F056
:1020B0008053002B01D1012300E00023002B0DD021
:1020C000414A414B9B6D43F0805393653E4B9B6D62
:1020D00003F08053BB60BB6801237B743B4A3B4BDE
:1020E0001B6843F480731360FEF72EFEF86009E06E
:1020F000FEF72AFE0246FB68D31A022B02D90323FD
:10210000FB7405E0314B1B6803F48073002BEFD0A8
:10211000FB7C002B5CD12C4BD3F8903003F4407344
:102120007B617B69002B1FD07B68D3F884207B699F
:102130009A4219D0244BD3F8903023F440737B613A
:10214000214A214BD3F8903043F48033C2F89030C9
:102150001D4A1D4BD3F8903023F48033C2F89030E1
:10216000194A7B69C2F890307B6903F00103002BA8
:1021700016D0FEF7E9FDF8600BE0FEF7E5FD02463C
:10218000FB68D31A41F28832934202D90323FB74CD
:1021900006E00D4BD3F8903003F00203002BECD097
:1021A000FB7C002B0CD10849074BD3F8903023F46B
:1021B00040727B68D3F884301343C1F8903009E053
:1021C000FB7CBB7406E000BF0010024000700040C2
:1021D000FB7CBB747B7C012B05D19E4A9D4B9B6D88
:1021E00023F0805393657B681B6803F00103002B89
:1021F0000AD09849974BD3F8883023F003027B68C4
:102200009B6B1343C1F888307B681B6803F00203A3
:10221000002B0AD08F498F4BD3F8883023F00C0263
:102220007B68DB6B1343C1F888307B681B6803F065
:102230000403002B0AD08749864BD3F8883023F05B
:1022400030027B681B6C1343C1F888307B681B68C5
:1022500003F00803002B0AD07E497E4BD3F8883068
:1022600023F0C0027B685B6C1343C1F888307B6845
:102270001B6803F01003002B0AD07649754BD3F886
:10228000883023F440727B689B6C1343C1F888301C
:102290007B681B6803F02003002B0AD06D496D4B4F
:1022A000D3F8883023F440627B68DB6C1343C1F8B9
:1022B00088307B681B6803F40073002B0AD06549E3
:1022C000644BD3F8883023F440227B68DB6D1343E2
:1022D000C1F888307B681B6803F48063002B0AD048
:1022E0005C495C4BD3F8883023F440127B681B6E4A
:1022F0001343C1F888307B681B6803F04003002B50
:102300000AD05449534BD3F8883023F440527B68A9
:102310001B6D1343C1F888307B681B6803F0800392
:10232000002B0AD04B494B4BD3F8883023F4404262
:102330007B685B6D1343C1F888307B681B6803F4CE
:102340008073002B0AD04349424BD3F8883023F4E2
:1023500040327B689B6D1343C1F888307B681B68F3
:1023600003F40053002B28D03A493A4BD3F8883075
:1023700023F040627B68DB6E1343C1F888307B68D2
:10238000DB6EB3F1006F06D1324A324BDB6843F4A7
:102390008013D36011E07B68DB6EB3F1806F0CD1EA
:1023A0007B6804330121184600F0C8F80346FB742B
:1023B000FB7C002B01D0FB7CBB747B681B6803F4A7
:1023C0000023002B28D02349224BD3F8883023F058
:1023D00040627B681B6F1343C1F888307B681B6FBA
:1023E000B3F1006F06D11B4A1A4BDB6843F480132C
:1023F000D36011E07B681B6FB3F1806F0CD17B68F9
:1024000004330121184600F099F80346FB74FB7C65
:10241000002B01D0FB7CBB747B681B6803F480231A
:10242000002B2BD00B490B4BD3F8883023F04062A4
:102430007B685B6F1343C1F888307B685B6FB3F1D7
:10244000006F09D1034A034BDB6843F48013D36068
:1024500014E000BF001002407B685B6FB3F1806F37
:102460000CD17B6804330121184600F067F803465D
:10247000FB74FB7C002B01D0FB7CBB747B681B686E
:1024800003F48043002B2FD02B492B4BD3F88830FB
:1024900023F040527B689B6F1343C1F888307B6800
:1024A0009B6FB3F1805F0DD17B6804330221184626
:1024B00000F044F80346FB74FB7C002B14D0FB7C3B
:1024C000BB7411E07B689B6FB3F1005F0CD17B683C
:1024D00020330221184600F021F90346FB74FB7CEF
:1024E000002B01D0FB7CBB747B681B6803F40043AA
:1024F000002B0AD01049104BD3F8883023F08042CB
:102500007B68DB6F1343C1F888307B681B6803F47A
:102510008033002B0BD00849074BD3F8883023F0C9
:1025200000427B68D3F880301343C1F88830BB7C0D
:1025300018461837BD4680BD0010024080B584B0F3
:1025400000AF786039600023FB73734BDB6803F0E6
:102550000303002B18D0704BDB6803F003027B6889
:102560001B689A420DD17B681B68002B09D06A4B0F
:10257000DB681B0903F007035A1C7B685B689A42FF
:1025800044D00123FB7341E07B681B68022B0CD015
:10259000032B13D0012B20D15F4B1B6803F00203E8
:1025A000002B1DD10123FB731AE05B4B1B6803F466
:1025B0008063002B16D10123FB7313E0564B1B687D
:1025C00003F40033002B0FD1534B1B6803F480231B
:1025D000002B09D10123FB7306E00123FB7304E008
:1025E00000BF02E000BF00E000BFFB7B002B0DD16D
:1025F0004948494BDB6823F073027B6819687B68A4
:102600005B68013B1B010B431343C360FB7B002B47
:102610007DD1414A404B1B6823F080631360FEF775
:1026200093FBB86009E0FEF78FFB0246BB68D31A44
:10263000022B02D90323FB7305E0374B1B6803F021
:102640000063002BEFD1FB7B002B60D13B68002B9C
:1026500011D13148304B1B6923F41F3323F44073ED
:102660007A68926811027A68D268120952040A43A1
:102670001343036127E03B68012B12D12648264B08
:102680001B6923F4C00323F4FE437A6892681102A5
:102690007A6812695208013A52050A4313430361EA
:1026A00011E01D481C4B1B6923F0C06323F4FE435B
:1026B0007A68926811027A6852695208013A5206A1
:1026C0000A4313430361144A134B1B6843F08063AE
:1026D0001360FEF739FBB86009E0FEF735FB0246F0
:1026E000BB68D31A022B02D90323FB7305E00A4B04
:1026F0001B6803F00063002BEFD0FB7B002B06D19F
:102700000549054B1A697B689B6913430B61FB7B89
:1027100018461037BD4680BD0010024080B584B019
:1027200000AF786039600023FB73684BDB6803F00F
:102730000303002B18D0654BDB6803F003027B68B2
:102740001B689A420DD17B681B68002B09D05F4B38
:10275000DB681B0903F007035A1C7B685B689A421D
:1027600044D00123FB7341E07B681B68022B0CD033
:10277000032B13D0012B20D1544B1B6803F0020311
:10278000002B1DD10123FB731AE0504B1B6803F48F
:102790008063002B16D10123FB7313E04B4B1B68A6
:1027A00003F40033002B0FD1484B1B6803F4802344
:1027B000002B09D10123FB7306E00123FB7304E026
:1027C00000BF02E000BF00E000BFFB7B002B0DD18B
:1027D0003E483E4BDB6823F073027B6819687B68D8
:1027E0005B68013B1B010B431343C360FB7B002B66
:1027F00067D1364A354B1B6823F080531360FEF7D0
:10280000A3FAB86009E0FEF79FFA0246BB68D31A44
:10281000022B02D90323FB7305E02C4B1B6803F04A
:102820000053002BEFD1FB7B002B4AD13B68002BE0
:1028300011D12648254B5B6923F41F3323F44073E1
:102840007A68926811027A68D268120952040A43BF
:102850001343436111E01D481C4B5B6923F0C063C7
:1028600023F4FE437A68926811027A68126952086A
:10287000013A52060A4313434361144A134B1B683F
:1028800043F080531360FEF75FFAB86009E0FEF78B
:102890005BFA0246BB68D31A022B02D90323FB73EF
:1028A00005E00A4B1B6803F00053002BEFD0FB7BC5
:1028B000002B06D10549054B5A697B685B691343B8
:1028C0004B61FB7B18461037BD4680BD00100240AF
:1028D00080B582B000AF78607B68002B01D1012306
:1028E00049E07B6893F83D30DBB2002B06D17B6872
:1028F000002283F83C20786800F041F87B680222CF
:1029000083F83D207B681A687B68043319461046BB
:1029100000F0F8F97B68012283F848207B680122E7
:1029200083F83E207B68012283F83F207B680122E8
:1029300083F840207B68012283F841207B680122D4
:1029400083F842207B68012283F843207B680122C0
:1029500083F844207B68012283F845207B680122AC
:1029600083F846207B68012283F847207B68012298
:1029700083F83D20002318460837BD4680BD80B44B
:1029800083B000AF786000BF0C37BD465DF8047BB4
:102990007047000080B485B000AF78607B6893F822
:1029A0003D30DBB2012B01D001234FE07B680222D6
:1029B00083F83D207B681B687A681268D26842F011
:1029C0000102DA607B681B68234A93421DD07B6852
:1029D0001B68B3F1804F18D07B681B681F4A934275
:1029E00013D07B681B681E4A93420ED07B681B681D
:1029F0001C4A934209D07B681B681B4A934204D04F
:102A00007B681B68194A934215D17B681B689A68DA
:102A1000174B1340FB60FB68062B15D0FB68B3F522
:102A2000803F11D07B681B687A681268126842F098
:102A300001021A6008E07B681B687A6812681268F5
:102A400042F001021A6000E000BF0023184614376C
:102A5000BD465DF8047B7047002C01400004004037
:102A600000080040000C00400034014000400140DC
:102A70000700010080B582B000AF78607B681B68FA
:102A80001B6903F00203022B22D17B681B68DB6801
:102A900003F00203022B1BD17B681B686FF002025C
:102AA0001A617B6801221A777B681B689B6903F0B7
:102AB0000303002B03D0786800F005F905E078687F
:102AC00000F0F7F8786800F008F97B6800221A77C0
:102AD0007B681B681B6903F00403042B22D17B680D
:102AE0001B68DB6803F00403042B1BD17B681B68A5
:102AF0006FF004021A617B6802221A777B681B68F8
:102B00009B6903F44073002B03D0786800F0DBF876
:102B100005E0786800F0CDF8786800F0DEF87B68B2
:102B200000221A777B681B681B6903F00803082BD7
:102B300022D17B681B68DB6803F00803082B1BD1DC
:102B40007B681B686FF008021A617B6804221A77A1
:102B50007B681B68DB6903F00303002B03D07868F4
:102B600000F0B1F805E0786800F0A3F8786800F0AC
:102B7000B4F87B6800221A777B681B681B6903F036
:102B80001003102B22D17B681B68DB6803F0100355
:102B9000102B1BD17B681B686FF010021A617B68D9
:102BA00008221A777B681B68DB6903F44073002BEB
:102BB00003D0786800F087F805E0786800F079F8CD
:102BC000786800F08AF87B6800221A777B681B68B7
:102BD0001B6903F00103012B0ED17B681B68DB68C6
:102BE00003F00103012B07D17B681B686FF0010222
:102BF0001A617868FDF728FF7B681B681B6903F082
:102C00008003802B0ED17B681B68DB6803F0800398
:102C1000802B07D17B681B686FF080021A6178688F
:102C200000F014F97B681B681B6903F48073B3F52B
:102C3000807F0ED17B681B68DB6803F08003802BEC
:102C400007D17B681B686FF480721A61786800F0A6
:102C500007F97B681B681B6903F04003402B0ED10A
:102C60007B681B68DB6803F04003402B07D17B685F
:102C70001B686FF040021A61786800F038F87B68D2
:102C80001B681B6903F02003202B0ED17B681B6897
:102C9000DB6803F02003202B07D17B681B686FF0F3
:102CA00020021A61786800F0C7F800BF0837BD46F7
:102CB00080BD80B483B000AF786000BF0C37BD46E4
:102CC0005DF8047B704780B483B000AF786000BFCC
:102CD0000C37BD465DF8047B704780B483B000AF0D
:102CE000786000BF0C37BD465DF8047B704780B448
:102CF00083B000AF786000BF0C37BD465DF8047B41
:102D00007047000080B485B000AF786039607B68A0
:102D10001B68FB607B68404A934213D07B68B3F129
:102D2000804F0FD07B683D4A93420BD07B683C4A72
:102D3000934207D07B683B4A934203D07B683A4A70
:102D4000934208D1FB6823F07003FB603B685B682B
:102D5000FA681343FB607B682F4A93421FD07B685D
:102D6000B3F1804F1BD07B682C4A934217D07B680D
:102D70002B4A934213D07B682A4A93420FD07B6838
:102D8000294A93420BD07B68284A934207D07B683C
:102D9000274A934203D07B68264A934208D1FB68B6
:102DA00023F44073FB603B68DB68FA681343FB6005
:102DB000FB6823F080023B685B691343FB607B6820
:102DC000FA681A603B689A687B68DA623B681A683E
:102DD0007B689A627B68104A93420FD07B68124AE4
:102DE00093420BD07B68114A934207D07B68104A0C
:102DF000934203D07B680F4A934203D13B681A6920
:102E00007B681A637B6801225A6100BF1437BD4694
:102E10005DF8047B704700BF002C014000040040B7
:102E200000080040000C0040003401400040014018
:102E3000004401400048014080B483B000AF786096
:102E400000BF0C37BD465DF8047B704780B483B08B
:102E500000AF786000BF0C37BD465DF8047B70475B
:102E600080B483B000AF786000BF0C37BD465DF81A
:102E7000047B704780B582B000AF78607B68002B20
:102E800001D1012340E07B689B6F002B06D17B685A
:102E9000002283F874207868FDF714FE7B682422F2
:102EA0009A677B681B687A681268126822F00102D0
:102EB0001A60786800F0C0F80346012B01D10123A5
:102EC00022E07B685B6A002B02D0786800F038FB58
:102ED0007B681B687A681268526822F490425A60D4
:102EE0007B681B687A681268926822F02A029A60EE
:102EF0007B681B687A681268126842F001021A60E7
:102F0000786800F0BFFB034618460837BD4680BD11
:102F100080B58AB002AFF860B9603B601346FB80B1
:102F2000FB689B6F202B40F08280BB68002B02D097
:102F3000FB88002B01D101237AE0FB6893F8743001
:102F4000012B01D1022373E0FB68012283F8742076
:102F5000FB680022C3F88020FB6821229A67FDF7F6
:102F6000F3FE7861FB68FA88A3F85020FB68FA88C2
:102F7000A3F85220FB689B68B3F5805F08D1FB681B
:102F80001B69002B04D10023FB61BB68BB6103E01C
:102F9000BB68FB610023BB61FB68002283F87420DF
:102FA0002DE03B6800937B6900228021F86800F0E7
:102FB000B2FB0346002B01D0032339E0FB69002B51
:102FC0000BD1FB681B68BA691288C2F3080292B27F
:102FD0001A85BB690233BB6108E0FB681B68FA69AC
:102FE000127892B21A85FB690133FB61FB68B3F872
:102FF00052309BB2013B9AB2FB68A3F85220FB68A7
:10300000B3F852309BB2002BCBD13B6800937B6965
:1030100000224021F86800F07EFB0346002B01D01F
:10302000032305E0FB6820229A67002300E00223C7
:1030300018462037BD4680BDB0B588B000AF786077
:103040000023BB767B689A687B681B691A437B68A0
:103050005B691A437B68DB691343FB617B681A6811
:103060007B681B681968AC4B0B40F9690B43136014
:103070007B681B687A681268526822F440517A684B
:10308000D2680A435A607B689B69FB617B681B6856
:10309000A24A934204D07B681B6AFA691343FB611E
:1030A0007B681B687A681268926822F43061FA695A
:1030B0000A439A607B681B68994A934222D1994BD4
:1030C000D3F8883003F00303032B17D801A252F87A
:1030D00023F000BFE5300008F1300008EB300008B5
:1030E000F73000080123FB76E8E00223FB76E5E0F9
:1030F0000423FB76E2E00823FB76DFE01023FB7677
:1031000000BFDBE07B681B68874A934234D1854B64
:10311000D3F8883003F00C030C2B29D801A252F805
:1031200023F000BF593100087131000871310008E7
:1031300071310008653100087131000871310008F3
:10314000713100085F3100087131000871310008E9
:10315000713100086B3100080023FB76AEE00223DA
:10316000FB76ABE00423FB76A8E00823FB76A5E022
:103170001023FB7600BFA1E07B681B686B4A93427B
:1031800020D1684BD3F8883003F03003102B0FD0D8
:10319000102B02D8002B05D010E0202B05D0302BAF
:1031A00009D00BE00023FB7688E00223FB7685E064
:1031B0000423FB7682E00823FB767FE01023FB7676
:1031C00000BF7BE07B681B68594A934220D1554B76
:1031D000D3F8883003F0C003402B0FD0402B02D827
:1031E000002B05D010E0802B05D0C02B09D00BE0C0
:1031F0000023FB7662E00223FB765FE00423FB768C
:103200005CE00823FB7659E01023FB7600BF55E015
:103210007B681B68474A934224D1424BD3F88830DD
:1032200003F44073B3F5807F12D0B3F5807F02D8EA
:10323000002B07D012E0B3F5007F06D0B3F5407F36
:1032400009D00BE00023FB7638E00223FB7635E063
:103250000423FB7632E00823FB762FE01023FB7675
:1032600000BF2BE07B681B682C4A934224D12D4B76
:10327000D3F8883003F44063B3F5806F12D0B3F510
:10328000806F02D8002B07D012E0B3F5006F06D094
:10329000B3F5406F09D00BE00023FB760EE002236C
:1032A000FB760BE00423FB7608E00823FB7605E0C1
:1032B0001023FB7600BF01E01023FB767B681B68C0
:1032C000164A934240F08080FB7E082B36D801A23C
:1032D00052F823F0F93200083D33000801330008AA
:1032E0003D330008073300083D3300083D33000834
:1032F0003D3300080F330008FEF77CFD786122E0C3
:103300000D4B7B611FE0FEF7DFFC78611BE04FF4A3
:1033100000437B6117E000BFF369FFEF00800040CE
:1033200000380140001002400044004000480040C6
:10333000004C0040005000400024F40000237B615A
:103340000123BB7600BF7B69002B00F0EB807B681C
:103350005A6813465B001A447B699A4205D87B6819
:103360005B681A037B699A4202D20123BB76D9E0DB
:103370007B691A464FF000031D0245EA12651402EC
:103380007B685B685B081A464FF00003A01845EBAA
:1033900003017B685B684FF000041A462346FCF784
:1033A0006FFF03460C463B613B69B3F5407F08D392
:1033B0003B69B3F5801F04D27B681B683A69DA6009
:1033C000B0E00123BB76ADE07B68DB69B3F5004F6D
:1033D0005CD1FB7E082B28D801A252F823F000BF55
:1033E000053400080D340008153400082B3400089B
:1033F0001B3400082B3400082B3400082B34000841
:1034000023340008FEF7F6FC786113E0FEF708FDB0
:1034100078610FE0494B7B610CE0FEF755FC786169
:1034200008E04FF400437B6104E000237B6101234B
:10343000BB7600BF7B69002B74D07B695A007B6828
:103440005B685B081A447B685B68B2FBF3F39BB272
:103450003B613B690F2B16D93B69B3F5803F12D214
:103460003B699BB223F00F03FB813B695B089BB276
:1034700003F007039AB2FB891343FB817B681B6847
:10348000FA89DA604EE00123BB764BE0FB7E082B25
:1034900027D801A252F823F0BD340008C534000833
:1034A000CD340008E3340008D3340008E3340008C6
:1034B000E3340008E3340008DB340008FEF79AFC2C
:1034C000786113E0FEF7ACFC78610FE01B4B7B6189
:1034D0000CE0FEF7F9FB786108E04FF400437B61F4
:1034E00004E000237B610123BB7600BF7B69002BD6
:1034F00018D07B685B685A087B691A447B685B68F4
:10350000B2FBF3F39BB23B613B690F2B08D93B69DC
:10351000B3F5803F04D27B681B683A69DA6001E04A
:103520000123BB767B6800225A667B6800229A667C
:10353000BB7E18462037BD46B0BD00BF0024F40056
:1035400080B483B000AF78607B685B6A03F00103EE
:10355000002B0AD07B681B687A681268526822F4D4
:1035600000317A68926A0A435A607B685B6A03F0AA
:103570000203002B0AD07B681B687A6812685268C5
:1035800022F480317A68D26A0A435A607B685B6AA7
:1035900003F00403002B0AD07B681B687A6812686A
:1035A000526822F480217A68126B0A435A607B6861
:1035B0005B6A03F00803002B0AD07B681B687A68FB
:1035C0001268526822F400417A68526B0A435A60CA
:1035D0007B685B6A03F01003002B0AD07B681B68D2
:1035E0007A681268926822F480517A68926B0A4372
:1035F0009A607B685B6A03F02003002B0AD07B682B
:103600001B687A681268926822F400517A68D26B5B
:103610000A439A607B685B6A03F04003002B1AD070
:103620007B681B687A681268526822F480117A6895
:10363000126C0A435A607B681B6CB3F5801F0AD179
:103640007B681B687A681268526822F4C0017A6845
:10365000526C0A435A607B685B6A03F08003002B5C
:103660000AD07B681B687A681268526822F40021CD
:103670007A68926C0A435A6000BF0C37BD465DF809
:10368000047B704780B586B002AF78607B6800220B
:10369000C3F88020FDF758FBF8607B681B681B6847
:1036A00003F00803082B0ED16FF07E430093FB68F4
:1036B00000224FF40011786800F02DF80346002B2B
:1036C00001D0032323E07B681B681B6803F004031D
:1036D000042B0ED16FF07E430093FB6800224FF461
:1036E0008001786800F017F80346002B01D003230F
:1036F0000DE07B6820229A677B682022DA677B686E
:1037000000221A667B68002283F874200023184682
:103710001037BD4680BD80B584B000AFF860B96099
:103720003B601346FB715EE0BB69B3F1FF3F5AD0CB
:10373000FDF70AFB02463B68D21ABB699A4202D8DF
:10374000BB69002B1BD1FB681B68FA681268126802
:1037500022F4D0721A60FB681B68FA6812689268DB
:1037600022F001029A60FB6820229A67FB682022FF
:10377000DA67FB68002283F87420032343E0FB68C8
:103780001B681B6803F00403002B2CD0FB681B682C
:10379000DB6903F40063B3F5006F24D1FB681B6899
:1037A0004FF400621A62FB681B68FA6812681268BC
:1037B00022F4D0721A60FB681B68FA68126892687B
:1037C00022F001029A60FB6820229A67FB6820229F
:1037D000DA67FB682022C3F88020FB68002283F8A8
:1037E000742003230FE0FB681B68DA69BB681A408A
:1037F000BB689A420CBF01230023DBB21A46FB7957
:103800009A4291D0002318461037BD4680BD80B43F
:1038100083B000AF78607B6803F108027B685A6070
:103820007B684FF0FF329A607B6803F108027B6887
:10383000DA607B6803F108027B681A617B6800220A
:103840001A6000BF0C37BD465DF8047B704780B43A
:1038500083B000AF78607B6800221A6100BF0C372C
:10386000BD465DF8047B704780B485B000AF7860DA
:1038700039607B685B68FB603B68FA685A60FB688C
:103880009A683B689A60FB689B683A685A60FB6874
:103890003A689A603B687A681A617B681B685A1CB0
:1038A0007B681A6000BF1437BD465DF8047B704723
:1038B00080B485B000AF786039603B681B68BB603E
:1038C000BB68B3F1FF3F03D17B681B69FB600CE071
:1038D0007B680833FB6002E0FB685B68FB60FB68A9
:1038E0005B681A68BB689A42F6D9FB685A683B68FD
:1038F0005A603B685B683A689A603B68FA689A600D
:10390000FB683A685A603B687A681A617B681B6892
:103910005A1C7B681A6000BF1437BD465DF8047BF3
:10392000704780B485B000AF78607B681B69FB602E
:103930007B685B687A6892689A607B689B687A6843
:1039400052685A60FB685A687B689A4203D17B6868
:103950009A68FB685A607B6800221A61FB681B68E2
:103960005A1EFB681A60FB681B6818461437BD4670
:103970005DF8047B7047000080B485B000AFF8604C
:10398000B9607A60FB68043BFB60FB684FF08072B3
:103990001A60FB68043BFB60BB6823F00102FB6814
:1039A0001A60FB68043BFB600C4AFB681A60FB680A
:1039B000143BFB607A68FB681A60FB68043BFB60A1
:1039C000FB686FF002021A60FB68203BFB60FB683B
:1039D00018461437BD465DF8047B7047E13900088E
:1039E00080B485B000AF00237B60114B1B68B3F13E
:1039F000FF3F09D04FF0500383F31188BFF36F8F5F
:103A0000BFF34F8FFB60FEE74FF0500383F3118845
:103A1000BFF36F8FBFF34F8FBB6000BF7B68002B7E
:103A2000FCD000BF1437BD465DF8047B704700BF73
:103A30000C0000200000000000000000000000005A
:103A4000074B19680868B0E8F04F80F30988BFF3A6
:103A50006F8F4FF0000080F311887047AFF3008044
:103A6000CC0E002000BF00BF08480068006880F34B
:103A700008884FF0000080F3148862B661B6BFF387
:103A80004F8FBFF36F8F00DF00BF00BF08ED00E076
:103A900080B586B000AF444B1B68444A934209D1BD
:103AA0004FF0500383F31188BFF36F8FBFF34F8F35
:103AB0003B61FEE73C4B1B683D4A934209D14FF006
:103AC000500383F31188BFF36F8FBFF34F8FFB60F9
:103AD000FEE7384B7B617B691B78DBB27B607B69DF
:103AE000FF221A707B691B78DBB2FB70FB78DBB2BC
:103AF00003F05003DAB2304B1A70304B07221A60D1
:103B000009E02E4B1B68013B2C4A1360FB78DBB2AB
:103B10005B00DBB2FB70FB78DBB203F08003802B31
:103B2000EFD0264B1B68C3F10703042B09D04FF0DD
:103B3000500383F31188BFF36F8FBFF34F8FBB60C8
:103B4000FEE71E4B1B681B021C4A13601B4B1B68C5
:103B500003F4E063194A13607B68DAB27B691A7078
:103B6000174A174B1B6843F470031360144A144B35
:103B70001B6843F07043136000F0D6F8114B00222D
:103B80001A6000F0F5F8104A0F4B1B6843F04043F1
:103B90001360FFF769FF01F003FAFFF721FF00232D
:103BA00018461837BD4680BD00ED00E071C20F41D8
:103BB00070C20F4100E400E0EC020020F00200209F
:103BC00020ED00E00C00002034EF00E080B483B072
:103BD00000AF4FF0500383F31188BFF36F8FBFF333
:103BE0004F8F7B600E4B1B6801330D4A13600C4BEB
:103BF0001B68012B0ED10B4B1B68DBB2002B09D0CD
:103C00004FF0500383F31188BFF36F8FBFF34F8FD3
:103C10003B60FEE700BF0C37BD465DF8047B704794
:103C20000C00002004ED00E080B483B000AF114B25
:103C30001B68002B09D14FF0500383F31188BFF3A9
:103C40006F8FBFF34F8F7B60FEE70A4B1B68013B12
:103C5000084A1360074B1B68002B04D100233B600C
:103C60003B6883F3118800BF0C37BD465DF8047BC9
:103C7000704700BF0C0000200000000000000000A2
:103C8000EFF30980BFF36F8F154B1A681EF0100F0A
:103C900008BF20ED108A20E9F04F10602DE90900DF
:103CA0004FF0500080F31188BFF34F8FBFF36F8F39
:103CB00001F076F94FF0000080F3118809BC196813
:103CC0000868B0E8F04F1EF0100F08BFB0EC108A83
:103CD00080F30988BFF36F8F704700BFAFF3008098
:103CE000CC0E002000BF00BF80B582B000AF4FF007
:103CF000500383F31188BFF36F8FBFF34F8F7B6047
:103D000001F096F80346002B03D0064B4FF080528B
:103D10001A6000233B603B6883F3118800BF0837BB
:103D2000BD4680BD04ED00E080B400AF0B4B002227
:103D30001A600B4B00221A600A4A0B4B1B680B4996
:103D4000A1FB03139B09013B1360044B07221A607C
:103D500000BFBD465DF8047B704700BF10E000E087
:103D600018E000E014E000E000000020D34D6210F5
:103D7000DFF80C00016841F470010160704700BF7A
:103D800088ED00E080B58AB000AF78600023FB6169
:103D900000F0A4FF594B1B68002B01D100F01AF969
:103DA000574B1A687B681340002B40F091807B686A
:103DB000002B1CD008227B6813447B607B6803F0D7
:103DC0000703002B13D07B6823F0070308337B60C5
:103DD0007B6803F00703002B09D04FF0500383F3F7
:103DE0001188BFF36F8FBFF34F8F7B61FEE77B6856
:103DF000002B6DD0434B1B687A689A4268D8424BBF
:103E00003B62414B1B687B6204E07B6A3B627B6ADE
:103E10001B687B627B6A5A687B689A4203D27B6A22
:103E20001B68002BF1D1354B1B687A6A9A424FD040
:103E30003B6A1B6808221344FB617B6A1A683B6A71
:103E40001A607B6A5A687B68D21A08235B009A4220
:103E50001ED97A6A7B681344BB61BB6903F0070310
:103E6000002B09D04FF0500383F31188BFF36F8FFD
:103E7000BFF34F8F3B61FEE77B6A5A687B68D21ABB
:103E8000BB695A607B6A7A685A60B86900F004F9C5
:103E90001C4B1A687B6A5B68D31A1A4A1360194B69
:103EA0001A681A4B1B689A4203D2164B1B68174AB2
:103EB00013607B6A5A68124B1B681A437B6A5A600C
:103EC0007B6A00221A60124B1B680133104A136090
:103ED00000F012FFFB6903F00703002B09D04FF03D
:103EE000500383F31188BFF36F8FBFF34F8FFB60D5
:103EF000FEE7FB6918462837BD4680BDB40E00209A
:103F0000C80E0020B80E0020AC0E0020BC0E002011
:103F1000C00E002080B586B000AF78607B687B6102
:103F20007B68002B4BD008235B427A6913447B618A
:103F30007B693B613B695A68234B1B681340002B2C
:103F400009D14FF0500383F31188BFF36F8FBFF394
:103F50004F8FFB60FEE73B691B68002B09D04FF0D9
:103F6000500383F31188BFF36F8FBFF34F8FBB6094
:103F7000FEE73B695A68144B1B681340002B1ED0A8
:103F80003B691B68002B1AD13B695A680E4B1B68B2
:103F9000DB431A403B695A6000F0A0FE3B695A6857
:103FA0000A4B1B681344094A1360386900F074F81F
:103FB000074B1B680133064A136000F09DFE00BFEB
:103FC0001837BD4680BD00BFC80E0020B80E0020C7
:103FD000C40E002080B485B000AF40F6B833BB609B
:103FE000274BFB60FB6803F00703002B0CD0FB683A
:103FF0000733FB60FB6823F00703FB60BA68FB68CC
:10400000D31A1F4A1344BB60FB687B601D4A7B6860
:1040100013601C4B00225A607A68BB681344FB6033
:104020000822FB689B1AFB60FB6823F00703FB6018
:10403000FB68154A1360144B1B6800225A60124B30
:104040001B6800221A607B683B603B68FA68D21AE2
:104050003B685A600C4B1A683B681A603B685B68A7
:104060000A4A13603B685B68094A1360094B4FF0CA
:1040700000421A6000BF1437BD465DF8047B7047EC
:10408000F4020020AC0E0020B40E0020BC0E002074
:10409000B80E0020C80E002080B485B000AF786054
:1040A000284BFB6002E0FB681B68FB60FB681A683A
:1040B0007B689A42F7D3FB68BB60FB685B68BA68B1
:1040C0001A447B689A4208D1FB685A687B685B682F
:1040D0001A44FB685A60FB687B607B68BB607B6846
:1040E0005B68BA681A44FB681B689A4218D1FB687F
:1040F0001A68154B1B689A420DD07B685A68FB689A
:104100001B685B681A447B685A60FB681B681A6806
:104110007B681A6008E00C4B1A687B681A6003E041
:10412000FB681A687B681A60FA687B689A4202D05A
:10413000FB687A681A6000BF1437BD465DF8047BDF
:10414000704700BFAC0E0020B40E002080B584B0D4
:1041500000AF786039607B68FB60FB68002B09D199
:104160004FF0500383F31188BFF36F8FBFF34F8F6E
:10417000BB60FEE7FFF72AFDFB681A68FB68DB6B94
:10418000F968096C01FB03F31A44FB689A60FB6849
:1041900000229A63FB681A68FB685A60FB681A6819
:1041A000FB68DB6B013BF968096C01FB03F31A4404
:1041B000FB68DA60FB68FF2283F84420FB68FF227B
:1041C00083F845203B68002B14D1FB681B69002B4A
:1041D0001AD0FB681033184600F060FF0346002B2E
:1041E00012D00D4B4FF080521A60BFF34F8FBFF3C8
:1041F0006F8F09E0FB6810331846FFF708FBFB6878
:1042000024331846FFF703FBFFF70EFD0123184682
:104210001037BD4680BD00BF04ED00E080B58AB018
:1042200002AFF860B9601346FB71FB68002B09D13F
:104230004FF0500383F31188BFF36F8FBFF34F8F9D
:104240003B61FEE7FB68BA6802FB03F3FB61FB69B5
:1042500048331846FFF796FDB861BB69002B11D0B3
:10426000BB697B617B6948337B61BB69002283F852
:104270004620FA79BB69009313467A69B968F868F1
:1042800000F005F8BB6918462037BD4680BD80B5F3
:1042900084B000AFF860B9607A60FB70BB68002B37
:1042A00003D1BB69BA691A6002E0BB697A681A6017
:1042B000BB69FA68DA63BB69BA681A640121B86934
:1042C000FFF744FF00BF1037BD4680BD80B58EB0FC
:1042D00000AFF860B9607A603B6000237B63FB68E5
:1042E0003B633B6B002B09D14FF0500383F31188E4
:1042F000BFF36F8FBFF34F8FBB62FEE7BB68002B2E
:1043000003D13B6B1B6C002B01D1012300E0002388
:10431000002B09D14FF0500383F31188BFF36F8F47
:10432000BFF34F8F7B62FEE73B68022B03D13B6BF1
:10433000DB6B012B01D1012300E00023002B09D10D
:104340004FF0500383F31188BFF36F8FBFF34F8F8C
:104350003B62FEE701F058F80346002B02D17B6870
:10436000002B01D1012300E00023002B09D14FF0E5
:10437000500383F31188BFF36F8FBFF34F8FFB613F
:10438000FEE7FFF723FC3B6B9A6B3B6BDB6B9A42C0
:1043900002D33B68022B29D13A68B968386B00F028
:1043A0006BF9F8623B6B5B6A002B10D03B6B2433DC
:1043B000184600F073FE0346002B13D03F4B4FF01E
:1043C00080521A60BFF34F8FBFF36F8F0AE0FB6A12
:1043D000002B07D0394B4FF080521A60BFF34F8F3C
:1043E000BFF36F8FFFF720FC012363E07B68002B96
:1043F00003D1FFF719FC00235CE07B6B002B06D197
:1044000007F11403184600F0ABFE01237B63FFF7AE
:104410000BFC00F063FCFFF7D9FB3B6B93F84430D7
:104420005BB2B3F1FF3F03D13B6B002283F8442022
:104430003B6B93F845305BB2B3F1FF3F03D13B6B6D
:10444000002283F84520FFF7EFFB3A1D07F1140324
:104450001146184600F09AFE0346002B24D1386B13
:1044600000F002FA0346002B18D03B6B10337A6839
:104470001146184600F0EEFD386B00F08DF900F0A3
:104480003BFC0346002B7FF47CAF0C4B4FF080527B
:104490001A60BFF34F8FBFF36F8F72E7386B00F076
:1044A0007BF900F029FC6CE7386B00F075F900F03F
:1044B00023FC002318463837BD4680BD04ED00E0DC
:1044C00080B58CB000AFF860B9607A600023FB6201
:1044D000FB68BB62BB6A002B09D14FF0500383F32A
:1044E0001188BFF36F8FBFF34F8F3B62FEE7BB684E
:1044F000002B03D1BB6A1B6C002B01D1012300E010
:104500000023002B09D14FF0500383F31188BFF330
:104510006F8FBFF34F8FFB61FEE700F075FF03461F
:10452000002B02D17B68002B01D1012300E0002386
:10453000002B09D14FF0500383F31188BFF36F8F25
:10454000BFF34F8FBB61FEE7FFF740FBBB6A9B6B7E
:104550007B627B6A002B1FD0B968B86A00F0F6F85E
:104560007B6A5A1EBB6A9A63BB6A1B69002B0FD019
:10457000BB6A1033184600F091FD0346002B07D0AC
:104580003C4B4FF080521A60BFF34F8FBFF36F8FD9
:10459000FFF74AFB012369E07B68002B03D1FFF79B
:1045A00043FB002362E0FB6A002B06D107F11003F6
:1045B000184600F0D5FD0123FB62FFF735FB00F044
:1045C0008DFBFFF703FBBB6A93F844305BB2B3F19A
:1045D000FF3F03D1BB6A002283F84420BB6A93F8F3
:1045E00045305BB2B3F1FF3F03D1BB6A002283F8D1
:1045F0004520FFF719FB3A1D07F110031146184635
:1046000000F0C4FD0346002B23D1B86A00F016F970
:104610000346002B17D0BB6A24337A68114618462C
:1046200000F018FDB86A00F0B7F800F065FB03462B
:10463000002B89D10F4B4FF080521A60BFF34F8F80
:10464000BFF36F8F80E7B86A00F0A6F800F054FB64
:104650007AE7B86A00F0A0F800F04EFBB86A00F004
:10466000EDF80346002B3FF46FAF002318463037B8
:10467000BD4680BD04ED00E080B586B000AFF860B7
:10468000B9607A6000237B61FB689B6B3B61FB68D0
:104690001B6C002B0DD1FB681B68002B4DD1FB68F8
:1046A0009B68184600F0CEFE7861FB6800229A6095
:1046B00043E07B68002B19D1FB685868FB681B6CD2
:1046C0001A46B96800F0FCFFFB685A68FB681B6C6F
:1046D0001A44FB685A60FB685A68FB689B689A42F8
:1046E0002BD3FB681A68FB685A6026E0FB68D86821
:1046F000FB681B6C1A46B96800F0E2FFFB68DA68D9
:10470000FB681B6C5B421A44FB68DA60FB68DA6882
:10471000FB681B689A4207D2FB689A68FB681B6CAF
:104720005B421A44FB68DA607B68022B05D13B6967
:10473000002B02D03B69013B3B613B695A1CFB6883
:104740009A637B6918461837BD4680BD80B582B034
:1047500000AF786039607B681B6C002B18D07B68D9
:10476000DA687B681B6C1A447B68DA607B68DA68FD
:104770007B689B689A4203D37B681A687B68DA601F
:104780007B68D9687B681B6C1A46386800F098FF14
:1047900000BF0837BD4680BD80B584B000AF7860EB
:1047A000FFF714FA7B6893F84530FB7311E07B68E0
:1047B0005B6A002B12D07B682433184600F06EFC35
:1047C0000346002B01D000F041FDFB7B013BDBB237
:1047D000FB7397F90F30002BE9DC00E000BF7B682A
:1047E000FF2283F84520FFF71FFAFFF7EFF97B68F8
:1047F00093F84430BB7311E07B681B69002B12D027
:104800007B681033184600F049FC0346002B01D0AA
:1048100000F01CFDBB7B013BDBB2BB7397F90E3094
:10482000002BE9DC00E000BF7B68FF2283F8442016
:10483000FFF7FAF900BF1037BD4680BD80B584B0E0
:1048400000AF7860FFF7C2F97B689B6B002B02D149
:104850000123FB6001E00023FB60FFF7E5F9FB6843
:1048600018461037BD4680BD80B584B000AF786073
:10487000FFF7ACF97B689A6B7B68DB6B9A4202D1DD
:104880000123FB6001E00023FB60FFF7CDF9FB682B
:1048900018461037BD4680BD80B58EB004AFF860B5
:1048A000B9607A603B607B6B002B09D14FF05003FD
:1048B00083F31188BFF36F8FBFF34F8F3B62FEE727
:1048C000BB6B002B09D14FF0500383F31188BFF36A
:1048D0006F8FBFF34F8FFB61FEE754233B613B6952
:1048E000542B09D04FF0500383F31188BFF36F8F1F
:1048F000BFF34F8FBB61FEE73B69BB6B002B1ED044
:104900007B6B002B1BD0BB6B7B627B6A7A6B1A6361
:104910007B6A022283F85120002303937B6A02936F
:1049200007F1140301933B6B00933B687A68B96805
:10493000F86800F050F8786A00F0D4F801E000233D
:104940007B617B6918462837BD4680BD80B58CB039
:1049500004AFF860B9603B601346FB80FB889B00A6
:104960001846FFF70FFA78617B69002B0ED05420B0
:10497000FFF708FAF861FB69002B03D0FB697A693D
:104980001A6305E07869FFF7C5FA01E00023FB61CF
:10499000FB69002B17D0FB69002283F85120FA88AD
:1049A00000230393FB690293FB6A0193BB6A0093A4
:1049B0003B68B968F86800F00EF8F86900F092F802
:1049C0000123BB6102E04FF0FF33BB61BB691846B6
:1049D0002037BD4680BD80B588B000AFF860B960B3
:1049E0007A603B603B6B1A6B7B6803F18043013B51
:1049F0009B001344BB61BB6923F00703BB61BB6928
:104A000003F00703002B09D04FF0500383F3118804
:104A1000BFF36F8FBFF34F8F7B61FEE7BB68002B47
:104A20001FD00023FB6112E0BA68FB6913441978B8
:104A30003A6BFB69134434330A461A70BA68FB694F
:104A400013441B78002B06D0FB690133FB61FB6923
:104A50000F2BE9D900E000BF3B6B002283F8432015
:104A600003E03B6B002283F83420BB6A062B01D99C
:104A70000623BB623B6BBA6ADA623B6BBA6A5A6462
:104A80003B6B00229A643B6B04331846FEF7DFFE53
:104A90003B6B18331846FEF7DAFE3B6B3A6B1A6134
:104AA000BB6AC3F107023B6B9A613B6B3A6B5A627C
:104AB0003B6B0022DA643B6B002283F850203A689B
:104AC000F968B869FEF758FF02463B6B1A60FB6A4B
:104AD000002B02D0FB6A3A6B1A6000BF2037BD463C
:104AE00080BD000080B582B000AF7860FFF76EF83F
:104AF0002A4B1B680133294A1360294B1B68002B82
:104B000009D1274A7B681360244B1B68012B10D105
:104B100000F0C0FB0DE0234B1B68002B09D1204B9C
:104B20001B68DA6A7B68DB6A9A4202D81C4A7B6897
:104B300013601D4B1B6801331B4A13607B68DB6AE3
:104B400001229A40194B1B681343184A13607B6873
:104B5000DA6A13469B0013449B00154A1A447B688B
:104B6000043319461046FEF77FFEFFF75DF80D4B44
:104B70001B68002B0ED00A4B1B68DA6A7B68DB6A65
:104B80009A4207D20B4B4FF080521A60BFF34F8FFF
:104B9000BFF36F8F00BF0837BD4680BDCC0F00202C
:104BA000CC0E0020D80F0020E80F0020D40F0020EA
:104BB000D00E002004ED00E080B584B000AF786036
:104BC0000023FB607B68002B16D0134B1B68002B67
:104BD00009D04FF0500383F31188BFF36F8FBFF3F9
:104BE0004F8FBB60FEE700F079F80021786800F095
:104BF000ADFC00F081F8F860FB68002B07D1074B93
:104C00004FF080521A60BFF34F8FBFF36F8F00BF1A
:104C10001037BD4680BD00BFF40F002004ED00E05A
:104C200080B58AB004AF0023BB6000237B603A46A6
:104C3000391D07F108031846FBF7AAFC39687B68A1
:104C4000BA68029201930023009300230A461D498B
:104C50001D48FFF721FE02461C4B1A601B4B1B68C8
:104C6000002B02D001237B6101E000237B617B6983
:104C7000012B15D14FF0500383F31188BFF36F8FD1
:104C8000BFF34F8F3B61124B4FF0FF321A60114B55
:104C900001221A60104B00221A60FEF7F9FE0DE0A7
:104CA0007B69B3F1FF3F09D14FF0500383F31188C3
:104CB000BFF36F8FBFF34F8FFB60FEE700BF183766
:104CC000BD4680BD3061000865520008F00F00202D
:104CD000EC0F0020D80F0020D00F002080B400AFD0
:104CE000044B1B680133034A136000BFBD465DF8E7
:104CF000047B7047F40F002080B584B000AF002320
:104D0000FB600023BB60414B1B68002B09D14FF0B7
:104D1000500383F31188BFF36F8FBFF34F8F3B6056
:104D2000FEE7FEF753FF394B1B68013B374A136020
:104D3000364B1B68002B61D1354B1B68002B5DD0B7
:104D40002EE0344BDB68DB68FB60FB6818331846E9
:104D5000FEF7E7FDFB6804331846FEF7E2FDFB684B
:104D6000DB6A01229A402C4B1B6813432A4A1360CA
:104D7000FB68DA6A13469B0013449B00274A1A44D7
:104D8000FB68043319461046FEF76EFDFB68DA6ACD
:104D9000234B1B68DB6A9A4202D3224B01221A6022
:104DA0001C4B1B68002BCCD1FB68002B01D000F002
:104DB0000BFB1D4B1B687B607B68002B10D000F049
:104DC00037F80346002B02D0164B01221A607B688D
:104DD000013B7B607B68002BF1D1134B00221A60F2
:104DE000104B1B68002B09D00123BB600F4B4FF009
:104DF00080521A60BFF34F8FBFF36F8FFEF714FF1F
:104E0000BB6818461037BD4680BD00BFF40F0020B8
:104E1000CC0F00208C0F0020D40F0020D00E0020DB
:104E2000CC0E0020E00F0020DC0F002004ED00E09D
:104E300080B586B000AF00237B614E4B1B68002B12
:104E400040F08D804C4B1B6801333B614A4A3B6903
:104E500013603B69002B1FD1484B1B681B68002B5C
:104E600009D04FF0500383F31188BFF36F8FBFF366
:104E70004F8F3B60FEE7414B1B68FB60404B1B685C
:104E80003E4A13603E4AFB6813603E4B1B68013389
:104E90003C4A136000F098FA3B4B1B683A699A420F
:104EA00048D3364B1B681B68002B04D1364B4FF0A0
:104EB000FF321A603EE0314B1B68DB68DB68BB6089
:104EC000BB685B687B603A697B689A4203D22E4A72
:104ED0007B6813602EE0BB6804331846FEF721FDA3
:104EE000BB689B6A002B04D0BB6818331846FEF7DA
:104EF00018FDBB68DB6A01229A40244B1B681343F0
:104F0000224A1360BB68DA6A13469B0013449B0075
:104F10001F4A1A44BB68043319461046FEF7A4FC26
:104F2000BB68DA6A1B4B1B68DB6A9A42B9D3012360
:104F30007B61B6E7174B1B68DA6A154913469B007D
:104F400013449B000B441B68012B01D901237B6197
:104F5000114B1B68002B07D001237B6104E00F4B32
:104F60001B6801330D4A13607B6918461837BD462C
:104F700080BD00BFF40F0020D00F0020840F002060
:104F8000880F0020E40F0020EC0F0020D40F002039
:104F9000D00E0020CC0E0020E00F0020DC0F0020FF
:104FA00080B487B000AF264B1B68002B03D0254B85
:104FB00001221A603EE0234B00221A60224B1B683C
:104FC000FB60FB68B3FA83F3FB72FB7AC3F11F0348
:104FD0007B611E497A6913469B0013449B000B4476
:104FE0001B68002B09D14FF0500383F31188BFF3E6
:104FF0006F8FBFF34F8F7B60FEE77A6913469B008C
:1050000013449B00114A13443B613B695B685A6837
:105010003B695A603B695A683B6908339A4204D13C
:105020003B695B685A683B695A603B695B68DB684F
:10503000074A136000BF1C37BD465DF8047B70470C
:10504000F40F0020E00F0020D40F0020D00E00202D
:10505000CC0E002080B584B000AF786039607B68EA
:10506000002B09D14FF0500383F31188BFF36F8FEA
:10507000BFF34F8FFB60FEE7074B1B6818331946E1
:105080007868FEF715FC0121386800F05FFA00BF70
:105090001037BD4680BD00BFCC0E002080B586B065
:1050A00000AF78607B68DB68DB683B613B69002BA5
:1050B00009D14FF0500383F31188BFF36F8FBFF313
:1050C0004F8FFB60FEE73B6918331846FEF729FC5B
:1050D0001D4B1B68002B1CD13B6904331846FEF79F
:1050E00020FC3B69DB6A01229A40184B1B68134382
:1050F000164A13603B69DA6A13469B0013449B000F
:10510000134A1A443B69043319461046FEF7ACFBB8
:1051100005E03B69183319460E48FEF7A5FB3B69CD
:10512000DA6A0D4B1B68DB6A9A4205D901237B6161
:105130000A4B01221A6001E000237B617B6918465B
:105140001837BD4680BD00BFF40F0020D40F0020EB
:10515000D00E00208C0F0020CC0E0020E00F00208D
:1051600080B483B000AF7860064B1A687B681A6021
:10517000054B1A687B685A6000BF0C37BD465DF866
:10518000047B7047E40F0020D00F002080B588B06A
:1051900000AF786039607B68002B09D14FF0500375
:1051A00083F31188BFF36F8FBFF34F8F3B61FEE72F
:1051B0003B68002B09D14FF0500383F31188BFF3F4
:1051C0006F8FBFF34F8FFB60FEE7FEF7FFFC1D4BB9
:1051D0001B68BB617B685B68BA69D31A7B613B68FB
:1051E0001B68B3F1FF3F02D10023FB6123E07B6822
:1051F0001A68154B1B689A4207D07B685A68BB69CE
:105200009A4202D80123FB6115E03B681A687B696A
:105210009A420BD93B681A687B69D21A3B681A60BC
:105220007868FFF79DFF0023FB6104E03B680022E4
:105230001A600123FB61FEF7F7FCFB691846203773
:10524000BD4680BDD00F0020E40F002080B400AF29
:10525000034B01221A6000BFBD465DF8047B704716
:10526000E00F002080B582B000AF786000F052F807
:10527000064B1B68012BF9D9054B4FF080521A6081
:10528000BFF34F8FBFF36F8FF0E700BFD00E00204A
:1052900004ED00E080B582B000AF00237B600CE03D
:1052A0007A6813469B0013449B00124A1344184625
:1052B000FEF7ADFA7B6801337B607B68062BEFD984
:1052C0000D48FEF7A4FA0D48FEF7A1FA0C48FEF7C8
:1052D0009EFA0C48FEF79BFA0B48FEF798FA0B4B28
:1052E000054A1A600A4B054A1A6000BF0837BD46D6
:1052F00080BD00BFD00E00205C0F0020700F00208A
:105300008C0F0020A00F0020B80F0020840F002079
:10531000880F002080B582B000AF19E0FEF756FC80
:105320000F4BDB68DB687B607B6804331846FEF755
:10533000F8FA0C4B1B68013B0A4A13600A4B1B68C6
:10534000013B094A1360FEF76FFC786800F00EF825
:10535000054B1B68002BE1D100BF0837BD4680BD5F
:10536000A00F0020CC0F0020B40F002080B584B027
:1053700000AF78607B6893F85130002B08D17B68D0
:105380001B6B1846FEF7C6FD7868FEF7C3FD17E0F5
:105390007B6893F85130012B03D17868FEF7BAFD92
:1053A0000EE07B6893F85130022B09D04FF0500388
:1053B00083F31188BFF36F8FBFF34F8FFB60FEE75E
:1053C00000BF1037BD4680BD80B483B000AF0C4B2A
:1053D0001B681B68002B04D10A4B4FF0FF321A6088
:1053E00008E0074B1B68DB68DB687B607B685B68F9
:1053F000044A136000BF0C37BD465DF8047B70475C
:10540000840F0020EC0F002080B483B000AF0B4B62
:105410001B68002B02D101237B6008E0084B1B684E
:10542000002B02D102237B6001E000237B607B68BC
:1054300018460C37BD465DF8047B7047D80F002036
:10544000F40F002080B586B000AF78607B683B61C8
:1054500000237B617B68002B6CD0394B1B683A6959
:105460009A4209D04FF0500383F31188BFF36F8F36
:10547000BFF34F8FFB60FEE73B699B6C002B09D1AC
:105480004FF0500383F31188BFF36F8FBFF34F8F3B
:10549000BB60FEE73B699B6C5A1E3B699A643B69A3
:1054A000DA6A3B695B6C9A4244D03B699B6C002B87
:1054B00040D13B6904331846FEF733FA0346002B0C
:1054C00015D13B69DA6A1F4913469B0013449B00C0
:1054D0000B441B68002B0AD13B69DB6A012202FAEC
:1054E00003F3DA43184B1B681340174A13603B69F8
:1054F0005A6C3B69DA623B69DB6AC3F107023B69BC
:105500009A613B69DB6A01229A400F4B1B68134387
:105510000D4A13603B69DA6A13469B0013449B00F3
:10552000084A1A443B69043319461046FEF79CF9B1
:1055300001237B617B6918461837BD4680BD00BFDB
:10554000CC0E0020D00E0020D40F002080B584B0F7
:1055500000AF78603960294B1B68FB60284B1B68E3
:1055600004331846FEF7DDF90346002B0BD1244B1C
:105570001B68DB6A012202FA03F3DA43214B1B6842
:105580001340204A13607B68B3F1FF3F0AD13B68A8
:10559000002B07D01A4B1B68043319461A48FEF734
:1055A00063F926E0FA687B681344BB60144B1B6800
:1055B000BA685A60BA68FB689A4209D2134B1A68F3
:1055C0000F4B1B68043319461046FEF771F910E0C3
:1055D0000F4B1A680A4B1B68043319461046FEF736
:1055E00067F90C4B1B68BA689A4202D2094ABB6839
:1055F000136000BF1037BD4680BD00BFD00F002034
:10560000CC0E0020D40F0020B80F0020880F0020FF
:10561000840F0020EC0F0020DFF834D0FBF736FBBE
:10562000002103E00B4B5B58435004310A480B4BFD
:1056300042189A42F6D30A4A02E0002342F8043B99
:10564000084B9A42F9D300F017F8FAF7BBFFFEE7D0
:1056500000800120C46100080000002074000020C8
:1056600074000020E8100020FEE70000014B1868DD
:10567000704700BF1000002070B50D4E0D4CA41BEC
:10568000A4100025A54209D10B4E0C4C00F03EFCA5
:10569000A41BA4100025A54205D170BD56F82530E5
:1056A00098470135EEE756F8253098470135F2E77F
:1056B000BC610008BC610008BC610008C061000852
:1056C00010B5431E0A44914200D110BD11F8014BA0
:1056D00003F8014FF7E702440346934200D17047B5
:1056E00003F8011BF9E700000EB400B59CB04FF4BD
:1056F00002711DABADF81410029006906FF00041DE
:105700000A48049107914FF6FF7153F8042BADF846
:1057100016100068019302A900F066F8029B0022AF
:105720001A701CB05DF804EB03B070471000002045
:105730002DE9F0478E689E4282460C469146984677
:1057400035D88A8912F4906F31D0256809696F1AAB
:105750006569022305EB450595FBF3F508F10103A7
:105760003B449D4238BF1D46530531D5294600F0C4
:105770002DFB064650B90C23CAF80030A38943F02C
:105780004003A3814FF0FF30BDE8F0873A4621691E
:10579000FFF796FFA38923F4906343F08003A3816E
:1057A000266165613E44ED1B2660A5604646464580
:1057B00028BF464632464946206800F09FFAA36853
:1057C0009B1BA36023681E4426600020BDE8F08771
:1057D0002A4600F059FB06460028E1D121695046CF
:1057E00000F0A6FAC7E700002DE9F04F9DB0804613
:1057F00003938B891C060D4616460FD50B696BB9B2
:10580000402100F0E3FA2860286128B90C23C8F889
:1058100000304FF0FF30C5E040236B610023099357
:1058200020238DF8293030238DF82A304FF0010BDA
:1058300037463C4614F8013B002B3CD1B7EB060A37
:105840000BD05346324629464046FFF771FF0130E0
:1058500000F0A380099B534409933B78002B00F090
:105860009C8000234FF0FF32049307930592069328
:105870008DF853301A93052221785048FAF7B0FC7E
:10588000671C049BD8B9D90644BF20228DF8532049
:105890001A0744BF2B228DF8532022782A2A16D0CB
:1058A000079A00210A20274601343B78303B092B18
:1058B00051D9C9B111E0252BC0D02746B9E73F4ADD
:1058C000801A0BFA00F0184304903C46D3E7039A81
:1058D000111D12680391002A01DB079204E0524275
:1058E00043F00203079204933B782E2B0ED17B7872
:1058F0002A2B07F1010132D1039B1A1D1B68039269
:10590000002BB8BF4FF0FF33023705932C4C39788A
:1059100003222046FAF764FC38B14023001B03FA47
:1059200000F0049B034304930137397825488DF830
:10593000281006227E1CFAF753FC002835D0224B93
:10594000FBB9039B073323F0070308330393099B39
:105950004B4409936CE700FB02320121A3E70023CB
:10596000059318460A240F4601313A78303A092A3D
:1059700003D9002BCAD00590C8E704FB00200123FF
:10598000F1E703AB00932A46104B04A94046AFF35E
:105990000080B0F1FF3F8146D9D1AB895B063FF56E
:1059A00038AF09981DB0BDE8F08F03AB00932A46CD
:1059B000064B04A9404600F081F8EAE78061000840
:1059C000866100088A610008000000003157000865
:1059D0002DE9F04791461F468A680B69DDF8208063
:1059E0009342B8BF1346C9F8003091F843200646E9
:1059F0000C4612B10133C9F800302368990642BF42
:105A0000D9F800300233C9F80030256815F00605D2
:105A100007D104F1190AE368D9F800209B1A9D42C6
:105A200029DB94F843302268003318BF0123920623
:105A30002ED404F1430239463046C047013021D00C
:105A40002368E568D9F8002003F00603042B08BF9B
:105A5000AD1AA36822690CBF25EAE57500259342BB
:105A6000C4BF9B1AED184FF000091A344D451BD1E5
:105A70000020BDE8F0870123524639463046C04732
:105A8000013003D14FF0FF30BDE8F0870135C2E7A8
:105A9000E1185A1C302081F84300224494F8451044
:105AA00082F843100233C4E70123224639463046C8
:105AB000C0470130E6D009F10109D7E72DE9F043ED
:105AC00017460A7E85B06E2A984606460C460C9B01
:105AD00001F1430E00F0BC801AD8632A2ED00AD8F8
