:020000040800F2
:100000000080012081470008E5100008EB1000087F
:10001000F1100008F7100008FD10000800000000B3
:1000200000000000000000000000000003110008B4
:1000300011110008000000001F1100082D11000818
:10004000D1470008D1470008D1470008D147000830
:10005000D1470008D1470008D1470008D147000820
:10006000D1470008D1470008D1470008D147000810
:10007000D1470008D1470008D1470008D147000800
:10008000D1470008D1470008D1470008D1470008F0
:10009000D1470008D1470008D147000839110008AE
:1000A000D1470008D1470008D1470008D1470008D0
:1000B000D1470008D1470008D1470008D1470008C0
:1000C000D1470008D1470008D1470008D1470008B0
:1000D000D1470008D1470008D1470008D1470008A0
:1000E0005B110008D1470008D1470008D14700083C
:1000F000D1470008D1470008D1470008D147000880
:10010000D1470008D1470008D1470008D14700086F
:10011000D1470008D1470008D1470008D14700085F
:10012000D1470008D1470008D1470008D14700084F
:10013000D1470008D1470008D1470008D14700083F
:10014000D1470008D1470008D1470008D14700082F
:10015000D1470008D1470008D1470008D14700081F
:10016000D1470008D1470008D1470008D14700080F
:10017000D1470008D147000800000000000000003F
:08018000D1470008D147000837
:1001880010B5054C237833B9044B13B10448AFF3C9
:1001980000800123237010BD0C0000200000000027
:1001A8002C48000808B5034B1BB103490348AFF3BB
:1001B800008008BD00000000100000202C48000846
:1001C80053B94AB9002908BF00281CBF4FF0FF31B6
:1001D8004FF0FF3000F07AB9ADF1080C6DE904CEAC
:1001E80000F006F8DDF804E0DDE9022304B070470A
:1001F8002DE9F0478C460D460446089E002B51D148
:100208008A4217466DD9B2FA82FEBEF1000F0BD0B2
:10021800CEF1200C01FA0EF520FA0CFC02FA0EF7CA
:100228004CEA050C00FA0EF44FEA174A250CBCFB01
:10023800FAF81FFA87F90AFB18CC45EA0C4508FBBF
:1002480009F3AB420AD9ED1908F1FF3280F0238196
:10025800AB4240F22081A8F102083D44ED1AA4B255
:10026800B5FBFAF00AFB105544EA054400FB09F90E
:10027800A14509D9E41900F1FF3380F00A81A145AD
:1002880040F2078102383C44A4EB090440EA0840E4
:100298000021002E61D024FA0EF40023346073602C
:1002A800BDE8F0878B4207D9002E54D0002186E89C
:1002B80021000846BDE8F087B3FA83F1002940F031
:1002C8008E80AB4202D3824200F2FA80841A65EB38
:1002D80003050120AC46002E3FD086E81010BDE88B
:1002E800F08712B90127B7FBF2F7B7FA87FEBEF11C
:1002F800000F34D1EB1B3A0C1FFA87FC0121B3FB2A
:10030800F2F8250C02FB183345EA03450CFB08F309
:10031800AB4207D9ED1908F1FF3002D2AB4200F227
:10032800D1808046ED1AA3B2B5FBF2F002FB10555E
:1003380043EA05440CFB00FCA44507D9E41900F185
:10034800FF3302D2A44500F2B8801846A4EB0C048F
:1003580040EA08409DE731463046BDE8F087CEF1D7
:10036800200405FA0EF307FA0EF720FA04F83A0CFF
:1003780025FA04F448EA0308B4FBF2F14FEA1845F9
:1003880002FB11441FFA87FC45EA044501FB0CF304
:10039800AB4200FA0EF409D9ED1901F1FF3080F0F3
:1003A8008A80AB4240F2878002393D44EB1A1FFA3B
:1003B80088F5B3FBF2F002FB103345EA034500FB76
:1003C8000CF3AB4207D9ED1900F1FF386FD2AB42FD
:1003D8006DD902383D44EB1A40EA01418FE7C1F17B
:1003E800200722FA07F88B4005FA01F448EA0303CC
:1003F80020FA07FE4FEA134CFD404EEA040EB5FB07
:10040800FCF94FEA1E440CFB19551FFA83F844EA1D
:10041800054509FB08F4AC4202FA01F200FA01FAB8
:1004280008D9ED1809F1FF3043D2AC4241D9A9F1FE
:1004380002091D442D1B1FFA8EFEB5FBFCF00CFBB8
:1004480010554EEA054400FB08F8A04507D9E41802
:1004580000F1FF3529D2A04527D902381C4440EACB
:100468000940A4EB0804A0FB02894C45C6464D464A
:1004780015D312D056B1BAEB0E0364EB050404FA97
:1004880007F7CB401F43CC40376074600021BDE8BC
:10049800F0871846F8E69046E0E6C245EAD2B8EB9F
:1004A800020E69EB03050138E4E72846D7E7404622
:1004B80091E78146BEE7014678E702383C4445E7C4
:1004C800084608E7A8F102083D442BE7704700BF3B
:1004D80090B585B000AF00F087FE00F025F800F079
:1004E8002FFA00F0C5F800F0FBF800F037F900F03B
:1004F8005BF900F097F900F0C5F900F0F3F9084B43
:100508003C460FCB84E80F0039460A2310220548E1
:1005180003F045FA4FF47A7000F0DAFEEFE700BF17
:1005280044480008C405002080B5B8B000AF07F102
:100538009C0344220021184604F06CF907F1880353
:1005480000221A605A609A60DA601A613B46882273
:100558000021184604F05EF901F048FD424A424B7A
:10056800D3F8903023F01803C2F890301423C7F85A
:100578009C300123C7F8A4300123C7F8B430002306
:10058800C7F8B8306023C7F8BC300223C7F8C430B6
:100598000123C7F8C8300123C7F8CC302823C7F88F
:1005A800D0300723C7F8D4300223C7F8D830022345
:1005B800C7F8DC3007F19C03184601F057FE0346E4
:1005C800002B01D000F06CFB0F23C7F88830032301
:1005D800C7F88C300023C7F890300023C7F8943050
:1005E8000023C7F8983007F188030421184602F061
:1005F80023FA0346002B01D000F052FB1B4B3B6053
:100608000023BB6300233B6400237B650023C7F8FA
:1006180080304FF08063FB6601237B600123BB6061
:100628001823FB6007233B6102237B610223BB6124
:100638004FF48013FB613B46184602F001FC034669
:10064800002B01D000F02CFB4FF4007001F0ECFC03
:100658000346002B01D000F023FB02F0D7FE00BFB9
:10066800E037BD4680BD00BF001002408520010074
:1006780080B500AF184B194A1A60174B01221A713E
:10068800154B00229A60144B0222DA60124B0022AA
:100698001A61114B00225A610F4B4FF480729A6114
:1006A8000D4B0022DA610C4B04221A620A4B00221D
:1006B8005A62094B01229A62074B0022DA62064B02
:1006C80000221A63044800F035FF0346002B01D0CE
:1006D80000F0E6FA00BF80BD500000202060014015
:1006E80080B500AF1B4B1C4A1A601A4B40F61462C7
:1006F8005A60184B00229A60164B0122DA60154B9B
:1007080000221A61134B00225A61124B00229A618F
:10071800104B0022DA610F4B00221A620D4801F0DB
:10072800F8F90346002B01D000F0BAFA0021094875
:1007380001F07DFA0346002B01D000F0B1FA002148
:10074800044801F0BFFA0346002B01D000F0A8FAD4
:1007580000BF80BD140500200058004080B500AFE0
:100768000F4B104A1A600E4B02225A600C4B04229F
:100778009A600B4B1022DA60094B17221A61084B5A
:1007880000225A61064B00229A61054801F0B2FC2A
:100798000346002B01D000F083FA00BF80BD00BFE4
:1007A80048060020001000A080B500AF1B4B1C4A73
:1007B8001A601A4B4FF482725A60184B00229A60E2
:1007C800164B4FF44072DA60144B00221A61134B37
:1007D80000225A61114B4FF400729A610F4B0022AC
:1007E800DA610E4B00221A620C4B00225A620B4B44
:1007F80000229A62094B0722DA62084B00221A6328
:10080800064B08225A63054802F0DAFF0346002B1C
:1008180001D000F045FA00BF80BD00BF6005002090
:10082800003C004080B500AF144B154A1A60134BCA
:100838004FF4E1325A60114B00229A600F4B0022AC
:10084800DA600E4B00221A610C4B0C225A610B4BDA
:1008580000229A61094B0022DA61084B00221A62D1
:10086800064B00225A62054803F04BF80346002B5A
:1008780001D000F015FA00BF80BD00BFC4050020FC
:100888000038014080B500AF144B154A1A60134B6D
:100898004FF4E1325A60114B00229A600F4B00224C
:1008A800DA600E4B00221A610C4B0C225A610B4B7A
:1008B80000229A61094B0022DA61084B00221A6271
:1008C800064B00225A62054803F01BF80346002B2A
:1008D80001D000F0E5F900BF80BD00BF880000200E
:1008E8000048004080B500AF144B4FF0A0421A609A
:1008F800124B06225A60114B0222DA600F4B022279
:100908009A610E4B0022DA610C4B00221A620B4BE3
:1009180000225A62094B00229A62084B00221A638D
:10092800064B0022DA62054801F018FA0346002B4C
:1009380001D000F0B5F900BF80BD00BF0C01002058
:1009480080B58AB000AF07F1140300221A605A601C
:100958009A60DA601A61BA4AB94BDB6C43F010034B
:10096800D364B74BDB6C03F010033B613B69B44ABB
:10097800B34BDB6C43F00403D364B14BDB6C03F083
:100988000403FB60FB68AE4AAD4BDB6C43F001032C
:10099800D364AB4BDB6C03F00103BB60BB68A84AB4
:1009A800A74BDB6C43F00203D364A54BDB6C03F06D
:1009B80002037B607B68A24AA14BDB6C43F008030F
:1009C800D3649F4BDB6C03F008033B603B68002259
:1009D8004FF48A719B4801F061F8002248F2041133
:1009E8004FF0904001F05AF800224FF21401964857
:1009F80001F054F8002241F28101944801F04EF8C8
:100A080001224FF40051914801F048F800224FF4B8
:100A180010718F4801F042F8012220218A4801F024
:100A28003DF801220121874801F038F840F21513FA
:100A38007B610123BB610023FB6100233B6207F15B
:100A4800140319467F4800F081FE6A237B61814BBD
:100A5800BB610023FB6107F114031946794800F0D4
:100A680075FE4FF400537B617B4BBB610023FB6138
:100A780007F114031946764800F068FE3F237B61AE
:100A88000B23BB610023FB6107F11403194670486F
:100A980000F05CFE03237B610223BB610023FB6142
:100AA80003233B6208237B6207F1140319464FF0C6
:100AB800904000F04BFE48F204137B610123BB61B8
:100AC8000023FB6100233B6207F1140319464FF032
:100AD800904000F03BFE08237B610223BB610023AA
:100AE800FB6100233B6201237B6207F11403194673
:100AF8004FF0904000F02AFE10237B610B23BB616E
:100B08000023FB6107F1140319464FF0904000F0F1
:100B18001DFEE0237B610223BB610023FB610323ED
:100B28003B6205237B6207F1140319464FF090409E
:100B380000F00CFE01237B61464BBB610023FB6187
:100B480007F114031946404800F000FE02237B61B8
:100B58000B23BB610023FB6107F1140319463A48D4
:100B680000F0F4FD4FF234037B610123BB610023E5
:100B7800FB6100233B6207F114031946324800F079
:100B8800E5FD4CF604437B61324BBB610023FB61FE
:100B980007F1140319462D4800F0D8FD43F28103EC
:100BA8007B610123BB610023FB6100233B6207F1EA
:100BB80014031946254800F0C9FD4FF410737B61F2
:100BC8000123BB610023FB6100233B6207F114038F
:100BD80019461F4800F0BAFD4FF4C0737B611D4BE6
:100BE800BB610023FB6107F114031946184800F0A4
:100BF800ADFD02237B610223BB610023FB6103235C
:100C08003B6205237B6207F1140319460F4800F085
:100C18009DFD78237B610223BB610023FB610323D5
:100C28003B6207237B6207F114031946074800F06B
:100C38008DFD4FF440737B611223BB6101230DE0EE
:100C4800001002400010004800040048000C004852
:100C5800000800480000111000002110FB61032368
:100C68003B6204237B6207F1140319460B4800F02A
:100C78006DFD00220021172000F025FC172000F050
:100C88003EFC00220021282000F01DFC282000F056
:100C980036FC00BF2837BD4680BD00BF00040048B1
:100CA80080B400AF72B6FEE780B483B000AF0F4ADD
:100CB8000E4B1B6E43F0010313660C4B1B6E03F0C7
:100CC80001037B607B68094A084B9B6D43F08053A6
:100CD8009365064B9B6D03F080533B603B6800BFF8
:100CE8000C37BD465DF8047B704700BF001002401A
:100CF80080B58AB000AF786007F1140300221A604B
:100D08005A609A60DA601A611A4B1B68002B2DD161
:100D1800194A194B1B6E43F080731366164B1B6EF2
:100D280003F080733B613B69134A134BDB6C43F060
:100D38001003D364104BDB6C03F01003FB60FB68FB
:100D48004FF420737B610223BB610023FB61002306
:100D58003B6206237B6207F114031946074800F03B
:100D6800F5FC044B1B680133024A136000BF2837A7
:100D7800BD4680BD28000020001002400010004839
:100D880080B58AB000AF786007F1140300221A60BA
:100D98005A609A60DA601A617B681B68174A934246
:100DA80028D1174A164BDB6C43F00203D364144B6B
:100DB800DB6C03F002033B613B694FF440637B61EA
:100DC8001223BB610123FB6103233B6204237B6283
:100DD80007F1140319460B4800F0B8FC084A084B01
:100DE8009B6D43F480039365054B9B6D03F480036F
:100DF800FB60FB6800BF2837BD4680BD0058004037
:100E0800001002400004004880B58AB000AF786046
:100E180007F1140300221A605A609A60DA601A61B6
:100E28007B681B68174A934228D1174A164B1B6DDB
:100E380043F480731365144B1B6D03F480733B619B
:100E48003B69114A104BDB6C43F01003D3640E4B23
:100E5800DB6C03F01003FB60FB684FF47C437B61A1
:100E68000223BB610023FB6103233B620A237B62ED
:100E780007F114031946054800F068FC00BF28373D
:100E8800BD4680BD001000A00010024000100048C0
:100E980080B58AB000AF786007F1140300221A60A9
:100EA8005A609A60DA601A617B681B68174A934235
:100EB80028D1174A164B9B6D43F400439365144B96
:100EC8009B6D03F400433B613B69114A104BDB6C9B
:100ED80043F00403D3640E4BDB6C03F00403FB60A4
:100EE800FB684FF4E0537B610223BB610023FB6185
:100EF80003233B6206237B6207F114031946054866
:100F080000F024FC00BF2837BD4680BD003C0040EF
:100F1800001002400008004880B58CB000AF78602F
:100F280007F11C0300221A605A609A60DA601A619D
:100F38007B681B682E4A934228D12E4A2D4B1B6E84
:100F480043F4804313662B4B1B6E03F48043BB6151
:100F5800BB69284A274BDB6C43F00203D364254B5B
:100F6800DB6C03F002037B617B69C023FB61022316
:100F78003B6200237B620323BB620723FB6207F10A
:100F88001C0319461C4800F0E1FB2DE07B681B6838
:100F98001A4A934228D1174A164B9B6D43F4802373
:100FA8009365144B9B6D03F480233B613B69114AA5
:100FB800104BDB6C43F00803D3640E4BDB6C03F07F
:100FC8000803FB60FB684FF44073FB6102233B623C
:100FD80000237B620323BB620723FB6207F11C0328
:100FE8001946074800F0B2FB00BF3037BD4680BD48
:100FF800003801400010024000040048004800404A
:10100800000C004880B58AB000AF786007F114037F
:1010180000221A605A609A60DA601A617B681B685D
:10102800B3F1A04F54D12C4A2B4BDB6C43F0010396
:10103800D364294BDB6C03F001033B613B694FF43C
:1010480000737B610023BB610023FB6107F114037C
:1010580019464FF0904000F079FB4FF4E0537B6164
:101068000223BB610023FB6103233B620A237B62EB
:1010780007F1140319464FF0904000F067FB164A39
:10108800154BDB6C43F48053D364134BDB6C03F4D4
:101098008053FB60FB68104B9B6D03F08053002B63
:1010A80014D10D4A0C4B9B6D43F0805393650A4B4A
:1010B8009B6D03F08053BB60BB6801F00BF8064AD8
:1010C800054B9B6D23F08053936501E001F002F816
:1010D80000BF2837BD4680BD0010024080B400AF75
:1010E800FEE780B400AFFEE780B400AFFEE780B44F
:1010F80000AFFEE780B400AFFEE780B400AF00BFEA
:10110800BD465DF8047B704780B400AF00BFBD46A4
:101118005DF8047B704780B400AF00BFBD465DF842
:10112800047B704780B500AF00F0B2F800BF80BD07
:1011380080B500AF202000F0C9FC402000F0C6FCBC
:10114800802000F0C3FC4FF4807000F0BFFC00BFAB
:1011580080BD80B500AF4FF4806000F0B7FC4FF45D
:10116800006000F0B3FC4FF4005000F0AFFC4FF407
:10117800804000F0ABFC4FF4004000F0A7FC00BF3B
:1011880080BD000080B400AF154A154BD3F88830F5
:1011980043F47003C2F88830124A124B1B6843F0BC
:1011A800010313600F4B00229A600E4A0D4B1B6817
:1011B80023F0A85323F4102313600A4B4FF48052F2
:1011C800DA60084A074B1B6823F480231360054B39
:1011D80000229A6100BFBD465DF8047B704700BFDE
:1011E80000ED00E00010024080B582B000AF00239F
:1011F800FB71032000F05CF9002000F00DF80346B5
:10120800002B02D00123FB7101E0FFF74DFDFB79B4
:1012180018460837BD4680BD80B584B000AF7860F9
:101228000023FB73174B1B78002B23D0164B1A682F
:10123800144B1B7819464FF47A73B3FBF1F3B2FBE6
:10124800F3F3184600F069F90346002B0FD17B68C9
:101258000F2B09D8002279684FF0FF3000F033F9DE
:101268000A4A7B68136007E00123FB7304E001234B
:10127800FB7301E00123FB73FB7B18461037BD4667
:1012880080BD00BF080000200000002004000020EE
:1012980080B400AF064B1B781A46064B1B681344F4
:1012A800044A136000BFBD465DF8047B704700BF69
:1012B800080000208C06002080B400AF034B1B6898
:1012C8001846BD465DF8047B704700BF8C060020B9
:1012D80080B584B000AF7860FFF7EEFFB8607B6838
:1012E800FB60FB68B3F1FF3F05D0094B1B781A463A
:1012F800FB681344FB6000BFFFF7DEFF0246BB68D4
:10130800D21AFB689A42F7D300BF1037BD4680BD9A
:101318000800002080B485B000AF78607B6803F0D7
:101328000703FB600C4BDB68BB60BA684FF6FF0332
:101338001340BB60FB681A02BB68134343F0BF63EA
:1013480043F40033BB60044ABB68D36000BF143762
:10135800BD465DF8047B704700ED00E080B400AF47
:10136800044BDB681B0A03F007031846BD465DF80B
:10137800047B704700ED00E080B483B000AF034603
:10138800FB7197F90730002B0BDB094997F90730F8
:101398005B09FA7902F01F02012000FA02F241F813
:1013A800232000BF0C37BD465DF8047B704700BFA3
:1013B80000E100E080B483B000AF03463960FB7100
:1013C80097F90730002B0ADB0D4997F907303A687F
:1013D800D2B21201D2B20B4483F800230AE00949C1
:1013E800FB7903F00F03043B3A68D2B21201D2B280
:1013F8000B441A7600BF0C37BD465DF8047B704776
:1014080000E100E000ED00E080B489B000AFF860D2
:10141800B9607A60FB6803F00703FB61FB69C3F1FD
:101428000703042B28BF0423BB61FB690433062B85
:1014380002D9FB69033B00E000237B610122BB6901
:1014480002FA03F35A1EBB681A407B699A400121CD
:101458007B6901FA03F3591E7B680B401343184656
:101468002437BD465DF8047B7047000080B582B024
:1014780000AF78607B68013BB3F1807F01D3012323
:101488000FE00A4A7B68013B53600F214FF0FF30A1
:10149800FFF790FF054B00229A60044B07221A6061
:1014A800002318460837BD4680BD00BF10E000E0A5
:1014B80080B582B000AF78607868FFF72BFF00BF77
:1014C8000837BD4680BD80B586B000AF0346B96019
:1014D8007A60FB7300237B61FFF740FF78617A68CD
:1014E800B9687869FFF790FF024697F90F301146FF
:1014F8001846FFF75FFF00BF1837BD4680BD80B5AF
:1015080082B000AF0346FB7197F907301846FFF722
:1015180033FF00BF0837BD4680BD80B582B000AF3D
:1015280078607868FFF7A2FF034618460837BD467B
:1015380080BD000080B582B000AF78607B68002B6A
:1015480001D10123ACE07B681B68184600F0B2F8B3
:101558000246554B53F82230002B01D001239FE05F
:101568007868FFF7C5FB514B1B6801334F4A13607E
:101578004E4B1B68012B25D14D4A4D4B1B6823F060
:10158800804313604A494A4B1A687B689B68134337
:101598000B60474A464B1B6823F47F0313607B6844
:1015A8001B79012B08D14249414B1A687B68DB68DB
:1015B800013B1B0413430B603D4A3D4B1B6843F042
:1015C800004313607B681B687A681268126822F40B
:1015D80071421A607B681B687A68126811687A68B9
:1015E80010697A68526910437A68926902430A431B
:1015F8001A607B681B687A681268126822F00F020A
:101608001A607B681B687A68126811687A68D06902
:101618007A68126A02430A431A607B681B687A6810
:101628001268926822F45F029A607B681B687A6885
:10163800126891687A68506A7A68926A013A120464
:1016480002430A439A607B681B687A68126852688A
:1016580002F007025A607B681B687A681268516852
:101668007A68D26A10027A68126BD20002430A437F
:101678005A607B681B687A681268126842F08002B8
:101688001A607B68012283F834207B681B6818463F
:1016980000F010F80146044A7B6842F82130002324
:1016A80018460837BD4680BD300000202C000020B9
:1016B8000060014080B485B000AF78607B681C4A48
:1016C800934202D10023FB602BE07B68194A9342C6
:1016D80002D10123FB6024E07B68174A934202D1C0
:1016E8000223FB601DE07B68144A934202D1042365
:1016F800FB6016E07B68124A934202D10523FB6027
:101708000FE07B680F4A934202D10623FB6008E092
:101718007B680D4A934202D10723FB6001E0032353
:10172800FB60FB6818461437BD465DF8047B7047BC
:10173800006001402060014040600140806001403D
:10174800A0600140C0600140E060014080B487B003
:1017580000AF7860396000237B617FE13B681A68DD
:1017680001217B6901FA03F31340FB60FB68002B3E
:1017780000F071813B685B68012B0BD03B685B68AC
:10178800022B07D03B685B68112B03D03B685B6872
:10179800122B30D17B689B683B617B695B0003221D
:1017A80002FA03F3DB433A6913403B613B68DA68AA
:1017B8007B695B0002FA03F33A6913433B617B6878
:1017C8003A699A607B685B683B6101227B6902FA2F
:1017D80003F3DB433A6913403B613B685B681B09D1
:1017E80003F001027B6902FA03F33A6913433B6190
:1017F8007B683A695A603B685B6803F00303032B14
:1018080018D17B68DB6A3B6101227B6902FA03F32A
:10181800DB433A6913403B613B685B68DB0803F0D4
:1018280001027B6902FA03F33A6913433B617B685F
:101838003A69DA627B68DB683B617B695B0003229B
:1018480002FA03F3DB433A6913403B613B689A6849
:101858007B695B0002FA03F33A6913433B617B68D7
:101868003A69DA603B685B68022B03D03B685B68C7
:10187800122B23D17B69DA087B68083253F82230AF
:101888003B617B6903F007039B000F2202FA03F315
:10189800DB433A6913403B613B681A697B6903F093
:1018A80007039B0002FA03F33A6913433B617B6920
:1018B800DA087B680832396943F822107B681B68AC
:1018C8003B617B695B00032202FA03F3DB433A695D
:1018D80013403B613B685B6803F003027B695B0074
:1018E80002FA03F33A6913433B617B683A691A6069
:1018F8003B685B6803F08053002B00F0AC805E4AC5
:101908005D4B1B6E43F0010313665B4B1B6E03F0CC
:101918000103BB60BB68594A7B699B08023352F8D4
:1019280023303B617B6903F003039B000F2202FA1B
:1019380003F3DB433A6913403B617B68B3F1904F93
:1019480025D07B684E4A93421FD07B684D4A93420C
:1019580019D07B684C4A934213D07B684B4A934218
:101968000DD07B684A4A934207D07B68494A934224
:1019780001D106230CE007230AE0052308E004232D
:1019880006E0032304E0022302E0012300E0002331
:101998007A6902F00302920093403A6913433B616B
:1019A80036497B699B0802333A6941F823203A4B50
:1019B8001B683B61FB68DB433A6913403B613B684A
:1019C8005B6803F48033002B03D03A69FB68134348
:1019D8003B61314A3B6913602F4B5B683B61FB6895
:1019E800DB433A6913403B613B685B6803F40033AF
:1019F800002B03D03A69FB6813433B61264A3B69D5
:101A08005360254B9B683B61FB68DB433A69134095
:101A18003B613B685B6803F48013002B03D03A6991
:101A2800FB6813433B611C4A3B6993601A4BDB68B4
:101A38003B61FB68DB433A6913403B613B685B6889
:101A480003F40013002B03D03A69FB6813433B618E
:101A5800114A3B69D3607B6901337B613B681A6833
:101A68007B6922FA03F3002B7FF478AE00BF1C37A2
:101A7800BD465DF8047B704700100240000001403D
:101A88000004004800080048000C00480010004806
:101A980000140048001800480004014080B483B0D6
:101AA80000AF78600B467B8013467B707B78002BF9
:101AB80003D07A887B689A6102E07A887B689A62A8
:101AC80000BF0C37BD465DF8047B704780B582B017
:101AD80000AF0346FB80084B5A69FB881340002B74
:101AE80006D0054AFB885361FB88184600F006F8C3
:101AF80000BF0837BD4680BD0004014080B483B0F4
:101B080000AF0346FB8000BF0C37BD465DF8047B81
:101B1800704780B582B000AF78607B68002B01D138
:101B2800012380E07B6893F84130DBB2002B06D1BB
:101B38007B68002283F840207868FFF721F97B68EA
:101B4800242283F841207B681B687A68126812682F
:101B580022F001021A607B681B687A68526822F0DA
:101B680070621A617B681B687A681268926822F44E
:101B780000429A607B68DB68012B07D17B681B6891
:101B88007A68926842F400429A6006E07B681B68B3
:101B98007A68926842F404429A607B68DB68022B98
:101BA80004D17B681B684FF400625A607B681A682E
:101BB8007B681B685B6843F0007343F40043536021
:101BC8007B681B687A681268D26822F40042DA607F
:101BD8007B681B687A6811697A68526911437A6868
:101BE800926912020A43DA607B681B687A68D169D5
:101BF8007A68126A0A431A607B681B687A681268F6
:101C0800126842F001021A607B6800225A647B68FD
:101C1800202283F841207B6800221A637B68002217
:101C280083F84220002318460837BD4680BD80B49B
:101C380083B000AF786039607B6893F84130DBB2DD
:101C4800202B38D17B6893F84030012B01D1022337
:101C580032E07B68012283F840207B68242283F8E5
:101C680041207B681B687A681268126822F00102BA
:101C78001A607B681B687A681268126822F48052BE
:101C88001A607B681B687A68126811683A680A43A8
:101C98001A607B681B687A681268126842F0010251
:101CA8001A607B68202283F841207B68002283F831
:101CB8004020002300E0022318460C37BD465DF89B
:101CC800047B704780B485B000AF786039607B686A
:101CD80093F84130DBB2202B39D17B6893F8403040
:101CE800012B01D1022333E07B68012283F84020D5
:101CF8007B68242283F841207B681B687A68126815
:101D0800126822F001021A607B681B681B68FB607E
:101D1800FB6823F47063FB603B681B02FA6813439B
:101D2800FB607B681B68FA681A607B681B687A68C6
:101D38001268126842F001021A607B68202283F858
:101D480041207B68002283F84020002300E0022322
:101D580018461437BD465DF8047B7047F0B58FB060
:101D68000AAF78607B68002B01D1012316E17B68FC
:101D78001B68BB607B6893F8BD33DBB2002B06D1D0
:101D88007B68002283F8BC237868FFF73BF97B68FF
:101D9800032283F8BD23BB68DB6B03F48073002B3D
:101DA80002D17B6800221A617B681B68184602F022
:101DB800A2FA7B681B683B607E686D4606F11004DA
:101DC8000FCC0FC50FCC0FC594E8030085E80300BE
:101DD800331D0ECB386802F062FA0346002B05D09B
:101DE8007B68022283F8BD230123D7E07B681B6848
:101DF8000021184602F090FA0023FB734AE0FA7BB0
:101E080079681346DB009B1A9B000B443D33012283
:101E18001A70FA7B79681346DB009B1A9B000B4407
:101E28003C33FA7B1A70FA7BFB7B98B279681346CD
:101E3800DB009B1A9B000B44423302461A80FA7B54
:101E480079681346DB009B1A9B000B443F33002242
:101E58001A70FA7B79681346DB009B1A9B000B44C7
:101E6800443300221A60FA7B79681346DB009B1A18
:101E78009B000B44483300221A60FA7B79681346AA
:101E8800DB009B1A9B000B44503300221A60FB7B3B
:101E98000133FB73FA7B7B685B689A42AFD30023FC
:101EA800FB7344E0FA7B79681346DB009B1A9B00BE
:101EB8000B4403F2FD1300221A70FA7B796813466B
:101EC800DB009B1A9B000B4403F5FE73FA7B1A7028
:101ED800FA7B79681346DB009B1A9B000B4403F2DC
:101EE800FF1300221A70FA7B79681346DB009B1AED
:101EF8009B000B4403F5017300221A60FA7B796892
:101F08001346DB009B1A9B000B4403F50273002267
:101F18001A60FA7B79681346DB009B1A9B000B4416
:101F280003F5047300221A60FB7B0133FB73FA7B11
:101F38007B685B689A42B5D37B681B683B607E68A8
:101F48006D4606F110040FCC0FC50FCC0FC594E8F1
:101F5800030085E80300331D0ECB386802F006FA4B
:101F68000346002B05D07B68022283F8BD2301239A
:101F780014E07B68002283F838207B68012283F80C
:101F8800BD237B685B6A012B02D1786800F00AF8F0
:101F98007B681B68184602F097FB00231846143725
:101FA800BD46F0BD80B485B000AF78607B681B6823
:101FB800FB607B680122C3F8FC237B68002283F85E
:101FC800F423FB689B6943F00062FB689A61FB6835
:101FD8005B6D43F0805343F00303FA6853650023B5
:101FE80018461437BD465DF8047B704780B400AFCF
:101FF800054A054B1B6843F48073136000BFBD4658
:102008005DF8047B704700BF0070004080B400AFEB
:10201800044B1B6803F4C0631846BD465DF8047B97
:10202800704700BF0070004080B485B000AF786092
:102038007B68B3F5007F30D1234B1B6803F4C06382
:10204800B3F5007F38D0204A1F4B1B6823F4C063C8
:1020580043F4007313601D4B1B68322202FB03F329
:102068001B4AA2FB03239B0C0133FB6002E0FB68C5
:10207800013BFB60144B5B6903F48063B3F5806F2D
:1020880002D1FB68002BF2D10F4B5B6903F480632C
:10209800B3F5806F10D103230FE00B4B1B6803F4DB
:1020A800C063B3F5806F07D0074A074B1B6823F45A
:1020B800C06343F480631360002318461437BD4699
:1020C8005DF8047B704700BF0070004000000020EE
:1020D80083DE1B4380B400AF054A054B5B6843F4BD
:1020E8008063536000BFBD465DF8047B704700BF46
:1020F8000070004080B586B002AF7860FFF7DCF86A
:10210800F8607B68002B01D1012363E07B6893F8BA
:102118003930DBB2002B0BD17B68002283F83820E2
:102128007868FEF771FE41F28831786800F058F857
:102138007B681B687A681268126822F470617A6892
:102148009268013A12020A431A607B681B6C00937A
:10215800FB6800222021786800F050F80346FB72E3
:10216800FB7A002B31D17B681A687B681B681B6877
:1021780023F07F4323F010037968496808067968DB
:10218800C96801430B4313607B681A687B681B6846
:102198005968124B0B4079680969080479684969DC
:1021A80008437968896901430B4353607B681B685E
:1021B8007A681268126842F001021A607B6800228D
:1021C800DA637B68012283F839207B68002283F870
:1021D8003820FB7A18461037BD4680BDFEF8E0FF70
:1021E80080B483B000AF786039607B683A681A645D
:1021F80000BF0C37BD465DF8047B704780B584B0DE
:1022080000AFF860B9603B601346FB711AE0BB6928
:10221800B3F1FF3F16D0FFF74FF802463B68D21ADA
:10222800BB699A4202D8BB69002B0BD1FB68042218
:1022380083F83920FB68DB6B43F00102FB68DA6343
:1022480001230EE0FB681B689A68BB681340002BEB
:1022580014BF01230023DBB21A46FB799A42D6D178
:10226800002318461037BD4680BD000080B588B0F1
:1022780000AF78607B68002B01D10123D4E3A14B28
:102288009B6803F00C03BB619E4BDB6803F0030300
:102298007B617B681B6803F01003002B00F0E4806F
:1022A800BB69002B07D0BB690C2B40F08B807B6986
:1022B800012B40F08780934B1B6803F00203002B2F
:1022C80005D07B689B69002B01D10123ACE37B68B7
:1022D8001A6A8C4B1B6803F00803002B04D0894B47
:1022E8001B6803F0F00305E0864BD3F894301B0914
:1022F80003F0F0039A4223D97B681B6A184600F062
:102308003FFD0346002B01D001238DE37D4A7D4B21
:102318001B6843F0080313607A497A4B1B6823F063
:10232800F0027B681B6A13430B607649754B5B6848
:1023380023F47F427B68DB691B0213434B6025E073
:10234800704A704B1B6843F0080313606D496D4B6E
:102358001B6823F0F0027B681B6A13430B60694912
:10236800684B5B6823F47F427B68DB691B0213437D
:102378004B60BB69002B09D17B681B6A184600F0CB
:10238800FFFC0346002B01D001234DE300F036FC8F
:1023980001465C4B9B681B0903F00F035A4AD35C48
:1023A80003F01F0321FA03F3584A1360584B1B68C4
:1023B8001846FEF731FF0346FB73FB7B002B52D018
:1023C800FB7B31E37B689B69002B32D04D4A4D4B38
:1023D8001B6843F001031360FEF76EFF386108E0E5
:1023E800FEF76AFF02463B69D31A022B01D9032381
:1023F8001AE3444B1B6803F00203002BF0D0414A58
:10240800404B1B6843F0080313603E493D4B1B6873
:1024180023F0F0027B681B6A13430B603949394B80
:102428005B6823F47F427B68DB691B0213434B60C4
:102438001AE0344A334B1B6823F001031360FEF79C
:102448003BFF386108E0FEF737FF02463B69D31AC5
:10245800022B01D90323E7E22A4B1B6803F002038E
:10246800002BF0D100E000BF7B681B6803F001037C
:10247800002B74D0BB69082B05D0BB690C2B0ED17F
:102488007B69032B0BD11F4B1B6803F40033002B14
:1024980064D07B685B68002B60D10123C4E27B6851
:1024A8005B68B3F5803F06D1164A164B1B6843F4A8
:1024B800803313601DE07B685B68B3F5A02F0CD1F7
:1024C800104A104B1B6843F4802313600D4A0D4BD0
:1024D8001B6843F4803313600BE00A4A094B1B68FE
:1024E80023F480331360074A064B1B6823F48023C8
:1024F80013607B685B68002B1CD0FEF7DDFE38613B
:1025080011E000BF001002405448000800000020FD
:1025180004000020FEF7D0FE02463B69D31A642B64
:1025280001D9032380E2AF4B1B6803F40033002B6F
:10253800F0D014E0FEF7C0FE386108E0FEF7BCFEFC
:1025480002463B69D31A642B01D903236CE2A54BDD
:102558001B6803F40033002BF0D100E000BF7B6858
:102568001B6803F00203002B60D0BB69042B05D065
:10257800BB690C2B19D17B69022B16D1994B1B68AF
:1025880003F48063002B05D07B68DB68002B01D146
:10259800012349E29349934B5B6823F0F8527B6827
:1025A8001B691B0613434B6040E07B68DB68002B0C
:1025B80023D08C4A8B4B1B6843F480731360FEF75F
:1025C8007BFE386108E0FEF777FE02463B69D31AC6
:1025D800022B01D9032327E2824B1B6803F4806393
:1025E800002BF0D07F497F4B5B6823F0F8527B6863
:1025F8001B691B0613434B6018E07A4A794B1B682A
:1026080023F480731360FEF757FE386108E0FEF785
:1026180053FE02463B69D31A022B01D9032303E276
:10262800704B1B6803F48063002BF0D17B681B6838
:1026380003F00803002B3CD07B685B69002B1CD09F
:10264800684A684BD3F8943043F00103C2F89430D9
:10265800FEF732FE386108E0FEF72EFE02463B69BF
:10266800D31A022B01D90323DEE15E4BD3F8943051
:1026780003F00203002BEFD01BE05A4A594BD3F862
:10268800943023F00103C2F89430FEF715FE386148
:1026980008E0FEF711FE02463B69D31A022B01D966
:1026A8000323C1E14F4BD3F8943003F00203002B0E
:1026B800EFD17B681B6803F00403002B00F0A680B1
:1026C8000023FB77474B9B6D03F08053002B0DD104
:1026D800444A444B9B6D43F080539365414B9B6D3B
:1026E80003F08053BB60BB680123FB773E4B1B683C
:1026F80003F48073002B18D13B4A3B4B1B6843F40F
:1027080080731360FEF7D8FD386108E0FEF7D4FD4A
:1027180002463B69D31A022B01D9032384E1324BC9
:102728001B6803F48073002BF0D07B689B68012B37
:1027380008D12C4A2B4BD3F8903043F00103C2F850
:10274800903024E07B689B68052B10D1254A254BE7
:10275800D3F8903043F00403C2F89030214A214B5B
:10276800D3F8903043F00103C2F890300FE01D4ACF
:102778001C4BD3F8903023F00103C2F89030194A6B
:10278800184BD3F8903023F00403C2F890307B68DC
:102798009B68002B16D0FEF78FFD38610AE0FEF724
:1027A8008BFD02463B69D31A41F28832934201D924
:1027B800032339E10B4BD3F8903003F00203002BCD
:1027C800EDD01AE0FEF778FD38610FE0FEF774FDF2
:1027D80002463B69D31A41F28832934206D9032351
:1027E80022E100BF0010024000700040904BD3F877
:1027F800903003F00203002BE8D1FB7F012B05D1B9
:102808008B4A8B4B9B6D23F0805393657B689B6A47
:10281800002B00F008817B689B6A022B40F0D08077
:10282800834BDB687B617B6903F003027B68DB6AAF
:102838009A4230D17B6903F070027B681B6B013BC5
:102848001B019A4227D17B6903F4FE427B685B6BCC
:102858001B029A421FD17B6903F400337A68926B9A
:10286800072A14BF01220022D2B2934213D17B69F6
:1028780003F4C0027B68DB6B5B08013B5B059A4293
:1028880009D17B6903F0C0627B681B6C5B08013B64
:102898005B069A426ED0BB690C2B69D0644B1B68EF
:1028A80003F08063002B05D1614B1B6803F0805354
:1028B800002B01D00123B7E05D4A5D4B1B6823F074
:1028C80080731360FEF7F8FC386108E0FEF7F4FC4B
:1028D80002463B69D31A022B01D90323A4E0544BC7
:1028E8001B6803F00073002BF0D15148504BDA6895
:1028F800504B13407A68D16A7A68126B013A120118
:1029080011437A68526B120211437A68D26B5208EB
:10291800013A520511437A68126C5208013A52067C
:1029280011437A68926B120952040A431343C36035
:102938003F4A3F4B1B6843F0807313603C4A3C4B53
:10294800DB6843F08073D360FEF7B6FC386108E0BB
:10295800FEF7B2FC02463B69D31A022B01D90323C6
:1029680062E0334B1B6803F00073002BF0D05AE091
:10297800012359E02E4B1B6803F00073002B52D142
:102988002B4A2B4B1B6843F080731360284A284B53
:10299800DB6843F08073D360FEF78EFC386108E093
:1029A800FEF78AFC02463B69D31A022B01D903239E
:1029B8003AE01F4B1B6803F00073002BF0D032E0A5
:1029C800BB690C2B2DD01A4A194B1B6823F0807356
:1029D8001360174B1B6803F02053002B05D1144AD2
:1029E800134BDB6823F00303D360114A104BDB68F9
:1029F80023F0887323F48033D360FEF75DFC3861DD
:102A080008E0FEF759FC02463B69D31A022B01D9AC
:102A1800032309E0064B1B6803F00073002BF0D179
:102A280001E0012300E0002318462037BD4680BDA1
:102A3800001002408C809DF980B584B000AF7860AA
:102A480039607B68002B01D10123C8E0664B1B6805
:102A580003F007023B689A4210D26349624B1B6835
:102A680023F007023B6813430B605F4B1B6803F0BE
:102A780007023B689A4201D00123B0E07B681B68DB
:102A880003F00103002B4CD07B685B68032B07D154
:102A9800564B1B6803F00073002B21D101239EE0E5
:102AA8007B685B68022B07D1504B1B6803F400332B
:102AB800002B15D1012392E07B685B68002B07D1BE
:102AC8004A4B1B6803F00203002B09D1012386E05F
:102AD800464B1B6803F48063002B01D101237EE081
:102AE8004249424B9B6823F003027B685B681343AF
:102AF8008B60FEF7E1FBF8600AE0FEF7DDFB0246BB
:102B0800FB68D31A41F28832934201D9032366E065
:102B1800364B9B6803F00C027B685B689B009A420B
:102B2800EBD17B681B6803F00203002B08D02F4908
:102B38002E4B9B6823F0F0027B689B6813438B60E5
:102B4800294B1B6803F007023B689A4210D92649B3
:102B5800254B1B6823F007023B6813430B60224B8D
:102B68001B6803F007023B689A4201D0012336E054
:102B78007B681B6803F00403002B08D01B491B4B20
:102B88009B6823F4E0627B68DB6813438B607B6897
:102B98001B6803F00803002B09D01449134B9B68EA
:102BA80023F460527B681B69DB0013438B6000F0E1
:102BB80025F801460D4B9B681B0903F00F030C4ACF
:102BC800D35C03F01F0321FA03F30A4A13600A4B8C
:102BD8001B681846FEF720FB0346FB72FB7A184673
:102BE8001037BD4680BD00BF0020024000100240E3
:102BF80054480008000000200400002080B489B078
:102C080000AF0023FB610023BB613D4B9B6803F0D1
:102C18000C033B613A4BDB6803F00303FB603B6941
:102C2800002B05D03B690C2B21D1FB68012B1ED151
:102C3800334B1B6803F00803002B07D1304BD3F844
:102C480094301B0A03F00F03FB6105E02C4B1B6853
:102C58001B0903F00F03FB612A4AFB6952F8233072
:102C6800FB613B69002B0DD1FB69BB610AE03B6945
:102C7800042B02D1244BBB6104E03B69082B01D132
:102C8800224BBB613B690C2B33D11D4BDB6803F036
:102C98000303BB60BB68022B02D0032B03D005E003
:102CA800194B7B6105E0194B7B6102E0FB697B6195
:102CB80000BF134BDB681B0903F0070301337B607C
:102CC8000F4BDB681B0A03F07F037A6902FB03F2F0
:102CD8007B68B2FBF3F37B61094BDB685B0E03F0A7
:102CE800030301335B003B607A693B68B2FBF3F393
:102CF800BB61BB6918462437BD465DF8047B704745
:102D0800001002406C4800080024F40000127A0009
:102D180080B400AF034B1B681846BD465DF8047BC2
:102D2800704700BF0000002080B500AFFFF7F0FF3C
:102D38000146064B9B681B0A03F00703044AD35C51
:102D480003F01F0321FA03F3184680BD0010024068
:102D58006448000880B500AFFFF7DAFF0146064B6C
:102D68009B68DB0A03F00703044AD35C03F01F03E4
:102D780021FA03F3184680BD001002406448000899
:102D880080B586B000AF786000233B612A4B9B6D0D
:102D980003F08053002B03D0FFF738F9786114E073
:102DA800254A254B9B6D43F080539365224B9B6DC1
:102DB80003F08053FB60FB68FFF728F978611E4A2F
:102DC8001D4B9B6D23F0805393657B69B3F5007FA2
:102DD8000BD17B68802B19D97B68A02B02D90223E1
:102DE8003B6113E001233B6110E07B68802B02D933
:102DF80003233B610AE07B68802B02D102233B61FD
:102E080004E07B68702B01D101233B610B490B4B1C
:102E18001B6823F007023B6913430B60074B1B68D1
:102E280003F007023B699A4201D0012300E0002326
:102E380018461837BD4680BD0010024000200240E9
:102E480080B586B000AF78600023FB740023BB74A4
:102E58007B681B6803F40063002B3FD07B685B6EC4
:102E6800B3F5800F1CD0B3F5800F02D8002B0ED01D
:102E78001FE0B3F5000F03D0B3F5400F1CD018E0E6
:102E8800854A854BDB6843F48033D36015E07B6863
:102E980004330021184600F0C9FA0346FB740CE01D
:102EA8007B6820330021184600F0B0FB0346FB7412
:102EB80003E00123FB7400E000BFFB7C002B0BD177
:102EC8007549754BD3F8883023F440027B685B6EF4
:102ED8001343C1F8883001E0FB7CBB747B681B6836
:102EE80003F48053002B3FD07B689B6EB3F1807F47
:102EF8001CD0B3F1807F02D8002B0ED01FE0B3F1B5
:102F0800007F03D0B3F1407F1CD018E0624A624BC7
:102F1800DB6843F48033D36015E07B680433002119
:102F2800184600F083FA0346FB740CE07B682033F4
:102F38000021184600F06AFB0346FB7403E00123F6
:102F4800FB7400E000BFFB7C002B0BD15249524BB5
:102F5800D3F8883023F040727B689B6E1343C1F826
:102F6800883001E0FB7CBB747B681B6803F400338A
:102F7800002B00F0A08000237B74474B9B6D03F06F
:102F88008053002B01D1012300E00023002B0DD03A
:102F9800414A414B9B6D43F0805393653E4B9B6D7B
:102FA80003F08053BB60BB6801237B743B4A3B4BF7
:102FB8001B6843F480731360FEF77EF9F86009E03C
:102FC800FEF77AF90246FB68D31A022B02D90323CB
:102FD800FB7405E0314B1B6803F48073002BEFD0C2
:102FE800FB7C002B5CD12C4BD3F8903003F440735E
:102FF8007B617B69002B1FD07B68D3F884207B69B9
:103008009A4219D0244BD3F8903023F440737B6153
:10301800214A214BD3F8903043F48033C2F89030E2
:103028001D4A1D4BD3F8903023F48033C2F89030FA
:10303800194A7B69C2F890307B6903F00103002BC1
:1030480016D0FEF739F9F8600BE0FEF735F90246BD
:10305800FB68D31A41F28832934202D90323FB74E6
:1030680006E00D4BD3F8903003F00203002BECD0B0
:10307800FB7C002B0CD10849074BD3F8903023F484
:1030880040727B68D3F884301343C1F8903009E06C
:10309800FB7CBB7406E000BF0010024000700040DB
:1030A800FB7CBB747B7C012B05D19E4A9D4B9B6DA1
:1030B80023F0805393657B681B6803F00103002BA2
:1030C8000AD09849974BD3F8883023F003027B68DD
:1030D8009B6B1343C1F888307B681B6803F00203BD
:1030E800002B0AD08F498F4BD3F8883023F00C027D
:1030F8007B68DB6B1343C1F888307B681B6803F07F
:103108000403002B0AD08749864BD3F8883023F074
:1031180030027B681B6C1343C1F888307B681B68DE
:1031280003F00803002B0AD07E497E4BD3F8883081
:1031380023F0C0027B685B6C1343C1F888307B685E
:103148001B6803F01003002B0AD07649754BD3F89F
:10315800883023F440727B689B6C1343C1F8883035
:103168007B681B6803F02003002B0AD06D496D4B68
:10317800D3F8883023F440627B68DB6C1343C1F8D2
:1031880088307B681B6803F40073002B0AD06549FC
:10319800644BD3F8883023F440227B68DB6D1343FB
:1031A800C1F888307B681B6803F48063002B0AD061
:1031B8005C495C4BD3F8883023F440127B681B6E63
:1031C8001343C1F888307B681B6803F04003002B69
:1031D8000AD05449534BD3F8883023F440527B68C3
:1031E8001B6D1343C1F888307B681B6803F08003AC
:1031F800002B0AD04B494B4BD3F8883023F440427C
:103208007B685B6D1343C1F888307B681B6803F4E7
:103218008073002B0AD04349424BD3F8883023F4FB
:1032280040327B689B6D1343C1F888307B681B680C
:1032380003F40053002B28D03A493A4BD3F888308E
:1032480023F040627B68DB6E1343C1F888307B68EB
:10325800DB6EB3F1006F06D1324A324BDB6843F4C0
:103268008013D36011E07B68DB6EB3F1806F0CD103
:103278007B6804330121184600F0D8F80346FB7434
:10328800FB7C002B01D0FB7CBB747B681B6803F4C0
:103298000023002B28D02349224BD3F8883023F071
:1032A80040627B681B6F1343C1F888307B681B6FD3
:1032B800B3F1006F06D11B4A1A4BDB6843F4801345
:1032C800D36011E07B681B6FB3F1806F0CD17B6812
:1032D80004330121184600F0A9F80346FB74FB7C6F
:1032E800002B01D0FB7CBB747B681B6803F4802334
:1032F800002B2BD00B490B4BD3F8883023F04062BE
:103308007B685B6F1343C1F888307B685B6FB3F1F0
:10331800006F09D1034A034BDB6843F48013D36081
:1033280014E000BF001002407B685B6FB3F1806F50
:103338000CD17B6804330121184600F077F8034666
:10334800FB74FB7C002B01D0FB7CBB747B681B6887
:1033580003F48043002B2FD02B492B4BD3F8883014
:1033680023F040527B689B6F1343C1F888307B6819
:103378009B6FB3F1805F0DD17B680433022118463F
:1033880000F054F80346FB74FB7C002B14D0FB7C44
:10339800BB7411E07B689B6FB3F1005F0CD17B6855
:1033A80020330221184600F031F90346FB74FB7CF8
:1033B800002B01D0FB7CBB747B681B6803F40043C3
:1033C800002B0AD01049104BD3F8883023F08042E4
:1033D8007B68DB6F1343C1F888307B681B6803F494
:1033E8008033002B0BD00849074BD3F8883023F0E3
:1033F80000427B68D3F880301343C1F88830BB7C27
:1034080018461837BD4680BD0010024080B400AF92
:10341800054A054B1B6843F00403136000BFBD4613
:103428005DF8047B704700BF0010024080B584B08F
:1034380000AF786039600023FB73734BDB6803F0DF
:103448000303002B18D0704BDB6803F003027B6882
:103458001B689A420DD17B681B68002B09D06A4B08
:10346800DB681B0903F007035A1C7B685B689A42F8
:1034780044D00123FB7341E07B681B68022B0CD00E
:10348800032B13D0012B20D15F4B1B6803F00203E1
:10349800002B1DD10123FB731AE05B4B1B6803F45F
:1034A8008063002B16D10123FB7313E0564B1B6876
:1034B80003F40033002B0FD1534B1B6803F4802314
:1034C800002B09D10123FB7306E00123FB7304E001
:1034D80000BF02E000BF00E000BFFB7B002B0DD166
:1034E8004948494BDB6823F073027B6819687B689D
:1034F8005B68013B1B010B431343C360FB7B002B41
:103508007DD1414A404B1B6823F080631360FDF76F
:10351800D3FEB86009E0FDF7CFFE0246BB68D31AB8
:10352800022B02D90323FB7305E0374B1B6803F01A
:103538000063002BEFD1FB7B002B60D13B68002B95
:1035480011D13148304B1B6923F41F3323F44073E6
:103558007A68926811027A68D268120952040A439A
:103568001343036127E03B68012B12D12648264B01
:103578001B6923F4C00323F4FE437A68926811029E
:103588007A6812695208013A52050A4313430361E3
:1035980011E01D481C4B1B6923F0C06323F4FE4354
:1035A8007A68926811027A6852695208013A52069A
:1035B8000A4313430361144A134B1B6843F08063A7
:1035C8001360FDF779FEB86009E0FDF775FE024665
:1035D800BB68D31A022B02D90323FB7305E00A4BFD
:1035E8001B6803F00063002BEFD0FB7B002B06D198
:1035F8000549054B1A697B689B6913430B61FB7B83
:1036080018461037BD4680BD0010024080B584B012
:1036180000AF786039600023FB73684BDB6803F008
:103628000303002B18D0654BDB6803F003027B68AB
:103638001B689A420DD17B681B68002B09D05F4B31
:10364800DB681B0903F007035A1C7B685B689A4216
:1036580044D00123FB7341E07B681B68022B0CD02C
:10366800032B13D0012B20D1544B1B6803F002030A
:10367800002B1DD10123FB731AE0504B1B6803F488
:103688008063002B16D10123FB7313E04B4B1B689F
:1036980003F40033002B0FD1484B1B6803F480233D
:1036A800002B09D10123FB7306E00123FB7304E01F
:1036B80000BF02E000BF00E000BFFB7B002B0DD184
:1036C8003E483E4BDB6823F073027B6819687B68D1
:1036D8005B68013B1B010B431343C360FB7B002B5F
:1036E80067D1364A354B1B6823F080531360FDF7CA
:1036F800E3FDB86009E0FDF7DFFD0246BB68D31AB9
:10370800022B02D90323FB7305E02C4B1B6803F043
:103718000053002BEFD1FB7B002B4AD13B68002BD9
:1037280011D12648254B5B6923F41F3323F44073DA
:103738007A68926811027A68D268120952040A43B8
:103748001343436111E01D481C4B5B6923F0C063C0
:1037580023F4FE437A68926811027A681269520863
:10376800013A52060A4313434361144A134B1B6838
:1037780043F080531360FDF79FFDB86009E0FDF743
:103788009BFD0246BB68D31A022B02D90323FB73A5
:1037980005E00A4B1B6803F00053002BEFD0FB7BBE
:1037A800002B06D10549054B5A697B685B691343B1
:1037B8004B61FB7B18461037BD4680BD00100240A8
:1037C80080B584B000AF78607B68002B01D10123FD
:1037D80093E07B685B6A002B08D17B685B68B3F574
:1037E800827F09D07B680022DA6105E07B680022CD
:1037F8001A617B6800225A617B6800229A627B68A2
:1038080093F85D30DBB2002B06D17B68002283F889
:103818005C207868FDF73CFB7B68022283F85D201A
:103828007B681B687A681268126822F040021A6086
:103838007B68DB68B3F5E06F02D90023FB6002E028
:103848004FF48053FB607B68DB68B3F5706F07D07B
:103858007B68DB68B3F5E06F02D07B6800229A6270
:103868007B681B687A68526802F482717A68926889
:1038780002F4044211437A68126902F00202114309
:103888007A68526902F0010211437A68926902F477
:10389800007211437A68D26902F0380211437A68DB
:1038A800126A02F0800211437A68926A02F40052A6
:1038B8000A431A607B681B687A689269120C02F0E6
:1038C80004017A68526A02F0100211437A68526B56
:1038D80002F0080211437A68D26802F47062114358
:1038E800FA6802F480520A435A607B6800221A661A
:1038F8007B68012283F85D20002318461037BD46F7
:1039080080BD80B582B000AF78607B68002B01D1A4
:10391800012340E07B689B6F002B06D17B68002267
:1039280083F874207868FDF7F7FA7B6824229A6791
:103938007B681B687A681268126822F001021A60B4
:10394800786800F0C1F80346012B01D1012322E079
:103958007B685B6A002B02D0786800F039FB7B68D3
:103968001B687A681268526822F490425A607B6831
:103978001B687A681268926822F02A029A607B684B
:103988001B687A681268126842F001021A60786847
:1039980000F0C0FB034618460837BD4680BD80B519
:1039A8008AB002AFF860B9603B601346FB80FB68E1
:1039B8009B6F202B40F08280BB68002B02D0FB88D5
:1039C800002B01D101237AE0FB6893F87430012BB6
:1039D80001D1022373E0FB68012283F87420FB689D
:1039E8000022C3F88020FB6821229A67FDF764FC57
:1039F8007861FB68FA88A3F85020FB68FA88A3F876
:103A08005220FB689B68B3F5805F08D1FB681B698F
:103A1800002B04D10023FB61BB68BB6103E0BB68DA
:103A2800FB610023BB61FB68002283F874202DE052
:103A38003B6800937B6900228021F86800F0B3FBA3
:103A48000346002B01D0032339E0FB69002B0BD17F
:103A5800FB681B68BA691288C2F3080292B21A8519
:103A6800BB690233BB6108E0FB681B68FA6912781E
:103A780092B21A85FB690133FB61FB68B3F85230D7
:103A88009BB2013B9AB2FB68A3F85220FB68B3F8DB
:103A980052309BB2002BCBD13B6800937B6900224C
:103AA8004021F86800F07FFB0346002B01D0032378
:103AB80005E0FB6820229A67002300E002231846ED
:103AC8002037BD4680BD0000B0B588B000AF786033
:103AD8000023BB767B689A687B681B691A437B68FE
:103AE8005B691A437B68DB691343FB617B681A686F
:103AF8007B681B681968AC4B0B40F9690B43136072
:103B08007B681B687A681268526822F440517A68A8
:103B1800D2680A435A607B689B69FB617B681B68B3
:103B2800A24A934204D07B681B6AFA691343FB617B
:103B38007B681B687A681268926822F43061FA69B7
:103B48000A439A607B681B68994A934222D1994B31
:103B5800D3F8883003F00303032B17D801A252F8D7
:103B680023F000BF7D3B0008893B0008833B000829
:103B78008F3B00080123FB76E8E00223FB76E5E0B3
:103B88000423FB76E2E00823FB76DFE01023FB76D4
:103B980000BFDBE07B681B68874A934234D1854BC2
:103BA800D3F8883003F00C030C2B29D801A252F863
:103BB80023F000BFF13B0008093C0008093C00085D
:103BC800093C0008FD3B0008093C0008093C0008C6
:103BD800093C0008F73B0008093C0008093C0008BC
:103BE800093C0008033C00080023FB76AEE00223F2
:103BF800FB76ABE00423FB76A8E00823FB76A5E080
:103C08001023FB7600BFA1E07B681B686B4A9342D8
:103C180020D1684BD3F8883003F03003102B0FD035
:103C2800102B02D8002B05D010E0202B05D0302B0C
:103C380009D00BE00023FB7688E00223FB7685E0C1
:103C48000423FB7682E00823FB767FE01023FB76D3
:103C580000BF7BE07B681B68594A934220D1554BD3
:103C6800D3F8883003F0C003402B0FD0402B02D884
:103C7800002B05D010E0802B05D0C02B09D00BE01D
:103C88000023FB7662E00223FB765FE00423FB76E9
:103C98005CE00823FB7659E01023FB7600BF55E073
:103CA8007B681B68474A934224D1424BD3F888303B
:103CB80003F44073B3F5807F12D0B3F5807F02D848
:103CC800002B07D012E0B3F5007F06D0B3F5407F94
:103CD80009D00BE00023FB7638E00223FB7635E0C1
:103CE8000423FB7632E00823FB762FE01023FB76D3
:103CF80000BF2BE07B681B682C4A934224D12D4BD4
:103D0800D3F8883003F44063B3F5806F12D0B3F56D
:103D1800806F02D8002B07D012E0B3F5006F06D0F1
:103D2800B3F5406F09D00BE00023FB760EE00223C9
:103D3800FB760BE00423FB7608E00823FB7605E01E
:103D48001023FB7600BF01E01023FB767B681B681D
:103D5800164A934240F08080FB7E082B36D801A299
:103D680052F823F0913D0008D53D0008993D000820
:103D7800D53D00089F3D0008D53D0008D53D000809
:103D8800D53D0008A73D0008FEF7CEFF786122E088
:103D98000D4B7B611FE0FEF731FF78611BE04FF4AC
:103DA80000437B6117E000BFF369FFEF008000402C
:103DB8000038014000100240004400400048004024
:103DC800004C0040005000400024F40000237B61B8
:103DD8000123BB7600BF7B69002B00F0EB807B687A
:103DE8005A6813465B001A447B699A4205D87B6877
:103DF8005B681A037B699A4202D20123BB76D9E039
:103E08007B691A464FF000031D0245EA1265140249
:103E18007B685B685B081A464FF00003A01845EB07
:103E280003017B685B684FF000041A462346FCF7E1
:103E3800C7F903460C463B613B69B3F5407F08D39D
:103E48003B69B3F5801F04D27B681B683A69DA6066
:103E5800B0E00123BB76ADE07B68DB69B3F5004FCA
:103E68005CD1FB7E082B28D801A252F823F000BFB2
:103E78009D3E0008A53E0008AD3E0008C33E000870
:103E8800B33E0008C33E0008C33E0008C33E000816
:103E9800BB3E0008FEF748FF786113E0FEF75AFFC3
:103EA80078610FE0494B7B610CE0FEF7A7FE786173
:103EB80008E04FF400437B6104E000237B610123A9
:103EC800BB7600BF7B69002B74D07B695A007B6886
:103ED8005B685B081A447B685B68B2FBF3F39BB2D0
:103EE8003B613B690F2B16D93B69B3F5803F12D272
:103EF8003B699BB223F00F03FB813B695B089BB2D4
:103F080003F007039AB2FB891343FB817B681B68A4
:103F1800FA89DA604EE00123BB764BE0FB7E082B82
:103F280027D801A252F823F0553F00085D3F00084A
:103F3800653F00087B3F00086B3F00087B3F000897
:103F48007B3F00087B3F0008733F0008FEF7ECFE4C
:103F5800786113E0FEF7FEFE78610FE01B4B7B6192
:103F68000CE0FEF74BFE786108E04FF400437B61FC
:103F780004E000237B610123BB7600BF7B69002B33
:103F880018D07B685B685A087B691A447B685B6851
:103F9800B2FBF3F39BB23B613B690F2B08D93B693A
:103FA800B3F5803F04D27B681B683A69DA6001E0A8
:103FB8000123BB767B6800225A667B6800229A66DA
:103FC800BB7E18462037BD46B0BD00BF0024F400B4
:103FD80080B483B000AF78607B685B6A03F001034C
:103FE800002B0AD07B681B687A681268526822F432
:103FF80000317A68926A0A435A607B685B6A03F008
:104008000203002B0AD07B681B687A681268526822
:1040180022F480317A68D26A0A435A607B685B6A04
:1040280003F00403002B0AD07B681B687A681268C7
:10403800526822F480217A68126B0A435A607B68BE
:104048005B6A03F00803002B0AD07B681B687A6858
:104058001268526822F400417A68526B0A435A6027
:104068007B685B6A03F01003002B0AD07B681B682F
:104078007A681268926822F480517A68926B0A43CF
:104088009A607B685B6A03F02003002B0AD07B6888
:104098001B687A681268926822F400517A68D26BB9
:1040A8000A439A607B685B6A03F04003002B1AD0CE
:1040B8007B681B687A681268526822F480117A68F3
:1040C800126C0A435A607B681B6CB3F5801F0AD1D7
:1040D8007B681B687A681268526822F4C0017A68A3
:1040E800526C0A435A607B685B6A03F08003002BBA
:1040F8000AD07B681B687A681268526822F400212B
:104108007A68926C0A435A6000BF0C37BD465DF866
:10411800047B704780B586B002AF78607B68002268
:10412800C3F88020FDF7C8F8F8607B681B681B6837
:1041380003F00803082B0ED16FF07E430093FB6851
:1041480000224FF40011786800F02DF80346002B88
:1041580001D0032323E07B681B681B6803F004037A
:10416800042B0ED16FF07E430093FB6800224FF4BE
:104178008001786800F017F80346002B01D003236C
:104188000DE07B6820229A677B682022DA677B68CB
:1041980000221A667B68002283F8742000231846E0
:1041A8001037BD4680BD80B584B000AFF860B960F7
:1041B8003B601346FB715EE0BB69B3F1FF3F5AD029
:1041C800FDF77AF802463B68D21ABB699A4202D8D0
:1041D800BB69002B1BD1FB681B68FA681268126860
:1041E80022F4D0721A60FB681B68FA681268926839
:1041F80022F001029A60FB6820229A67FB6820225D
:10420800DA67FB68002283F87420032343E0FB6825
:104218001B681B6803F00403002B2CD0FB681B6889
:10422800DB6903F40063B3F5006F24D1FB681B68F6
:104238004FF400621A62FB681B68FA681268126819
:1042480022F4D0721A60FB681B68FA6812689268D8
:1042580022F001029A60FB6820229A67FB682022FC
:10426800DA67FB682022C3F88020FB68002283F805
:10427800742003230FE0FB681B68DA69BB681A40E7
:10428800BB689A420CBF01230023DBB21A46FB79B4
:104298009A4291D0002318461037BD4680BD84B09D
:1042A80080B584B000AF786007F11C0080E80E008C
:1042B8007B68DB6843F040027B68DA60786800F06E
:1042C80027FA0346FB733B6C002B06D17B689B6B7C
:1042D80043F480327B689A6305E07B689B6B23F428
:1042E80080327B689A63FB7B18461037BD46BDE871
:1042F800804004B0704780B483B000AF78607B68BA
:104308009B6823F001027B689A60002318460C37EB
:10431800BD465DF8047B704780B582B000AF786019
:104328000B46FB707B68DB6823F0C0427B68DA6071
:10433800FB78012B06D17B68DB6843F000527B6871
:10434800DA600BE0FB78002B06D17B68DB6843F072
:1043580080427B68DA6001E0012303E03220FCF749
:10436800B7FF002318460837BD4680BD84B080B526
:1043780086B000AF786007F1240080E80E000023C3
:10438800FB757B68FB6000233B6109E07A683B6949
:1043980040339B00134400225A603B6901333B6160
:1043A8003B690E2BF2D9FB6C002B1DD1FB6803F582
:1043B80000631A46FB6803F500635B6843F0020379
:1043C80053607B689B6B23F400127B689A637B685D
:1043D8001B6843F040027B681A607B681B6843F0E7
:1043E80080027B681A6005E07B689B6B43F40012CF
:1043F8007B689A63FB6803F560631A4600231360C1
:10440800FB6803F500631A46FB6803F500631B6845
:1044180013600321786800F03DF91021786800F0F6
:10442800F1F80346002B01D00123FB75786800F0F2
:104438000FF90346002B01D00123FB75FB6803F538
:1044480000631A4600231361FB6803F500631A46EC
:1044580000235361FB6803F500631A460023D36108
:1044680000233B6143E03B695A01FB68134403F5B1
:1044780010631B6803F00043B3F1004F18D13B6988
:10448800002B0AD13B695A01FB68134403F51063FA
:104498001A464FF00063136013E03B695A01FB684A
:1044A800134403F510631A464FF09043136008E075
:1044B8003B695A01FB68134403F510631A4600234D
:1044C80013603B695A01FB68134403F510631A46ED
:1044D800002313613B695A01FB68134403F5106319
:1044E8001A464FF67F3393603B6901333B617A6A22
:1044F8003B699A42B7D800233B6143E03B695A01C4
:10450800FB68134403F530631B6803F00043B3F101
:10451800004F18D13B69002B0AD13B695A01FB684F
:10452800134403F530631A464FF00063136013E039
:104538003B695A01FB68134403F530631A464FF090
:104548009043136008E03B695A01FB68134403F584
:1045580030631A46002313603B695A01FB68134411
:1045680003F530631A46002313613B695A01FB685F
:10457800134403F530631A464FF67F3393603B6963
:1045880001333B617A6A3B699A42B7D8FB6803F505
:1045980000631A46FB6803F500631B6923F4807304
:1045A80013617B6800229A617B686FF080425A61D0
:1045B8007B689B6943F010027B689A617B689A6903
:1045C8000F4B13437A689361FB6B002B05D07B6814
:1045D8009B6943F008027B689A61FB6C012B07D149
:1045E8007B689B6943F0804343F004037A689361D6
:1045F800FB7D18461837BD46BDE8804004B07047BB
:1046080000383C8080B485B000AF78603960002302
:10461800FB603B689B0143F020027B681A61FB68E2
:104628000133FB60FB68094A934201D9032306E082
:104638007B681B6903F02003202BF0D00023184669
:104648001437BD465DF8047B704700BF400D03007A
:1046580080B485B000AF78600023FB607B681022CF
:104668001A61FB680133FB60FB68094A934201D970
:10467800032306E07B681B6903F01003102BF0D0BE
:10468800002318461437BD465DF8047B704700BF09
:10469800400D030080B485B000AF78600B46FB7016
:1046A8007B68FB60FB6803F500631946FB6803F54C
:1046B80000631A68FB7813430B600023184614370D
:1046C800BD465DF8047B704780B485B000AF786064
:1046D8007B68FB60FB6803F560631A46FB6803F5BB
:1046E80060631B6823F003031360FB6803F5006332
:1046F8001A46FB6803F500635B6843F002035360E6
:10470800002318461437BD465DF8047B7047000047
:1047180080B485B000AF78600023FB60FB6801338C
:10472800FB60FB68134A934201D903231BE07B68B3
:104738001B69002BF2DA0023FB607B681B6943F0DE
:1047480001027B681A61FB680133FB60FB68094A58
:10475800934201D9032306E07B681B6903F0010338
:10476800012BF0D0002318461437BD465DF8047BB2
:10477800704700BF400D0300DFF834D0FCF702FD9E
:10478800002103E00B4B5B58435004310A480B4BA4
:1047980042189A42F6D30A4A02E0002342F8043B40
:1047A800084B9A42F9D300F011F8FBF791FEFEE7A7
:1047B80000800120AC480008000000200C00002008
:1047C8000C00002090060020FEE7000070B50D4E9A
:1047D8000D4CA41BA4100025A54209D10B4E0C4C6E
:1047E80000F020F8A41BA4100025A54205D170BD37
:1047F80056F8253098470135EEE756F825309847A2
:104808000135F2E7A4480008A4480008A4480008B5
:10481800A848000802440346934200D1704703F8B1
:10482800011BF9E7F8B500BFF8BC08BC9E46704705
:0C483800F8B500BFF8BC08BC9E467047F5
:1048440048657920576F726C64202121210D0A007C
:10485400000000000000000001020304060708092C
:104864000000000001020304A0860100400D0300C3
:10487400801A060000350C0040420F0080841E00A0
:1048840000093D0000127A000024F40000366E0195
:084894000048E801006CDC02A1
:08489C005CB9FF7F0100000080
:0448A400AD0100085A
:0448A800890100087A
:0C48AC0000093D001000000001000000A9
:040000050800478127
:00000001FF
