:020000040800F2
:100000000080012099490008750900087B09000853
:1000100081090008870900088D0900080000000018
:10002000000000000000000000000000613800082F
:100030009309000800000000A13A0008093B0008ED
:10004000E9490008E9490008E9490008E9490008C8
:10005000E9490008E9490008E9490008E9490008B8
:10006000E9490008E9490008E9490008E9490008A8
:10007000E9490008E9490008E9490008E949000898
:10008000E9490008E9490008E9490008E949000888
:10009000E9490008E9490008E9490008E949000878
:1000A000E9490008A1090008E9490008E9490008F0
:1000B000E9490008E9490008E9490008E949000858
:1000C000E9490008E9490008E9490008E949000848
:1000D000E9490008E9490008E9490008E949000838
:1000E000E9490008E9490008E9490008E949000828
:1000F000E9490008E9490008E9490008E949000818
:10010000E9490008E9490008E9490008E949000807
:10011000E9490008E9490008E9490008E9490008F7
:10012000E9490008E9490008E9490008E9490008E7
:10013000E9490008E9490008E9490008E9490008D7
:10014000E9490008E9490008E9490008E9490008C7
:10015000E9490008E9490008E9490008E9490008B7
:10016000E9490008E9490008E9490008E9490008A7
:10017000E9490008E9490008E949000800000000D1
:08018000E9490008E949000803
:1001900010B5054C237833B9044B13B10448AFF3C1
:1001A00000800123237010BD10000020000000001B
:1001B000444A000808B5034B1BB103490348AFF399
:1001C000008008BD0000000014000020444A000820
:1001D00053B94AB9002908BF00281CBF4FF0FF31AE
:1001E0004FF0FF3000F07AB9ADF1080C6DE904CEA4
:1001F00000F006F8DDF804E0DDE9022304B0704702
:100200002DE9F0478C460D460446089E002B51D13F
:100210008A4217466DD9B2FA82FEBEF1000F0BD0AA
:10022000CEF1200C01FA0EF520FA0CFC02FA0EF7C2
:100230004CEA050C00FA0EF44FEA174A250CBCFBF9
:10024000FAF81FFA87F90AFB18CC45EA0C4508FBB7
:1002500009F3AB420AD9ED1908F1FF3280F023818E
:10026000AB4240F22081A8F102083D44ED1AA4B24D
:10027000B5FBFAF00AFB105544EA054400FB09F906
:10028000A14509D9E41900F1FF3380F00A81A145A5
:1002900040F2078102383C44A4EB090440EA0840DC
:1002A0000021002E61D024FA0EF400233460736024
:1002B000BDE8F0878B4207D9002E54D0002186E894
:1002C00021000846BDE8F087B3FA83F1002940F029
:1002D0008E80AB4202D3824200F2FA80841A65EB30
:1002E00003050120AC46002E3FD086E81010BDE883
:1002F000F08712B90127B7FBF2F7B7FA87FEBEF114
:10030000000F34D1EB1B3A0C1FFA87FC0121B3FB21
:10031000F2F8250C02FB183345EA03450CFB08F301
:10032000AB4207D9ED1908F1FF3002D2AB4200F21F
:10033000D1808046ED1AA3B2B5FBF2F002FB105556
:1003400043EA05440CFB00FCA44507D9E41900F17D
:10035000FF3302D2A44500F2B8801846A4EB0C0487
:1003600040EA08409DE731463046BDE8F087CEF1CF
:10037000200405FA0EF307FA0EF720FA04F83A0CF7
:1003800025FA04F448EA0308B4FBF2F14FEA1845F1
:1003900002FB11441FFA87FC45EA044501FB0CF3FC
:1003A000AB4200FA0EF409D9ED1901F1FF3080F0EB
:1003B0008A80AB4240F2878002393D44EB1A1FFA33
:1003C00088F5B3FBF2F002FB103345EA034500FB6E
:1003D0000CF3AB4207D9ED1900F1FF386FD2AB42F5
:1003E0006DD902383D44EB1A40EA01418FE7C1F173
:1003F000200722FA07F88B4005FA01F448EA0303C4
:1004000020FA07FE4FEA134CFD404EEA040EB5FBFE
:10041000FCF94FEA1E440CFB19551FFA83F844EA15
:10042000054509FB08F4AC4202FA01F200FA01FAB0
:1004300008D9ED1809F1FF3043D2AC4241D9A9F1F6
:1004400002091D442D1B1FFA8EFEB5FBFCF00CFBB0
:1004500010554EEA054400FB08F8A04507D9E418FA
:1004600000F1FF3529D2A04527D902381C4440EAC3
:100470000940A4EB0804A0FB02894C45C6464D4642
:1004800015D312D056B1BAEB0E0364EB050404FA8F
:1004900007F7CB401F43CC40376074600021BDE8B4
:1004A000F0871846F8E69046E0E6C245EAD2B8EB97
:1004B000020E69EB03050138E4E72846D7E740461A
:1004C00091E78146BEE7014678E702383C4445E7BC
:1004D000084608E7A8F102083D442BE7704700BF33
:1004E00080B485B000AFF860B9607A60FB68074AF5
:1004F0001A60BB68064A1A607B6880221A6000BFD7
:100500001437BD465DF8047B704700BF2C00002007
:1005100080000020B0B586B000AF0A4B3C461D46B7
:100520000FCD0FC495E803002060043421703946D4
:100530004FF4FA731522044802F07EFB00BF18370F
:10054000BD46B0BD5C4A0008980F0020B0B586B02B
:1005500000AF0B4B3C1D1D460FCD0FC42B681A4638
:10056000228002341B0C2370391D4FF4FA731322BE
:10057000044802F061FB00BF1837BD46B0BD00BFA4
:10058000744A0008980F0020B0B596B000AF00F094
:1005900043FA00F04BF800F0DFF800F0ADF81D4B27
:1005A00007F13C041D460FCD0FC495E8070084E811
:1005B000070007F13C030021184602F0DBFF02466A
:1005C000154B1A60154B07F120041D460FCD0FC4C3
:1005D00095E8070084E8070007F12003002118468A
:1005E00002F0C8FF02460E4B1A600E4B3C1D1D4622
:1005F0000FCD0FC495E8070084E807003B1D0021DC
:10060000184602F0B7FF0246074B1A6002F0ABFF34
:10061000FEE700BFA84A00088C0F0020CC4A000863
:10062000940F0020F04A0008900F002080B5B8B069
:1006300000AF07F19C0344220021184604F0FAF9A8
:1006400007F1880300221A605A609A60DA601A6122
:100650003B4688220021184604F0ECF91023C7F825
:100660009C300123C7F8B4300023C7F8B8306023AA
:10067000C7F8BC300023C7F8C43007F19C03184604
:1006800000F0EEFC0346002B01D000F0AFF80F2382
:10069000C7F888300023C7F88C300023C7F89030A3
:1006A0000023C7F894300023C7F8983007F1880377
:1006B0000021184601F0BAF80346002B01D000F0E3
:1006C00095F802233B600023FB633B46184601F08C
:1006D000E3FA0346002B01D000F088F84FF40070D5
:1006E00000F068FC0346002B01D000F07FF800BF4B
:1006F000E037BD4680BD000080B500AF144B154A01
:100700001A60134B4FF4E1325A60114B00229A6089
:100710000F4B0022DA600E4B00221A610C4B0C22A8
:100720005A610B4B00229A61094B0022DA61084B97
:1007300000221A62064B00225A62054802F02EFA85
:100740000346002B01D000F051F800BF80BD00BF70
:10075000980F00200044004080B483B000AF094AE5
:10076000084BDB6C43F00103D364064BDB6C03F0F6
:1007700001037B607B6800BF0C37BD465DF8047BDE
:10078000704700BF0010024080B582B000AF7860B3
:10079000FFF7C0FE4FF47A7002F038FFF8E780B53B
:1007A00082B000AF7860FFF7D1FE4FF4FA6002F03C
:1007B0002DFFF8E780B582B000AF78604FF47A7013
:1007C00002F024FFFAE7000080B582B000AF786045
:1007D0007B681B68044A934201D100F035F900BFE1
:1007E0000837BD4680BD00BF002C014080B400AF7B
:1007F00072B6FEE780B582B000AF114A104B1B6E97
:1008000043F0010313660E4B1B6E03F001037B6084
:100810007B680B4A0A4B9B6D43F080539365084BF2
:100820009B6D03F080533B603B6800220F216FF00B
:10083000010000F0DFF900BF0837BD4680BD00BFF2
:100840000010024080B58AB000AF786007F1140351
:1008500000221A605A609A60DA601A617B681B682D
:10086000174A934228D1174A164B9B6D43F4003325
:100870009365144B9B6D03F400333B613B69114A54
:10088000104BDB6C43F00103D3640E4BDB6C03F0C5
:100890000103FB60FB680C237B610223BB61002327
:1008A000FB6103233B6207237B6207F114031946B4
:1008B0004FF0904000F0C8F900BF2837BD4680BD1A
:1008C000004400400010024080B58CB000AF78605A
:1008D0000023FB620023BB6200227968192000F02C
:1008E00089F9192000F0A2F91E4A1E4B1B6E43F431
:1008F000006313661B4B1B6E03F40063FB60FB6815
:1009000007F1100207F114031146184601F032F9FD
:1009100001F01AF9F862FB6A134AA2FB03239B0C4D
:10092000013BBB62114B124A1A60104B40F2E73296
:10093000DA600E4ABB6A53600C4B00221A610B4B03
:1009400000229A60094801F057FE0346002B04D1AB
:10095000064801F0B3FE034600E001231846303795
:10096000BD4680BD0010024083DE1B431C100020EA
:10097000002C014080B400AFFEE780B400AFFEE77A
:1009800080B400AFFEE780B400AFFEE780B400AFF4
:10099000FEE780B400AF00BFBD465DF8047B704742
:1009A00080B500AF024801F0F9FE00BF80BD00BF76
:1009B0001C10002080B400AF154A154BD3F88830C6
:1009C00043F47003C2F88830124A124B1B6843F09C
:1009D000010313600F4B00229A600E4A0D4B1B68F7
:1009E00023F0A85323F4102313600A4B4FF48052D2
:1009F000DA60084A074B1B6823F480231360054B19
:100A000000229A6100BFBD465DF8047B704700BFBD
:100A100000ED00E00010024080B582B000AF00237E
:100A2000FB71032000F0DBF80020FFF74DFF0346C9
:100A3000002B02D00123FB7101E0FFF7DBFEFB7905
:100A400018460837BD4680BD80B400AF064B1B7802
:100A50001A46064B1B681344044A136000BFBD4688
:100A60005DF8047B704700BF08000020681000207C
:100A700080B400AF034B1B681846BD465DF8047B8D
:100A8000704700BF6810002080B485B000AF786068
:100A90007B6803F00703FB600C4BDB68BB60BA6844
:100AA0004FF6FF031340BB60FB681A02BB68134399
:100AB00043F0BF6343F40033BB60044ABB68D360B8
:100AC00000BF1437BD465DF8047B704700ED00E0C1
:100AD00080B400AF044BDB681B0A03F00703184621
:100AE000BD465DF8047B704700ED00E080B483B044
:100AF00000AF0346FB7197F90730002B0BDB094968
:100B000097F907305B09FA7902F01F02012000FA19
:100B100002F241F8232000BF0C37BD465DF8047B8C
:100B2000704700BF00E100E080B483B000AF03462F
:100B30003960FB7197F90730002B0ADB0D4997F9F3
:100B400007303A68D2B21201D2B20B4483F80023C4
:100B50000AE00949FB7903F00F03043B3A68D2B27B
:100B60001201D2B20B441A7600BF0C37BD465DF8B5
:100B7000047B704700E100E000ED00E080B489B044
:100B800000AFF860B9607A60FB6803F00703FB61AF
:100B9000FB69C3F10703042B28BF0423BB61FB6976
:100BA0000433062B02D9FB69033B00E000237B6181
:100BB0000122BB6902FA03F35A1EBB681A407B6923
:100BC0009A4001217B6901FA03F3591E7B680B40AF
:100BD000134318462437BD465DF8047B704780B543
:100BE00082B000AF78607868FFF74EFF00BF08372B
:100BF000BD4680BD80B586B000AF0346B9607A605F
:100C0000FB7300237B61FFF763FF78617A68B96843
:100C10007869FFF7B3FF024697F90F30114618467F
:100C2000FFF782FF00BF1837BD4680BD80B582B098
:100C300000AF0346FB7197F907301846FFF756FFE0
:100C400000BF0837BD4680BD80B487B000AF786074
:100C5000396000237B617FE13B681A6801217B6971
:100C600001FA03F31340FB60FB68002B00F0718175
:100C70003B685B68012B0BD03B685B68022B07D09D
:100C80003B685B68112B03D03B685B68122B30D14B
:100C90007B689B683B617B695B00032202FA03F37C
:100CA000DB433A6913403B613B68DA687B695B0070
:100CB00002FA03F33A6913433B617B683A699A602D
:100CC0007B685B683B6101227B6902FA03F3DB43CB
:100CD0003A6913403B613B685B681B0903F0010202
:100CE0007B6902FA03F33A6913433B617B683A6913
:100CF0005A603B685B6803F00303032B18D17B68E1
:100D0000DB6A3B6101227B6902FA03F3DB433A6948
:100D100013403B613B685B68DB0803F001027B69C1
:100D200002FA03F33A6913433B617B683A69DA627A
:100D30007B68DB683B617B695B00032202FA03F39B
:100D4000DB433A6913403B613B689A687B695B000F
:100D500002FA03F33A6913433B617B683A69DA604C
:100D60003B685B68022B03D03B685B68122B23D186
:100D70007B69DA087B68083253F822303B617B6973
:100D800003F007039B000F2202FA03F3DB433A69E7
:100D900013403B613B681A697B6903F007039B00C2
:100DA00002FA03F33A6913433B617B69DA087B6813
:100DB0000832396943F822107B681B683B617B6904
:100DC0005B00032202FA03F3DB433A6913403B6101
:100DD0003B685B6803F003027B695B0002FA03F384
:100DE0003A6913433B617B683A691A603B685B6808
:100DF00003F08053002B00F0AC805E4A5D4B1B6E0D
:100E000043F0010313665B4B1B6E03F00103BB60F1
:100E1000BB68594A7B699B08023352F823303B6117
:100E20007B6903F003039B000F2202FA03F3DB4309
:100E30003A6913403B617B68B3F1904F25D07B68E2
:100E40004E4A93421FD07B684D4A934219D07B682B
:100E50004C4A934213D07B684B4A93420DD07B6837
:100E60004A4A934207D07B68494A934201D10623FC
:100E70000CE007230AE0052308E0042306E003232F
:100E800004E0022302E0012300E000237A6902F07B
:100E90000302920093403A6913433B6136497B69F0
:100EA0009B0802333A6941F823203A4B1B683B61A7
:100EB000FB68DB433A6913403B613B685B6803F4C2
:100EC0008033002B03D03A69FB6813433B61314AFE
:100ED0003B6913602F4B5B683B61FB68DB433A69FE
:100EE00013403B613B685B6803F40033002B03D085
:100EF0003A69FB6813433B61264A3B695360254BC3
:100F00009B683B61FB68DB433A6913403B613B688C
:100F10005B6803F48013002B03D03A69FB6813432A
:100F20003B611C4A3B6993601A4BDB683B61FB6881
:100F3000DB433A6913403B613B685B6803F4001391
:100F4000002B03D03A69FB6813433B61114A3B69AC
:100F5000D3607B6901337B613B681A687B6922FA45
:100F600003F3002B7FF478AE00BF1C37BD465DF85D
:100F7000047B70470010024000000140000400485C
:100F800000080048000C0048001000480014004809
:100F9000001800480004014080B400AF044B1B68F7
:100FA00003F4C0631846BD465DF8047B704700BF7C
:100FB0000070004080B485B000AF78607B68B3F506
:100FC000007F30D1234B1B6803F4C063B3F5007F6F
:100FD00038D0204A1F4B1B6823F4C06343F40073CE
:100FE00013601D4B1B68322202FB03F31B4AA2FB5A
:100FF00003239B0C0133FB6002E0FB68013BFB60B9
:10100000144B5B6903F48063B3F5806F02D1FB6816
:10101000002BF2D10F4B5B6903F48063B3F5806F53
:1010200010D103230FE00B4B1B6803F4C063B3F52F
:10103000806F07D0074A074B1B6823F4C06343F453
:1010400080631360002318461437BD465DF8047BA7
:10105000704700BF007000400000002083DE1B438B
:1010600080B588B000AF78607B68002B01D1012388
:10107000D4E3A14B9B6803F00C03BB619E4BDB6880
:1010800003F003037B617B681B6803F01003002BF4
:1010900000F0E480BB69002B07D0BB690C2B40F04B
:1010A0008B807B69012B40F08780934B1B6803F09A
:1010B0000203002B05D07B689B69002B01D1012323
:1010C000ACE37B681A6A8C4B1B6803F00803002BA7
:1010D00004D0894B1B6803F0F00305E0864BD3F87E
:1010E00094301B0903F0F0039A4223D97B681B6AF2
:1010F000184600F071FD0346002B01D001238DE35B
:101100007D4A7D4B1B6843F0080313607A497A4B94
:101110001B6823F0F0027B681B6A13430B6076495F
:10112000754B5B6823F47F427B68DB691B021343CA
:101130004B6025E0704A704B1B6843F00803136056
:101140006D496D4B1B6823F0F0027B681B6A1343EB
:101150000B606949684B5B6823F47F427B68DB69FD
:101160001B0213434B60BB69002B09D17B681B6AD0
:10117000184600F031FD0346002B01D001234DE35A
:1011800000F036FC01465C4B9B681B0903F00F0323
:101190005A4AD35C03F01F0321FA03F3584A136041
:1011A000584B1B681846FFF78FFB0346FB73FB7B0E
:1011B000002B52D0FB7B31E37B689B69002B32D044
:1011C0004D4A4D4B1B6843F001031360FFF750FC81
:1011D000386108E0FFF74CFC02463B69D31A022B4A
:1011E00001D903231AE3444B1B6803F00203002BCD
:1011F000F0D0414A404B1B6843F0080313603E495E
:101200003D4B1B6823F0F0027B681B6A13430B60A5
:101210003949394B5B6823F47F427B68DB691B02E9
:1012200013434B601AE0344A334B1B6823F001032D
:101230001360FFF71DFC386108E0FFF719FC024658
:101240003B69D31A022B01D90323E7E22A4B1B681F
:1012500003F00203002BF0D100E000BF7B681B68A5
:1012600003F00103002B74D0BB69082B05D0BB69C8
:101270000C2B0ED17B69032B0BD11F4B1B6803F486
:101280000033002B64D07B685B68002B60D10123A6
:10129000C4E27B685B68B3F5803F06D1164A164B03
:1012A0001B6843F4803313601DE07B685B68B3F513
:1012B000A02F0CD1104A104B1B6843F480231360FD
:1012C0000D4A0D4B1B6843F4803313600BE00A4A50
:1012D000094B1B6823F480331360074A064B1B68D5
:1012E00023F4802313607B685B68002B1CD0FFF71E
:1012F000BFFB386111E000BF00100240144B000832
:101300000000002004000020FFF7B2FB02463B690A
:10131000D31A642B01D9032380E2AF4B1B6803F47B
:101320000033002BF0D014E0FFF7A2FB386108E097
:10133000FFF79EFB02463B69D31A642B01D90323B6
:101340006CE2A54B1B6803F40033002BF0D100E0E6
:1013500000BF7B681B6803F00203002B60D0BB69F1
:10136000042B05D0BB690C2B19D17B69022B16D13C
:10137000994B1B6803F48063002B05D07B68DB6806
:10138000002B01D1012349E29349934B5B6823F081
:10139000F8527B681B691B0613434B6040E07B6877
:1013A000DB68002B23D08C4A8B4B1B6843F4807383
:1013B0001360FFF75DFB386108E0FFF759FB024659
:1013C0003B69D31A022B01D9032327E2824B1B6806
:1013D00003F48063002BF0D07F497F4B5B6823F0E0
:1013E000F8527B681B691B0613434B6018E07A4A6E
:1013F000794B1B6823F480731360FFF739FB386166
:1014000008E0FFF735FB02463B69D31A022B01D9EE
:10141000032303E2704B1B6803F48063002BF0D1BD
:101420007B681B6803F00803002B3CD07B685B697A
:10143000002B1CD0684A684BD3F8943043F001036A
:10144000C2F89430FFF714FB386108E0FFF710FB97
:1014500002463B69D31A022B01D90323DEE15E4B1E
:10146000D3F8943003F00203002BEFD01BE05A4A6C
:10147000594BD3F8943023F00103C2F89430FFF7AE
:10148000F7FA386108E0FFF7F3FA02463B69D31A2E
:10149000022B01D90323C1E14F4BD3F8943003F061
:1014A0000203002BEFD17B681B6803F00403002BC1
:1014B00000F0A6800023FB77474B9B6D03F0805321
:1014C000002B0DD1444A444B9B6D43F080539365F0
:1014D000414B9B6D03F08053BB60BB680123FB77DE
:1014E0003E4B1B6803F48073002B18D13B4A3B4BE7
:1014F0001B6843F480731360FFF7BAFA386108E0A1
:10150000FFF7B6FA02463B69D31A022B01D903232F
:1015100084E1324B1B6803F48073002BF0D07B68AE
:101520009B68012B08D12C4A2B4BD3F8903043F009
:101530000103C2F8903024E07B689B68052B10D132
:10154000254A254BD3F8903043F00403C2F890307D
:10155000214A214BD3F8903043F00103C2F8903078
:101560000FE01D4A1C4BD3F8903023F00103C2F862
:101570009030194A184BD3F8903023F00403C2F886
:1015800090307B689B68002B16D0FFF771FA3861AA
:101590000AE0FFF76DFA02463B69D31A41F288323E
:1015A000934201D9032339E10B4BD3F8903003F078
:1015B0000203002BEDD01AE0FFF75AFA38610FE072
:1015C000FFF756FA02463B69D31A41F2883293423A
:1015D00006D9032322E100BF001002400070004042
:1015E000904BD3F8903003F00203002BE8D1FB7F3F
:1015F000012B05D18B4A8B4B9B6D23F08053936558
:101600007B689B6A002B00F008817B689B6A022B39
:1016100040F0D080834BDB687B617B6903F0030281
:101620007B68DB6A9A4230D17B6903F070027B6889
:101630001B6B013B1B019A4227D17B6903F4FE42DD
:101640007B685B6B1B029A421FD17B6903F40033FA
:101650007A68926B072A14BF01220022D2B2934209
:1016600013D17B6903F4C0027B68DB6B5B08013B31
:101670005B059A4209D17B6903F0C0627B681B6CF1
:101680005B08013B5B069A426ED0BB690C2B69D0AC
:10169000644B1B6803F08063002B05D1614B1B6812
:1016A00003F08053002B01D00123B7E05D4A5D4B6E
:1016B0001B6823F080731360FFF7DAF9386108E0E4
:1016C000FFF7D6F902463B69D31A022B01D903234F
:1016D000A4E0544B1B6803F00073002BF0D1514879
:1016E000504BDA68504B13407A68D16A7A68126BB3
:1016F000013A120111437A68526B120211437A685F
:10170000D26B5208013A520511437A68126C5208A2
:10171000013A520611437A68926B120952040A4345
:101720001343C3603F4A3F4B1B6843F08073136011
:101730003C4A3C4BDB6843F08073D360FFF798F979
:10174000386108E0FFF794F902463B69D31A022B8F
:1017500001D9032362E0334B1B6803F00073002BB5
:10176000F0D05AE0012359E02E4B1B6803F00073C0
:10177000002B52D12B4A2B4B1B6843F08073136014
:10178000284A284BDB6843F08073D360FFF770F979
:10179000386108E0FFF76CF902463B69D31A022B67
:1017A00001D903233AE01F4B1B6803F00073002BA1
:1017B000F0D032E0BB690C2B2DD01A4A194B1B68B4
:1017C00023F080731360174B1B6803F02053002B2A
:1017D00005D1144A134BDB6823F00303D360114A8D
:1017E000104BDB6823F0887323F48033D360FFF75A
:1017F0003FF9386108E0FFF73BF902463B69D31A2D
:10180000022B01D9032309E0064B1B6803F0007388
:10181000002BF0D101E0012300E00023184620371F
:10182000BD4680BD001002408C809DF980B584B01B
:1018300000AF786039607B68002B01D10123C8E0DC
:10184000664B1B6803F007023B689A4210D263495B
:10185000624B1B6823F007023B6813430B605F4B2E
:101860001B6803F007023B689A4201D00123B0E0F5
:101870007B681B6803F00103002B4CD07B685B681E
:10188000032B07D1564B1B6803F00073002B21D1AB
:1018900001239EE07B685B68022B07D1504B1B68DD
:1018A00003F40033002B15D1012392E07B685B68C1
:1018B000002B07D14A4B1B6803F00203002B09D110
:1018C000012386E0464B1B6803F48063002B01D1A3
:1018D00001237EE04249424B9B6823F003027B6870
:1018E0005B6813438B60FFF7C3F8F8600AE0FFF70B
:1018F000BFF80246FB68D31A41F28832934201D9FD
:10190000032366E0364B9B6803F00C027B685B6840
:101910009B009A42EBD17B681B6803F00203002B0B
:1019200008D02F492E4B9B6823F0F0027B689B6800
:1019300013438B60294B1B6803F007023B689A42F4
:1019400010D92649254B1B6823F007023B68134337
:101950000B60224B1B6803F007023B689A4201D0E0
:10196000012336E07B681B6803F00403002B08D0DA
:101970001B491B4B9B6823F4E0627B68DB681343C5
:101980008B607B681B6803F00803002B09D01449A7
:10199000134B9B6823F460527B681B69DB00134385
:1019A0008B6000F025F801460D4B9B681B0903F086
:1019B0000F030C4AD35C03F01F0321FA03F30A4A16
:1019C00013600A4B1B681846FEF77EFF0346FB7246
:1019D000FB7A18461037BD4680BD00BF002002408C
:1019E00000100240144B00080000002004000020FA
:1019F00080B489B000AF0023FB610023BB613D4B85
:101A00009B6803F00C033B613A4BDB6803F0030374
:101A1000FB603B69002B05D03B690C2B21D1FB6897
:101A2000012B1ED1334B1B6803F00803002B07D199
:101A3000304BD3F894301B0A03F00F03FB6105E031
:101A40002C4B1B681B0903F00F03FB612A4AFB693F
:101A500052F82330FB613B69002B0DD1FB69BB6160
:101A60000AE03B69042B02D1244BBB6104E03B69D3
:101A7000082B01D1224BBB613B690C2B33D11D4B91
:101A8000DB6803F00303BB60BB68022B02D0032BAF
:101A900003D005E0194B7B6105E0194B7B6102E047
:101AA000FB697B6100BF134BDB681B0903F0070375
:101AB00001337B600F4BDB681B0A03F07F037A69FD
:101AC00002FB03F27B68B2FBF3F37B61094BDB683B
:101AD0005B0E03F0030301335B003B607A693B68F4
:101AE000B2FBF3F3BB61BB6918462437BD465DF812
:101AF000047B7047001002402C4B00080024F400C7
:101B000000127A0080B400AF034B1B681846BD4634
:101B10005DF8047B704700BF0000002080B500AF77
:101B2000FFF7F0FF0146064B9B681B0A03F0070313
:101B3000044AD35C03F01F0321FA03F3184680BD67
:101B400000100240244B000880B500AFFFF7DAFF19
:101B50000146064B9B68DB0A03F00703044AD35C8B
:101B600003F01F0321FA03F3184680BD0010024062
:101B7000244B000880B483B000AF786039607B6884
:101B80000F221A60124B9B6803F003027B685A60B5
:101B90000F4B9B6803F0F0027B689A600C4B9B68CC
:101BA00003F4E0627B68DA60094B9B68DB0803F4AE
:101BB000E0627B681A61074B1B6803F007023B6811
:101BC0001A6000BF0C37BD465DF8047B704700BF4C
:101BD000001002400020024080B586B000AF78605F
:101BE00000233B612A4B9B6D03F08053002B03D0F5
:101BF000FFF7D2F9786114E0254A254B9B6D43F03D
:101C000080539365224B9B6D03F08053FB60FB6810
:101C1000FFF7C2F978611E4A1D4B9B6D23F080537C
:101C200093657B69B3F5007F0BD17B68802B19D955
:101C30007B68A02B02D902233B6113E001233B61A7
:101C400010E07B68802B02D903233B610AE07B68AC
:101C5000802B02D102233B6104E07B68702B01D111
:101C600001233B610B490B4B1B6823F007023B69C7
:101C700013430B60074B1B6803F007023B699A4252
:101C800001D0012300E0002318461837BD4680BD6F
:101C9000001002400020024080B586B000AF78609E
:101CA0000023FB740023BB747B681B6803F4006390
:101CB000002B3FD07B685B6EB3F5800F1CD0B3F573
:101CC000800F02D8002B0ED01FE0B3F5000F03D019
:101CD000B3F5400F1CD018E0854A854BDB6843F410
:101CE0008033D36015E07B6804330021184600F090
:101CF000B9FA0346FB740CE07B68203300211846D8
:101D000000F0A0FB0346FB7403E00123FB7400E03A
:101D100000BFFB7C002B0BD17549754BD3F8883085
:101D200023F440027B685B6E1343C1F8883001E006
:101D3000FB7CBB747B681B6803F48053002B3FD093
:101D40007B689B6EB3F1807F1CD0B3F1807F02D89B
:101D5000002B0ED01FE0B3F1007F03D0B3F1407F22
:101D60001CD018E0624A624BDB6843F48033D360D6
:101D700015E07B6804330021184600F073FA03462F
:101D8000FB740CE07B6820330021184600F05AFBFE
:101D90000346FB7403E00123FB7400E000BFFB7CFF
:101DA000002B0BD15249524BD3F8883023F04072AC
:101DB0007B689B6E1343C1F8883001E0FB7CBB74E9
:101DC0007B681B6803F40033002B00F0A080002325
:101DD0007B74474B9B6D03F08053002B01D1012393
:101DE00000E00023002B0DD0414A414B9B6D43F096
:101DF000805393653E4B9B6D03F08053BB60BB6883
:101E000001237B743B4A3B4B1B6843F48073136094
:101E1000FEF72EFEF86009E0FEF72AFE0246FB6898
:101E2000D31A022B02D90323FB7405E0314B1B6844
:101E300003F48073002BEFD0FB7C002B5CD12C4B88
:101E4000D3F8903003F440737B617B69002B1FD083
:101E50007B68D3F884207B699A4219D0244BD3F84D
:101E6000903023F440737B61214A214BD3F89030AA
:101E700043F48033C2F890301D4A1D4BD3F89030A4
:101E800023F48033C2F89030194A7B69C2F890304D
:101E90007B6903F00103002B16D0FEF7E9FDF86023
:101EA0000BE0FEF7E5FD0246FB68D31A41F28832EB
:101EB000934202D90323FB7406E00D4BD3F8903014
:101EC00003F00203002BECD0FB7C002B0CD1084963
:101ED000074BD3F8903023F440727B68D3F88430FA
:101EE0001343C1F8903009E0FB7CBB7406E000BFEF
:101EF0000010024000700040FB7CBB747B7C012B17
:101F000005D19E4A9D4B9B6D23F0805393657B6862
:101F10001B6803F00103002B0AD09849974BD3F8B4
:101F2000883023F003027B689B6B1343C1F8883031
:101F30007B681B6803F00203002B0AD08F498F4B8C
:101F4000D3F8883023F00C027B68DB6B1343C1F8B5
:101F500088307B681B6803F00403002B0AD0874994
:101F6000864BD3F8883023F030027B681B6C134318
:101F7000C1F888307B681B6803F00803002B0AD087
:101F80007E497E4BD3F8883023F0C0027B685B6CBF
:101F90001343C1F888307B681B6803F01003002BE3
:101FA0000AD07649754BD3F8883023F440727B68A9
:101FB0009B6C1343C1F888307B681B6803F02003D7
:101FC000002B0AD06D496D4BD3F8883023F4406262
:101FD0007B68DB6C1343C1F888307B681B6803F4B3
:101FE0000073002B0AD06549644BD3F8883023F482
:101FF00040227B68DB6D1343C1F888307B681B6827
:1020000003F48063002B0AD05C495C4BD3F8883022
:1020100023F440127B681B6E1343C1F888307B6841
:102020001B6803F04003002B0AD05449534BD3F8EC
:10203000883023F440527B681B6D1343C1F888300D
:102040007B681B6803F08003002B0AD04B494B4B85
:10205000D3F8883023F440427B685B6D1343C1F8AA
:1020600088307B681B6803F48073002B0AD04349D7
:10207000424BD3F8883023F440327B689B6D134386
:10208000C1F888307B681B6803F40053002B28D00C
:102090003A493A4BD3F8883023F040627B68DB6ED4
:1020A0001343C1F888307B68DB6EB3F1006F06D153
:1020B000324A324BDB6843F48013D36011E07B6813
:1020C000DB6EB3F1806F0CD17B68043301211846BD
:1020D00000F0C8F80346FB74FB7C002B01D0FB7CAE
:1020E000BB747B681B6803F40023002B28D02349B2
:1020F000224BD3F8883023F040627B681B6F134378
:10210000C1F888307B681B6FB3F1006F06D11B4AA2
:102110001A4BDB6843F48013D36011E07B681B6FBC
:10212000B3F1806F0CD17B6804330121184600F0B5
:1021300099F80346FB74FB7C002B01D0FB7CBB743D
:102140007B681B6803F48023002B2BD00B490B4BBF
:10215000D3F8883023F040627B685B6F1343C1F88B
:1021600088307B685B6FB3F1006F09D1034A034B82
:10217000DB6843F48013D36014E000BF001002401A
:102180007B685B6FB3F1806F0CD17B6804330121F6
:10219000184600F067F80346FB74FB7C002B01D067
:1021A000FB7CBB747B681B6803F48043002B2FD03F
:1021B0002B492B4BD3F8883023F040527B689B6F20
:1021C0001343C1F888307B689B6FB3F1805F0DD1FA
:1021D0007B6804330221184600F044F80346FB7480
:1021E000FB7C002B14D0FB7CBB7411E07B689B6FE5
:1021F000B3F1005F0CD17B6820330221184600F058
:1022000021F90346FB74FB7C002B01D0FB7CBB74E3
:102210007B681B6803F40043002B0AD01049104B65
:10222000D3F8883023F080427B68DB6F1343C1F81A
:1022300088307B681B6803F48033002B0BD008497F
:10224000074BD3F8883023F000427B68D3F8803006
:102250001343C1F88830BB7C18461837BD4680BD93
:102260000010024080B584B000AF78603960002370
:10227000FB73734BDB6803F00303002B18D0704B28
:10228000DB6803F003027B681B689A420DD17B6810
:102290001B68002B09D06A4BDB681B0903F007039E
:1022A0005A1C7B685B689A4244D00123FB7341E06F
:1022B0007B681B68022B0CD0032B13D0012B20D181
:1022C0005F4B1B6803F00203002B1DD10123FB733E
:1022D0001AE05B4B1B6803F48063002B16D10123CB
:1022E000FB7313E0564B1B6803F40033002B0FD134
:1022F000534B1B6803F48023002B09D10123FB738C
:1023000006E00123FB7304E000BF02E000BF00E031
:1023100000BFFB7B002B0DD14948494BDB6823F004
:1023200073027B6819687B685B68013B1B010B4388
:102330001343C360FB7B002B7DD1414A404B1B689C
:1023400023F080631360FEF793FBB86009E0FEF7AB
:102350008FFB0246BB68D31A022B02D90323FB73FF
:1023600005E0374B1B6803F00063002BEFD1FB7BCC
:10237000002B60D13B68002B11D13148304B1B69D9
:1023800023F41F3323F440737A68926811027A6849
:10239000D268120952040A431343036127E03B68E1
:1023A000012B12D12648264B1B6923F4C00323F4CA
:1023B000FE437A68926811027A6812695208013AFB
:1023C00052050A431343036111E01D481C4B1B696E
:1023D00023F0C06323F4FE437A68926811027A689E
:1023E00052695208013A52060A4313430361144AE0
:1023F000134B1B6843F080631360FEF739FBB86032
:1024000009E0FEF735FB0246BB68D31A022B02D95E
:102410000323FB7305E00A4B1B6803F00063002BEA
:10242000EFD0FB7B002B06D10549054B1A697B6871
:102430009B6913430B61FB7B18461037BD4680BD7B
:102440000010024080B584B000AF7860396000238E
:10245000FB73684BDB6803F00303002B18D0654B5C
:10246000DB6803F003027B681B689A420DD17B682E
:102470001B68002B09D05F4BDB681B0903F00703C7
:102480005A1C7B685B689A4244D00123FB7341E08D
:102490007B681B68022B0CD0032B13D0012B20D19F
:1024A000544B1B6803F00203002B1DD10123FB7367
:1024B0001AE0504B1B6803F48063002B16D10123F4
:1024C000FB7313E04B4B1B6803F40033002B0FD15D
:1024D000484B1B6803F48023002B09D10123FB73B5
:1024E00006E00123FB7304E000BF02E000BF00E050
:1024F00000BFFB7B002B0DD13E483E4BDB6823F039
:1025000073027B6819687B685B68013B1B010B43A6
:102510001343C360FB7B002B67D1364A354B1B68E6
:1025200023F080531360FEF7A3FAB86009E0FEF7CA
:102530009FFA0246BB68D31A022B02D90323FB730E
:1025400005E02C4B1B6803F00053002BEFD1FB7B05
:10255000002B4AD13B68002B11D12648254B5B69E3
:1025600023F41F3323F440737A68926811027A6867
:10257000D268120952040A431343436111E01D4813
:102580001C4B5B6923F0C06323F4FE437A689268B6
:1025900011027A6812695208013A52060A4313433B
:1025A0004361144A134B1B6843F080531360FEF7DA
:1025B0005FFAB86009E0FEF75BFA0246BB68D31A1F
:1025C000022B02D90323FB7305E00A4B1B6803F0BF
:1025D0000053002BEFD0FB7B002B06D10549054BA8
:1025E0005A697B685B6913434B61FB7B1846103764
:1025F000BD4680BD0010024080B582B000AF78605B
:102600007B68002B01D1012349E07B6893F83D30C2
:10261000DBB2002B06D17B68002283F83C2078686F
:1026200000F041F87B68022283F83D207B681A683D
:102630007B6804331946104600F0F8F97B680122E4
:1026400083F848207B68012283F83E207B680122C2
:1026500083F83F207B68012283F840207B680122B9
:1026600083F841207B68012283F842207B680122A5
:1026700083F843207B68012283F844207B68012291
:1026800083F845207B68012283F846207B6801227D
:1026900083F847207B68012283F83D2000231846F9
:1026A0000837BD4680BD80B483B000AF786000BFFE
:1026B0000C37BD465DF8047B7047000080B485B0E0
:1026C00000AF78607B6893F83D30DBB2012B01D01E
:1026D00001234FE07B68022283F83D207B681B6862
:1026E0007A681268D26842F00102DA607B681B687F
:1026F000234A93421DD07B681B68B3F1804F18D0EA
:102700007B681B681F4A934213D07B681B681E4A74
:1027100093420ED07B681B681C4A934209D07B68A9
:102720001B681B4A934204D07B681B68194A93427A
:1027300015D17B681B689A68174B1340FB60FB68D8
:10274000062B15D0FB68B3F5803F11D07B681B6862
:102750007A681268126842F001021A6008E07B6829
:102760001B687A681268126842F001021A6000E081
:1027700000BF002318461437BD465DF8047B704740
:10278000002C01400004004000080040000C004004
:1027900000340140004001400700010080B582B0D4
:1027A00000AF78607B681B681B6903F00203022B93
:1027B00022D17B681B68DB6803F00203022B1BD16C
:1027C0007B681B686FF002021A617B6801221A772E
:1027D0007B681B689B6903F00303002B03D07868B8
:1027E00000F005F905E0786800F0F7F8786800F087
:1027F00008F97B6800221A777B681B681B6903F065
:102800000403042B22D17B681B68DB6803F00403FC
:10281000042B1BD17B681B686FF004021A617B6874
:1028200002221A777B681B689B6903F44073002BB4
:1028300003D0786800F0DBF805E0786800F0CDF8A8
:10284000786800F0DEF87B6800221A777B681B68E6
:102850001B6903F00803082B22D17B681B68DB6827
:1028600003F00803082B1BD17B681B686FF008027C
:102870001A617B6804221A777B681B68DB6903F0A6
:102880000303002B03D0786800F0B1F805E0786806
:1028900000F0A3F8786800F0B4F87B6800221A779B
:1028A0007B681B681B6903F01003102B22D17B6827
:1028B0001B68DB6803F01003102B1BD17B681B68BF
:1028C0006FF010021A617B6808221A777B681B6818
:1028D000DB6903F44073002B03D0786800F087F8BD
:1028E00005E0786800F079F8786800F08AF87B688D
:1028F00000221A777B681B681B6903F00103012B18
:102900000ED17B681B68DB6803F00103012B07D144
:102910007B681B686FF001021A617868FDF754FF4D
:102920007B681B681B6903F08003802B0ED17B68DA
:102930001B68DB6803F08003802B07D17B681B6872
:102940006FF080021A61786800F014F97B681B68E8
:102950001B6903F48073B3F5807F0ED17B681B681D
:10296000DB6803F08003802B07D17B681B686FF462
:1029700080721A61786800F007F97B681B681B6930
:1029800003F04003402B0ED17B681B68DB6803F02B
:102990004003402B07D17B681B686FF040021A612F
:1029A000786800F038F87B681B681B6903F0200327
:1029B000202B0ED17B681B68DB6803F02003202BE3
:1029C00007D17B681B686FF020021A61786800F0FD
:1029D000C7F800BF0837BD4680BD80B483B000AFE4
:1029E000786000BF0C37BD465DF8047B704780B44B
:1029F00083B000AF786000BF0C37BD465DF8047B44
:102A0000704780B483B000AF786000BF0C37BD461C
:102A10005DF8047B704780B483B000AF786000BF7E
:102A20000C37BD465DF8047B7047000080B485B06C
:102A300000AF786039607B681B68FB607B68404A48
:102A4000934213D07B68B3F1804F0FD07B683D4A2F
:102A500093420BD07B683C4A934207D07B683B4A49
:102A6000934203D07B683A4A934208D1FB6823F033
:102A70007003FB603B685B68FA681343FB607B682C
:102A80002F4A93421FD07B68B3F1804F1BD07B68E5
:102A90002C4A934217D07B682B4A934213D07B6811
:102AA0002A4A93420FD07B68294A93420BD07B6815
:102AB000284A934207D07B68274A934203D07B6819
:102AC000264A934208D1FB6823F44073FB603B68BD
:102AD000DB68FA681343FB60FB6823F080023B6805
:102AE0005B691343FB607B68FA681A603B689A680D
:102AF0007B68DA623B681A687B689A627B68104A76
:102B000093420FD07B68124A93420BD07B68114AE4
:102B1000934207D07B68104A934203D07B680F4AE8
:102B2000934203D13B681A697B681A637B68012270
:102B30005A6100BF1437BD465DF8047B704700BF83
:102B4000002C01400004004000080040000C004040
:102B50000034014000400140004401400048014071
:102B600080B483B000AF786000BF0C37BD465DF81D
:102B7000047B704780B483B000AF786000BF0C372F
:102B8000BD465DF8047B704780B483B000AF7860C9
:102B900000BF0C37BD465DF8047B704780B582B03E
:102BA00000AF78607B68002B01D1012340E07B6897
:102BB0009B6F002B06D17B68002283F87420786815
:102BC000FDF740FE7B6824229A677B681B687A6861
:102BD0001268126822F001021A60786800F0C0F8EA
:102BE0000346012B01D1012322E07B685B6A002BA5
:102BF00002D0786800F038FB7B681B687A6812683E
:102C0000526822F490425A607B681B687A681268A6
:102C1000926822F02A029A607B681B687A681268C0
:102C2000126842F001021A60786800F0BFFB0346A8
:102C300018460837BD4680BD80B58AB002AFF8603F
:102C4000B9603B601346FB80FB689B6F202B40F014
:102C50008280BB68002B02D0FB88002B01D10123AE
:102C60007AE0FB6893F87430012B01D1022373E002
:102C7000FB68012283F87420FB680022C3F88020DF
:102C8000FB6821229A67FDF7F3FE7861FB68FA88FA
:102C9000A3F85020FB68FA88A3F85220FB689B68D1
:102CA000B3F5805F08D1FB681B69002B04D10023BA
:102CB000FB61BB68BB6103E0BB68FB610023BB61D8
:102CC000FB68002283F874202DE03B6800937B6949
:102CD00000228021F86800F0B2FB0346002B01D0EF
:102CE000032339E0FB69002B0BD1FB681B68BA6931
:102CF0001288C2F3080292B21A85BB690233BB6123
:102D000008E0FB681B68FA69127892B21A85FB69C1
:102D10000133FB61FB68B3F852309BB2013B9AB2BE
:102D2000FB68A3F85220FB68B3F852309BB2002B2B
:102D3000CBD13B6800937B6900224021F86800F00A
:102D40007EFB0346002B01D0032305E0FB68202215
:102D50009A67002300E0022318462037BD4680BD55
:102D6000B0B588B000AF78600023BB767B689A6806
:102D70007B681B691A437B685B691A437B68DB6964
:102D80001343FB617B681A687B681B681968AC4B4E
:102D90000B40F9690B4313607B681B687A68126803
:102DA000526822F440517A68D2680A435A607B68BC
:102DB0009B69FB617B681B68A24A934204D07B68D5
:102DC0001B6AFA691343FB617B681B687A681268A7
:102DD000926822F43061FA690A439A607B681B6842
:102DE000994A934222D1994BD3F8883003F00303D8
:102DF000032B17D801A252F823F000BF0D2E0008B4
:102E0000192E0008132E00081F2E00080123FB7640
:102E1000E8E00223FB76E5E00423FB76E2E008230A
:102E2000FB76DFE01023FB7600BFDBE07B681B68EE
:102E3000874A934234D1854BD3F8883003F00C0392
:102E40000C2B29D801A252F823F000BF812E0008D4
:102E5000992E0008992E0008992E00088D2E000842
:102E6000992E0008992E0008992E0008872E000838
:102E7000992E0008992E0008992E0008932E00081C
:102E80000023FB76AEE00223FB76ABE00423FB7667
:102E9000A8E00823FB76A5E01023FB7600BFA1E0A5
:102EA0007B681B686B4A934220D1684BD3F888300B
:102EB00003F03003102B0FD0102B02D8002B05D0BD
:102EC00010E0202B05D0302B09D00BE00023FB763F
:102ED00088E00223FB7685E00423FB7682E008236A
:102EE000FB767FE01023FB7600BF7BE07B681B68EE
:102EF000594A934220D1554BD3F8883003F0C00390
:102F0000402B0FD0402B02D8002B05D010E0802B97
:102F100005D0C02B09D00BE00023FB7662E0022332
:102F2000FB765FE00423FB765CE00823FB7659E048
:102F30001023FB7600BF55E07B681B68474A93422D
:102F400024D1424BD3F8883003F44073B3F5807F2B
:102F500012D0B3F5807F02D8002B07D012E0B3F572
:102F6000007F06D0B3F5407F09D00BE00023FB764D
:102F700038E00223FB7635E00423FB7632E00823B9
:102F8000FB762FE01023FB7600BF2BE07B681B68ED
:102F90002C4A934224D12D4BD3F8883003F440635C
:102FA000B3F5806F12D0B3F5806F02D8002B07D035
:102FB00012E0B3F5006F06D0B3F5406F09D00BE017
:102FC0000023FB760EE00223FB760BE00423FB7666
:102FD00008E00823FB7605E01023FB7600BF01E044
:102FE0001023FB767B681B68164A934240F0808072
:102FF000FB7E082B36D801A252F823F021300008BE
:103000006530000829300008653000082F300008BE
:10301000653000086530000865300008373000086A
:10302000FEF77CFD786122E00D4B7B611FE0FEF72F
:10303000DFFC78611BE04FF400437B6117E000BFC9
:10304000F369FFEF008000400038014000100240AB
:103050000044004000480040004C00400050004048
:103060000024F40000237B610123BB7600BF7B6951
:10307000002B00F0EB807B685A6813465B001A4413
:103080007B699A4205D87B685B681A037B699A4220
:1030900002D20123BB76D9E07B691A464FF00003C8
:1030A0001D0245EA126514027B685B685B081A46DC
:1030B0004FF00003A01845EB03017B685B684FF0FD
:1030C00000041A462346FDF783F803460C463B618D
:1030D0003B69B3F5407F08D33B69B3F5801F04D249
:1030E0007B681B683A69DA60B0E00123BB76ADE02B
:1030F0007B68DB69B3F5004F5CD1FB7E082B28D8D9
:1031000001A252F823F000BF2D310008353100082C
:103110003D310008533100084331000853310008A5
:1031200053310008533100084B310008FEF7F6FC1C
:10313000786113E0FEF708FD78610FE0494B7B6191
:103140000CE0FEF755FC786108E04FF400437B612A
:1031500004E000237B610123BB7600BF7B69002B69
:1031600074D07B695A007B685B685B081A447B6893
:103170005B68B2FBF3F39BB23B613B690F2B16D943
:103180003B69B3F5803F12D23B699BB223F00F033A
:10319000FB813B695B089BB203F007039AB2FB8992
:1031A0001343FB817B681B68FA89DA604EE00123D8
:1031B000BB764BE0FB7E082B27D801A252F823F008
:1031C000E5310008ED310008F53100080B32000848
:1031D000FB3100080B3200080B3200080B320008EC
:1031E00003320008FEF79AFC786113E0FEF7ACFCAE
:1031F00078610FE01B4B7B610CE0FEF7F9FB786117
:1032000008E04FF400437B6104E000237B6101236D
:10321000BB7600BF7B69002B18D07B685B685A08BF
:103220007B691A447B685B68B2FBF3F39BB23B613A
:103230003B690F2B08D93B69B3F5803F04D27B680B
:103240001B683A69DA6001E00123BB767B680022E3
:103250005A667B6800229A66BB7E18462037BD46B8
:10326000B0BD00BF0024F40080B483B000AF78602C
:103270007B685B6A03F00103002B0AD07B681B6844
:103280007A681268526822F400317A68926A0A43B6
:103290005A607B685B6A03F00203002B0AD07B68EC
:1032A0001B687A681268526822F480317A68D26AA0
:1032B0000A435A607B685B6A03F00403002B0AD060
:1032C0007B681B687A681268526822F480217A68E9
:1032D000126B0A435A607B685B6A03F00803002B99
:1032E0000AD07B681B687A681268526822F4004131
:1032F0007A68526B0A435A607B685B6A03F010037A
:10330000002B0AD07B681B687A681268926822F4E6
:1033100080517A68926B0A439A607B685B6A03F01B
:103320002003002B0AD07B681B687A6812689268B9
:1033300022F400517A68D26B0A439A607B685B6A18
:1033400003F04003002B1AD07B681B687A68126870
:10335000526822F480117A68126C0A435A607B68C2
:103360001B6CB3F5801F0AD17B681B687A681268F2
:10337000526822F4C0017A68526C0A435A607B6832
:103380005B6A03F08003002B0AD07B681B687A68B5
:103390001268526822F400217A68926C0A435A60DB
:1033A00000BF0C37BD465DF8047B704780B586B022
:1033B00002AF78607B680022C3F88020FDF758FBDD
:1033C000F8607B681B681B6803F00803082B0ED1AC
:1033D0006FF07E430093FB6800224FF40011786881
:1033E00000F02DF80346002B01D0032323E07B6877
:1033F0001B681B6803F00403042B0ED16FF07E439F
:103400000093FB6800224FF48001786800F017F801
:103410000346002B01D003230DE07B6820229A672E
:103420007B682022DA677B6800221A667B680022AC
:1034300083F87420002318461037BD4680BD80B540
:1034400084B000AFF860B9603B601346FB715EE08A
:10345000BB69B3F1FF3F5AD0FDF70AFB02463B6858
:10346000D21ABB699A4202D8BB69002B1BD1FB68F8
:103470001B68FA681268126822F4D0721A60FB683E
:103480001B68FA681268926822F001029A60FB6871
:1034900020229A67FB682022DA67FB68002283F803
:1034A0007420032343E0FB681B681B6803F00403DC
:1034B000002B2CD0FB681B68DB6903F40063B3F5B9
:1034C000006F24D1FB681B684FF400621A62FB682E
:1034D0001B68FA681268126822F4D0721A60FB68DE
:1034E0001B68FA681268926822F001029A60FB6811
:1034F00020229A67FB682022DA67FB682022C3F843
:103500008020FB68002283F8742003230FE0FB680F
:103510001B68DA69BB681A40BB689A420CBF01237A
:103520000023DBB21A46FB799A4291D00023184659
:103530001037BD4680BD80B485B000AF0346FB8028
:103540000023FB60B7F90630842B05D0B7F90620BD
:10355000FB6813440333FB60FB6818461437BD4611
:103560005DF8047B704780B500AF00F0C3FE002318
:10357000184680BDF0B589B004AF786039607B68CB
:103580005B69002B20D07B689B69002B1CD07B687B
:103590005C687B681D687B681E697B68B3F90830CE
:1035A0001846FFF7C8FF01467B685B697A68926935
:1035B0000292019300913B6832462946204600F072
:1035C000D5FC0346FB601CE07B685C687B681D687B
:1035D0007B681B699EB27B68B3F908301846FFF719
:1035E000AAFF024607F10C03019300923B683246A2
:1035F0002946204600F014FD0346012B01D000238C
:1036000000E0FB6818461437BD46F0BD80B584B0B5
:1036100000AF78607B68FB60FB68002B01D0FB6823
:1036200000E00123184600F031FE00231846103751
:10363000BD4680BD80B483B000AF78607B6803F185
:1036400008027B685A607B684FF0FF329A607B68A3
:1036500003F108027B68DA607B6803F108027B688B
:103660001A617B6800221A6000BF0C37BD465DF806
:10367000047B704780B483B000AF78607B68002221
:103680001A6100BF0C37BD465DF8047B704780B4FB
:1036900085B000AF786039607B685B68FB603B6831
:1036A000FA685A60FB689A683B689A60FB689B6896
:1036B0003A685A60FB683A689A603B687A681A61AF
:1036C0007B681B685A1C7B681A6000BF1437BD46B4
:1036D0005DF8047B704780B485B000AF78603960D6
:1036E0003B681B68BB60BB68B3F1FF3F03D17B68DD
:1036F0001B69FB600CE07B680833FB6002E0FB6841
:103700005B68FB60FB685B681A68BB689A42F6D925
:10371000FB685A683B685A603B685B683A689A6025
:103720003B68FA689A60FB683A685A603B687A6856
:103730001A617B681B685A1C7B681A6000BF1437CB
:10374000BD465DF8047B704780B485B000AF7860FB
:103750007B681B69FB607B685B687A6892689A602B
:103760007B689B687A6852685A60FB685A687B6815
:103770009A4203D17B689A68FB685A607B68002292
:103780001A61FB681B685A1EFB681A60FB681B689D
:1037900018461437BD465DF8047B704780B485B089
:1037A00000AFF860B9607A60FB68043BFB60FB68BF
:1037B0004FF080721A60FB68043BFB60BB6823F02B
:1037C0000102FB681A60FB68043BFB600C4AFB6863
:1037D0001A60FB68143BFB607A68FB681A60FB6840
:1037E000043BFB60FB686FF002021A60FB68203B41
:1037F000FB60FB6818461437BD465DF8047B7047D4
:103800000538000880B485B000AF00237B60114B01
:103810001B68B3F1FF3F09D04FF0500383F31188C9
:10382000BFF36F8FBFF34F8FFB60FEE74FF0500386
:1038300083F31188BFF36F8FBFF34F8FBB6000BF5F
:103840007B68002BFCD000BF1437BD465DF8047BBD
:10385000704700BF0C0000200000000000000000C6
:10386000074B19680868B0E8F04F80F30988BFF388
:103870006F8F4FF0000080F311887047AFF3008026
:10388000600E002000BF00BF08480068006880F399
:1038900008884FF0000080F3148862B661B6BFF369
:1038A0004F8FBFF36F8F00DF00BF00BF08ED00E058
:1038B00080B586B000AF444B1B68444A934209D19F
:1038C0004FF0500383F31188BFF36F8FBFF34F8F17
:1038D0003B61FEE73C4B1B683D4A934209D14FF0E8
:1038E000500383F31188BFF36F8FBFF34F8FFB60DB
:1038F000FEE7384B7B617B691B78DBB27B607B69C1
:10390000FF221A707B691B78DBB2FB70FB78DBB29D
:1039100003F05003DAB2304B1A70304B07221A60B2
:1039200009E02E4B1B68013B2C4A1360FB78DBB28D
:103930005B00DBB2FB70FB78DBB203F08003802B13
:10394000EFD0264B1B68C3F10703042B09D04FF0BF
:10395000500383F31188BFF36F8FBFF34F8FBB60AA
:10396000FEE71E4B1B681B021C4A13601B4B1B68A7
:1039700003F4E063194A13607B68DAB27B691A705A
:10398000174A174B1B6843F470031360144A144B17
:103990001B6843F07043136000F0D6F8114B00220F
:1039A0001A6000F0F5F8104A0F4B1B6843F04043D3
:1039B0001360FFF769FF00F05DFEFFF723FF0023B0
:1039C00018461837BD4680BD00ED00E071C20F41BA
:1039D00070C20F4100E400E0800200208402002059
:1039E00020ED00E00C00002034EF00E080B483B054
:1039F00000AF4FF0500383F31188BFF36F8FBFF315
:103A00004F8F7B600E4B1B6801330D4A13600C4BCC
:103A10001B68012B0ED10B4B1B68DBB2002B09D0AE
:103A20004FF0500383F31188BFF36F8FBFF34F8FB5
:103A30003B60FEE700BF0C37BD465DF8047B704776
:103A40000C00002004ED00E080B483B000AF114B07
:103A50001B68002B09D14FF0500383F31188BFF38B
:103A60006F8FBFF34F8F7B60FEE70A4B1B68013BF4
:103A7000084A1360074B1B68002B04D100233B60EE
:103A80003B6883F3118800BF0C37BD465DF8047BAB
:103A9000704700BF0C000020000000000000000084
:103AA000EFF30980BFF36F8F154B1A681EF0100FEC
:103AB00008BF20ED108A20E9F04F10602DE90900C1
:103AC0004FF0500080F31188BFF34F8FBFF36F8F1B
:103AD00000F0D0FD4FF0000080F3118809BC196898
:103AE0000868B0E8F04F1EF0100F08BFB0EC108A65
:103AF00080F30988BFF36F8F704700BFAFF300807A
:103B0000600E002000BF00BF80B582B000AF4FF054
:103B1000500383F31188BFF36F8FBFF34F8F7B6028
:103B200000F0F0FC0346002B03D0064B4FF0805210
:103B30001A6000233B603B6883F3118800BF08379D
:103B4000BD4680BD04ED00E080B400AF0B4B002209
:103B50001A600B4B00221A600A4A0B4B1B680B4978
:103B6000A1FB03139B09013B1360044B07221A605E
:103B700000BFBD465DF8047B704700BF10E000E069
:103B800018E000E014E000E000000020D34D6210D7
:103B9000DFF80C00016841F470010160704700BF5C
:103BA00088ED00E080B58AB000AF78600023FB614B
:103BB00000F0FEFB594B1B68002B01D100F01AF9F5
:103BC000574B1A687B681340002B40F091807B684C
:103BD000002B1CD008227B6813447B607B6803F0B9
:103BE0000703002B13D07B6823F0070308337B60A7
:103BF0007B6803F00703002B09D04FF0500383F3D9
:103C00001188BFF36F8FBFF34F8F7B61FEE77B6837
:103C1000002B6DD0434B1B687A689A4268D8424BA0
:103C20003B62414B1B687B6204E07B6A3B627B6AC0
:103C30001B687B627B6A5A687B689A4203D27B6A04
:103C40001B68002BF1D1354B1B687A6A9A424FD022
:103C50003B6A1B6808221344FB617B6A1A683B6A53
:103C60001A607B6A5A687B68D21A08235B009A4202
:103C70001ED97A6A7B681344BB61BB6903F00703F2
:103C8000002B09D04FF0500383F31188BFF36F8FDF
:103C9000BFF34F8F3B61FEE77B6A5A687B68D21A9D
:103CA000BB695A607B6A7A685A60B86900F004F9A7
:103CB0001C4B1A687B6A5B68D31A1A4A1360194B4B
:103CC0001A681A4B1B689A4203D2164B1B68174A94
:103CD00013607B6A5A68124B1B681A437B6A5A60EE
:103CE0007B6A00221A60124B1B680133104A136072
:103CF00000F06CFBFB6903F00703002B09D04FF0C9
:103D0000500383F31188BFF36F8FBFF34F8FFB60B6
:103D1000FEE7FB6918462837BD4680BD480E0020E7
:103D20005C0E00204C0E0020400E0020500E0020A3
:103D3000540E002080B586B000AF78607B687B6150
:103D40007B68002B4BD008235B427A6913447B616C
:103D50007B693B613B695A68234B1B681340002B0E
:103D600009D14FF0500383F31188BFF36F8FBFF376
:103D70004F8FFB60FEE73B691B68002B09D04FF0BB
:103D8000500383F31188BFF36F8FBFF34F8FBB6076
:103D9000FEE73B695A68144B1B681340002B1ED08A
:103DA0003B691B68002B1AD13B695A680E4B1B6894
:103DB000DB431A403B695A6000F0FAFA3B695A68E3
:103DC0000A4B1B681344094A1360386900F074F801
:103DD000074B1B680133064A136000F0F7FA00BF77
:103DE0001837BD4680BD00BF5C0E00204C0E002081
:103DF000580E002080B485B000AF40F6B833BB60E9
:103E0000274BFB60FB6803F00703002B0CD0FB681B
:103E10000733FB60FB6823F00703FB60BA68FB68AD
:103E2000D31A1F4A1344BB60FB687B601D4A7B6842
:103E300013601C4B00225A607A68BB681344FB6015
:103E40000822FB689B1AFB60FB6823F00703FB60FA
:103E5000FB68154A1360144B1B6800225A60124B12
:103E60001B6800221A607B683B603B68FA68D21AC4
:103E70003B685A600C4B1A683B681A603B685B6889
:103E80000A4A13603B685B68094A1360094B4FF0AC
:103E900000421A6000BF1437BD465DF8047B7047CE
:103EA00088020020400E0020480E0020500E002006
:103EB0004C0E00205C0E002080B485B000AF78600E
:103EC000284BFB6002E0FB681B68FB60FB681A681C
:103ED0007B689A42F7D3FB68BB60FB685B68BA6893
:103EE0001A447B689A4208D1FB685A687B685B6811
:103EF0001A44FB685A60FB687B607B68BB607B6828
:103F00005B68BA681A44FB681B689A4218D1FB6860
:103F10001A68154B1B689A420DD07B685A68FB687B
:103F20001B685B681A447B685A60FB681B681A68E8
:103F30007B681A6008E00C4B1A687B681A6003E023
:103F4000FB681A687B681A60FA687B689A4202D03C
:103F5000FB687A681A6000BF1437BD465DF8047BC1
:103F6000704700BF400E0020480E002080B58EB084
:103F700004AFF860B9607A603B607B6B002B09D1BD
:103F80004FF0500383F31188BFF36F8FBFF34F8F50
:103F90003B62FEE7BB6B002B09D14FF0500383F36C
:103FA0001188BFF36F8FBFF34F8FFB61FEE7542380
:103FB0003B613B69542B09D04FF0500383F31188C8
:103FC000BFF36F8FBFF34F8FBB61FEE73B69BB6BE6
:103FD000002B1ED07B6B002B1BD0BB6B7B627B6AE4
:103FE0007A6B1A637B6A022283F8512000230393C1
:103FF0007B6A029307F1140301933B6B00933B68C8
:104000007A68B968F86800F050F8786A00F0D4F877
:1040100001E000237B617B6918462837BD4680BDDF
:1040200080B58CB004AFF860B9603B601346FB808C
:10403000FB889B001846FFF7B5FD78617B69002B74
:104040000ED05420FFF7AEFDF861FB69002B03D0C2
:10405000FB697A691A6305E07869FFF76BFE01E096
:104060000023FB61FB69002B17D0FB69002283F85A
:104070005120FA8800230393FB690293FB6A0193A2
:10408000BB6A00933B68B968F86800F00EF8F869FD
:1040900000F092F80123BB6102E04FF0FF33BB61F7
:1040A000BB6918462037BD4680BD80B588B000AFDB
:1040B000F860B9607A603B603B6B1A6B7B6803F118
:1040C0008043013B9B001344BB61BB6923F00703A2
:1040D000BB61BB6903F00703002B09D04FF050030D
:1040E00083F31188BFF36F8FBFF34F8F7B61FEE7C0
:1040F000BB68002B1FD00023FB6112E0BA68FB698C
:10410000134419783A6BFB69134434330A461A7026
:10411000BA68FB6913441B78002B06D0FB69013396
:10412000FB61FB690F2BE9D900E000BF3B6B00226C
:1041300083F8432003E03B6B002283F83420BB6A02
:10414000062B01D90623BB623B6BBA6ADA623B6B72
:10415000BA6A5A643B6B00229A643B6B043318467C
:10416000FFF788FA3B6B18331846FFF783FA3B6B6F
:104170003A6B1A61BB6AC3F107023B6B9A613B6BF6
:104180003A6B5A623B6B0022DA643B6B002283F885
:1041900050203A68F968B869FFF700FB02463B6BAC
:1041A0001A60FB6A002B02D0FB6A3A6B1A6000BFF0
:1041B0002037BD4680BD000080B582B000AF78607A
:1041C000FFF714FC2A4B1B680133294A1360294B63
:1041D0001B68002B09D1274A7B681360244B1B689E
:1041E000012B10D100F0B8FA0DE0234B1B68002B17
:1041F00009D1204B1B68DA6A7B68DB6A9A4202D8D5
:104200001C4A7B6813601D4B1B6801331B4A1360FB
:104210007B68DB6A01229A40194B1B681343184ADA
:1042200013607B68DA6A13469B0013449B00154AAF
:104230001A447B68043319461046FFF728FAFFF743
:1042400003FC0D4B1B68002B0ED00A4B1B68DA6A6F
:104250007B68DB6A9A4207D20B4B4FF080521A60A0
:10426000BFF34F8FBFF36F8F00BF0837BD4680BDD0
:10427000600F0020600E00206C0F00207C0F0020DB
:10428000680F0020640E002004ED00E080B584B0CB
:1042900000AF78600023FB607B68002B16D0134BC7
:1042A0001B68002B09D04FF0500383F31188BFF334
:1042B0006F8FBFF34F8FBB60FEE700F079F80021EE
:1042C000786800F003FB00F081F8F860FB68002BD1
:1042D00007D1074B4FF080521A60BFF34F8FBFF3E7
:1042E0006F8F00BF1037BD4680BD00BF880F002014
:1042F00004ED00E080B58AB004AF0023BB6000236A
:104300007B603A46391D07F108031846FCF7E8F8C8
:1043100039687B68BA6802920193002300930023F6
:104320000A461D491D48FFF721FE02461C4B1A6034
:104330001B4B1B68002B02D001237B6101E0002393
:104340007B617B69012B15D14FF0500383F31188FA
:10435000BFF36F8FBFF34F8F3B61124B4FF0FF32B4
:104360001A60114B01221A60104B00221A60FFF7ED
:104370009FFA0DE07B69B3F1FF3F09D14FF0500385
:1043800083F31188BFF36F8FBFF34F8FFB60FEE79E
:1043900000BF1837BD4680BD0C4B000829470008F8
:1043A000840F0020800F00206C0F0020640F00207D
:1043B00080B400AF044B1B680133034A136000BF95
:1043C000BD465DF8047B7047880F002080B584B03F
:1043D00000AF0023FB600023BB60414B1B68002B38
:1043E00009D14FF0500383F31188BFF36F8FBFF3F0
:1043F0004F8F3B60FEE7FFF7F9FA394B1B68013B33
:10440000374A1360364B1B68002B61D1354B1B6854
:10441000002B5DD02EE0344BDB68DB68FB60FB6873
:1044200018331846FFF790F9FB6804331846FFF776
:104430008BF9FB68DB6A01229A402C4B1B68134303
:104440002A4A1360FB68DA6A13469B0013449B00F8
:10445000274A1A44FB68043319461046FFF717F938
:10446000FB68DA6A234B1B68DB6A9A4202D3224B51
:1044700001221A601C4B1B68002BCCD1FB68002B5F
:1044800001D000F003FA1D4B1B687B607B68002B9A
:1044900010D000F037F80346002B02D0164B012253
:1044A0001A607B68013B7B607B68002BF1D1134B6A
:1044B00000221A60104B1B68002B09D00123BB603F
:1044C0000F4B4FF080521A60BFF34F8FBFF36F8FC7
:1044D000FFF7BAFABB6818461037BD4680BD00BF6B
:1044E000880F0020600F0020200F0020680F0020A0
:1044F000640E0020600E0020740F0020700F00205A
:1045000004ED00E080B586B000AF00237B614E4B28
:104510001B68002B40F08D804C4B1B6801333B61C6
:104520004A4A3B6913603B69002B1FD1484B1B680B
:104530001B68002B09D04FF0500383F31188BFF3A1
:104540006F8FBFF34F8F3B60FEE7414B1B68FB60F3
:10455000404B1B683E4A13603E4AFB6813603E4B6B
:104560001B6801333C4A136000F090F93B4B1B6819
:104570003A699A4248D3364B1B681B68002B04D11A
:10458000364B4FF0FF321A603EE0314B1B68DB6860
:10459000DB68BB60BB685B687B603A697B689A429A
:1045A00003D22E4A7B6813602EE0BB6804331846A2
:1045B000FFF7CAF8BB689B6A002B04D0BB681833AE
:1045C0001846FFF7C1F8BB68DB6A01229A40244B0A
:1045D0001B681343224A1360BB68DA6A13469B00C8
:1045E00013449B001F4A1A44BB6804331946104603
:1045F000FFF74DF8BB68DA6A1B4B1B68DB6A9A420F
:10460000B9D301237B61B6E7174B1B68DA6A1549FA
:1046100013469B0013449B000B441B68012B01D9DC
:1046200001237B61114B1B68002B07D001237B61A9
:1046300004E00F4B1B6801330D4A13607B69184679
:104640001837BD4680BD00BF880F0020640F0020D2
:10465000180F00201C0F0020780F0020800F002072
:10466000680F0020640E0020600E0020740F0020F0
:10467000700F002080B487B000AF264B1B68002B62
:1046800003D0254B01221A603EE0234B00221A6022
:10469000224B1B68FB60FB68B3FA83F3FB72FB7A67
:1046A000C3F11F037B611E497A6913469B001344C3
:1046B0009B000B441B68002B09D14FF0500383F380
:1046C0001188BFF36F8FBFF34F8F7B60FEE77A696E
:1046D00013469B0013449B00114A13443B613B6902
:1046E0005B685A683B695A603B695A683B690833A2
:1046F0009A4204D13B695B685A683B695A603B69DE
:104700005B68DB68074A136000BF1C37BD465DF875
:10471000047B7047880F0020740F0020680F002072
:10472000640E0020600E002080B582B000AF78607B
:1047300000F052F8064B1B68012BF9D9054B4FF0DE
:1047400080521A60BFF34F8FBFF36F8FF0E700BF47
:10475000640E002004ED00E080B582B000AF0023BD
:104760007B600CE07A6813469B0013449B00124A5E
:1047700013441846FEF75EFF7B6801337B607B685D
:10478000062BEFD90D48FEF755FF0D48FEF752FFF7
:104790000C48FEF74FFF0C48FEF74CFF0B48FEF7A6
:1047A00049FF0B4B054A1A600A4B054A1A6000BFC5
:1047B0000837BD4680BD00BF640E0020F00E00200B
:1047C000040F0020200F0020340F00204C0F002089
:1047D000180F00201C0F002080B582B000AF19E038
:1047E000FFF704F90F4BDB68DB687B607B68043301
:1047F0001846FEF7A9FF0C4B1B68013B0A4A1360E1
:104800000A4B1B68013B094A1360FFF71DF97868E2
:1048100000F00EF8054B1B68002BE1D100BF0837F4
:10482000BD4680BD340F0020600F0020480F0020DF
:1048300080B584B000AF78607B6893F85130002B6E
:1048400008D17B681B6B1846FFF774FA7868FFF78E
:1048500071FA17E07B6893F85130012B03D1786827
:10486000FFF768FA0EE07B6893F85130022B09D00D
:104870004FF0500383F31188BFF36F8FBFF34F8F57
:10488000FB60FEE700BF1037BD4680BD80B483B03B
:1048900000AF0C4B1B681B68002B04D10A4B4FF078
:1048A000FF321A6008E0074B1B68DB68DB687B603F
:1048B0007B685B68044A136000BF0C37BD465DF837
:1048C000047B7047180F0020800F002080B584B053
:1048D00000AF78603960294B1B68FB60284B1B6870
:1048E00004331846FEF730FF0346002B0BD1244B50
:1048F0001B68DB6A012202FA03F3DA43214B1B68CF
:104900001340204A13607B68B3F1FF3F0AD13B6834
:10491000002B07D01A4B1B68043319461A48FEF7C0
:10492000B6FE26E0FA687B681344BB60144B1B6834
:10493000BA685A60BA68FB689A4209D2134B1A687F
:104940000F4B1B68043319461046FEF7C4FE10E0F7
:104950000F4B1A680A4B1B68043319461046FEF7C2
:10496000BAFE0C4B1B68BA689A4202D2094ABB686D
:10497000136000BF1037BD4680BD00BF640F00202C
:10498000600E0020680F00204C0F00201C0F00203C
:10499000180F0020800F0020DFF834D0FCF70AF851
:1049A000002103E00B4B5B58435004310A480B4B8A
:1049B00042189A42F6D30A4A02E0002342F8043B26
:1049C000084B9A42F9D300F011F8FBF7DDFDFEE742
:1049D000008001206C4B0008000000201000002027
:1049E000100000206C100020FEE7000070B50D4E96
:1049F0000D4CA41BA4100025A54209D10B4E0C4C54
:104A000000F020F8A41BA4100025A54205D170BD1C
:104A100056F8253098470135EEE756F82530984787
:104A20000135F2E7644B0008644B0008644B000852
:104A3000684B000802440346934200D1704703F8D4
:104A4000011BF9E7F8B500BFF8BC08BC9E467047EB
:0C4A5000F8B500BFF8BC08BC9E467047DB
:104A5C0048656C6C6F2066726F6D2064656674615E
:104A6C00736B0D0A0000000048656C6C6F20667259
:104A7C006F6D207461736B320D0A000048656C6CAD
:104A8C006F2066726F6D207461736B330D0A0000BA
:104A9C0064656661756C745461736B009C4A0008A4
:104AAC0089070008000000000000000080000000E2
:104ABC0000000000000000005461736B3200000025
:104ACC00C44A00089F070008010000000000000015
:104ADC008000000000000000000000005461736BB7
:104AEC0033000000E84A0008B5070008FFFF00008B
:104AFC00000000008000000000000000000000002A
:104B0C0049444C450000000000000000000000007B
:104B1C000102030406070809000000000102030457
:104B2C00A0860100400D0300801A060000350C0021
:104B3C0040420F0080841E0000093D0000127A00E4
:104B4C000024F40000366E010048E801006CDC0221
:084B5C00A4B6FF7F0100000078
:044B6400B50100088F
:044B680091010008AF
:104B6C0000093D001000000001000000AAAAAAAA3A
:04000005080049990D
:00000001FF
