:020000040800F2
:1000000000800120096E0008191000081F10000868
:10001000251000082B100008311000080000000017
:10002000000000000000000000000000E152000895
:10003000371000080000000021550008895500080D
:10004000596E0008596E0008596E0008596E000874
:10005000596E0008596E0008596E0008596E000864
:10006000596E0008596E0008596E0008596E000854
:1000700045100008596E0008596E0008596E0008B6
:10008000596E0008596E0008596E0008596E000834
:10009000591000086D100008596E0008596E0008CC
:1000A000596E0008596E0008596E0008596E000814
:1000B000596E0008596E0008596E0008596E000804
:1000C000596E0008596E0008596E0008596E0008F4
:1000D000596E0008596E0008596E0008596E0008E4
:1000E000596E0008596E0008596E0008596E0008D4
:1000F000596E0008596E0008596E0008596E0008C4
:10010000596E0008596E0008596E0008596E0008B3
:10011000596E0008596E000881100008596E0008D9
:10012000596E0008596E0008596E0008596E000893
:10013000596E0008596E0008596E0008596E000883
:10014000596E0008596E0008596E0008596E000873
:10015000596E0008596E0008596E0008596E000863
:10016000596E0008596E0008596E0008596E000853
:10017000596E0008596E0008596E00080000000012
:08018000596E0008596E0008D9
:1001900010B5054C237833B9044B13B10448AFF3C1
:1001A00000800123237010BD7400002000000000B7
:1001B000CC6E000808B5034B1BB103490348AFF3ED
:1001C000008008BD0000000078000020CC6E000810
:1001D00080B485B000AFF860B9607A60FB68074A08
:1001E0001A60BB68064A1A607B6880221A6000BFEA
:1001F0001437BD465DF8047B704700BF90000020B7
:10020000E400002080B584B000AF7860524B534AC0
:100210000021786801F087FA0346002B01D000F036
:10022000A1FD0023FB604D4B1B684D4A1288934291
:1002300040F08D80484B5B781A2B40F08880464B0D
:100240009B78032B0BD1444BDB78032B07D8424B15
:100250001B79072B03D8434B01221A601EE03E4B4B
:100260009B78022B0BD13C4BDB78002B07D13A4B10
:100270001B79012B03D83C4B01221A600EE0364B50
:100280009B78002B07D1344BDB78002B03D1324B0A
:100290001B79002B02D0FB680133FB602E4B5B798E
:1002A000032B0BD12C4B9B79032B07D82A4BDB79E3
:1002B000072B03D82B4B02221A601EE0264B5B79DA
:1002C000022B0BD1244B9B79002B07D1224BDB79DE
:1002D000012B03D8244B02221A600EE01E4B5B79DF
:1002E000002B07D11C4B9B79002B03D11A4BDB79D8
:1002F000002B02D0FB680133FB601C4B10221A60FC
:100300000023BB600BE0144ABB6813441978184AF9
:10031000BB6813440A461A70BB680133BB60BB68F4
:10032000072BF0DDFB68002B03DD114B1C225A70FC
:1003300002E00F4B1B225A700E4B0D4A0B490E4820
:1003400001F01AF90346002B01D000F00BFD00BFAD
:100350001037BD4680BD00BF601C0020AC1C0020D3
:1003600000000020E4020020E8020020901C002091
:10037000041C00205C1C0020681C002080B485B098
:1003800000AF78600023FB6002E0FB680133FB6094
:10039000FA687B689A42F8DB00BF1437BD465DF807
:1003A000047B704780B485B000AFF860B9607A60B4
:1003B0003B60FB68D8B21C49FA6813469B001344A3
:1003C0000B4402461A707B68D8B21749FA68134684
:1003D0009B0013440B44013302461A70BB68D8B229
:1003E0001149FA6813469B0013440B44023302463A
:1003F0001A703B68D8B20C49FA6813469B00134444
:100400000B44033302461A700749FA6813469B00EF
:1004100013440B44043300221A7000BF1437BD4646
:100420005DF8047B704700BF5810002080B485B091
:1004300000AF78607B682D2B01DD2D237B600023CE
:10044000FB6045E02749FA6813469B0013440B44C0
:1004500018782549FA6813469B0013440B4402465A
:100460001A700123BB602DE07B682D2B15D01D4930
:10047000FA6813469B001344CA18BB6813441B78E0
:100480001A467B6803FB02F3184A82FB03121A44E4
:100490005211DB17D31ADAB208E01249FA68134690
:1004A0009B001344CA18BB6813441A780E48F968B5
:1004B0000B469B000B44C118BB680B441A70BB6809
:1004C0000133BB60BB68042BCEDDFB680133FB60EE
:1004D000FB68262BB6DD00BF1437BD465DF8047BF4
:1004E000704700BF581000201C110020B7600BB6E9
:1004F00080B586B000AF00237B6100233B6140E004
:1005000033493A6913469B0013440B4401331B786B
:1005100019062F483A6913469B00134403440233DB
:100520001B781B0419432A483A6913469B0013445D
:10053000034403331B781B020B437B601F23FB60C8
:1005400019E00122FB6802FA03F31A467B681340A4
:10055000002B05D01F4A7B69402122F8131004E0CC
:100560001C4A7B69202122F813107B6901337B61CF
:10057000FB68013BFB60FB68002BE2DA3B6901335F
:100580003B613B69262BBBDD0023BB600AE0114ABF
:100590007B69002122F813107B6901337B61BB6802
:1005A0000133BB60BB68312BF1DD7B699BB2094A2B
:1005B0000021094803F09CF800BF084B1B68002B82
:1005C000FBD0064B00221A6000BF1837BD4680BD25
:1005D0001C110020E01100200C1C0020EC02002067
:1005E00080B582B000AF78600021054803F098FA2A
:1005F000044B01221A6000BF0837BD4680BD00BF12
:100600000C1C0020EC020020B0B598B000AF00F048
:1006100073FD00F07FF800F0EBF900F0CBF900F08B
:10062000CBF800F01BF9314800F062FF02212F489F
:1006300001F08BF92E4B01221A612D4B00225A60DA
:100640002B4B00229A602A4B0022DA60284B40F2A2
:1006500003121A60264B00221A75264BF3221A70D9
:100660000023BB650023FB6507F15803184604F01F
:1006700006FD0246204B1A60204B07F13C041D4644
:100680000FCD0FC495E8070084E8070007F13C038D
:100690000021184604F093FC0246194B1A60194BCE
:1006A00007F120041D460FCD0FC495E8070084E82C
:1006B000070007F120030021184604F080FC0246E1
:1006C000114B1A60114B3C1D1D460FCD0FC495E810
:1006D000070084E807003B1D0021184604F06FFC6A
:1006E00002460B4B1A6004F063FCFEE7681C002016
:1006F000901C0020041C0020A81C0020F06E0008A4
:1007000050100020106F000854100020306F0008B7
:10071000581C002080B596B000AF07F114034422A6
:100720000021184606F0C9FB3B4600221A605A60B9
:100730009A60DA601A6102237B614FF480733B6236
:1007400010237B620223FB6302233B6401237B644F
:100750000A23BB640723FB6402233B6502237B65FA
:1007600007F11403184602F093F80346002B01D05A
:1007700000F0F8FA0F233B6003237B600023BB608B
:100780000023FB6000233B613B460421184602F036
:1007900065FC0346002B01D000F0E4FA4FF4007032
:1007A00002F020F80346002B01D000F0DBFA00BF76
:1007B0005837BD4680BD000080B58AB000AF254BDC
:1007C000254A1A60234B28225A60224B00229A6045
:1007D000204B0022DA601F4B4FF480321A611D4B10
:1007E00000225A611B4B00221A761A4B00225A76BD
:1007F000184B00229A76174B0022DA76154B00220E
:100800001A77144B00225A77124800F0ADFC0346C9
:10081000002B01D000F0A6FA01233B620A237B6182
:1008200000233B6120233B6000237B602023BB60CF
:100830000023FB600023BB610123FB6100237B627B
:100840003B461946034800F089FD00BF2837BD46E6
:1008500080BD00BF681C00200064004080B59AB0D5
:1008600000AF07F1580300221A605A609A60DA60FC
:1008700007F14C0300221A605A609A6007F13003B6
:1008800000221A605A609A60DA601A615A619A61AD
:100890003B1D2C220021184606F00FFB434B444A17
:1008A0001A60424B00225A60404B00229A603F4B34
:1008B0006322DA603D4B00221A613C4B00225A61F0
:1008C0003A4B00229A61394802F0E8FD0346002BBA
:1008D00001D000F047FA4FF48053BB6507F158038D
:1008E0001946324803F03CFC0346002B01D000F0CF
:1008F00039FA2E4802F09AFE0346002B01D000F090
:1009000031FA0023FB6400233B6500237B6507F17C
:100910004C031946254804F00FFA0346002B01D07A
:1009200000F020FA60233B6300237B630023BB635A
:100930000023FB6300233B6400237B640023BB6430
:1009400007F1300300221946184803F0F9FA03466C
:10095000002B01D000F006FA00237B600023BB606F
:100960000023FB6000233B6100237B614FF40053B5
:10097000BB610023FB6100233B624FF000737B628D
:100980000023BB620023FB623B1D1946074804F0AD
:100990005BFA0346002B01D000F0E4F9034800F0B5
:1009A000ADFA00BF6837BD4680BD00BF0C1C0020FB
:1009B000002C014080B582B000AF0C4A0B4B9B6C01
:1009C00043F001039364094B9B6C03F001037B60CC
:1009D0007B68002205210C2001F0BCFA0C2001F0FC
:1009E000D5FA00BF0837BD4680BD00BF00100240E9
:1009F00080B588B000AF07F10C0300221A605A607E
:100A00009A60DA601A612A4A294BDB6C43F00403CE
:100A1000D364274BDB6C03F00403BB60BB68244A40
:100A2000234BDB6C43F00103D364214BDB6C03F0FD
:100A300001037B607B681E4A1D4BDB6C43F00203A5
:100A4000D3641B4BDB6C03F002033B603B6800226A
:100A50001821184801F0A0FE4FF40053FB6000235A
:100A60003B6100237B6107F10C031946124801F03A
:100A7000D3FC1823FB6001233B6100237B6100232F
:100A8000BB6107F10C0319460A4801F0C5FC20239D
:100A9000FB6000233B6100237B6107F10C031946D7
:100AA000044801F0B9FC00BF2037BD4680BD00BF3F
:100AB00000100240000400480008004880B584B0DF
:100AC00000AF7860324B1B68012B03D0304B1B68A2
:100AD000022B58D12F4B1B79012B25D1002210213D
:100AE0002D4801F059FE0023FB6014E0012208218B
:100AF000294801F051FE4FF4FA70FFF73FFC002245
:100B00000821254801F048FE4FF4FA70FFF736FC43
:100B1000FB680133FB60FB6847F22F529342E5DD2F
:100B20001B4B45221A602EE01A4B1B79002B2AD151
:100B300001221021184801F02FFE18E0012208219F
:100B4000154801F029FE4FF4FA70FFF717FC002258
:100B50000821114801F020FE4FF4FA70FFF70EFC57
:100B600020210D4801F000FE0346002B07D1202173
:100B7000094801F0F9FD0346002BDFD000E000BF7B
:100B8000034B45221A60012004F065FA9AE700BF82
:100B9000E8020020601C00200004004890B585B0E9
:100BA00000AF78602A4B1A682A4B1B689A422ED0F5
:100BB000284B1B68264A13600023FB6024E0244B6B
:100BC0001A68254913465B0013449B000B441868C0
:100BD0001F4B1A68204913465B0013449B000B44CB
:100BE00004331C681A4B1A681B4913465B001344F4
:100BF0009B000B4408331B6822460146F868FFF748
:100C0000D1FBFB680133FB60FB68262BD7DD134B60
:100C10001B68002B17D0114B1A6813465B00134456
:100C20000F4AD35C1A460F4B1A600C4B1A681346D6
:100C30005B00134401330A4AD35C1A46054B1A6021
:100C4000064B00221A600A2004F005FAAAE700BF4A
:100C5000F4020020F002002004000020E402002042
:100C6000601C0020F802002090B587B000AF7860CB
:100C700000237B6101233B610023FB6024E02D4BBB
:100C80001A682D4913465B0013449B000B441868F7
:100C9000284B1A68284913465B0013449B000B44F9
:100CA00004331C68234B1A68234913465B00134422
:100CB0009B000B4408331B6822460146F868FFF787
:100CC00071FBFB680133FB60FB68262BD7DD1B4BF8
:100CD0001B68022B09DC194B1A6813469B0013444E
:100CE0005B001846FFF7A2FB1EE0144B1B68032BAA
:100CF0001AD13B69002B0AD07B6901337B617B6988
:100D0000132BD4BF01230023DBB23B6109E07B69D5
:100D1000013B7B617B69002BD4BF01230023DBB245
:100D20003B617869FFF782FBFFF7E2FBC82004F024
:100D300092F9CCE7F402002004000020F802002021
:100D400080B582B000AF78607B681B68044A93422C
:100D500001D100F0E9F900BF0837BD4680BD00BFF2
:100D60000010004080B400AF72B6FEE780B582B0DC
:100D700000AF114A104B1B6E43F0010313660E4B7C
:100D80001B6E03F001037B607B680B4A0A4B9B6D73
:100D900043F080539365084B9B6D03F080533B6099
:100DA0003B6800220F216FF0010001F0D3F800BF73
:100DB0000837BD4680BD00BF0010024080B58AB034
:100DC00000AF786007F1140300221A605A609A603D
:100DD000DA601A617B681B68204A934239D1204A45
:100DE0001F4B9B6D43F0007393651D4B9B6D03F090
:100DF00000733B613B691A4A194BDB6C43F00103FA
:100E0000D364174BDB6C03F00103FB60FB684FF40A
:100E1000C0537B610223BB610023FB6103233B6260
:100E200009237B6207F1140319464FF0904001F04B
:100E3000F3FA00220521142001F08CF8142001F0AF
:100E4000A5F800220521152001F084F8152001F0F5
:100E50009DF800BF2837BD4680BD00BF006400403C
:100E60000010024080B584B000AF78607B681B68DA
:100E70001E4A934236D11E4A1D4B1B6E43F400633B
:100E800013661B4B1B6E03F40063FB60FB68194B7E
:100E9000194A1A60174B07225A60164B10229A60A3
:100EA000144B0022DA60134B80221A61114B4FF46D
:100EB00080725A610F4B4FF480629A610D4B002291
:100EC000DA610C4B00221A620A4801F06DF8034601
:100ED000002B01D0FFF746FF7B68064A5A62054A9D
:100EE0007B68936200BF1037BD4680BD002C014077
:100EF00000100240081000201C00024080B588B09D
:100F000000AF786007F10C0300221A605A609A6003
:100F1000DA601A617B681B68124A93421DD1124A3B
:100F2000114BDB6C43F00103D3640F4BDB6C03F01C
:100F30000103BB60BB684FF48073FB6002233B611D
:100F400000237B610023BB610123FB6107F10C03DC
:100F500019464FF0904001F05FFA00BF2037BD46C0
:100F600080BD00BF002C01400010024080B58CB055
:100F700000AF78600023FB620023BB620022796827
:100F8000362000F0E7FF362001F000F81E4A1E4B25
:100F90009B6D43F0100393651B4B9B6D03F0100397
:100FA000FB60FB6807F1100207F1140311461846B5
:100FB00002F0E2F902F0CAF9F862FB6A134AA2FBF6
:100FC00003239B0C013BBB62114B124A1A60104B6E
:100FD00040F2E732DA600E4ABB6A53600C4B0022E3
:100FE0001A610B4B00229A60094802F057FA034637
:100FF000002B04D1064802F0A9FA034600E00123C1
:1010000018463037BD4680BD0010024083DE1B43CA
:10101000C81C00200010004080B400AFFEE780B480
:1010200000AFFEE780B400AFFEE780B400AFFEE79C
:1010300080B400AFFEE780B400AF00BFBD465DF8EE
:10104000047B704780B500AF024801F006F900BF8D
:1010500080BD00BF0810002080B500AF024800F03E
:101060009AFC00BF80BD00BF681C002080B500AFA7
:10107000024800F090FC00BF80BD00BF681C00204B
:1010800080B500AF024802F03BFE00BF80BD00BF4C
:10109000C81C002080B400AF154A154BD3F8883027
:1010A00043F47003C2F88830124A124B1B6843F0B5
:1010B000010313600F4B00229A600E4A0D4B1B6810
:1010C00023F0A85323F4102313600A4B4FF48052EB
:1010D000DA60084A074B1B6823F480231360054B32
:1010E00000229A6100BFBD465DF8047B704700BFD7
:1010F00000ED00E00010024080B582B000AF002398
:10110000FB71032000F01BFF0020FFF72FFF0346B9
:10111000002B02D00123FB7101E0FFF727FEFB79D2
:1011200018460837BD4680BD80B400AF064B1B781B
:101130001A46064B1B681344044A136000BFBD46A1
:101140005DF8047B704700BF6C000020141D002078
:1011500080B400AF034B1B681846BD465DF8047BA6
:10116000704700BF141D002080B584B000AF7860C8
:101170007B68002B01D10123ECE07B6893F82030E1
:10118000DBB2002B02D17868FFF718FE7B681B6882
:101190007A681268126822F002021A60FFF7D8FF1C
:1011A000F86012E0FFF7D4FF0246FB68D31A0A2B5F
:1011B0000BD97B685B6A43F400327B685A627B68B8
:1011C000052283F820200123C4E07B681B685B684C
:1011D00003F00203002BE5D17B681B687A68126874
:1011E000126842F001021A60FFF7B2FFF86012E0E5
:1011F000FFF7AEFF0246FB68D31A0A2B0BD97B68B8
:101200005B6A43F400327B685A627B68052283F88C
:10121000202001239EE07B681B685B6803F00103CC
:10122000002BE5D07B681B7E012B08D17B681B68F7
:101230007A681268126842F080021A6007E07B68E0
:101240001B687A681268126822F080021A607B6854
:101250005B7E012B08D17B681B687A681268126874
:1012600042F040021A6007E07B681B687A681268E7
:10127000126822F040021A607B689B7E012B08D125
:101280007B681B687A681268126842F020021A6054
:1012900007E07B681B687A681268126822F02002F7
:1012A0001A607B68DB7E012B08D17B681B687A683B
:1012B0001268126822F010021A6007E07B681B684F
:1012C0007A681268126842F010021A607B681B7F0D
:1012D000012B08D17B681B687A681268126842F09B
:1012E00008021A6007E07B681B687A681268126857
:1012F00022F008021A607B685B7F012B08D17B68B3
:101300001B687A681268126842F004021A6007E0EB
:101310007B681B687A681268126822F004021A60FF
:101320007B681B687A6891687A68D26811437A682A
:10133000126911437A68526911437A685268013A16
:101340000A43DA617B6800225A627B68012283F8D3
:101350002020002318461037BD4680BD80B487B0DA
:1013600000AF786039607B681B687B617B6893F8AD
:101370002030FB74FB7C012B03D0FB7C022B40F064
:10138000AA807B69D3F8003243F001027B69C3F87D
:1013900000223B685B6903F01F03012202FA03F39A
:1013A000FB607B69D3F81C22FB68DB431A407B6936
:1013B000C3F81C223B68DB69002B23D17B69D3F87F
:1013C0000C22FB68DB431A407B69C3F80C223B68A4
:1013D0005A693B68DB6819043B685B689BB2194338
:1013E0007B69483243F832103B685B693A6892681F
:1013F00011043A68126892B20A4379694833DB00F3
:101400000B445A603B68DB69012B22D17B69D3F81E
:101410000C22FB681A437B69C3F80C223B685A69AB
:101420003B681B6819043B685B689BB219437B6986
:10143000483243F832103B685B693A68926811049D
:101440003A68D26892B20A4379694833DB000B44A8
:101450005A603B689B69002B09D17B69D3F8042251
:10146000FB68DB431A407B69C3F8042207E07B6911
:10147000D3F80422FB681A437B69C3F804223B6853
:101480001B69002B09D17B69D3F81422FB68DB436D
:101490001A407B69C3F8142207E07B69D3F8142251
:1014A000FB681A437B69C3F814223B681B6A012B53
:1014B00007D17B69D3F81C22FB681A437B69C3F808
:1014C0001C227B69D3F8003223F001027B69C3F848
:1014D0000022002306E07B685B6A43F480227B687D
:1014E0005A62012318461C37BD465DF8047B7047DD
:1014F00080B584B000AF78607B6893F82030DBB2B1
:10150000012B2ED17B68022283F820207B681B6888
:101510007A681268126822F001021A60FFF718FE5A
:10152000F86012E0FFF714FE0246FB68D31A0A2B9C
:101530000BD97B685B6A43F400327B685A627B6834
:10154000052283F82020012312E07B681B685B687A
:1015500003F00103002BE5D17B6800225A620023CF
:1015600006E07B685B6A43F400227B685A620123D1
:1015700018461037BD4680BD80B489B000AFF86012
:10158000B9607A603B60FB6893F82030FB77FB68BA
:101590001B689B68BB61FB7F012B03D0FB7F022B89
:1015A00040F0B480BB6903F08063002B0AD1BB69B3
:1015B00003F00063002B05D1BB6903F08053002BBF
:1015C00000F09C80BB691B0E03F003037B617B6909
:1015D000022B07D9FB685B6A43F40002FB685A627E
:1015E00001239AE001227B699A403B681A60BB683C
:1015F0009B68002B0DD1FB681968BB681B685A05F6
:10160000BB68DB681A437B6918331B010B441A6003
:101610000FE0FB681968BB685B68DA00BB689B6811
:101620001A43BB68DB681A437B6918331B010B4400
:101630001A60FB681968BB681A697B6918331B015B
:101640000B4404331A60BB681B7D012B11D1FB686E
:101650001968FB681A687B6918331B01134404334B
:101660001B6843F480727B6918331B010B440433FD
:101670001A60FB6819687B6807331B781A067B6859
:1016800006331B781B041A437B6805331B781B0247
:1016900013437A68043212781A437B691B010B44A6
:1016A00003F5C6731A60FB6819687B6803331B78FF
:1016B0001A067B6802331B781B041A437B680133CC
:1016C0001B781B0213437A6812781A437B691B014B
:1016D0000B4403F5C4731A60FB681968FB681A6849
:1016E0007B6918331B0113441B6843F001027B69BB
:1016F00018331B010B441A6000230EE0FB685B6A81
:1017000043F40012FB685A62012306E0FB685B6A3F
:1017100043F48022FB685A62012318462437BD46F1
:101720005DF8047B704780B487B000AFF860B960A3
:101730007A603B60FB6893F82030FB75FB7D012BE2
:1017400003D0FB7D022B40F0F380BB68002B0ED151
:10175000FB681B68DB6803F00303002B16D1FB68F2
:101760005B6A43F40012FB685A620123E7E0FB68FE
:101770001B681B6903F00303002B07D1FB685B6A3E
:1017800043F40012FB685A620123D8E0FB681A6830
:10179000BB681B331B0113441B6803F004027B6806
:1017A0009A607B689B68002B0CD1FB681A68BB6849
:1017B0001B331B0113441B685B0DC3F30A027B68D8
:1017C0001A600BE0FB681A68BB681B331B011344EB
:1017D0001B68DB0823F060427B685A60FB681A686C
:1017E000BB681B331B0113441B6803F002027B68B8
:1017F000DA60FB681A68BB681B331B0113440433AF
:101800001B6803F00F027B681A61FB681A68BB68EB
:101810001B331B01134404331B681B0ADAB27B68B9
:101820009A61FB681A68BB681B331B0113440433BD
:101830001B681B0C9AB27B685A61FB681A68BB680C
:101840001B01134403F5DC731B68DAB23B681A70A2
:101850003B680133FA681168BA6812010A4402F55C
:10186000DC721268120AD2B21A703B680233FA684C
:101870001168BA6812010A4402F5DC721268120C8F
:10188000D2B21A703B680333FA681168BA68120161
:101890000A4402F5DC721268120ED2B21A703B686A
:1018A0000433FA681168BA6812010A4402F5DE725C
:1018B0001268D2B21A703B680533FA681168BA68C8
:1018C00012010A4402F5DE721268120AD2B21A70CC
:1018D0003B680633FA681168BA6812010A4402F5D7
:1018E000DE721268120CD2B21A703B680733FA68C3
:1018F0001168BA6812010A4402F5DE721268120E0B
:10190000D2B21A70BB68002B08D1FB681B68FA685A
:101910001268D26842F02002DA6007E0FB681B68B8
:10192000FA681268126942F020021A61002306E088
:10193000FB685B6A43F48022FB685A620123184605
:101940001C37BD465DF8047B704780B485B000AF9E
:10195000786039607B6893F82030FB73FB7B012B48
:1019600002D0FB7B022B09D17B681B687A68126866
:1019700051693A680A435A61002306E07B685B6A52
:1019800043F480227B685A62012318461437BD460F
:101990005DF8047B704780B58AB000AF78600023A3
:1019A0007B627B681B685B693B627B681B685B686A
:1019B000FB617B681B689B68BB617B681B68DB689D
:1019C0007B617B681B681B693B617B681B689B694B
:1019D000FB603B6A03F00103002B7CD0BB6903F082
:1019E0000103002B23D07B681B6801229A60BB692E
:1019F00003F00203002B03D0786800F07DF916E0B5
:101A0000BB6903F00403002B04D07B6A43F400633A
:101A10007B620CE0BB6903F00803002B04D07B6AF7
:101A200043F480537B6202E0786800F083F9BB697D
:101A300003F48073002B24D07B681B684FF4807202
:101A40009A60BB6903F40073002B03D0786800F040
:101A50005DF916E0BB6903F48063002B04D07B6A58
:101A600043F400537B620CE0BB6903F40063002B7A
:101A700004D07B6A43F480437B6202E0786800F024
:101A800063F9BB6903F48033002B24D07B681B68A7
:101A90004FF480329A60BB6903F40033002B03D00B
:101AA000786800F03DF916E0BB6903F48023002B51
:101AB00004D07B6A43F400437B620CE0BB6903F40F
:101AC0000023002B04D07B6A43F480337B6202E066
:101AD000786800F043F93B6A03F00803002B0CD050
:101AE0007B6903F01003002B07D07B6A43F400737B
:101AF0007B627B681B681022DA603B6A03F0040398
:101B0000002B0BD07B6903F00803002B06D07B6809
:101B10001B680822DA60786800F02AF93B6A03F053
:101B20000203002B09D07B681B68DB6803F003030A
:101B3000002B02D07868FEF765FB3B6A03F0400398
:101B4000002B0CD03B6903F01003002B07D07B6AFD
:101B500043F480637B627B681B6810221A613B6AD6
:101B600003F02003002B0BD03B6903F00803002B8C
:101B700006D07B681B6808221A61786800F00CF9AF
:101B80003B6A03F01003002B09D07B681B681B69BC
:101B900003F00303002B02D0786800F0F3F83B6AEF
:101BA00003F40033002B0BD0FB6903F01003002B70
:101BB00006D07B681B6810225A60786800F0F6F83F
:101BC0003B6A03F48033002B0BD0FB6903F008035E
:101BD000002B06D07B681B6808225A60786800F0EA
:101BE000EFF83B6A03F40043002B75D0FB6903F068
:101BF0000403002B6CD03B6A03F48073002B08D0E5
:101C0000FB6803F00103002B03D07B6A43F0010360
:101C10007B623B6A03F40073002B08D0FB6803F07F
:101C20000203002B03D07B6A43F002037B623B6A12
:101C300003F48063002B08D0FB6803F00403002B3F
:101C400003D07B6A43F004037B623B6A03F40063C6
:101C5000002B3DD0FB6803F07003002B38D0FB68ED
:101C600003F07003302B17D0302B04D8102B09D081
:101C7000202B0CD024E0502B18D0602B1BD0402BF5
:101C80000FD01DE07B6A43F008037B6218E07B6A9B
:101C900043F010037B6213E07B6A43F020037B6216
:101CA0000EE07B6A43F040037B6209E07B6A43F00D
:101CB00080037B6204E07B6A43F480737B6200BF35
:101CC0007B681B687A681268926922F070029A61D8
:101CD0007B681B6804225A607B6A002B08D07B68F3
:101CE0005A6A7B6A1A437B685A62786800F072F815
:101CF00000BF2837BD4680BD80B483B000AF786098
:101D000000BF0C37BD465DF8047B704780B483B0DC
:101D100000AF786000BF0C37BD465DF8047B7047AC
:101D200080B483B000AF786000BF0C37BD465DF86B
:101D3000047B704780B483B000AF786000BF0C377D
:101D4000BD465DF8047B704780B483B000AF786017
:101D500000BF0C37BD465DF8047B704780B483B08C
:101D600000AF786000BF0C37BD465DF8047B70475C
:101D700080B483B000AF786000BF0C37BD465DF81B
:101D8000047B704780B483B000AF786000BF0C372D
:101D9000BD465DF8047B704780B483B000AF7860C7
:101DA00000BF0C37BD465DF8047B704780B483B03C
:101DB00000AF786000BF0C37BD465DF8047B70470C
:101DC00080B483B000AF786000BF0C37BD465DF8CB
:101DD000047B704780B483B000AF786000BF0C37DD
:101DE000BD465DF8047B704780B485B000AF786075
:101DF0007B6803F00703FB600C4BDB68BB60BA68D1
:101E00004FF6FF031340BB60FB681A02BB68134325
:101E100043F0BF6343F40033BB60044ABB68D36044
:101E200000BF1437BD465DF8047B704700ED00E04D
:101E300080B400AF044BDB681B0A03F007031846AD
:101E4000BD465DF8047B704700ED00E080B483B0D0
:101E500000AF0346FB7197F90730002B0BDB0949F4
:101E600097F907305B09FA7902F01F02012000FAA6
:101E700002F241F8232000BF0C37BD465DF8047B19
:101E8000704700BF00E100E080B483B000AF0346BC
:101E90003960FB7197F90730002B0ADB0D4997F980
:101EA00007303A68D2B21201D2B20B4483F8002351
:101EB0000AE00949FB7903F00F03043B3A68D2B208
:101EC0001201D2B20B441A7600BF0C37BD465DF842
:101ED000047B704700E100E000ED00E080B489B0D1
:101EE00000AFF860B9607A60FB6803F00703FB613C
:101EF000FB69C3F10703042B28BF0423BB61FB6903
:101F00000433062B02D9FB69033B00E000237B610D
:101F10000122BB6902FA03F35A1EBB681A407B69AF
:101F20009A4001217B6901FA03F3591E7B680B403B
:101F3000134318462437BD465DF8047B704780B5CF
:101F400082B000AF78607868FFF74EFF00BF0837B7
:101F5000BD4680BD80B586B000AF0346B9607A60EB
:101F6000FB7300237B61FFF763FF78617A68B968D0
:101F70007869FFF7B3FF024697F90F30114618460C
:101F8000FFF782FF00BF1837BD4680BD80B582B025
:101F900000AF0346FB7197F907301846FFF756FF6D
:101FA00000BF0837BD4680BD80B485B000AF786003
:101FB0007B68002B01D1012398E07B681B681A46DF
:101FC0004D4B9A420FD87B681B681A464B4B134403
:101FD0004B4AA2FB03231B099A007B685A647B6867
:101FE000484A1A640EE07B681B681A46464B134445
:101FF000434AA2FB03231B099A007B685A647B684F
:10200000424A1A647B68022283F825207B681B6899
:102010001B68FB60FB6823F4FF4323F07003FB6045
:102020007B689A687B68DB681A437B681B691A4384
:102030007B685B691A437B689B691A437B68DB6931
:102040001A437B681B6A1343FA681343FB607B687F
:102050001B68FA681A607B689B68B3F5804F39D0BB
:102060007B681B6C274A93421AD12949284B1A686E
:102070007B685B6C03F01C030F2000FA03F3DB4367
:1020800013400B602248224B1A687B6859687B68B2
:102090005B6C03F01C0301FA03F31343036019E0C4
:1020A0001C491C4B1A687B685B6C03F01C030F20F7
:1020B00000FA03F3DB4313400B601648154B1A6814
:1020C0007B6859687B685B6C03F01C0301FA03F3BF
:1020D000134303607B680022DA637B68012283F884
:1020E00025207B68002283F824200023184614371B
:1020F000BD465DF8047B704707040240F8FFFDBF52
:10210000CDCCCCCC00000240F8FBFDBF0004024067
:10211000A8000240A804024080B586B000AFF86075
:10212000B9607A603B600023FB75FB6893F824304C
:10213000012B01D102234BE0FB68012283F824200C
:10214000FB6893F82530DBB2012B3AD1FB68022201
:1021500083F82520FB680022DA63FB681B68FA68B5
:102160001268126822F001021A603B687A68B96846
:10217000F86800F021F9FB681B6B002B08D0FB68A6
:102180001B68FA681268126842F00E021A600FE0CB
:10219000FB681B68FA681268126822F004021A6071
:1021A000FB681B68FA681268126842F00A021A603B
:1021B000FB681B68FA681268126842F001021A6034
:1021C00005E0FB68002283F824200223FB75FB7DD9
:1021D00018461837BD4680BD80B584B000AF786022
:1021E0000023FB737B6893F82530DBB2022B05D00C
:1021F0007B680422DA630123FB7329E07B681B6898
:102200007A681268126822F00E021A607B681B68F6
:102210007A681268126822F001021A607B681B6CEF
:102220007A68526C02F01C02012101FA02F25A6033
:102230007B68012283F825207B68002283F8242014
:102240007B689B6B002B03D07B689B6B78689847FF
:10225000FB7B18461037BD4680BD80B584B000AF0B
:1022600078607B681B6C1B68FB607B681B681B6865
:10227000BB607B685B6C03F01C0304229A40FB6824
:102280001340002B26D0BB6803F00403002B21D0A1
:102290007B681B681B6803F02003002B07D17B6859
:1022A0001B687A681268126822F004021A607B6860
:1022B0001B6C7A68526C02F01C02042101FA02F2D3
:1022C0005A607B681B6B002B71D07B681B6B786836
:1022D00098476CE07B685B6C03F01C0302229A4019
:1022E000FB681340002B2ED0BB6803F00203002BC9
:1022F00029D07B681B681B6803F02003002B0BD1DF
:102300007B681B687A681268126822F00A021A60F9
:102310007B68012283F825207B681B6C7A68526CED
:1023200002F01C02022101FA02F25A607B680022CC
:1023300083F824207B68DB6A002B38D07B68DB6A5B
:102340007868984733E07B685B6C03F01C030822D5
:102350009A40FB681340002B2AD0BB6803F00803A7
:10236000002B25D07B681B687A681268126822F0FF
:102370000E021A607B681B6C7A68526C02F01C02B9
:10238000012101FA02F25A607B680122DA637B685C
:10239000012283F825207B68002283F824207B68B3
:1023A0005B6B002B04D07B685B6B7868984700BF41
:1023B00000BF1037BD4680BD80B485B000AFF86067
:1023C000B9607A603B60FB681B6CFA68526C02F083
:1023D0001C02012101FA02F25A60FB681B683A688C
:1023E0005A60FB689B68102B08D1FB681B687A68F1
:1023F0009A60FB681B68BA68DA6007E0FB681B68D4
:10240000BA689A60FB681B687A68DA6000BF1437A4
:10241000BD465DF8047B704780B487B000AF78603C
:10242000396000237B617FE13B681A6801217B6989
:1024300001FA03F31340FB60FB68002B00F071818D
:102440003B685B68012B0BD03B685B68022B07D0B5
:102450003B685B68112B03D03B685B68122B30D163
:102460007B689B683B617B695B00032202FA03F394
:10247000DB433A6913403B613B68DA687B695B0088
:1024800002FA03F33A6913433B617B683A699A6045
:102490007B685B683B6101227B6902FA03F3DB43E3
:1024A0003A6913403B613B685B681B0903F001021A
:1024B0007B6902FA03F33A6913433B617B683A692B
:1024C0005A603B685B6803F00303032B18D17B68F9
:1024D000DB6A3B6101227B6902FA03F3DB433A6961
:1024E00013403B613B685B68DB0803F001027B69DA
:1024F00002FA03F33A6913433B617B683A69DA6293
:102500007B68DB683B617B695B00032202FA03F3B3
:10251000DB433A6913403B613B689A687B695B0027
:1025200002FA03F33A6913433B617B683A69DA6064
:102530003B685B68022B03D03B685B68122B23D19E
:102540007B69DA087B68083253F822303B617B698B
:1025500003F007039B000F2202FA03F3DB433A69FF
:1025600013403B613B681A697B6903F007039B00DA
:1025700002FA03F33A6913433B617B69DA087B682B
:102580000832396943F822107B681B683B617B691C
:102590005B00032202FA03F3DB433A6913403B6119
:1025A0003B685B6803F003027B695B0002FA03F39C
:1025B0003A6913433B617B683A691A603B685B6820
:1025C00003F08053002B00F0AC805E4A5D4B1B6E25
:1025D00043F0010313665B4B1B6E03F00103BB600A
:1025E000BB68594A7B699B08023352F823303B6130
:1025F0007B6903F003039B000F2202FA03F3DB4322
:102600003A6913403B617B68B3F1904F25D07B68FA
:102610004E4A93421FD07B684D4A934219D07B6843
:102620004C4A934213D07B684B4A93420DD07B684F
:102630004A4A934207D07B68494A934201D1062314
:102640000CE007230AE0052308E0042306E0032347
:1026500004E0022302E0012300E000237A6902F093
:102660000302920093403A6913433B6136497B6908
:102670009B0802333A6941F823203A4B1B683B61BF
:10268000FB68DB433A6913403B613B685B6803F4DA
:102690008033002B03D03A69FB6813433B61314A16
:1026A0003B6913602F4B5B683B61FB68DB433A6916
:1026B00013403B613B685B6803F40033002B03D09D
:1026C0003A69FB6813433B61264A3B695360254BDB
:1026D0009B683B61FB68DB433A6913403B613B68A5
:1026E0005B6803F48013002B03D03A69FB68134343
:1026F0003B611C4A3B6993601A4BDB683B61FB689A
:10270000DB433A6913403B613B685B6803F40013A9
:10271000002B03D03A69FB6813433B61114A3B69C4
:10272000D3607B6901337B613B681A687B6922FA5D
:1027300003F3002B7FF478AE00BF1C37BD465DF875
:10274000047B704700100240000001400004004874
:1027500000080048000C0048001000480014004821
:10276000001800480004014080B485B000AF7860D4
:102770000B467B807B681A697B881340002B02D054
:102780000123FB7301E00023FB73FB7B1846143726
:10279000BD465DF8047B704780B483B000AF7860BD
:1027A0000B467B8013467B707B78002B03D07A88A6
:1027B0007B689A6102E07A887B689A6200BF0C3776
:1027C000BD465DF8047B704780B400AF044B1B68C6
:1027D00003F4C0631846BD465DF8047B704700BF34
:1027E0000070004080B485B000AF78607B68B3F5BE
:1027F000007F30D1234B1B6803F4C063B3F5007F27
:1028000038D0204A1F4B1B6823F4C06343F4007385
:1028100013601D4B1B68322202FB03F31B4AA2FB11
:1028200003239B0C0133FB6002E0FB68013BFB6070
:10283000144B5B6903F48063B3F5806F02D1FB68CE
:10284000002BF2D10F4B5B6903F48063B3F5806F0B
:1028500010D103230FE00B4B1B6803F4C063B3F5E7
:10286000806F07D0074A074B1B6823F4C06343F40B
:1028700080631360002318461437BD465DF8047B5F
:10288000704700BF007000406400002083DE1B43DF
:1028900080B588B000AF78607B68002B01D1012340
:1028A000D4E3A14B9B6803F00C03BB619E4BDB6838
:1028B00003F003037B617B681B6803F01003002BAC
:1028C00000F0E480BB69002B07D0BB690C2B40F003
:1028D0008B807B69012B40F08780934B1B6803F052
:1028E0000203002B05D07B689B69002B01D10123DB
:1028F000ACE37B681A6A8C4B1B6803F00803002B5F
:1029000004D0894B1B6803F0F00305E0864BD3F835
:1029100094301B0903F0F0039A4223D97B681B6AA9
:10292000184600F05BFD0346002B01D001238DE328
:102930007D4A7D4B1B6843F0080313607A497A4B4C
:102940001B6823F0F0027B681B6A13430B60764917
:10295000754B5B6823F47F427B68DB691B02134382
:102960004B6025E0704A704B1B6843F0080313600E
:102970006D496D4B1B6823F0F0027B681B6A1343A3
:102980000B606949684B5B6823F47F427B68DB69B5
:102990001B0213434B60BB69002B09D17B681B6A88
:1029A000184600F01BFD0346002B01D001234DE328
:1029B00000F036FC01465C4B9B681B0903F00F03DB
:1029C0005A4AD35C03F01F0321FA03F3584A1360F9
:1029D000584B1B681846FEF7C9FA0346FB73FB7B8E
:1029E000002B52D0FB7B31E37B689B69002B32D0FC
:1029F0004D4A4D4B1B6843F001031360FEF7A8FBE3
:102A0000386108E0FEF7A4FB02463B69D31A022BAB
:102A100001D903231AE3444B1B6803F00203002B84
:102A2000F0D0414A404B1B6843F0080313603E4915
:102A30003D4B1B6823F0F0027B681B6A13430B605D
:102A40003949394B5B6823F47F427B68DB691B02A1
:102A500013434B601AE0344A334B1B6823F00103E5
:102A60001360FEF775FB386108E0FEF771FB024664
:102A70003B69D31A022B01D90323E7E22A4B1B68D7
:102A800003F00203002BF0D100E000BF7B681B685D
:102A900003F00103002B74D0BB69082B05D0BB6980
:102AA0000C2B0ED17B69032B0BD11F4B1B6803F43E
:102AB0000033002B64D07B685B68002B60D101235E
:102AC000C4E27B685B68B3F5803F06D1164A164BBB
:102AD0001B6843F4803313601DE07B685B68B3F5CB
:102AE000A02F0CD1104A104B1B6843F480231360B5
:102AF0000D4A0D4B1B6843F4803313600BE00A4A08
:102B0000094B1B6823F480331360074A064B1B688C
:102B100023F4802313607B685B68002B1CD0FEF7D6
:102B200017FB386111E000BF00100240546F00082D
:102B30006400002068000020FEF70AFB02463B69A3
:102B4000D31A642B01D9032380E2AF4B1B6803F433
:102B50000033002BF0D014E0FEF7FAFA386108E0F9
:102B6000FEF7F6FA02463B69D31A642B01D9032318
:102B70006CE2A54B1B6803F40033002BF0D100E09E
:102B800000BF7B681B6803F00203002B60D0BB69A9
:102B9000042B05D0BB690C2B19D17B69022B16D1F4
:102BA000994B1B6803F48063002B05D07B68DB68BE
:102BB000002B01D1012349E29349934B5B6823F039
:102BC000F8527B681B691B0613434B6040E07B682F
:102BD000DB68002B23D08C4A8B4B1B6843F480733B
:102BE0001360FEF7B5FA386108E0FEF7B1FA024665
:102BF0003B69D31A022B01D9032327E2824B1B68BE
:102C000003F48063002BF0D07F497F4B5B6823F097
:102C1000F8527B681B691B0613434B6018E07A4A25
:102C2000794B1B6823F480731360FEF791FA3861C7
:102C300008E0FEF78DFA02463B69D31A022B01D950
:102C4000032303E2704B1B6803F48063002BF0D175
:102C50007B681B6803F00803002B3CD07B685B6932
:102C6000002B1CD0684A684BD3F8943043F0010322
:102C7000C2F89430FEF76CFA386108E0FEF768FAA3
:102C800002463B69D31A022B01D90323DEE15E4BD6
:102C9000D3F8943003F00203002BEFD01BE05A4A24
:102CA000594BD3F8943023F00103C2F89430FEF767
:102CB0004FFA386108E0FEF74BFA02463B69D31A37
:102CC000022B01D90323C1E14F4BD3F8943003F019
:102CD0000203002BEFD17B681B6803F00403002B79
:102CE00000F0A6800023FB77474B9B6D03F08053D9
:102CF000002B0DD1444A444B9B6D43F080539365A8
:102D0000414B9B6D03F08053BB60BB680123FB7795
:102D10003E4B1B6803F48073002B18D13B4A3B4B9E
:102D20001B6843F480731360FEF712FA386108E001
:102D3000FEF70EFA02463B69D31A022B01D9032390
:102D400084E1324B1B6803F48073002BF0D07B6866
:102D50009B68012B08D12C4A2B4BD3F8903043F0C1
:102D60000103C2F8903024E07B689B68052B10D1EA
:102D7000254A254BD3F8903043F00403C2F8903035
:102D8000214A214BD3F8903043F00103C2F8903030
:102D90000FE01D4A1C4BD3F8903023F00103C2F81A
:102DA0009030194A184BD3F8903023F00403C2F83E
:102DB00090307B689B68002B16D0FEF7C9F938610C
:102DC0000AE0FEF7C5F902463B69D31A41F28832A0
:102DD000934201D9032339E10B4BD3F8903003F030
:102DE0000203002BEDD01AE0FEF7B2F938610FE0D4
:102DF000FEF7AEF902463B69D31A41F2883293429C
:102E000006D9032322E100BF0010024000700040F9
:102E1000904BD3F8903003F00203002BE8D1FB7FF6
:102E2000012B05D18B4A8B4B9B6D23F0805393650F
:102E30007B689B6A002B00F008817B689B6A022BF1
:102E400040F0D080834BDB687B617B6903F0030239
:102E50007B68DB6A9A4230D17B6903F070027B6841
:102E60001B6B013B1B019A4227D17B6903F4FE4295
:102E70007B685B6B1B029A421FD17B6903F40033B2
:102E80007A68926B072A14BF01220022D2B29342C1
:102E900013D17B6903F4C0027B68DB6B5B08013BE9
:102EA0005B059A4209D17B6903F0C0627B681B6CA9
:102EB0005B08013B5B069A426ED0BB690C2B69D064
:102EC000644B1B6803F08063002B05D1614B1B68CA
:102ED00003F08053002B01D00123B7E05D4A5D4B26
:102EE0001B6823F080731360FEF732F9386108E045
:102EF000FEF72EF902463B69D31A022B01D90323B0
:102F0000A4E0544B1B6803F00073002BF0D1514830
:102F1000504BDA68504B13407A68D16A7A68126B6A
:102F2000013A120111437A68526B120211437A6816
:102F3000D26B5208013A520511437A68126C52085A
:102F4000013A520611437A68926B120952040A43FD
:102F50001343C3603F4A3F4B1B6843F080731360C9
:102F60003C4A3C4BDB6843F08073D360FEF7F0F8DB
:102F7000386108E0FEF7ECF802463B69D31A022BF1
:102F800001D9032362E0334B1B6803F00073002B6D
:102F9000F0D05AE0012359E02E4B1B6803F0007378
:102FA000002B52D12B4A2B4B1B6843F080731360CC
:102FB000284A284BDB6843F08073D360FEF7C8F8DB
:102FC000386108E0FEF7C4F802463B69D31A022BC9
:102FD00001D903233AE01F4B1B6803F00073002B59
:102FE000F0D032E0BB690C2B2DD01A4A194B1B686C
:102FF00023F080731360174B1B6803F02053002BE2
:1030000005D1144A134BDB6823F00303D360114A44
:10301000104BDB6823F0887323F48033D360FEF712
:1030200097F8386108E0FEF793F802463B69D31A37
:10303000022B01D9032309E0064B1B6803F0007340
:10304000002BF0D101E0012300E0002318462037D7
:10305000BD4680BD001002408C809DF980B584B0D3
:1030600000AF786039607B68002B01D10123C8E094
:10307000664B1B6803F007023B689A4210D2634913
:10308000624B1B6823F007023B6813430B605F4BE6
:103090001B6803F007023B689A4201D00123B0E0AD
:1030A0007B681B6803F00103002B4CD07B685B68D6
:1030B000032B07D1564B1B6803F00073002B21D163
:1030C00001239EE07B685B68022B07D1504B1B6895
:1030D00003F40033002B15D1012392E07B685B6879
:1030E000002B07D14A4B1B6803F00203002B09D1C8
:1030F000012386E0464B1B6803F48063002B01D15B
:1031000001237EE04249424B9B6823F003027B6827
:103110005B6813438B60FEF71BF8F8600AE0FEF76C
:1031200017F80246FB68D31A41F28832934201D95C
:10313000032366E0364B9B6803F00C027B685B68F8
:103140009B009A42EBD17B681B6803F00203002BC3
:1031500008D02F492E4B9B6823F0F0027B689B68B8
:1031600013438B60294B1B6803F007023B689A42AC
:1031700010D92649254B1B6823F007023B681343EF
:103180000B60224B1B6803F007023B689A4201D098
:10319000012336E07B681B6803F00403002B08D092
:1031A0001B491B4B9B6823F4E0627B68DB6813437D
:1031B0008B607B681B6803F00803002B09D014495F
:1031C000134B9B6823F460527B681B69DB0013433D
:1031D0008B6000F025F801460D4B9B681B0903F03E
:1031E0000F030C4AD35C03F01F0321FA03F30A4ACE
:1031F00013600A4B1B681846FDF7B8FE0346FB72C6
:10320000FB7A18461037BD4680BD00BF0020024043
:1032100000100240546F0008640000206800002085
:1032200080B489B000AF0023FB610023BB613D4B3C
:103230009B6803F00C033B613A4BDB6803F003032C
:10324000FB603B69002B05D03B690C2B21D1FB684F
:10325000012B1ED1334B1B6803F00803002B07D151
:10326000304BD3F894301B0A03F00F03FB6105E0E9
:103270002C4B1B681B0903F00F03FB612A4AFB69F7
:1032800052F82330FB613B69002B0DD1FB69BB6118
:103290000AE03B69042B02D1244BBB6104E03B698B
:1032A000082B01D1224BBB613B690C2B33D11D4B49
:1032B000DB6803F00303BB60BB68022B02D0032B67
:1032C00003D005E0194B7B6105E0194B7B6102E0FF
:1032D000FB697B6100BF134BDB681B0903F007032D
:1032E00001337B600F4BDB681B0A03F07F037A69B5
:1032F00002FB03F27B68B2FBF3F37B61094BDB68F3
:103300005B0E03F0030301335B003B607A693B68AB
:10331000B2FBF3F3BB61BB6918462437BD465DF8C9
:10332000047B7047001002406C6F00080024F4001A
:1033300000127A0080B400AF034B1B681846BD46EC
:103340005DF8047B704700BF6400002080B500AFCB
:10335000FFF7F0FF0146064B9B681B0A03F00703CB
:10336000044AD35C03F01F0321FA03F3184680BD1F
:1033700000100240646F000880B483B000AF786032
:1033800039607B680F221A60124B9B6803F00302BE
:103390007B685A600F4B9B6803F0F0027B689A6071
:1033A0000C4B9B6803F4E0627B68DA60094B9B6816
:1033B000DB0803F4E0627B681A61074B1B6803F0CB
:1033C00007023B681A6000BF0C37BD465DF8047BFE
:1033D000704700BF001002400020024080B586B058
:1033E00000AF786000233B612A4B9B6D03F0805354
:1033F000002B03D0FFF7E8F9786114E0254A254B4C
:103400009B6D43F080539365224B9B6D03F080537B
:10341000FB60FB68FFF7D8F978611E4A1D4B9B6D76
:1034200023F0805393657B69B3F5007F0BD17B68F4
:10343000802B19D97B68A02B02D902233B6113E0B2
:1034400001233B6110E07B68802B02D903233B61A1
:103450000AE07B68802B02D102233B6104E07B6899
:10346000702B01D101233B610B490B4B1B6823F0EF
:1034700007023B6913430B60074B1B6803F007020D
:103480003B699A4201D0012300E000231846183717
:10349000BD4680BD001002400020024080B582B0D1
:1034A00000AF78607B68002B01D1012349E07B6885
:1034B00093F83D30DBB2002B06D17B68002283F805
:1034C0003C207868FDF7CEFC7B68022283F83D2023
:1034D0007B681A687B6804331946104600F0FCFFCD
:1034E0007B68012283F848207B68012283F83E2014
:1034F0007B68012283F83F207B68012283F840200B
:103500007B68012283F841207B68012283F84220F6
:103510007B68012283F843207B68012283F84420E2
:103520007B68012283F845207B68012283F84620CE
:103530007B68012283F847207B68012283F83D20C5
:10354000002318460837BD4680BD000080B485B012
:1035500000AF78607B6893F83D30DBB2012B01D07F
:1035600001234FE07B68022283F83D207B681B68C3
:103570007A681268D26842F00102DA607B681B68E0
:10358000234A93421DD07B681B68B3F1804F18D04B
:103590007B681B681F4A934213D07B681B681E4AD6
:1035A00093420ED07B681B681C4A934209D07B680B
:1035B0001B681B4A934204D07B681B68194A9342DC
:1035C00015D17B681B689A68174B1340FB60FB683A
:1035D000062B15D0FB68B3F5803F11D07B681B68C4
:1035E0007A681268126842F001021A6008E07B688B
:1035F0001B687A681268126842F001021A6000E0E3
:1036000000BF002318461437BD465DF8047B7047A1
:10361000002C01400004004000080040000C004065
:1036200000340140004001400700010080B582B035
:1036300000AF78607B68002B01D1012349E07B68F3
:1036400093F83D30DBB2002B06D17B68002283F873
:103650003C20786800F041F87B68022283F83D2026
:103660007B681A687B6804331946104600F034FF03
:103670007B68012283F848207B68012283F83E2082
:103680007B68012283F83F207B68012283F8402079
:103690007B68012283F841207B68012283F8422065
:1036A0007B68012283F843207B68012283F8442051
:1036B0007B68012283F845207B68012283F846203D
:1036C0007B68012283F847207B68012283F83D2034
:1036D000002318460837BD4680BD80B483B000AFD4
:1036E000786000BF0C37BD465DF8047B7047000072
:1036F00080B586B000AFF860B9607A607B80BB6847
:10370000002B09D1FB6893F83E30DBB2022B0CBFD3
:1037100001230023DBB23CE0BB68042B09D1FB682A
:1037200093F83F30DBB2022B0CBF01230023DBB246
:103730002FE0BB68082B09D1FB6893F84030DBB25F
:10374000022B0CBF01230023DBB222E0BB680C2B51
:1037500009D1FB6893F84130DBB2022B0CBF012387
:103760000023DBB215E0BB68102B09D1FB6893F88E
:103770004230DBB2022B0CBF01230023DBB208E096
:10378000FB6893F84330DBB2022B0CBF012300230C
:10379000DBB2002B01D00223A6E1BB68002B09D1CC
:1037A000FB6893F83E30DBB2012B0CBF01230023F2
:1037B000DBB23CE0BB68042B09D1FB6893F83F30D7
:1037C000DBB2012B0CBF01230023DBB22FE0BB686F
:1037D000082B09D1FB6893F84030DBB2012B0CBFFA
:1037E00001230023DBB222E0BB680C2B09D1FB686C
:1037F00093F84130DBB2012B0CBF01230023DBB275
:1038000015E0BB68102B09D1FB6893F84230DBB29E
:10381000012B0CBF01230023DBB208E0FB6893F807
:103820004330DBB2012B0CBF01230023DBB2002BA2
:1038300034D07B68002B04D17B88002B01D001237E
:1038400052E1BB68002B04D1FB68022283F83E20C2
:1038500026E0BB68042B04D1FB68022283F83F20DA
:103860001EE0BB68082B04D1FB68022283F84020CD
:1038700016E0BB680C2B04D1FB68022283F84120C0
:103880000EE0BB68102B04D1FB68022283F84220B3
:1038900006E0FB68022283F8432001E0012323E1D4
:1038A000BB680C2B00F2AE8001A252F823F000BFDF
:1038B000E5380008053A0008053A0008053A00080E
:1038C0002D390008053A0008053A0008053A0008B5
:1038D00075390008053A0008053A0008053A00085D
:1038E000BD390008FB685B6A814ADA62FB685B6A83
:1038F000804A1A63FB685B6A7F4A5A63FB68586AAE
:103900007968FB681B6834331A467B88FEF704FC31
:103910000346002B01D00123E6E0FB681B68FA6830
:103920001268D26842F40072DA606CE0FB689B6A4D
:103930006F4ADA62FB689B6A6E4A1A63FB689B6A8D
:103940006D4A5A63FB68986A7968FB681B6838336C
:103950001A467B88FEF7E0FB0346002B01D00123CB
:10396000C2E0FB681B68FA681268D26842F48062A1
:10397000DA6048E0FB68DB6A5D4ADA62FB68DB6AB2
:103980005C4A1A63FB68DB6A5B4A5A63FB68D86A65
:103990007968FB681B683C331A467B88FEF7BCFBE2
:1039A0000346002B01D001239EE0FB681B68FA68E8
:1039B0001268D26842F40062DA6024E0FB681B6B94
:1039C0004B4ADA62FB681B6B4A4A1A63FB681B6B43
:1039D000494A5A63FB68186B7968FB681B68403377
:1039E0001A467B88FEF798FB0346002B01D0012383
:1039F0007AE0FB681B68FA681268D26842F4805269
:103A0000DA6000E000BFFB681B680122B968184655
:103A100001F06CF9FB681B68384A934213D0FB68CD
:103A20001B68374A93420ED0FB681B68354A9342A5
:103A300009D0FB681B68344A934204D0FB681B68BA
:103A4000324A934201D1012300E00023002B07D02A
:103A5000FB681B68FA681268526C42F400425A64B0
:103A6000FB681B68254A93421DD0FB681B68B3F1B5
:103A7000804F18D0FB681B68254A934213D0FB681F
:103A80001B68244A93420ED0FB681B68224A93426B
:103A900009D0FB681B681A4A934204D0FB681B6874
:103AA000184A934215D1FB681B689A681B4B134058
:103AB0007B617B69062B15D07B69B3F5803F11D004
:103AC000FB681B68FA681268126842F001021A600B
:103AD00008E0FB681B68FA681268126842F001028D
:103AE0001A6000E000BF002318461837BD4680BDAD
:103AF000C94300087144000837430008002C014006
:103B000000340140004001400044014000480140B1
:103B10000004004000080040000C004007000100C5
:103B200080B582B000AF786039603B680C2B55D807
:103B300001A252F823F000BF6D3B0008DD3B0008F6
:103B4000DD3B0008DD3B0008893B0008DD3B000849
:103B5000DD3B0008DD3B0008A53B0008DD3B00081D
:103B6000DD3B0008DD3B0008C13B00087B681B68AB
:103B70007A681268D26822F40072DA607B685B6A45
:103B80001846FEF729FB2AE07B681B687A681268F2
:103B9000D26822F48062DA607B689B6A1846FEF77E
:103BA0001BFB1CE07B681B687A681268D26822F4F1
:103BB0000062DA607B68DB6A1846FEF70DFB0EE0F8
:103BC0007B681B687A681268D26822F48052DA60D7
:103BD0007B681B6B1846FEF7FFFA00E000BF7B68AE
:103BE0001B6800223968184601F080F87B681B6862
:103BF0003E4A934213D07B681B683D4A93420ED0E5
:103C00007B681B683B4A934209D07B681B683A4A31
:103C1000934204D07B681B68384A934201D1012348
:103C200000E00023002B17D07B681B681A6A41F262
:103C300011131340002B0FD17B681B681A6A40F2E6
:103C400044431340002B07D17B681B687A681268D5
:103C5000526C22F400425A647B681B681A6A41F273
:103C600011131340002B0FD17B681B681A6A40F2B6
:103C700044431340002B07D17B681B687A681268A5
:103C8000126822F001021A603B68002B04D17B68A5
:103C9000012283F83E2023E03B68042B04D17B689B
:103CA000012283F83F201BE03B68082B04D17B688E
:103CB000012283F8402013E03B680C2B04D17B6881
:103CC000012283F841200BE03B68102B04D17B6874
:103CD000012283F8422003E07B68012283F843201D
:103CE000002318460837BD4680BD00BF002C0140A8
:103CF00000340140004001400044014000480140C0
:103D000080B582B000AF78607B681B681B6903F0E8
:103D10000203022B22D17B681B68DB6803F00203DD
:103D2000022B1BD17B681B686FF002021A617B6853
:103D300001221A777B681B689B6903F00303002B41
:103D400003D0786800F0CFFA05E0786800F0C1FA97
:103D50007868FCF745FC7B6800221A777B681B6853
:103D60001B6903F00403042B22D17B681B68DB680A
:103D700003F00403042B1BD17B681B686FF0040263
:103D80001A617B6802221A777B681B689B6903F4BF
:103D90004073002B03D0786800F0A5FA05E078683E
:103DA00000F097FA7868FCF71BFC7B6800221A7712
:103DB0007B681B681B6903F00803082B22D17B6812
:103DC0001B68DB6803F00803082B1BD17B681B68AA
:103DD0006FF008021A617B6804221A777B681B68FF
:103DE000DB6903F00303002B03D0786800F07BFA53
:103DF00005E0786800F06DFA7868FCF7F1FB7B6805
:103E000000221A777B681B681B6903F01003102BD4
:103E100022D17B681B68DB6803F01003102B1BD1D9
:103E20007B681B686FF010021A617B6808221A77A2
:103E30007B681B68DB6903F44073002B03D0786850
:103E400000F051FA05E0786800F043FA7868FCF772
:103E5000C7FB7B6800221A777B681B681B6903F02D
:103E60000103012B0ED17B681B68DB6803F00103A3
:103E7000012B07D17B681B686FF001021A6178681B
:103E8000FCF75EFF7B681B681B6903F08003802BD7
:103E90000ED17B681B68DB6803F08003802B07D1A1
:103EA0007B681B686FF080021A61786801F054F833
:103EB0007B681B681B6903F48073B3F5807F0ED1A8
:103EC0007B681B68DB6803F08003802B07D17B686D
:103ED0001B686FF480721A61786801F047F87B689C
:103EE0001B681B6903F04003402B0ED17B681B68E5
:103EF000DB6803F04003402B07D17B681B686FF041
:103F000040021A61786800F002FA7B681B681B693E
:103F100003F02003202B0ED17B681B68DB6803F0C5
:103F20002003202B07D17B681B686FF020021A61E9
:103F3000786801F007F800BF0837BD4680BD000073
:103F400080B584B000AFF860B9607A60FB6893F820
:103F50003C30012B01D10223FDE0FB68012283F8F4
:103F60003C207B68142B00F2F08001A252F823F071
:103F7000C53F00084B4100084B4100084B41000879
:103F8000054000084B4100084B4100084B41000828
:103F9000474000084B4100084B4100084B410008D6
:103FA000874000084B4100084B4100084B41000886
:103FB000C94000084B4100084B4100084B41000834
:103FC00009410008FB681B68B968184600F01EFB31
:103FD000FB681B68FA681268926942F008029A61ED
:103FE000FB681B68FA681268926922F004029A6101
:103FF000FB681B68FA6812689169BA6812690A431B
:104000009A61A3E0FB681B68B968184600F08EFB54
:10401000FB681B68FA681268926942F400629A6150
:10402000FB681B68FA681268926922F480629A61E0
:10403000FB681B68FA6812689169BA681269120213
:104040000A439A6182E0FB681B68B968184600F071
:10405000F7FBFB681B68FA681268D26942F0080235
:10406000DA61FB681B68FA681268D26922F0040200
:10407000DA61FB681B68FA681268D169BA6812696C
:104080000A43DA6162E0FB681B68B968184600F011
:104090005FFCFB681B68FA681268D26942F4006230
:1040A000DA61FB681B68FA681268D26922F48062E0
:1040B000DA61FB681B68FA681268D169BA6812692C
:1040C00012020A43DA6141E0FB681B68B9681846CE
:1040D00000F0A8FCFB681B68FA681268526D42F099
:1040E00008025A65FB681B68FA681268526D22F074
:1040F00004025A65FB681B68FA681268516DBA6859
:1041000012690A435A6521E0FB681B68B9681846C2
:1041100000F0ECFCFB681B68FA681268526D42F410
:1041200000625A65FB681B68FA681268526D22F4D7
:1041300080625A65FB681B68FA681268516DBA683C
:10414000126912020A435A6500E000BFFB680022B0
:1041500083F83C20002318461037BD4680BD00BFC1
:1041600080B584B000AF786039607B6893F83C30EC
:10417000012B01D10223A8E07B68012283F83C20B7
:104180007B68022283F83D207B681B689B68FB608C
:10419000FB6823F4803323F07703FB60FB6823F490
:1041A0007F43FB607B681B68FA689A603B681B680A
:1041B000402B67D0402B0BD8102B73D0102B02D87C
:1041C000002B6FD078E0202B6CD0302B6AD073E0BE
:1041D000702B0DD0702B04D8502B33D0602B41D0D6
:1041E0006AE0B3F5805F66D0B3F5005F17D063E097
:1041F0007B6818683B6899683B685A683B68DB686D
:1042000000F054FD7B681B689B68FB60FB6843F013
:104210007703FB607B681B68FA689A604CE07B68F8
:1042200018683B6899683B685A683B68DB6800F02F
:104230003DFD7B681B687A681268926842F4804290
:104240009A6039E07B6818683B6859683B68DB68AE
:104250001A4600F0B1FC7B681B685021184600F03C
:104260000AFD29E07B6818683B6859683B68DB6891
:104270001A4600F0D0FC7B681B686021184600F0ED
:10428000FAFC19E07B6818683B6859683B68DB6892
:104290001A4600F091FC7B681B684021184600F02C
:1042A000EAFC09E07B681A683B681B6819461046FF
:1042B00000F0E1FC00E000BF7B68012283F83D20B4
:1042C0007B68002283F83C20002318461037BD4647
:1042D00080BD80B483B000AF786000BF0C37BD46AE
:1042E0005DF8047B704780B483B000AF786000BF96
:1042F0000C37BD465DF8047B704780B483B000AFD7
:10430000786000BF0C37BD465DF8047B704780B411
:1043100083B000AF786000BF0C37BD465DF8047B0A
:10432000704780B483B000AF786000BF0C37BD46E3
:104330005DF8047B704780B584B000AF78607B681F
:104340009B6AFB60FB685A6A7B689A4207D1FB68EC
:1043500001221A77FB68012283F83E202AE0FB68DD
:104360009A6A7B689A4207D1FB6802221A77FB6837
:10437000012283F83F201DE0FB68DA6A7B689A42DD
:1043800007D1FB6804221A77FB68012283F84020DA
:1043900010E0FB681A6B7B689A4207D1FB68082221
:1043A0001A77FB68012283F8412003E0FB680122B1
:1043B00083F83D20F868FFF7B4FFFB6800221A7706
:1043C00000BF1037BD4680BD80B584B000AF7860B7
:1043D0007B689B6AFB60FB685A6A7B689A420BD1D8
:1043E000FB6801221A777B68DB69002B36D1FB68FA
:1043F000012283F83E2031E0FB689A6A7B689A428A
:104400000BD1FB6802221A777B68DB69002B25D170
:10441000FB68012283F83F2020E0FB68DA6A7B68B2
:104420009A420BD1FB6804221A777B68DB69002B68
:1044300014D1FB68012283F840200FE0FB681A6B5F
:104440007B689A420AD1FB6808221A777B68DB698D
:10445000002B03D1FB68012283F84120F868FCF7A8
:10446000BFF8FB6800221A7700BF1037BD4680BD39
:1044700080B584B000AF78607B689B6AFB60FB68A6
:104480005A6A7B689A4203D1FB6801221A7719E0C5
:10449000FB689A6A7B689A4203D1FB6802221A770A
:1044A00010E0FB68DA6A7B689A4203D1FB68042259
:1044B0001A7707E0FB681A6B7B689A4202D1FB68A7
:1044C00008221A77F868FFF718FFFB6800221A77AE
:1044D00000BF1037BD4680BD80B485B000AF7860A6
:1044E00039607B681B68FB607B68404A934213D04D
:1044F0007B68B3F1804F0FD07B683D4A93420BD06D
:104500007B683C4A934207D07B683B4A934203D086
:104510007B683A4A934208D1FB6823F07003FB6042
:104520003B685B68FA681343FB607B682F4A9342E1
:104530001FD07B68B3F1804F1BD07B682C4A93421D
:1045400017D07B682B4A934213D07B682A4A934248
:104550000FD07B68294A93420BD07B68284A93424C
:1045600007D07B68274A934203D07B68264A934250
:1045700008D1FB6823F44073FB603B68DB68FA6892
:104580001343FB60FB6823F080023B685B691343C5
:10459000FB607B68FA681A603B689A687B68DA623D
:1045A0003B681A687B689A627B68104A93420FD016
:1045B0007B68124A93420BD07B68114A934207D022
:1045C0007B68104A934203D07B680F4A934203D121
:1045D0003B681A697B681A637B6801225A6100BFD5
:1045E0001437BD465DF8047B704700BF002C0140C6
:1045F0000004004000080040000C0040003401406E
:1046000000400140004401400048014080B487B0B0
:1046100000AF786039607B681B6A23F001027B6819
:104620001A627B681B6A7B617B685B683B617B68A5
:104630009B69FB60FB6823F4803323F07003FB600D
:10464000FB6823F00303FB603B681B68FA681343B5
:10465000FB607B6923F002037B613B689B687A699E
:1046600013437B617B682C4A93420FD07B682B4AB3
:1046700093420BD07B682A4A934207D07B68294A31
:10468000934203D07B68284A93420CD17B6923F084
:1046900008037B613B68DB687A6913437B617B6954
:1046A00023F004037B617B681B4A93420FD07B6835
:1046B0001A4A93420BD07B68194A934207D07B6811
:1046C000184A934203D07B68174A934211D13B6941
:1046D00023F480733B613B6923F400733B613B68C7
:1046E0005B693A6913433B613B689B693A691343D1
:1046F0003B617B683A695A607B68FA689A613B68FB
:104700005A687B685A637B687A691A6200BF1C37F3
:10471000BD465DF8047B7047002C01400034014029
:1047200000400140004401400048014080B487B08F
:1047300000AF786039607B681B6A23F010027B68E9
:104740001A627B681B6A7B617B685B683B617B6884
:104750009B69FB60FB6823F0807323F4E043FB60FC
:10476000FB6823F44073FB603B681B681B02FA681C
:104770001343FB607B6923F020037B613B689B68EC
:104780001B017A6913437B617B68284A934203D0FB
:104790007B68274A93420DD17B6923F080037B61BC
:1047A0003B68DB681B017A6913437B617B6923F0FB
:1047B00040037B617B681D4A93420FD07B681C4A93
:1047C00093420BD07B681B4A934207D07B681A4AFE
:1047D000934203D07B68194A934213D13B6923F477
:1047E00080633B613B6923F400633B613B685B6929
:1047F0009B003A6913433B613B689B699B003A69A4
:1048000013433B617B683A695A607B68FA689A6136
:104810003B685A687B689A637B687A691A6200BF52
:104820001C37BD465DF8047B704700BF002C01407B
:104830000034014000400140004401400048014074
:1048400080B487B000AF786039607B681B6A23F45E
:1048500080727B681A627B681B6A7B617B685B681D
:104860003B617B68DB69FB60FB6823F4803323F0EA
:104870007003FB60FB6823F00303FB603B681B686D
:10488000FA681343FB607B6923F400737B613B6828
:104890009B681B027A6913437B617B68274A9342BA
:1048A00003D07B68264A93420DD17B6923F40063D1
:1048B0007B613B68DB681B027A6913437B617B6920
:1048C00023F480637B617B681C4A93420FD07B6832
:1048D0001B4A93420BD07B681A4A934207D07B68ED
:1048E000194A934203D07B68184A934213D13B691B
:1048F00023F480533B613B6923F400533B613B68E5
:104900005B691B013A6913433B613B689B691B016F
:104910003A6913433B617B683A695A607B68FA687D
:10492000DA613B685A687B68DA637B687A691A6285
:1049300000BF1C37BD465DF8047B7047002C01406A
:104940000034014000400140004401400048014063
:1049500080B487B000AF786039607B681B6A23F44D
:1049600080527B681A627B681B6A3B617B685B686C
:104970007B617B68DB69FB60FB6823F0807323F459
:10498000E043FB60FB6823F44073FB603B681B68FB
:104990001B02FA681343FB603B6923F400533B613D
:1049A0003B689B681B033A6913433B617B68184A69
:1049B00093420FD07B68174A93420BD07B68164A0C
:1049C000934207D07B68154A934203D07B68144A10
:1049D000934209D17B6923F480437B613B685B6927
:1049E0009B017A6913437B617B687A695A607B68B3
:1049F000FA68DA613B685A687B681A647B683A69CE
:104A00001A6200BF1C37BD465DF8047B704700BFCB
:104A1000002C0140003401400040014000440140AE
:104A20000048014080B487B000AF786039607B688F
:104A30001B6A23F480327B681A627B681B6A3B61C5
:104A40007B685B687B617B685B6DFB60FB6823F464
:104A5000803323F07003FB603B681B68FA681343E4
:104A6000FB603B6923F400333B613B689B681B049C
:104A70003A6913433B617B68174A93420FD07B68C6
:104A8000164A93420BD07B68154A934207D07B6845
:104A9000144A934203D07B68134A934209D17B693D
:104AA00023F480337B613B685B691B027A691343A3
:104AB0007B617B687A695A607B68FA685A653B68F3
:104AC0005A687B689A657B683A691A6200BF1C372E
:104AD000BD465DF8047B7047002C01400034014066
:104AE00000400140004401400048014080B487B0CC
:104AF00000AF786039607B681B6A23F480127B68A2
:104B00001A627B681B6A3B617B685B687B617B68C0
:104B10005B6DFB60FB6823F0807323F4E043FB6074
:104B20003B681B681B02FA681343FB603B6923F474
:104B300000133B613B689B681B053A6913433B616B
:104B40007B68184A93420FD07B68174A93420BD078
:104B50007B68164A934207D07B68154A934203D07C
:104B60007B68144A934209D17B6923F480237B61DB
:104B70003B685B699B027A6913437B617B687A6956
:104B80005A607B68FA685A653B685A687B68DA65E0
:104B90007B683A691A6200BF1C37BD465DF8047B2A
:104BA000704700BF002C014000340140004001402C
:104BB000004401400048014080B487B000AFF86075
:104BC000B9607A60FB681B6A7B61FB681B6A23F033
:104BD0000102FB681A62FB689B693B613B6923F039
:104BE000F0033B617B681B013A6913433B617B69BE
:104BF00023F00A037B617A69BB6813437B61FB681E
:104C00003A699A61FB687A691A6200BF1C37BD462F
:104C10005DF8047B704780B487B000AFF860B9607E
:104C20007A60FB681B6A23F01002FB681A62FB685B
:104C30009B697B61FB681B6A3B617B6923F4704362
:104C40007B617B681B037A6913437B613B6923F0BB
:104C5000A0033B61BB681B013A6913433B61FB68DE
:104C60007A699A61FB683A691A6200BF1C37BD46CF
:104C70005DF8047B704780B485B000AF7860396020
:104C80007B689B68FB60FB6823F07003FB603A68FD
:104C9000FB68134343F00703FB607B68FA689A6084
:104CA00000BF1437BD465DF8047B704780B487B001
:104CB00000AFF860B9607A603B60FB689B687B611D
:104CC0007B6923F47F437B613B681A027B681A434C
:104CD000BB6813437A6913437B61FB687A699A6006
:104CE00000BF1C37BD465DF8047B704780B487B0B9
:104CF00000AFF860B9607A60BB6803F01F0301225F
:104D000002FA03F37B61FB681A6A7B69DB431A4092
:104D1000FB681A62FB681A6ABB6803F01F037968B4
:104D200001FA03F31A43FB681A6200BF1C37BD4641
:104D30005DF8047B7047000080B485B000AF7860F8
:104D400039607B6893F83C30012B01D1022368E085
:104D50007B68012283F83C207B68022283F83D2097
:104D60007B681B685B68FB607B681B689B68BB603B
:104D70007B681B682E4A934204D07B681B682D4ACF
:104D8000934208D1FB6823F47003FB603B685B68C7
:104D9000FA681343FB60FB6823F07003FB603B6819
:104DA0001B68FA681343FB607B681B68FA685A60EB
:104DB0007B681B681E4A93421DD07B681B68B3F159
:104DC000804F18D07B681B681B4A934213D07B68C6
:104DD0001B681A4A93420ED07B681B68184A93429C
:104DE00009D07B681B68134A934204D07B681B6818
:104DF000144A93420CD1BB6823F08003BB603B682C
:104E00009B68BA681343BB607B681B68BA689A608A
:104E10007B68012283F83D207B68002283F83C20D8
:104E2000002318461437BD465DF8047B704700BF69
:104E3000002C014000340140000400400008004004
:104E4000000C00400040014080B485B000AF7860A5
:104E500039600023FB607B6893F83C30012B01D163
:104E6000022365E07B68012283F83C20FB6823F085
:104E7000FF023B68DB681343FB60FB6823F440726E
:104E80003B689B681343FB60FB6823F480623B68CC
:104E90005B681343FB60FB6823F400623B681B689C
:104EA0001343FB60FB6823F480523B681B69134388
:104EB000FB60FB6823F400523B685B691343FB60B3
:104EC000FB6823F480423B689B6A1343FB60FB68EA
:104ED00023F470223B689B691B041343FB607B68CF
:104EE0001B68164A934204D07B681B68144A93429D
:104EF00015D1FB6823F470023B685B6A1B05134302
:104F0000FB60FB6823F080723B68DB691343FB6046
:104F1000FB6823F000723B681B6A1343FB607B68ED
:104F20001B68FA685A647B68002283F83C200023DF
:104F300018461437BD465DF8047B7047002C0140CD
:104F40000034014080B483B000AF786000BF0C37FC
:104F5000BD465DF8047B704780B483B000AF7860D5
:104F600000BF0C37BD465DF8047B704780B483B04A
:104F700000AF786000BF0C37BD465DF8047B70471A
:104F800080B485B000AF0346FB800023FB60B7F917
:104F90000630842B05D0B7F90620FB681344033391
:104FA000FB60FB6818461437BD465DF8047B70470C
:104FB00080B500AF01F02CFA0023184680BDF0B593
:104FC00089B004AF786039607B685B69002B20D0C2
:104FD0007B689B69002B1CD07B685C687B681D68C4
:104FE0007B681E697B68B3F908301846FFF7C8FF75
:104FF00001467B685B697A6892690292019300912D
:105000003B6832462946204601F03EF80346FB60E5
:105010001CE07B685C687B681D687B681B699EB2CE
:105020007B68B3F908301846FFF7AAFF024607F17C
:105030000C03019300923B6832462946204601F05A
:105040007DF80346012B01D0002300E0FB681846E1
:105050001437BD46F0BD80B584B000AF78607B6882
:10506000FB60FB68002B01D0FB6800E001231846C1
:1050700001F09AF9002318461037BD4680BD80B56F
:1050800082B000AF78607B685B68002B07D07B68DC
:105090005B681946012000F00EFE034603E0012084
:1050A00000F0F1FD034618460837BD4680BD80B4C8
:1050B00083B000AF78607B6803F108027B685A60B8
:1050C0007B684FF0FF329A607B6803F108027B68CF
:1050D000DA607B6803F108027B681A617B68002252
:1050E0001A6000BF0C37BD465DF8047B704780B482
:1050F00083B000AF78607B6800221A6100BF0C3774
:10510000BD465DF8047B704780B485B000AF786021
:1051100039607B685B68FB603B68FA685A60FB68D3
:105120009A683B689A60FB689B683A685A60FB68BB
:105130003A689A603B687A681A617B681B685A1CF7
:105140007B681A6000BF1437BD465DF8047B70476A
:1051500080B485B000AF786039603B681B68BB6085
:10516000BB68B3F1FF3F03D17B681B69FB600CE0B8
:105170007B680833FB6002E0FB685B68FB60FB68F0
:105180005B681A68BB689A42F6D9FB685A683B6844
:105190005A603B685B683A689A603B68FA689A6054
:1051A000FB683A685A603B687A681A617B681B68DA
:1051B0005A1C7B681A6000BF1437BD465DF8047B3B
:1051C000704780B485B000AF78607B681B69FB6076
:1051D0007B685B687A6892689A607B689B687A688B
:1051E00052685A60FB685A687B689A4203D17B68B0
:1051F0009A68FB685A607B6800221A61FB681B682A
:105200005A1EFB681A60FB681B6818461437BD46B7
:105210005DF8047B7047000080B485B000AFF86093
:10522000B9607A60FB68043BFB60FB684FF08072FA
:105230001A60FB68043BFB60BB6823F00102FB685B
:105240001A60FB68043BFB600C4AFB681A60FB6851
:10525000143BFB607A68FB681A60FB68043BFB60E8
:10526000FB686FF002021A60FB68203BFB60FB6882
:1052700018461437BD465DF8047B7047815200081C
:1052800080B485B000AF00237B60114B1B68B3F185
:10529000FF3F09D04FF0500383F31188BFF36F8FA6
:1052A000BFF34F8FFB60FEE74FF0500383F311888D
:1052B000BFF36F8FBFF34F8FBB6000BF7B68002BC6
:1052C000FCD000BF1437BD465DF8047B704700BFBB
:1052D000700000200000000000000000000000003E
:1052E000074B19680868B0E8F04F80F30988BFF3EE
:1052F0006F8F4FF0000080F311887047AFF300808C
:10530000DC0E002000BF00BF08480068006880F382
:1053100008884FF0000080F3148862B661B6BFF3CE
:105320004F8FBFF36F8F00DF00BF00BF08ED00E0BD
:1053300080B586B000AF444B1B68444A934209D104
:105340004FF0500383F31188BFF36F8FBFF34F8F7C
:105350003B61FEE73C4B1B683D4A934209D14FF04D
:10536000500383F31188BFF36F8FBFF34F8FFB6040
:10537000FEE7384B7B617B691B78DBB27B607B6926
:10538000FF221A707B691B78DBB2FB70FB78DBB203
:1053900003F05003DAB2304B1A70304B07221A6018
:1053A00009E02E4B1B68013B2C4A1360FB78DBB2F3
:1053B0005B00DBB2FB70FB78DBB203F08003802B79
:1053C000EFD0264B1B68C3F10703042B09D04FF025
:1053D000500383F31188BFF36F8FBFF34F8FBB6010
:1053E000FEE71E4B1B681B021C4A13601B4B1B680D
:1053F00003F4E063194A13607B68DAB27B691A70C0
:10540000174A174B1B6843F470031360144A144B7C
:105410001B6843F07043136000F0D6F8114B002274
:105420001A6000F0F5F8104A0F4B1B6843F0404338
:105430001360FFF769FF01F0ABF9FFF721FF0023CD
:1054400018461837BD4680BD00ED00E071C20F411F
:1054500070C20F4100E400E0FC02002000030020C5
:1054600020ED00E07000002034EF00E080B483B055
:1054700000AF4FF0500383F31188BFF36F8FBFF37A
:105480004F8F7B600E4B1B6801330D4A13600C4B32
:105490001B68012B0ED10B4B1B68DBB2002B09D014
:1054A0004FF0500383F31188BFF36F8FBFF34F8F1B
:1054B0003B60FEE700BF0C37BD465DF8047B7047DC
:1054C0007000002004ED00E080B483B000AF114B09
:1054D0001B68002B09D14FF0500383F31188BFF3F1
:1054E0006F8FBFF34F8F7B60FEE70A4B1B68013B5A
:1054F000084A1360074B1B68002B04D100233B6054
:105500003B6883F3118800BF0C37BD465DF8047B10
:10551000704700BF70000020000000000000000085
:10552000EFF30980BFF36F8F154B1A681EF0100F51
:1055300008BF20ED108A20E9F04F10602DE9090026
:105540004FF0500080F31188BFF34F8FBFF36F8F80
:1055500001F01EF94FF0000080F3118809BC1968B2
:105560000868B0E8F04F1EF0100F08BFB0EC108ACA
:1055700080F30988BFF36F8F704700BFAFF30080DF
:10558000DC0E002000BF00BF80B582B000AF4FF03E
:10559000500383F31188BFF36F8FBFF34F8F7B608E
:1055A00001F03EF80346002B03D0064B4FF080522B
:1055B0001A6000233B603B6883F3118800BF083703
:1055C000BD4680BD04ED00E080B400AF0B4B00226F
:1055D0001A600B4B00221A600A4A0B4B1B680B49DE
:1055E000A1FB03139B09013B1360044B07221A60C4
:1055F00000BFBD465DF8047B704700BF10E000E0CF
:1056000018E000E014E000E064000020D34D6210D8
:10561000DFF80C00016841F470010160704700BFC1
:1056200088ED00E080B58AB000AF78600023FB61B0
:1056300000F04CFF594B1B68002B01D100F01AF908
:10564000574B1A687B681340002B40F091807B68B1
:10565000002B1CD008227B6813447B607B6803F01E
:105660000703002B13D07B6823F0070308337B600C
:105670007B6803F00703002B09D04FF0500383F33E
:105680001188BFF36F8FBFF34F8F7B61FEE77B689D
:10569000002B6DD0434B1B687A689A4268D8424B06
:1056A0003B62414B1B687B6204E07B6A3B627B6A26
:1056B0001B687B627B6A5A687B689A4203D27B6A6A
:1056C0001B68002BF1D1354B1B687A6A9A424FD088
:1056D0003B6A1B6808221344FB617B6A1A683B6AB9
:1056E0001A607B6A5A687B68D21A08235B009A4268
:1056F0001ED97A6A7B681344BB61BB6903F0070358
:10570000002B09D04FF0500383F31188BFF36F8F44
:10571000BFF34F8F3B61FEE77B6A5A687B68D21A02
:10572000BB695A607B6A7A685A60B86900F004F90C
:105730001C4B1A687B6A5B68D31A1A4A1360194BB0
:105740001A681A4B1B689A4203D2164B1B68174AF9
:1057500013607B6A5A68124B1B681A437B6A5A6053
:105760007B6A00221A60124B1B680133104A1360D7
:1057700000F0BAFEFB6903F00703002B09D04FF0DD
:10578000500383F31188BFF36F8FBFF34F8FFB601C
:10579000FEE7FB6918462837BD4680BDC40E0020D1
:1057A000D80E0020C80E0020BC0E0020CC0E002019
:1057B000D00E002080B586B000AF78607B687B613A
:1057C0007B68002B4BD008235B427A6913447B61D2
:1057D0007B693B613B695A68234B1B681340002B74
:1057E00009D14FF0500383F31188BFF36F8FBFF3DC
:1057F0004F8FFB60FEE73B691B68002B09D04FF021
:10580000500383F31188BFF36F8FBFF34F8FBB60DB
:10581000FEE73B695A68144B1B681340002B1ED0EF
:105820003B691B68002B1AD13B695A680E4B1B68F9
:10583000DB431A403B695A6000F048FE3B695A68F6
:105840000A4B1B681344094A1360386900F074F866
:10585000074B1B680133064A136000F045FE00BF8A
:105860001837BD4680BD00BFD80E0020C80E0020EE
:10587000D40E002080B485B000AF40F6B833BB60D2
:10588000274BFB60FB6803F00703002B0CD0FB6881
:105890000733FB60FB6823F00703FB60BA68FB6813
:1058A000D31A1F4A1344BB60FB687B601D4A7B68A8
:1058B00013601C4B00225A607A68BB681344FB607B
:1058C0000822FB689B1AFB60FB6823F00703FB6060
:1058D000FB68154A1360144B1B6800225A60124B78
:1058E0001B6800221A607B683B603B68FA68D21A2A
:1058F0003B685A600C4B1A683B681A603B685B68EF
:105900000A4A13603B685B68094A1360094B4FF011
:1059100000421A6000BF1437BD465DF8047B704733
:1059200004030020BC0E0020C40E0020CC0E00207A
:10593000C80E0020D80E002080B485B000AF78607B
:10594000284BFB6002E0FB681B68FB60FB681A6881
:105950007B689A42F7D3FB68BB60FB685B68BA68F8
:105960001A447B689A4208D1FB685A687B685B6876
:105970001A44FB685A60FB687B607B68BB607B688D
:105980005B68BA681A44FB681B689A4218D1FB68C6
:105990001A68154B1B689A420DD07B685A68FB68E1
:1059A0001B685B681A447B685A60FB681B681A684E
:1059B0007B681A6008E00C4B1A687B681A6003E089
:1059C000FB681A687B681A60FA687B689A4202D0A2
:1059D000FB687A681A6000BF1437BD465DF8047B27
:1059E000704700BFBC0E0020C40E002080B584B0FC
:1059F00000AF786039607B68FB60FB68002B09D1E1
:105A00004FF0500383F31188BFF36F8FBFF34F8FB5
:105A1000BB60FEE7FFF72AFDFB681A68FB68DB6BDB
:105A2000F968096C01FB03F31A44FB689A60FB6890
:105A300000229A63FB681A68FB685A60FB681A6860
:105A4000FB68DB6B013BF968096C01FB03F31A444B
:105A5000FB68DA60FB68FF2283F84420FB68FF22C2
:105A600083F845203B68002B14D1FB681B69002B91
:105A70001AD0FB681033184600F008FF0346002BCD
:105A800012D00D4B4FF080521A60BFF34F8FBFF30F
:105A90006F8F09E0FB6810331846FFF708FBFB68BF
:105AA00024331846FFF703FBFFF70EFD01231846CA
:105AB0001037BD4680BD00BF04ED00E080B58EB05C
:105AC00002AFF860B9607A603B60FB68002B09D1D7
:105AD0004FF0500383F31188BFF36F8FBFF34F8FE5
