:020000040800F2
:10000000008001201D3B0008F9090008FF090008D5
:10001000050A00080B0A0008110A00080000000089
:10002000000000000000000000000000170A0008A7
:10003000250A000800000000330A0008410A0008F1
:100040006D3B00086D3B00086D3B00086D3B0008F0
:100050006D3B00086D3B00086D3B00086D3B0008E0
:100060006D3B00086D3B00086D3B00086D3B0008D0
:100070006D3B00086D3B00086D3B00086D3B0008C0
:100080006D3B00086D3B00086D3B00086D3B0008B0
:100090004D0A0008610A00086D3B00086D3B00082E
:1000A0006D3B00086D3B00086D3B00086D3B000890
:1000B0006D3B00086D3B00086D3B00086D3B000880
:1000C0006D3B00086D3B00086D3B00086D3B000870
:1000D0006D3B00086D3B00086D3B00086D3B000860
:1000E0006D3B00086D3B00086D3B00086D3B000850
:1000F0006D3B00086D3B00086D3B00086D3B000840
:100100006D3B00086D3B00086D3B00086D3B00082F
:100110006D3B00086D3B00086D3B00086D3B00081F
:100120006D3B00086D3B00086D3B00086D3B00080F
:100130006D3B00086D3B00086D3B00086D3B0008FF
:100140006D3B00086D3B00086D3B00086D3B0008EF
:100150006D3B00086D3B00086D3B00086D3B0008DF
:100160006D3B00086D3B00086D3B00086D3B0008CF
:100170006D3B00086D3B00086D3B0008000000006F
:080180006D3B00086D3B000817
:1001880010B5054C237833B9044B13B10448AFF3C9
:1001980000800123237010BD0C0000200000000027
:1001A800C83B000808B5034B1BB103490348AFF32C
:1001B800008008BD0000000010000020C83B0008B7
:1001C80053B94AB9002908BF00281CBF4FF0FF31B6
:1001D8004FF0FF3000F07AB9ADF1080C6DE904CEAC
:1001E80000F006F8DDF804E0DDE9022304B070470A
:1001F8002DE9F0478C460D460446089E002B51D148
:100208008A4217466DD9B2FA82FEBEF1000F0BD0B2
:10021800CEF1200C01FA0EF520FA0CFC02FA0EF7CA
:100228004CEA050C00FA0EF44FEA174A250CBCFB01
:10023800FAF81FFA87F90AFB18CC45EA0C4508FBBF
:1002480009F3AB420AD9ED1908F1FF3280F0238196
:10025800AB4240F22081A8F102083D44ED1AA4B255
:10026800B5FBFAF00AFB105544EA054400FB09F90E
:10027800A14509D9E41900F1FF3380F00A81A145AD
:1002880040F2078102383C44A4EB090440EA0840E4
:100298000021002E61D024FA0EF40023346073602C
:1002A800BDE8F0878B4207D9002E54D0002186E89C
:1002B80021000846BDE8F087B3FA83F1002940F031
:1002C8008E80AB4202D3824200F2FA80841A65EB38
:1002D80003050120AC46002E3FD086E81010BDE88B
:1002E800F08712B90127B7FBF2F7B7FA87FEBEF11C
:1002F800000F34D1EB1B3A0C1FFA87FC0121B3FB2A
:10030800F2F8250C02FB183345EA03450CFB08F309
:10031800AB4207D9ED1908F1FF3002D2AB4200F227
:10032800D1808046ED1AA3B2B5FBF2F002FB10555E
:1003380043EA05440CFB00FCA44507D9E41900F185
:10034800FF3302D2A44500F2B8801846A4EB0C048F
:1003580040EA08409DE731463046BDE8F087CEF1D7
:10036800200405FA0EF307FA0EF720FA04F83A0CFF
:1003780025FA04F448EA0308B4FBF2F14FEA1845F9
:1003880002FB11441FFA87FC45EA044501FB0CF304
:10039800AB4200FA0EF409D9ED1901F1FF3080F0F3
:1003A8008A80AB4240F2878002393D44EB1A1FFA3B
:1003B80088F5B3FBF2F002FB103345EA034500FB76
:1003C8000CF3AB4207D9ED1900F1FF386FD2AB42FD
:1003D8006DD902383D44EB1A40EA01418FE7C1F17B
:1003E800200722FA07F88B4005FA01F448EA0303CC
:1003F80020FA07FE4FEA134CFD404EEA040EB5FB07
:10040800FCF94FEA1E440CFB19551FFA83F844EA1D
:10041800054509FB08F4AC4202FA01F200FA01FAB8
:1004280008D9ED1809F1FF3043D2AC4241D9A9F1FE
:1004380002091D442D1B1FFA8EFEB5FBFCF00CFBB8
:1004480010554EEA054400FB08F8A04507D9E41802
:1004580000F1FF3529D2A04527D902381C4440EACB
:100468000940A4EB0804A0FB02894C45C6464D464A
:1004780015D312D056B1BAEB0E0364EB050404FA97
:1004880007F7CB401F43CC40376074600021BDE8BC
:10049800F0871846F8E69046E0E6C245EAD2B8EB9F
:1004A800020E69EB03050138E4E72846D7E7404622
:1004B80091E78146BEE7014678E702383C4445E7C4
:1004C800084608E7A8F102083D442BE7704700BF3B
:1004D80080B582B000AF7860074B084A0021786881
:1004E80000F094FD20214FF0904001F0C1FB00BFC7
:1004F8000837BD4680BD00BF340000200001002041
:1005080080B500AF00F0E4FA00F04CF800F044F9D0
:1005180000F0BEF800F010F91D4800F033FD02218C
:100528001B4800F085FE1B4B01221A61194B002263
:100538005A60184B00229A60164B0022DA60154B5D
:1005480040F203121A60134B00221A75124B6622EE
:100558001A70124B1B78112BFBD1104B5B78662B52
:10056800F7D1012210210E4801F06AFB012208216F
:100578000B4801F065FB002000F01EFB002208215B
:10058800074801F05DFB002000F016FBE1E700BF23
:10059800C0000020E80000202800002034000020CF
:1005A8000004004880B5B8B000AF07F19C034422AE
:1005B8000021184603F0FCFA07F1880300221A60AC
:1005C8005A609A60DA601A613B4688220021184610
:1005D80003F0EEFA0223C7F89C304FF48073C7F893
:1005E800A8301023C7F8AC300223C7F8C430022360
:1005F800C7F8C8300123C7F8CC300A23C7F8D03071
:100608000723C7F8D4300223C7F8D8300223C7F825
:10061800DC3007F19C03184601F0A8FB0346002BC9
:1006280001D000F027F90F23C7F888300323C7F853
:100638008C300023C7F890300023C7F8943000238B
:10064800C7F8983007F188030421184601F074FFB1
:100658000346002B01D000F00DF902233B60002374
:10066800FB633B46184602F06BF90346002B01D0AA
:1006780000F000F94FF4007001F022FB0346002B54
:1006880001D000F0F7F800BFE037BD4680BD00009C
:1006980080B58AB000AF264B264A1A60244B282220
:1006A8005A60234B00229A60214B0022DA60204BCB
:1006B8004FF480321A611E4B00225A611C4B0022F3
:1006C8001A761B4B00225A76194B00229A76184B41
:1006D8000022DA76164B00221A77154B00225A7739
:1006E800134800F08BFA0346002B01D000F0C2F843
:1006F80001233B620A237B6100233B6142F26003D2
:100708003B6000237B6042F26003BB600023FB6018
:100718000023BB610123FB6100237B623B46194632
:10072800034800F065FB00BF2837BD4680BD00BF09
:10073800C00000200064004080B500AF144B154A8B
:100748001A60134B4FF4E1325A60114B00229A6041
:100758000F4B0022DA600E4B00221A610C4B0C2260
:100768005A610B4B00229A61094B0022DA61084B4F
:1007780000221A62064B00225A62054802F090FDD8
:100788000346002B01D000F075F800BF80BD00BF04
:100798003C0000200044004080B588B000AF07F15D
:1007A8000C0300221A605A609A60DA601A612E4AB5
:1007B8002D4BDB6C43F00403D3642B4BDB6C03F051
:1007C8000403BB60BB68284A274BDB6C43F001037A
:1007D800D364254BDB6C03F001037B607B68224A02
:1007E800214BDB6C43F00203D3641F4BDB6C03F03B
:1007F80002033B603B68002220214FF0904001F04B
:100808001FFA00221821194801F01AFA4FF4005370
:10081800FB6000233B6100237B6107F10C03194651
:10082800134801F065F82023FB6001233B61002396
:100838007B610023BB6107F10C0319464FF0904020
:1008480001F056F81823FB6001233B6100237B610C
:100858000023BB6107F10C031946044801F048F86E
:1008680000BF2037BD4680BD00100240000400488C
:100878000008004880B400AF72B6FEE780B483B0C9
:1008880000AF0F4A0E4B1B6E43F0010313660C4B6F
:100898001B6E03F001037B607B68094A084B9B6D64
:1008A80043F080539365064B9B6D03F080533B6088
:1008B8003B6800BF0C37BD465DF8047B704700BF3E
:1008C8000010024080B58AB000AF786007F11403C9
:1008D80000221A605A609A60DA601A617B681B68A5
:1008E800204A934239D1204A1F4B9B6D43F0007335
:1008F80093651D4B9B6D03F000733B613B691A4A7E
:10090800194BDB6C43F00103D364174BDB6C03F02A
:100918000103FB60FB684FF4C0537B610223BB619A
:100928000023FB6103233B6209237B6207F1140365
:1009380019464FF0904000F0DBFF00220021142000
:1009480000F09FFF142000F0B8FF002200211520BE
:1009580000F097FF152000F0B0FF00BF2837BD4614
:1009680080BD00BF006400400010024080B58AB01E
:1009780000AF786007F1140300221A605A609A6089
:10098800DA601A617B681B68174A934228D1174AB4
:10099800164B9B6D43F400339365144B9B6D03F426
:1009A80000333B613B69114A104BDB6C43F0010398
:1009B800D3640E4BDB6C03F00103FB60FB680C2374
:1009C8007B610223BB610023FB6103233B62072396
:1009D8007B6207F1140319464FF0904000F088FF3E
:1009E80000BF2837BD4680BD0044004000100240CB
:1009F80080B400AFFEE780B400AFFEE780B400AF7C
:100A0800FEE780B400AFFEE780B400AFFEE780B435
:100A180000AF00BFBD465DF8047B704780B400AFEF
:100A280000BFBD465DF8047B704780B400AF00BFCF
:100A3800BD465DF8047B704780B500AF00F09CF8B8
:100A480000BF80BD80B500AF024800F017FC00BFB2
:100A580080BD00BFC000002080B500AF024800F094
:100A68000DFC00BF80BD00BFC000002080B400AFF7
:100A7800154A154BD3F8883043F47003C2F8883010
:100A8800124A124B1B6843F0010313600F4B0022FC
:100A98009A600E4A0D4B1B6823F0A85323F41023C9
:100AA80013600A4B4FF48052DA60084A074B1B6800
:100AB80023F480231360054B00229A6100BFBD46D2
:100AC8005DF8047B704700BF00ED00E000100240B5
:100AD80080B582B000AF0023FB71032000F0C6FE92
:100AE800002000F00DF80346002B02D00123FB7113
:100AF80001E0FFF7C3FEFB7918460837BD4680BD05
:100B080080B584B000AF78600023FB73174B1B7867
:100B1800002B23D0164B1A68144B1B7819464FF438
:100B28007A73B3FBF1F3B2FBF3F3184600F0D3FE8C
:100B38000346002B0FD17B680F2B09D80022796858
:100B48004FF0FF3000F09DFE0A4A7B68136007E013
:100B58000123FB7304E00123FB7301E00123FB7312
:100B6800FB7B18461037BD4680BD00BF080000203B
:100B7800000000200400002080B400AF064B1B7862
:100B88001A46064B1B681344044A136000BFBD464F
:100B98005DF8047B704700BF080000201C0100209E
:100BA80080B400AF034B1B681846BD465DF8047B54
:100BB800704700BF1C01002080B584B000AF78608A
:100BC800FFF7EEFFB8607B68FB60FB68B3F1FF3F9F
:100BD80005D0094B1B781A46FB681344FB6000BF1D
:100BE800FFF7DEFF0246BB68D21AFB689A42F7D3CA
:100BF80000BF1037BD4680BD0800002080B584B016
:100C080000AF78607B68002B01D10123ECE07B68A2
:100C180093F82030DBB2002B02D17868FFF752FE40
:100C28007B681B687A681268126822F002021A60F0
:100C3800FFF7B6FFF86012E0FFF7B2FF0246FB6865
:100C4800D31A0A2B0BD97B685B6A43F400327B68A2
:100C58005A627B68052283F820200123C4E07B6860
:100C68001B685B6803F00203002BE5D17B681B68F7
:100C78007A681268126842F001021A60FFF790FF62
:100C8800F86012E0FFF78CFF0246FB68D31A0A2BC4
:100C98000BD97B685B6A43F400327B685A627B68D5
:100CA800052283F8202001239EE07B681B685B688F
:100CB80003F00103002BE5D07B681B7E012B08D1D4
:100CC8007B681B687A681268126842F080021A60B2
:100CD80007E07B681B687A681268126822F0800255
:100CE8001A607B685B7E012B08D17B681B687A6879
:100CF8001268126842F040021A6007E07B681B68BD
:100D08007A681268126822F040021A607B689B7E3B
:100D1800012B08D17B681B687A681268126842F058
:100D280020021A6007E07B681B687A6812681268FC
:100D380022F020021A607B68DB7E012B08D17B68D9
:100D48001B687A681268126822F010021A6007E0BD
:100D58007B681B687A681268126842F010021A6091
:100D68007B681B7F012B08D17B681B687A68126837
:100D7800126842F008021A6007E07B681B687A680C
:100D88001268126822F008021A607B685B7F012BE8
:100D980008D17B681B687A681268126842F00402FE
:100DA8001A6007E07B681B687A681268126822F08C
:100DB80004021A607B681B687A6891687A68D2684E
:100DC80011437A68126911437A68526911437A6843
:100DD8005268013A0A43DA617B6800225A627B68EA
:100DE800012283F82020002318461037BD4680BD15
:100DF80080B487B000AF786039607B681B687B611E
:100E08007B6893F82030FB74FB7C012B03D0FB7CC0
:100E1800022B40F0AA807B69D3F8003243F001022C
:100E28007B69C3F800223B685B6903F01F0301225A
:100E380002FA03F3FB607B69D3F81C22FB68DB43EF
:100E48001A407B69C3F81C223B68DB69002B23D15D
:100E58007B69D3F80C22FB68DB431A407B69C3F833
:100E68000C223B685A693B68DB6819043B685B687D
:100E78009BB219437B69483243F832103B685B697F
:100E88003A68926811043A68126892B20A4379691A
:100E98004833DB000B445A603B68DB69012B22D1E5
:100EA8007B69D3F80C22FB681A437B69C3F80C22D0
:100EB8003B685A693B681B6819043B685B689BB2CE
:100EC80019437B69483243F832103B685B693A68DA
:100ED800926811043A68D26892B20A437969483331
:100EE800DB000B445A603B689B69002B09D17B6986
:100EF800D3F80422FB68DB431A407B69C3F8042259
:100F080007E07B69D3F80422FB681A437B69C3F8BE
:100F180004223B681B69002B09D17B69D3F8142292
:100F2800FB68DB431A407B69C3F8142207E07B693E
:100F3800D3F81422FB681A437B69C3F814223B6870
:100F48001B6A012B07D17B69D3F81C22FB681A4363
:100F58007B69C3F81C227B69D3F8003223F00102B5
:100F68007B69C3F80022002306E07B685B6A43F4D0
:100F780080227B685A62012318461C37BD465DF8FB
:100F8800047B704780B584B000AF78607B6893F8C5
:100F98002030DBB2012B2ED17B68022283F820207F
:100FA8007B681B687A681268126822F001021A606E
:100FB800FFF7F6FDF86012E0FFF7F2FD0246FB6866
:100FC800D31A0A2B0BD97B685B6A43F400327B681F
:100FD8005A627B68052283F82020012312E07B688F
:100FE8001B685B6803F00103002BE5D17B680022D6
:100FF8005A62002306E07B685B6A43F400227B6840
:101008005A62012318461037BD4680BD80B487B0A8
:1010180000AFF860B9607A603B60FB6893F82030F5
:10102800FB75FB7D012B03D0FB7D022B40F0F38089
:10103800BB68002B0ED1FB681B68DB6803F0030359
:10104800002B16D1FB685B6A43F40012FB685A62F6
:101058000123E7E0FB681B681B6903F00303002B0F
:1010680007D1FB685B6A43F40012FB685A620123EC
:10107800D8E0FB681A68BB681B331B0113441B6864
:1010880003F004027B689A607B689B68002B0CD194
:10109800FB681A68BB681B331B0113441B685B0D94
:1010A800C3F30A027B681A600BE0FB681A68BB6826
:1010B8001B331B0113441B68DB0823F060427B6869
:1010C8005A60FB681A68BB681B331B0113441B6812
:1010D80003F002027B68DA60FB681A68BB681B339E
:1010E8001B01134404331B6803F00F027B681A6169
:1010F800FB681A68BB681B331B01134404331B6865
:101108001B0ADAB27B689A61FB681A68BB681B33F2
:101118001B01134404331B681B0C9AB27B685A6189
:10112800FB681A68BB681B01134403F5DC731B6872
:10113800DAB23B681A703B680133FA681168BA681A
:1011480012010A4402F5DC721268120AD2B21A704D
:101158003B680233FA681168BA6812010A4402F55A
:10116800DC721268120CD2B21A703B680333FA6848
:101178001168BA6812010A4402F5DC721268120E8C
:10118800D2B21A703B680433FA681168BA6812015F
:101198000A4402F5DE721268D2B21A703B6805334F
:1011A800FA681168BA6812010A4402F5DE72126818
:1011B800120AD2B21A703B680633FA681168BA6824
:1011C80012010A4402F5DE721268120CD2B21A70C9
:1011D8003B680733FA681168BA6812010A4402F5D5
:1011E800DE721268120ED2B21A70BB68002B08D1D8
:1011F800FB681B68FA681268D26842F02002DA605D
:1012080007E0FB681B68FA681268126942F020025E
:101218001A61002306E0FB685B6A43F48022FB68DE
:101228005A62012318461C37BD465DF8047B704797
:1012380080B485B000AF786039607B6893F820305F
:10124800FB73FB7B012B02D0FB7B022B09D17B6854
:101258001B687A68126851693A680A435A61002320
:1012680006E07B685B6A43F480227B685A6201234C
:1012780018461437BD465DF8047B704780B58AB0C0
:1012880000AF786000237B627B681B685B693B6208
:101298007B681B685B68FB617B681B689B68BB613C
:1012A8007B681B68DB687B617B681B681B693B612B
:1012B8007B681B689B69FB603B6A03F00103002B9A
:1012C8007CD0BB6903F00103002B23D07B681B682B
:1012D80001229A60BB6903F00203002B03D07868EF
:1012E80000F07DF916E0BB6903F00403002B04D07D
:1012F8007B6A43F400637B620CE0BB6903F008037C
:10130800002B04D07B6A43F480537B6202E0786848
:1013180000F083F9BB6903F48073002B24D07B6849
:101328001B684FF480729A60BB6903F40073002B4A
:1013380003D0786800F05DF916E0BB6903F48063B8
:10134800002B04D07B6A43F400537B620CE0BB693A
:1013580003F40063002B04D07B6A43F480437B6270
:1013680002E0786800F063F9BB6903F48033002B6E
:1013780024D07B681B684FF480329A60BB6903F401
:101388000033002B03D0786800F03DF916E0BB6904
:1013980003F48023002B04D07B6A43F400437B6270
:1013A8000CE0BB6903F40023002B04D07B6A43F4F0
:1013B80080337B6202E0786800F043F93B6A03F00F
:1013C8000803002B0CD07B6903F01003002B07D017
:1013D8007B6A43F400737B627B681B681022DA60C7
:1013E8003B6A03F00403002B0BD07B6903F008036E
:1013F800002B06D07B681B680822DA60786800F04A
:101408002AF93B6A03F00203002B09D07B681B68AA
:10141800DB6803F00303002B02D07868FFF758F865
:101428003B6A03F04003002B0CD03B6903F0100328
:10143800002B07D07B6A43F480637B627B681B6860
:1014480010221A613B6A03F02003002B0BD03B6982
:1014580003F00803002B06D07B681B6808221A617A
:10146800786800F00CF93B6A03F01003002B09D0F0
:101478007B681B681B6903F00303002B02D07868A4
:1014880000F0F3F83B6A03F40033002B0BD0FB6940
:1014980003F01003002B06D07B681B6810225A60EB
:1014A800786800F0F6F83B6A03F48033002B0BD021
:1014B800FB6903F00803002B06D07B681B68082231
:1014C8005A60786800F0EFF83B6A03F40043002B99
:1014D80075D0FB6903F00403002B6CD03B6A03F45E
:1014E8008073002B08D0FB6803F00103002B03D0A6
:1014F8007B6A43F001037B623B6A03F40073002BB1
:1015080008D0FB6803F00203002B03D07B6A43F08A
:1015180002037B623B6A03F48063002B08D0FB68FC
:1015280003F00403002B03D07B6A43F004037B62BF
:101538003B6A03F40063002B3DD0FB6803F07003A3
:10154800002B38D0FB6803F07003302B17D0302BFA
:1015580004D8102B09D0202B0CD024E0502B18D005
:10156800602B1BD0402B0FD01DE07B6A43F0080393
:101578007B6218E07B6A43F010037B6213E07B6AAE
:1015880043F020037B620EE07B6A43F040037B62FA
:1015980009E07B6A43F080037B6204E07B6A43F4E2
:1015A80080737B6200BF7B681B687A6812689269E7
:1015B80022F070029A617B681B6804225A607B6A79
:1015C800002B08D07B685A6A7B6A1A437B685A6288
:1015D800786800F072F800BF2837BD4680BD80B437
:1015E80083B000AF786000BF0C37BD465DF8047B60
:1015F800704780B483B000AF786000BF0C37BD4639
:101608005DF8047B704780B483B000AF786000BF9A
:101618000C37BD465DF8047B704780B483B000AFDB
:10162800786000BF0C37BD465DF8047B704780B416
:1016380083B000AF786000BF0C37BD465DF8047B0F
:10164800704780B483B000AF786000BF0C37BD46E8
:101658005DF8047B704780B483B000AF786000BF4A
:101668000C37BD465DF8047B704780B483B000AF8B
:10167800786000BF0C37BD465DF8047B704780B4C6
:1016880083B000AF786000BF0C37BD465DF8047BBF
:10169800704780B483B000AF786000BF0C37BD4698
:1016A8005DF8047B704780B483B000AF786000BFFA
:1016B8000C37BD465DF8047B704780B483B000AF3B
:1016C800786000BF0C37BD465DF8047B70470000AA
:1016D80080B485B000AF78607B6803F00703FB60D7
:1016E8000C4BDB68BB60BA684FF6FF031340BB6066
:1016F800FB681A02BB68134343F0BF6343F400332B
:10170800BB60044ABB68D36000BF1437BD465DF8B0
:10171800047B704700ED00E080B400AF044BDB6849
:101728001B0A03F007031846BD465DF8047B7047A3
:1017380000ED00E080B483B000AF0346FB7197F979
:101748000730002B0BDB094997F907305B09FA7959
:1017580002F01F02012000FA02F241F8232000BF24
:101768000C37BD465DF8047B704700BF00E100E020
:1017780080B483B000AF03463960FB7197F9073036
:10178800002B0ADB0D4997F907303A68D2B21201EB
:10179800D2B20B4483F800230AE00949FB7903F02D
:1017A8000F03043B3A68D2B21201D2B20B441A7644
:1017B80000BF0C37BD465DF8047B704700E100E0D0
:1017C80000ED00E080B489B000AFF860B9607A60DD
:1017D800FB6803F00703FB61FB69C3F10703042BF4
:1017E80028BF0423BB61FB690433062B02D9FB69BC
:1017F800033B00E000237B610122BB6902FA03F38B
:101808005A1EBB681A407B699A4001217B6901FA1C
:1018180003F3591E7B680B40134318462437BD4613
:101828005DF8047B7047000080B582B000AF786037
:101838007B68013BB3F1807F01D301230FE00A4AA3
:101848007B68013B53600F214FF0FF30FFF790FF9B
:10185800054B00229A60044B07221A6000231846A1
:101868000837BD4680BD00BF10E000E080B582B0FB
:1018780000AF78607868FFF72BFF00BF0837BD46D8
:1018880080BD80B586B000AF0346B9607A60FB734F
:1018980000237B61FFF740FF78617A68B96878694F
:1018A800FFF790FF024697F90F3011461846FFF7E9
:1018B8005FFF00BF1837BD4680BD80B582B000AF5E
:1018C8000346FB7197F907301846FFF733FF00BF4F
:1018D8000837BD4680BD80B582B000AF78607868B3
:1018E800FFF7A2FF034618460837BD4680BD000033
:1018F80080B487B000AF7860396000237B617FE1F6
:101908003B681A6801217B6901FA03F31340FB6005
:10191800FB68002B00F071813B685B68012B0BD0E2
:101928003B685B68022B07D03B685B68112B03D0D0
:101938003B685B68122B30D17B689B683B617B6995
:101948005B00032202FA03F3DB433A6913403B616D
:101958003B68DA687B695B0002FA03F33A69134370
:101968003B617B683A699A607B685B683B610122EE
:101978007B6902FA03F3DB433A6913403B613B6836
:101988005B681B0903F001027B6902FA03F33A69F9
:1019980013433B617B683A695A603B685B6803F0B4
:1019A8000303032B18D17B68DB6A3B6101227B6947
:1019B80002FA03F3DB433A6913403B613B685B6817
:1019C800DB0803F001027B6902FA03F33A69134367
:1019D8003B617B683A69DA627B68DB683B617B69FB
:1019E8005B00032202FA03F3DB433A6913403B61CD
:1019F8003B689A687B695B0002FA03F33A69134310
:101A08003B617B683A69DA603B685B68022B03D00C
:101A18003B685B68122B23D17B69DA087B68083244
:101A280053F822303B617B6903F007039B000F22C8
:101A380002FA03F3DB433A6913403B613B681A69D6
:101A48007B6903F007039B0002FA03F33A69134327
:101A58003B617B69DA087B680832396943F82210F0
:101A68007B681B683B617B695B00032202FA03F316
:101A7800DB433A6913403B613B685B6803F0030250
:101A88007B695B0002FA03F33A6913433B617B68A5
:101A98003A691A603B685B6803F08053002B00F0DA
:101AA800AC805E4A5D4B1B6E43F0010313665B4BD3
:101AB8001B6E03F00103BB60BB68594A7B699B0836
:101AC800023352F823303B617B6903F003039B0028
:101AD8000F2202FA03F3DB433A6913403B617B6848
:101AE800B3F1904F25D07B684E4A93421FD07B6854
:101AF8004D4A934219D07B684C4A934213D07B6875
:101B08004B4A93420DD07B684A4A934207D07B6880
:101B1800494A934201D106230CE007230AE0052332
:101B280008E0042306E0032304E0022302E0012383
:101B380000E000237A6902F00302920093403A69B8
:101B480013433B6136497B699B0802333A6941F884
:101B580023203A4B1B683B61FB68DB433A6913401F
:101B68003B613B685B6803F48033002B03D03A6920
:101B7800FB6813433B61314A3B6913602F4B5B6839
:101B88003B61FB68DB433A6913403B613B685B6838
:101B980003F40033002B03D03A69FB6813433B611D
:101BA800264A3B695360254B9B683B61FB68DB43D6
:101BB8003A6913403B613B685B6803F48013002B70
:101BC80003D03A69FB6813433B611C4A3B69936045
:101BD8001A4BDB683B61FB68DB433A6913403B61A6
:101BE8003B685B6803F40013002B03D03A69FB6879
:101BF80013433B61114A3B69D3607B6901337B61C5
:101C08003B681A687B6922FA03F3002B7FF478AEED
:101C180000BF1C37BD465DF8047B704700100240CA
:101C2800000001400004004800080048000C00487B
:101C38000010004800140048001800480004014043
:101C480080B483B000AF78600B467B8013467B700E
:101C58007B78002B03D07A887B689A6102E07A88C7
:101C68007B689A6200BF0C37BD465DF8047B7047FD
:101C780080B485B000AF78600B467B807B685B6979
:101C8800FB607A88FB6813401A04FB68D9437B8899
:101C98000B401A437B689A6100BF1437BD465DF854
:101CA800047B704780B400AF044B1B6803F4C06327
:101CB8001846BD465DF8047B704700BF00700040C1
:101CC80080B485B000AF78607B68B3F5007F30D111
:101CD800234B1B6803F4C063B3F5007F38D0204A58
:101CE8001F4B1B6823F4C06343F4007313601D4B40
:101CF8001B68322202FB03F31B4AA2FB03239B0C43
:101D08000133FB6002E0FB68013BFB60144B5B693D
:101D180003F48063B3F5806F02D1FB68002BF2D126
:101D28000F4B5B6903F48063B3F5806F10D1032315
:101D38000FE00B4B1B6803F4C063B3F5806F07D04B
:101D4800074A074B1B6823F4C06343F4806313609E
:101D5800002318461437BD465DF8047B704700BF62
:101D6800007000400000002083DE1B4380B588B06F
:101D780000AF78607B68002B01D10123D4E3A14B2D
:101D88009B6803F00C03BB619E4BDB6803F0030305
:101D98007B617B681B6803F01003002B00F0E48074
:101DA800BB69002B07D0BB690C2B40F08B807B698B
:101DB800012B40F08780934B1B6803F00203002B34
:101DC80005D07B689B69002B01D10123ACE37B68BC
:101DD8001A6A8C4B1B6803F00803002B04D0894B4C
:101DE8001B6803F0F00305E0864BD3F894301B0919
:101DF80003F0F0039A4223D97B681B6A184600F067
:101E08003FFD0346002B01D001238DE37D4A7D4B26
:101E18001B6843F0080313607A497A4B1B6823F068
:101E2800F0027B681B6A13430B607649754B5B684D
:101E380023F47F427B68DB691B0213434B6025E078
:101E4800704A704B1B6843F0080313606D496D4B73
:101E58001B6823F0F0027B681B6A13430B60694917
:101E6800684B5B6823F47F427B68DB691B02134382
:101E78004B60BB69002B09D17B681B6A184600F0D0
:101E8800FFFC0346002B01D001234DE300F036FC94
:101E980001465C4B9B681B0903F00F035A4AD35C4D
:101EA80003F01F0321FA03F3584A1360584B1B68C9
:101EB8001846FEF725FE0346FB73FB7B002B52D02A
:101EC800FB7B31E37B689B69002B32D04D4A4D4B3D
:101ED8001B6843F001031360FEF762FE386108E0F7
:101EE800FEF75EFE02463B69D31A022B01D9032393
:101EF8001AE3444B1B6803F00203002BF0D0414A5D
:101F0800404B1B6843F0080313603E493D4B1B6878
:101F180023F0F0027B681B6A13430B603949394B85
:101F28005B6823F47F427B68DB691B0213434B60C9
:101F38001AE0344A334B1B6823F001031360FEF7A1
:101F48002FFE386108E0FEF72BFE02463B69D31AE4
:101F5800022B01D90323E7E22A4B1B6803F0020393
:101F6800002BF0D100E000BF7B681B6803F0010381
:101F7800002B74D0BB69082B05D0BB690C2B0ED184
:101F88007B69032B0BD11F4B1B6803F40033002B19
:101F980064D07B685B68002B60D10123C4E27B6856
:101FA8005B68B3F5803F06D1164A164B1B6843F4AD
:101FB800803313601DE07B685B68B3F5A02F0CD1FC
:101FC800104A104B1B6843F4802313600D4A0D4BD5
:101FD8001B6843F4803313600BE00A4A094B1B6803
:101FE80023F480331360074A064B1B6823F48023CD
:101FF80013607B685B68002B1CD0FEF7D1FD38614D
:1020080011E000BF00100240E03B00080000002083
:1020180004000020FEF7C4FD02463B69D31A642B76
:1020280001D9032380E2AF4B1B6803F40033002B74
:10203800F0D014E0FEF7B4FD386108E0FEF7B0FD1B
:1020480002463B69D31A642B01D903236CE2A54BE2
:102058001B6803F40033002BF0D100E000BF7B685D
:102068001B6803F00203002B60D0BB69042B05D06A
:10207800BB690C2B19D17B69022B16D1994B1B68B4
:1020880003F48063002B05D07B68DB68002B01D14B
:10209800012349E29349934B5B6823F0F8527B682C
:1020A8001B691B0613434B6040E07B68DB68002B11
:1020B80023D08C4A8B4B1B6843F480731360FEF764
:1020C8006FFD386108E0FEF76BFD02463B69D31AE5
:1020D800022B01D9032327E2824B1B6803F4806398
:1020E800002BF0D07F497F4B5B6823F0F8527B6868
:1020F8001B691B0613434B6018E07A4A794B1B682F
:1021080023F480731360FEF74BFD386108E0FEF797
:1021180047FD02463B69D31A022B01D9032303E288
:10212800704B1B6803F48063002BF0D17B681B683D
:1021380003F00803002B3CD07B685B69002B1CD0A4
:10214800684A684BD3F8943043F00103C2F89430DE
:10215800FEF726FD386108E0FEF722FD02463B69DE
:10216800D31A022B01D90323DEE15E4BD3F8943056
:1021780003F00203002BEFD01BE05A4A594BD3F867
:10218800943023F00103C2F89430FEF709FD38615A
:1021980008E0FEF705FD02463B69D31A022B01D978
:1021A8000323C1E14F4BD3F8943003F00203002B13
:1021B800EFD17B681B6803F00403002B00F0A680B6
:1021C8000023FB77474B9B6D03F08053002B0DD109
:1021D800444A444B9B6D43F080539365414B9B6D40
:1021E80003F08053BB60BB680123FB773E4B1B6841
:1021F80003F48073002B18D13B4A3B4B1B6843F414
:1022080080731360FEF7CCFC386108E0FEF7C8FC69
:1022180002463B69D31A022B01D9032384E1324BCE
:102228001B6803F48073002BF0D07B689B68012B3C
:1022380008D12C4A2B4BD3F8903043F00103C2F855
:10224800903024E07B689B68052B10D1254A254BEC
:10225800D3F8903043F00403C2F89030214A214B60
:10226800D3F8903043F00103C2F890300FE01D4AD4
:102278001C4BD3F8903023F00103C2F89030194A70
:10228800184BD3F8903023F00403C2F890307B68E1
:102298009B68002B16D0FEF783FC38610AE0FEF736
:1022A8007FFC02463B69D31A41F28832934201D936
:1022B800032339E10B4BD3F8903003F00203002BD2
:1022C800EDD01AE0FEF76CFC38610FE0FEF768FC11
:1022D80002463B69D31A41F28832934206D9032356
:1022E80022E100BF0010024000700040904BD3F87C
:1022F800903003F00203002BE8D1FB7F012B05D1BE
:102308008B4A8B4B9B6D23F0805393657B689B6A4C
:10231800002B00F008817B689B6A022B40F0D0807C
:10232800834BDB687B617B6903F003027B68DB6AB4
:102338009A4230D17B6903F070027B681B6B013BCA
:102348001B019A4227D17B6903F4FE427B685B6BD1
:102358001B029A421FD17B6903F400337A68926B9F
:10236800072A14BF01220022D2B2934213D17B69FB
:1023780003F4C0027B68DB6B5B08013B5B059A4298
:1023880009D17B6903F0C0627B681B6C5B08013B69
:102398005B069A426ED0BB690C2B69D0644B1B68F4
:1023A80003F08063002B05D1614B1B6803F0805359
:1023B800002B01D00123B7E05D4A5D4B1B6823F079
:1023C80080731360FEF7ECFB386108E0FEF7E8FB6A
:1023D80002463B69D31A022B01D90323A4E0544BCC
:1023E8001B6803F00073002BF0D15148504BDA689A
:1023F800504B13407A68D16A7A68126B013A12011D
:1024080011437A68526B120211437A68D26B5208F0
:10241800013A520511437A68126C5208013A520681
:1024280011437A68926B120952040A431343C3603A
:102438003F4A3F4B1B6843F0807313603C4A3C4B58
:10244800DB6843F08073D360FEF7AAFB386108E0CD
:10245800FEF7A6FB02463B69D31A022B01D90323D8
:1024680062E0334B1B6803F00073002BF0D05AE096
:10247800012359E02E4B1B6803F00073002B52D147
:102488002B4A2B4B1B6843F080731360284A284B58
:10249800DB6843F08073D360FEF782FB386108E0A5
:1024A800FEF77EFB02463B69D31A022B01D90323B0
:1024B8003AE01F4B1B6803F00073002BF0D032E0AA
:1024C800BB690C2B2DD01A4A194B1B6823F080735B
:1024D8001360174B1B6803F02053002B05D1144AD7
:1024E800134BDB6823F00303D360114A104BDB68FE
:1024F80023F0887323F48033D360FEF751FB3861EF
:1025080008E0FEF74DFB02463B69D31A022B01D9BE
:10251800032309E0064B1B6803F00073002BF0D17E
:1025280001E0012300E0002318462037BD4680BDA6
:10253800001002408C809DF980B584B000AF7860AF
:1025480039607B68002B01D10123C8E0664B1B680A
:1025580003F007023B689A4210D26349624B1B683A
:1025680023F007023B6813430B605F4B1B6803F0C3
:1025780007023B689A4201D00123B0E07B681B68E0
:1025880003F00103002B4CD07B685B68032B07D159
:10259800564B1B6803F00073002B21D101239EE0EA
:1025A8007B685B68022B07D1504B1B6803F4003330
:1025B800002B15D1012392E07B685B68002B07D1C3
:1025C8004A4B1B6803F00203002B09D1012386E064
:1025D800464B1B6803F48063002B01D101237EE086
:1025E8004249424B9B6823F003027B685B681343B4
:1025F8008B60FEF7D5FAF8600AE0FEF7D1FA0246DA
:10260800FB68D31A41F28832934201D9032366E06A
:10261800364B9B6803F00C027B685B689B009A4210
:10262800EBD17B681B6803F00203002B08D02F490D
:102638002E4B9B6823F0F0027B689B6813438B60EA
:10264800294B1B6803F007023B689A4210D92649B8
:10265800254B1B6823F007023B6813430B60224B92
:102668001B6803F007023B689A4201D0012336E059
:102678007B681B6803F00403002B08D01B491B4B25
:102688009B6823F4E0627B68DB6813438B607B689C
:102698001B6803F00803002B09D01449134B9B68EF
:1026A80023F460527B681B69DB0013438B6000F0E6
:1026B80025F801460D4B9B681B0903F00F030C4AD4
:1026C800D35C03F01F0321FA03F30A4A13600A4B91
:1026D8001B681846FEF714FA0346FB72FB7A184685
:1026E8001037BD4680BD00BF0020024000100240E8
:1026F800E03B0008000000200400002080B489B0FE
:1027080000AF0023FB610023BB613D4B9B6803F0D6
:102718000C033B613A4BDB6803F00303FB603B6946
:10272800002B05D03B690C2B21D1FB68012B1ED156
:10273800334B1B6803F00803002B07D1304BD3F849
:1027480094301B0A03F00F03FB6105E02C4B1B6858
:102758001B0903F00F03FB612A4AFB6952F8233077
:10276800FB613B69002B0DD1FB69BB610AE03B694A
:10277800042B02D1244BBB6104E03B69082B01D137
:10278800224BBB613B690C2B33D11D4BDB6803F03B
:102798000303BB60BB68022B02D0032B03D005E008
:1027A800194B7B6105E0194B7B6102E0FB697B619A
:1027B80000BF134BDB681B0903F0070301337B6081
:1027C8000F4BDB681B0A03F07F037A6902FB03F2F5
:1027D8007B68B2FBF3F37B61094BDB685B0E03F0AC
:1027E800030301335B003B607A693B68B2FBF3F398
:1027F800BB61BB6918462437BD465DF8047B70474A
:1028080000100240F83B00080024F40000127A008F
:1028180080B400AF034B1B681846BD465DF8047BC7
:10282800704700BF0000002080B500AFFFF7F0FF41
:102838000146064B9B681B0A03F00703044AD35C56
:1028480003F01F0321FA03F3184680BD001002406D
:10285800F03B000880B500AFFFF7DAFF0146064BF2
:102868009B68DB0A03F00703044AD35C03F01F03E9
:1028780021FA03F3184680BD00100240F03B00081F
:1028880080B586B000AF786000233B612A4B9B6D12
:1028980003F08053002B03D0FFF704FA786114E0AB
:1028A800254A254B9B6D43F080539365224B9B6DC6
:1028B80003F08053FB60FB68FFF7F4F978611E4A68
:1028C8001D4B9B6D23F0805393657B69B3F5007FA7
:1028D8000BD17B68802B19D97B68A02B02D90223E6
:1028E8003B6113E001233B6110E07B68802B02D938
:1028F80003233B610AE07B68802B02D102233B6102
:1029080004E07B68702B01D101233B610B490B4B21
:102918001B6823F007023B6913430B60074B1B68D6
:1029280003F007023B699A4201D0012300E000232B
:1029380018461837BD4680BD0010024000200240EE
:1029480080B586B000AF78600023FB740023BB74A9
:102958007B681B6803F40063002B3FD07B685B6EC9
:10296800B3F5800F1CD0B3F5800F02D8002B0ED022
:102978001FE0B3F5000F03D0B3F5400F1CD018E0EB
:10298800854A854BDB6843F48033D36015E07B6868
:1029980004330021184600F0B9FA0346FB740CE032
:1029A8007B6820330021184600F0A0FB0346FB7427
:1029B80003E00123FB7400E000BFFB7C002B0BD17C
:1029C8007549754BD3F8883023F440027B685B6EF9
:1029D8001343C1F8883001E0FB7CBB747B681B683B
:1029E80003F48053002B3FD07B689B6EB3F1807F4C
:1029F8001CD0B3F1807F02D8002B0ED01FE0B3F1BA
:102A0800007F03D0B3F1407F1CD018E0624A624BCC
:102A1800DB6843F48033D36015E07B68043300211E
:102A2800184600F073FA0346FB740CE07B68203309
:102A38000021184600F05AFB0346FB7403E001230B
:102A4800FB7400E000BFFB7C002B0BD15249524BBA
:102A5800D3F8883023F040727B689B6E1343C1F82B
:102A6800883001E0FB7CBB747B681B6803F400338F
:102A7800002B00F0A08000237B74474B9B6D03F074
:102A88008053002B01D1012300E00023002B0DD03F
:102A9800414A414B9B6D43F0805393653E4B9B6D80
:102AA80003F08053BB60BB6801237B743B4A3B4BFC
:102AB8001B6843F480731360FEF772F8F86009E04E
:102AC800FEF76EF80246FB68D31A022B02D90323DD
:102AD800FB7405E0314B1B6803F48073002BEFD0C7
:102AE800FB7C002B5CD12C4BD3F8903003F4407363
:102AF8007B617B69002B1FD07B68D3F884207B69BE
:102B08009A4219D0244BD3F8903023F440737B6158
:102B1800214A214BD3F8903043F48033C2F89030E7
:102B28001D4A1D4BD3F8903023F48033C2F89030FF
:102B3800194A7B69C2F890307B6903F00103002BC6
:102B480016D0FEF72DF8F8600BE0FEF729F80246DC
:102B5800FB68D31A41F28832934202D90323FB74EB
:102B680006E00D4BD3F8903003F00203002BECD0B5
:102B7800FB7C002B0CD10849074BD3F8903023F489
:102B880040727B68D3F884301343C1F8903009E071
:102B9800FB7CBB7406E000BF0010024000700040E0
:102BA800FB7CBB747B7C012B05D19E4A9D4B9B6DA6
:102BB80023F0805393657B681B6803F00103002BA7
:102BC8000AD09849974BD3F8883023F003027B68E2
:102BD8009B6B1343C1F888307B681B6803F00203C2
:102BE800002B0AD08F498F4BD3F8883023F00C0282
:102BF8007B68DB6B1343C1F888307B681B6803F084
:102C08000403002B0AD08749864BD3F8883023F079
:102C180030027B681B6C1343C1F888307B681B68E3
:102C280003F00803002B0AD07E497E4BD3F8883086
:102C380023F0C0027B685B6C1343C1F888307B6863
:102C48001B6803F01003002B0AD07649754BD3F8A4
:102C5800883023F440727B689B6C1343C1F888303A
:102C68007B681B6803F02003002B0AD06D496D4B6D
:102C7800D3F8883023F440627B68DB6C1343C1F8D7
:102C880088307B681B6803F40073002B0AD0654901
:102C9800644BD3F8883023F440227B68DB6D134300
:102CA800C1F888307B681B6803F48063002B0AD066
:102CB8005C495C4BD3F8883023F440127B681B6E68
:102CC8001343C1F888307B681B6803F04003002B6E
:102CD8000AD05449534BD3F8883023F440527B68C8
:102CE8001B6D1343C1F888307B681B6803F08003B1
:102CF800002B0AD04B494B4BD3F8883023F4404281
:102D08007B685B6D1343C1F888307B681B6803F4EC
:102D18008073002B0AD04349424BD3F8883023F400
:102D280040327B689B6D1343C1F888307B681B6811
:102D380003F40053002B28D03A493A4BD3F8883093
:102D480023F040627B68DB6E1343C1F888307B68F0
:102D5800DB6EB3F1006F06D1324A324BDB6843F4C5
:102D68008013D36011E07B68DB6EB3F1806F0CD108
:102D78007B6804330121184600F0C8F80346FB7449
:102D8800FB7C002B01D0FB7CBB747B681B6803F4C5
:102D98000023002B28D02349224BD3F8883023F076
:102DA80040627B681B6F1343C1F888307B681B6FD8
:102DB800B3F1006F06D11B4A1A4BDB6843F480134A
:102DC800D36011E07B681B6FB3F1806F0CD17B6817
:102DD80004330121184600F099F80346FB74FB7C84
:102DE800002B01D0FB7CBB747B681B6803F4802339
:102DF800002B2BD00B490B4BD3F8883023F04062C3
:102E08007B685B6F1343C1F888307B685B6FB3F1F5
:102E1800006F09D1034A034BDB6843F48013D36086
:102E280014E000BF001002407B685B6FB3F1806F55
:102E38000CD17B6804330121184600F067F803467B
:102E4800FB74FB7C002B01D0FB7CBB747B681B688C
:102E580003F48043002B2FD02B492B4BD3F8883019
:102E680023F040527B689B6F1343C1F888307B681E
:102E78009B6FB3F1805F0DD17B6804330221184644
:102E880000F044F80346FB74FB7C002B14D0FB7C59
:102E9800BB7411E07B689B6FB3F1005F0CD17B685A
:102EA80020330221184600F021F90346FB74FB7C0D
:102EB800002B01D0FB7CBB747B681B6803F40043C8
:102EC800002B0AD01049104BD3F8883023F08042E9
:102ED8007B68DB6F1343C1F888307B681B6803F499
:102EE8008033002B0BD00849074BD3F8883023F0E8
:102EF80000427B68D3F880301343C1F88830BB7C2C
:102F080018461837BD4680BD0010024080B584B011
:102F180000AF786039600023FB73734BDB6803F004
:102F28000303002B18D0704BDB6803F003027B68A7
:102F38001B689A420DD17B681B68002B09D06A4B2D
:102F4800DB681B0903F007035A1C7B685B689A421D
:102F580044D00123FB7341E07B681B68022B0CD033
:102F6800032B13D0012B20D15F4B1B6803F0020306
:102F7800002B1DD10123FB731AE05B4B1B6803F484
:102F88008063002B16D10123FB7313E0564B1B689B
:102F980003F40033002B0FD1534B1B6803F4802339
:102FA800002B09D10123FB7306E00123FB7304E026
:102FB80000BF02E000BF00E000BFFB7B002B0DD18B
:102FC8004948494BDB6823F073027B6819687B68C2
:102FD8005B68013B1B010B431343C360FB7B002B66
:102FE8007DD1414A404B1B6823F080631360FDF795
:102FF800D7FDB86009E0FDF7D3FD0246BB68D31AD8
:10300800022B02D90323FB7305E0374B1B6803F03F
:103018000063002BEFD1FB7B002B60D13B68002BBA
:1030280011D13148304B1B6923F41F3323F440730B
:103038007A68926811027A68D268120952040A43BF
:103048001343036127E03B68012B12D12648264B26
:103058001B6923F4C00323F4FE437A6892681102C3
:103068007A6812695208013A52050A431343036108
:1030780011E01D481C4B1B6923F0C06323F4FE4379
:103088007A68926811027A6852695208013A5206BF
:103098000A4313430361144A134B1B6843F08063CC
:1030A8001360FDF77DFDB86009E0FDF779FD024684
:1030B800BB68D31A022B02D90323FB7305E00A4B22
:1030C8001B6803F00063002BEFD0FB7B002B06D1BD
:1030D8000549054B1A697B689B6913430B61FB7BA8
:1030E80018461037BD4680BD0010024080B584B038
:1030F80000AF786039600023FB73684BDB6803F02E
:103108000303002B18D0654BDB6803F003027B68D0
:103118001B689A420DD17B681B68002B09D05F4B56
:10312800DB681B0903F007035A1C7B685B689A423B
:1031380044D00123FB7341E07B681B68022B0CD051
:10314800032B13D0012B20D1544B1B6803F002032F
:10315800002B1DD10123FB731AE0504B1B6803F4AD
:103168008063002B16D10123FB7313E04B4B1B68C4
:1031780003F40033002B0FD1484B1B6803F4802362
:10318800002B09D10123FB7306E00123FB7304E044
:1031980000BF02E000BF00E000BFFB7B002B0DD1A9
:1031A8003E483E4BDB6823F073027B6819687B68F6
:1031B8005B68013B1B010B431343C360FB7B002B84
:1031C80067D1364A354B1B6823F080531360FDF7EF
:1031D800E7FCB86009E0FDF7E3FC0246BB68D31AD8
:1031E800022B02D90323FB7305E02C4B1B6803F069
:1031F8000053002BEFD1FB7B002B4AD13B68002BFF
:1032080011D12648254B5B6923F41F3323F44073FF
:103218007A68926811027A68D268120952040A43DD
:103228001343436111E01D481C4B5B6923F0C063E5
:1032380023F4FE437A68926811027A681269520888
:10324800013A52060A4313434361144A134B1B685D
:1032580043F080531360FDF7A3FCB86009E0FDF765
:103268009FFC0246BB68D31A022B02D90323FB73C7
:1032780005E00A4B1B6803F00053002BEFD0FB7BE3
:10328800002B06D10549054B5A697B685B691343D6
:103298004B61FB7B18461037BD4680BD00100240CD
:1032A80080B582B000AF78607B68002B01D1012324
:1032B80040E07B689B6F002B06D17B68002283F877
:1032C80074207868FDF752FB7B6824229A677B6834
:1032D8001B687A681268126822F001021A6078681E
:1032E80000F02CF80346012B01D1012322E07B6872
:1032F8005B6A002B02D0786800F0A4FA7B681B6830
:103308007A681268526822F490425A607B681B6897
:103318007A681268926822F02A029A607B681B68B1
:103328007A681268126842F001021A60786800F040
:103338002BFB034618460837BD4680BDB0B588B09C
:1033480000AF78600023BB767B689A687B681B694E
:103358001A437B685B691A437B68DB691343FB612B
:103368007B681A687B681B681968AC4B0B40F96965
:103378000B4313607B681B687A681268526822F4F2
:1033880040517A68D2680A435A607B689B69FB613E
:103398007B681B68A24A934204D07B681B6AFA695F
:1033A8001343FB617B681B687A681268926822F491
:1033B8003061FA690A439A607B681B68994A9342AC
:1033C80022D1994BD3F8883003F00303032B17D885
:1033D80001A252F823F000BFF1330008FD330008C2
:1033E800F7330008033400080123FB76E8E00223E2
:1033F800FB76E5E00423FB76E2E00823FB76DFE0DA
:103408001023FB7600BFDBE07B681B68874A93428A
:1034180034D1854BD3F8883003F00C030C2B29D812
:1034280001A252F823F000BF653400087D3400087B
:103438007D3400087D340008713400087D340008AC
:103448007D3400087D3400086B3400087D340008A2
:103458007D3400087D340008773400080023FB76AB
:10346800AEE00223FB76ABE00423FB76A8E008235A
:10347800FB76A5E01023FB7600BFA1E07B681B6804
:103488006B4A934220D1684BD3F8883003F030035D
:10349800102B0FD0102B02D8002B05D010E0202BBA
:1034A80005D0302B09D00BE00023FB7688E00223FF
:1034B800FB7685E00423FB7682E00823FB767FE039
:1034C8001023FB7600BF7BE07B681B68594A934258
:1034D80020D1554BD3F8883003F0C003402B0FD0D0
:1034E800402B02D8002B05D010E0802B05D0C02B34
:1034F80009D00BE00023FB7662E00223FB765FE055
:103508000423FB765CE00823FB7659E01023FB7666
:1035180000BF55E07B681B68474A934224D1424B61
:10352800D3F8883003F44073B3F5807F12D0B3F535
:10353800807F02D8002B07D012E0B3F5007F06D0B9
:10354800B3F5407F09D00BE00023FB7638E0022377
:10355800FB7635E00423FB7632E00823FB762FE088
:103568001023FB7600BF2BE07B681B682C4A934234
:1035780024D12D4BD3F8883003F44063B3F5806F22
:1035880012D0B3F5806F02D8002B07D012E0B3F544
:10359800006F06D0B3F5406F09D00BE00023FB762F
:1035A8000EE00223FB760BE00423FB7608E00823F9
:1035B800FB7605E01023FB7600BF01E01023FB76C5
:1035C8007B681B68164A934240F08080FB7E082B7C
:1035D80036D801A252F823F005360008493600080B
:1035E8000D36000849360008133600084936000829
:1035F80049360008493600081B360008FFF714F959
:10360800786122E00D4B7B611FE0FFF777F8786166
:103618001BE04FF400437B6117E000BFF369FFEF45
:103628000080004000380140001002400044004083
:1036380000480040004C0040005000400024F400C6
:1036480000237B610123BB7600BF7B69002B00F060
:10365800EB807B685A6813465B001A447B699A4280
:1036680005D87B685B681A037B699A4202D20123FA
:10367800BB76D9E07B691A464FF000031D0245EA84
:10368800126514027B685B685B081A464FF00003FA
:10369800A01845EB03017B685B684FF000041A46ED
:1036A8002346FCF78DFD03460C463B613B69B3F5A9
:1036B800407F08D33B69B3F5801F04D27B681B6841
:1036C8003A69DA60B0E00123BB76ADE07B68DB697C
:1036D800B3F5004F5CD1FB7E082B28D801A252F825
:1036E80023F000BF113700081937000821370008F8
:1036F80037370008273700083737000837370008FA
:10370800373700082F370008FFF78EF8786113E085
:10371800FFF7A0F878610FE0494B7B610CE0FEF7FA
:10372800EDFF786108E04FF400437B6104E000237B
:103738007B610123BB7600BF7B69002B74D07B695A
:103748005A007B685B685B081A447B685B68B2FB5D
:10375800F3F39BB23B613B690F2B16D93B69B3F579
:10376800803F12D23B699BB223F00F03FB813B6978
:103778005B089BB203F007039AB2FB891343FB81F2
:103788007B681B68FA89DA604EE00123BB764BE060
:10379800FB7E082B27D801A252F823F0C93700086E
:1037A800D1370008D9370008EF370008DF3700089D
:1037B800EF370008EF370008EF370008E737000851
:1037C800FFF732F8786113E0FFF744F878610FE00B
:1037D8001B4B7B610CE0FEF791FF786108E04FF42A
:1037E80000437B6104E000237B610123BB7600BFBB
:1037F8007B69002B18D07B685B685A087B691A4480
:103808007B685B68B2FBF3F39BB23B613B690F2BB0
:1038180008D93B69B3F5803F04D27B681B683A69D5
:10382800DA6001E00123BB767B6800225A667B6878
:1038380000229A66BB7E18462037BD46B0BD00BF41
:103848000024F40080B483B000AF78607B685B6AC2
:1038580003F00103002B0AD07B681B687A681268A2
:10386800526822F400317A68926A0A435A607B6887
:103878005B6A03F00203002B0AD07B681B687A6836
:103888001268526822F480317A68D26A0A435A6010
:103898007B685B6A03F00403002B0AD07B681B6813
:1038A8007A681268526822F480217A68126B0A4397
:1038B8005A607B685B6A03F00803002B0AD07B68B8
:1038C8001B687A681268526822F400417A68526B61
:1038D8000A435A607B685B6A03F01003002B0AD026
:1038E8007B681B687A681268926822F480517A684B
:1038F800926B0A439A607B685B6A03F02003002B93
:103908000AD07B681B687A681268926822F40051B2
:103918007A68D26B0A439A607B685B6A03F040035B
:10392800002B1AD07B681B687A681268526822F4E8
:1039380080117A68126C0A435A607B681B6CB3F575
:10394800801F0AD17B681B687A681268526822F463
:10395800C0017A68526C0A435A607B685B6A03F05C
:103968008003002B0AD07B681B687A68126852684B
:1039780022F400217A68926C0A435A6000BF0C371F
:10398800BD465DF8047B704780B586B002AF7860AD
:103998007B680022C3F88020FDF702F9F8607B6895
:1039A8001B681B6803F00803082B0ED16FF07E43D9
:1039B8000093FB6800224FF40011786800F02DF89E
:1039C8000346002B01D0032323E07B681B681B6898
:1039D80003F00403042B0ED16FF07E430093FB68C1
:1039E80000224FF48001786800F017F80346002B96
:1039F80001D003230DE07B6820229A677B68202290
:103A0800DA677B6800221A667B68002283F87420D4
:103A1800002318461037BD4680BD80B584B000AF7E
:103A2800F860B9603B601346FB715EE0BB69B3F1B7
:103A3800FF3F5AD0FDF7B4F802463B68D21ABB697B
:103A48009A4202D8BB69002B1BD1FB681B68FA6835
:103A58001268126822F4D0721A60FB681B68FA6850
:103A68001268926822F001029A60FB6820229A6725
:103A7800FB682022DA67FB68002283F8742003239E
:103A880043E0FB681B681B6803F00403002B2CD081
:103A9800FB681B68DB6903F40063B3F5006F24D18E
:103AA800FB681B684FF400621A62FB681B68FA68BF
:103AB8001268126822F4D0721A60FB681B68FA68F0
:103AC8001268926822F001029A60FB6820229A67C5
:103AD800FB682022DA67FB682022C3F88020FB6895
:103AE800002283F8742003230FE0FB681B68DA695F
:103AF800BB681A40BB689A420CBF01230023DBB2A3
:103B08001A46FB799A4291D0002318461037BD46D1
:103B180080BD0000DFF834D0FCF7A8FF002103E0E7
:103B28000B4B5B58435004310A480B4B42189A42DE
:103B3800F6D30A4A02E0002342F8043B084B9A42B3
:103B4800F9D300F011F8FCF7DBFCFEE70080012058
:103B5800383C0008000000200C0000200C00002069
:103B680020010020FEE7000070B50D4E0D4CA41B8F
:103B7800A4100025A54209D10B4E0C4C00F020F8EA
:103B8800A41BA4100025A54205D170BD56F8253008
:103B980098470135EEE756F8253098470135F2E7A2
:103BA800303C0008303C0008303C0008343C000839
:103BB80002440346934200D1704703F8011BF9E71A
:103BC800F8B500BFF8BC08BC9E467047F8B500BF02
:083BD800F8BC08BC9E467047D2
:103BE00000000000000000000102030406070809AD
:103BF0000000000001020304A0860100400D030044
:103C0000801A060000350C0040420F0080841E0020
:103C100000093D0000127A000024F40000366E0115
:083C20000048E801006CDC0221
:083C2800D0C5FF7F0100000080
:043C3000AD010008DA
:043C340089010008FA
:0C3C380000093D00100000000100000029
:0400000508003B1D97
:00000001FF
