:020000040800F2
:10000000005000201D590008F1100008F7100008EA
:10001000FD1000080311000809110008000000008D
:10002000000000000000000000000000B1480008CF
:100030000F11000800000000814A0008C94A0008AA
:100040006559000865590008655900086559000898
:100050006559000865590008655900086559000888
:100060006559000865590008655900081D11000808
:100070006559000865590008655900086559000868
:100080006559000865590008655900086559000858
:10009000311100084511000865590008655900082C
:1000A000655900085911000865590008655900088C
:1000B0006D11000865590008655900086559000868
:1000C0006559000865590008655900086559000818
:1000D0006559000865590008655900086559000808
:1000E00065590008655900086559000800000000BE
:1000F0000000000000000000000000000000000000
:0C01000000000000000000005FF808F1A3
:1001100010B5054C237833B9044B13B10448AFF341
:1001200000800123237010BD880000200000000023
:10013000C059000808B5034B1BB103490348AFF38E
:10014000008008BD000000008C000020C05900089D
:1001500080B485B000AFF860B9607A60FB68064A89
:100160001A60BB68054A1A607B6880221A6000BF6B
:100170001437BD4680BC7047A4000020F800002062
:1001800080B584B000AF78604C4B4D4A0021786850
:1001900001F0A3FA0346002B01D000F0DBFD0023A1
:1001A000FB60474B1B68474A1288934240F08180AE
:1001B000424B5B781A2B7CD1404B9B78032B0BD1A5
:1001C0003E4BDB78042B07D83C4B1B79072B03D81D
:1001D0003D4B01221A601EE0384B9B78022B0BD15D
:1001E000364BDB78002B07D1344B1B79012B03D81E
:1001F000364B01221A600EE0304B9B78002B07D162
:100200002E4BDB78002B03D12C4B1B79002B02D01B
:10021000FB680133FB60294B5B79032B0BD1274B28
:100220009B79042B07D8254BDB79072B03D8264B6A
:1002300002221A601EE0214B5B79022B0BD11F4B6F
:100240009B79002B07D11D4BDB79012B03D81F4B6A
:1002500002221A600EE0194B5B79002B07D1174B75
:100260009B79002B03D1154BDB79002B02D0FB6867
:100270000133FB60164B10221A600023BB600BE0B9
:100280000E4ABB6813441978124ABB6813440A46E5
:100290001A70BB680133BB60BB68072BF0DDFB68DD
:1002A000002B03DD0B4B1C225A7002E0094B1B2272
:1002B0005A7000BF1037BD4680BD00BFB01C002083
:1002C000181D002008000020F8020020FC02002079
:1002D000001D00200000002080B485B000AF7860D1
:1002E0000023FB6002E0FB680133FB60FA687B6877
:1002F0009A42F8DB00BF1437BD4680BC704700004F
:1003000080B485B000AFF860B9607A603B60FB688C
:10031000D8B21B49FA6813469B0013440B440246AB
:100320001A707B68D8B21649FA6813469B001344CA
:100330000B44013302461A70BB68D8B21049FA6800
:1003400013469B0013440B44023302461A703B6869
:10035000D8B20B49FA6813469B0013440B4403338D
:1003600002461A700649FA6813469B0013440B4470
:10037000043300221A7000BF1437BD4680BC70479A
:100380005410002080B485B000AF78607B68282BC3
:1003900001DD28237B600023FB6044E02649FA68E6
:1003A00013469B0013440B4418782449FA681346FB
:1003B0009B0013440B4402461A700123BB602CE0DF
:1003C0007B68282B14D01C49FA6813469B00134401
:1003D000CA18BB6813441B781A467B6803FB02F3F8
:1003E000174A82FB03121211DB17D31ADAB208E0A4
:1003F0001149FA6813469B001344CA18BB6813449A
:100400001A780E48F9680B469B000B44C118BB686C
:100410000B441A70BB680133BB60BB68042BCFDD93
:10042000FB680133FB60FB68262BB7DD00BF143788
:10043000BD4680BC704700BF54100020181100203A
:100440006766666680B586B000AF00237B610023D7
:100450003B6140E033493A6913469B0013440B4427
:1004600001331B7819062F483A6913469B00134441
:10047000034402331B781B0419432A483A69134684
:100480009B001344034403331B781B020B437B6024
:100490001F23FB6019E00122FB6802FA03F31A46EE
:1004A0007B681340002B05D01F4A7B69392122F855
:1004B000131004E01C4A7B69192122F813107B6990
:1004C00001337B61FB68013BFB60FB68002BE2DAD8
:1004D0003B6901333B613B69262BBBDD0023BB60DD
:1004E0000AE0114A7B69002122F813107B6901336D
:1004F0007B61BB680133BB60BB68312BF1DD7B697D
:100500009BB2094A0821094802F086FE00BF084B49
:100510001B68002BFBD0064B00221A6000BF183767
:10052000BD4680BD1811002040120020B81C0020DC
:100530000003002080B582B000AF78600821054834
:1005400003F004F8044B01221A6000BF0837BD46CF
:1005500080BD00BFB81C002000030020B0B596B0DD
:1005600000AF00F013FE00F09DF800F0EFF900F08E
:10057000CFF900F0DDF800F0A1F900F02BF94148C7
:1005800001F067F802213F4801F0B8F93E4B08221C
:100590001A613D4B00225A603B4B00229A603A4B55
:1005A0000022DA60384B01221A60374B00221A759C
:1005B00000237B6508E00023FF22FF21786DFFF711
:1005C0009FFE7B6D01337B657B6D262BF3DD142055
:1005D000FFF7D8FEFFF736FFC82000F009FE002025
:1005E000FFF7D0FEFFF72EFFC82000F001FE142019
:1005F000FFF7C8FEFFF726FFC82000F0F9FD002036
:10060000FFF7C0FEFFF71EFFC82000F0F1FD1F4BF3
:1006100007F138041D460FCD0FC495E8070084E8A4
:10062000070007F138030021184603F0D7FF024600
:10063000174B1A60174B07F11C041D460FCD0FC452
:1006400095E8070084E8070007F11C03002118461D
:1006500003F0C4FF0246104B1A60104B3C461D4687
:100660000FCD0FC495E8070084E807003B46002142
:10067000184603F0B3FF0246094B1A6003F0A7FFC8
:10068000FEE700BFDC110020001D0020E459000837
:1006900050100020085A0008781D0020285A000831
:1006A000A81C002080B590B000AF07F118032822E5
:1006B0000021184605F07CF93B1D00221A605A60A3
:1006C0009A60DA601A610123BB614FF48033FB61E9
:1006D0004FF400333B620123BB6202237B634FF480
:1006E0008033BB634FF4E013FB6307F11803184634
:1006F00002F04AF80346002B01D000F02BFB0F2339
:100700007B600223BB600023FB604FF480633B618E
:1007100000237B613B1D0221184602F0B5FA034617
:10072000002B01D000F016FB00BF4037BD4680BD56
:1007300080B58AB000AF254B254A1A60234B0C22A6
:100740005A60224B00229A60204B0022DA601F4B35
:100750004FF440321A611D4B00225A611B4B00229C
:100760001A761A4B00225A76184B00229A76174BAB
:100770000022DA76154B00221A77144B00225A77A2
:10078000124800F057FD0346002B01D000F0E2FABA
:1007900001233B620A237B6100233B6100233B6012
:1007A00000237B600023BB600023FB600023BB6150
:1007B0000123FB6100237B623B461946034800F09E
:1007C0007FFE00BF2837BD4680BD00BFDC11002082
:1007D0000064004080B58EB000AF07F1280300220E
:1007E0001A605A609A60DA6007F1200300221A60EA
:1007F0005A603B1D00221A605A609A60DA601A61E2
:100800005A619A612C4B4FF080421A602A4B0022A9
:100810005A60294B00229A60274B5922DA60264BF6
:1008200000221A61244B80229A61234802F0FAFBCD
:100830000346002B01D000F08DFA4FF48053BB62C9
:1008400007F1280319461C4803F004F90346002B5E
:1008500001D000F07FFA184802F086FC0346002B16
:1008600001D000F077FA00233B6200237B6207F19E
:1008700020031946104803F047FD0346002B01D022
:1008800000F068FA60237B600023BB600023FB60FC
:1008900000237B613B1D08221946074803F01CF822
:1008A0000346002B01D000F055FA034800F04EFB40
:1008B00000BF3837BD4680BDB81C002080B500AFF2
:1008C000114B124A1A60104B4FF4E1325A600E4B32
:1008D00000229A600C4B0022DA600B4B00221A6156
:1008E000094B0C225A61084B00229A61064B0022E8
:1008F000DA61054803F078FD0346002B01D000F0D3
:1009000029FA00BF80BD00BF641C002000380140F0
:1009100080B582B000AF0C4A0B4B5B6943F001031A
:100920005361094B5B6903F001037B607B68002224
:1009300005210B2001F0E5FA0B2001F0FEFA00BFC3
:100940000837BD4680BD00BF0010024080B588B0AA
:1009500000AF07F1100300221A605A609A60DA6053
:10096000334A334B9B6943F010039361304B9B69CF
:1009700003F01003FB60FB682D4A2D4B9B6943F08D
:10098000200393612A4B9B6903F02003BB60BB6883
:10099000274A274B9B6943F004039361244B9B69CF
:1009A00003F004037B607B68214A214B9B6943F081
:1009B000080393611E4B9B6903F008033B603B688F
:1009C00000224FF400511B4801F0ADFE0022182117
:1009D000194801F0A8FE4FF400533B6101237B61ED
:1009E0000023BB610223FB6107F110031946114884
:1009F00001F028FD18233B6101237B610023BB61CB
:100A00000223FB6107F1100319460B4801F01AFDA0
:100A100020233B6100237B610023BB6107F11003AE
:100A20001946054801F00EFD00BF2037BD4680BDC8
:100A300000100240001001400008014080B584B061
:100A400000AF78603D4B1B68012B03D03B4B1B680C
:100A5000022B6ED1394B1A6813465B0013440133E5
:100A6000374AD35C012B2AD14FF40051354801F0AD
:100A700072FE01221021344801F055FE0023FB6074
:100A800014E001220821304801F04DFE4FF4FA70C5
:100A9000FFF722FC002208212B4801F044FE4FF40E
:100AA000FA70FFF719FCFB680133FB60FB6848F63E
:100AB000B7029342E5DD214B46221A6039E01F4B15
:100AC0001A6813465B00134401331D4AD35C002BA4
:100AD0002FD14FF400511B4801F03DFE00221021A0
:100AE000194801F020FE18E001220821164801F003
:100AF0001AFE4FF4FA70FFF7EFFB002208211248AC
:100B000001F011FE4FF4FA70FFF7E6FB20210E48CA
:100B100001F0F2FD0346002B07D120210A4801F025
:100B2000EBFD0346002BDFD000E000BF034B452266
:100B30001A60012003F09EFD84E700BFFC02002044
:100B4000B01C0020001001400008014090B585B0A5
:100B500000AF78602A4B1A682A4B1B689A422ED045
:100B6000284B1B68264A13600023FB6024E0244BBB
:100B70001A68254913465B0013449B000B44186810
:100B80001F4B1A68204913465B0013449B000B441B
:100B900004331C681A4B1A681B4913465B00134444
:100BA0009B000B4408331B6822460146F868FFF798
:100BB000A7FBFB680133FB60FB68262BD7DD134BDB
:100BC0001B68002B17D0114B1A6813465B001344A7
:100BD0000F4AD35C1A460F4B1A600C4B1A68134627
:100BE0005B00134401330A4AD35C1A46054B1A6072
:100BF000064B00221A600A2003F03CFDAAE700BF62
:100C0000100000200C00002014000020F80200203A
:100C1000B01C00207400002090B587B000AF786051
:100C200000237B6101233B610023FB600023BB6049
:100C300024E03C4B1A683C4913465B0013449B007C
:100C40000B441868374B1A68374913465B00134446
:100C50009B000B4404331C68324B1A68324913461C
:100C60005B0013449B000B4408331B68224601467B
:100C7000B868FFF745FBBB680133BB60BB68262B38
:100C8000D7DD2A4B1B68022B0BDC284B1A68134656
:100C90009B0013449B001846FFF774FB0023FB6086
:100CA0003AE0224B1B68032B1DD10023FB603B69FC
:100CB000002B0AD07B6901337B617B69132BD4BF86
:100CC00001230023DBB23B6109E07B69013B7B61CF
:100CD0007B69002BD4BF01230023DBB23B61786921
:100CE000FFF750FB18E0114B1B68042B14D1FB6875
:100CF000002B03D11420FFF745FB05E0FB68052B13
:100D000002D10020FFF73EFBFB68092B02DCFB68E9
:100D1000013300E00023FB60FFF794FB322003F077
:100D2000A9FCAEE710000020140000207400002091
:100D300080B582B000AF78607B681B68044A93423C
:100D400001D100F039FA00BF0837BD4680BD00BFB1
:100D5000002C014080B400AF72B6FEE780B584B0CD
:100D600000AF184A174B9B6943F001039361154B81
:100D70009B6903F00103BB60BB68124A114BDB693E
:100D800043F08053D3610F4BDB6903F080537B60EA
:100D90007B6800220F216FF0010001F0B2F80A4BCE
:100DA0005B68FB60FB6823F0E063FB60FB6843F07B
:100DB0000073FB60044AFB68536000BF1037BD46F8
:100DC00080BD00BF001002400000014080B58AB025
:100DD00000AF786007F1140300221A605A609A602D
:100DE000DA607B681B682D4A934253D12C4A2C4B06
:100DF000DB6943F00073D361294BDB6903F00073B7
:100E00003B613B69264A264B9B6943F0080393618B
:100E1000234B9B6903F00803FB60FB684FF480736E
:100E20007B610023BB610023FB6107F114031946BA
:100E30001C4801F007FB4FF400737B610223BB6188
:100E400003233B6207F114031946164801F0FAFA2E
:100E5000154B5B687B627B6A23F4C0437B627B6AD1
:100E600043F0E0637B627B6A43F480437B620E4A1B
:100E70007B6A536000220521142001F042F81420FF
:100E800001F05BF800220521152001F03AF8152049
:100E900001F053F800BF2837BD4680BD0064004014
:100EA00000100240000C01400000014080B584B0F9
:100EB00000AF78607B681B68B3F1804F3BD1204A5C
:100EC0001F4BDB6943F00103D3611D4BDB6903F06A
:100ED0000103FB60FB681B4B1B4A1A60194B102275
:100EE0005A60184B00229A60164B8022DA60154B2C
:100EF0004FF480721A61134B4FF480625A61114BA8
:100F000000229A610F4B0022DA610E4801F024F8AA
:100F10000346002B01D0FFF71DFF7B68094ADA6208
:100F2000084A7B685362002205211C2000F0E9FF7B
:100F30001C2001F002F800BF1037BD4680BD00BF85
:100F400000100240341D00200800024080B588B027
:100F500000AF786007F1100300221A605A609A60AF
:100F6000DA607B681B68B3F1804F17D10D4A0D4BD7
:100F70009B6943F0040393610A4B9B6903F00403EC
:100F8000FB60FB6804233B6102237B610223FB615E
:100F900007F110031946044801F054FA00BF203746
:100FA000BD4680BD001002400008014080B588B0F9
:100FB00000AF786007F1100300221A605A609A604F
:100FC000DA607B681B681C4A934231D11B4A1B4B79
:100FD0009B6943F480439361184B9B6903F48043FE
:100FE000FB60FB68154A154B9B6943F00403936152
:100FF000124B9B6903F00403BB60BB684FF40073A2
:101000003B6102237B610323FB6107F11003194657
:101010000B4801F017FA4FF480633B6100237B61BA
:101020000023BB6107F110031946054801F00AFAD5
:1010300000BF2037BD4680BD00380140001002408F
:101040000008014080B58CB000AF78600023FB62DF
:101050000023BB6200227968192000F052FF19209A
:1010600000F06BFF1E4A1E4B9B6943F400639361C3
:101070001B4B9B6903F40063FB60FB6807F11002E4
:1010800007F114031146184601F07EFF01F068FFD6
:10109000F862FB6A134AA2FB03239B0C013BBB6271
:1010A000114B124A1A60104B40F2E732DA600E4AD6
:1010B000BB6A53600C4B00221A610B4B00229A60F2
:1010C000094801F0AFFF0346002B04D1064801F0A8
:1010D000F9FF034600E0012318463037BD4680BDC6
:1010E0000010024083DE1B437C1D0020002C0140C9
:1010F00080B400AFFEE780B400AFFEE780B400AF7D
:10110000FEE780B400AFFEE780B400AFFEE780B436
:1011100000AF00BFBD4680BC7047000080B500AF87
:10112000024801F04FF800BF80BD00BF341D002011
:1011300080B500AF024800F006FC00BF80BD00BFD4
:10114000DC11002080B500AF024800F0FCFB00BFBE
:1011500080BD00BFDC11002080B500AF024802F066
:10116000B3FA00BF80BD00BF7C1D002080B500AF7A
:10117000024802F0A9FA00BF80BD00BFB81C0020E1
:1011800080B400AF00BFBD4680BC704780B500AFE3
:10119000084A084B1B6843F010031360032000F05B
:1011A000A5FE0020FFF74EFFFFF7D8FD00231846ED
:1011B00080BD00BF0020024080B400AF054B1B780B
:1011C0001A46054B1B681344034A136000BFBD4613
:1011D00080BC704780000020C41D002080B400AF98
:1011E000024B1B681846BD4680BC7047C41D0020DA
:1011F00080B584B000AF7860FFF7F0FFB8607B681F
:10120000FB60FB68B3F1FF3F05D0094B1B781A4622
:10121000FB681344FB6000BFFFF7E0FF0246BB68BA
:10122000D21AFB689A42F7D300BF1037BD4680BD83
:101230008000002080B584B000AF78607B68002B10
:1012400001D101231BE17B6893F82030DBB2002B36
:1012500031D17B688C4A1A647B688C4A5A647B68FB
:101260008B4A9A647B688B4ADA647B688A4A9A6202
:101270007B688A4ADA627B68894A1A637B68894A92
:101280005A637B68884A9A637B68884ADA637B681A
:10129000874A1A657B68874A5A657B68864A9A65D9
:1012A0007B68DB6D002B02D17B68844ADA657B6842
:1012B000DB6D786898477B681B687A6812681268EB
:1012C00042F001021A60FFF789FFF86012E0FFF7B1
:1012D00085FF0246FB68D31A0A2B0BD97B685B6A31
:1012E00043F400327B685A627B68052283F8202031
:1012F0000123C4E07B681B685B6803F00103002BDB
:10130000E5D07B681B687A681268126822F00202D6
:101310001A60FFF763FFF86012E0FFF75FFF024615
:10132000FB68D31A0A2B0BD97B685B6A43F4003243
:101330007B685A627B68052283F8202001239EE0A7
:101340007B681B685B6803F00203002BE5D17B68B8
:101350001B7E012B08D17B681B687A6812681268B3
:1013600042F080021A6007E07B681B687A681268A6
:10137000126822F080021A607B685B7E012B08D124
:101380007B681B687A681268126842F040021A6033
:1013900007E07B681B687A681268126822F04002D6
:1013A0001A607B689B7E012B08D17B681B687A687A
:1013B0001268126842F020021A6007E07B681B681E
:1013C0007A681268126822F020021A607B68DB7E5D
:1013D000012B08D17B681B687A681268126822F0BA
:1013E00010021A6007E07B681B687A68126812684E
:1013F00042F010021A607B681B7F012B08D17B68CA
:101400001B687A681268126842F008021A6007E0E6
:101410007B681B687A681268126822F008021A60FA
:101420007B685B7F012B08D17B681B687A68126838
:10143000126842F004021A6007E07B681B687A6851
:101440001268126822F004021A607B681B687A68CE
:1014500091687A68D26811437A68126911437A6890
:10146000526911437A685268013A0A43DA617B682B
:1014700000225A627B68012283F82020002318464C
:101480001037BD4680BD00BF81010008311D000836
:10149000431D0008551D0008C51C0008D71C000886
:1014A000E91C0008FB1C00080D1D00081F1D00089A
:1014B000671D0008791D00088B1D0008CD0D000870
:1014C00080B487B000AF786039607B681B687B614F
:1014D0007B6893F82030FB74FB7C012B03D0FB7CF2
:1014E000022B40F0AA807B69D3F8003243F001025E
:1014F0007B69C3F800223B685B6903F01F0301228C
:1015000002FA03F3FB607B69D3F81C22FB68DB4320
:101510001A407B69C3F81C223B68DB69002B23D18E
:101520007B69D3F80C22FB68DB431A407B69C3F864
:101530000C223B685A693B68DB6819043B685B68AE
:101540009BB219437B69483243F832103B685B69B0
:101550003A68926811043A68126892B20A4379694B
:101560004833DB000B445A603B68DB69012B22D116
:101570007B69D3F80C22FB681A437B69C3F80C2201
:101580003B685A693B681B6819043B685B689BB2FF
:1015900019437B69483243F832103B685B693A680B
:1015A000926811043A68D26892B20A437969483362
:1015B000DB000B445A603B689B69002B09D17B69B7
:1015C000D3F80422FB68DB431A407B69C3F804228A
:1015D00007E07B69D3F80422FB681A437B69C3F8F0
:1015E00004223B681B69002B09D17B69D3F81422C4
:1015F000FB68DB431A407B69C3F8142207E07B6970
:10160000D3F81422FB681A437B69C3F814223B68A1
:101610001B6A012B07D17B69D3F81C22FB681A4394
:101620007B69C3F81C227B69D3F8003223F00102E6
:101630007B69C3F80022002306E07B685B6A43F401
:1016400080227B685A62012318461C37BD4680BC45
:10165000704780B584B000AF78607B6893F8203025
:10166000DBB2012B2ED17B68022283F820207B681D
:101670001B687A681268126822F001021A60FFF78C
:10168000ADFDF86012E0FFF7A9FD0246FB68D31A32
:101690000A2B0BD97B685B6A43F400327B685A6281
:1016A0007B68052283F82020012312E07B681B68F9
:1016B0005B6803F00103002BE5D17B6800225A62CE
:1016C000002306E07B685B6A43F400227B685A6271
:1016D000012318461037BD4680BD80B487B000AFE7
:1016E000F860B9607A603B60FB6893F82030FB7566
:1016F000FB7D012B03D0FB7D022B40F0F380BB6808
:10170000002B0ED1FB681B68DB6803F00303002B82
:1017100016D1FB685B6A43F40012FB685A6201232E
:10172000E7E0FB681B681B6903F00303002B07D18C
:10173000FB685B6A43F40012FB685A620123D8E03D
:10174000FB681A68BB681B331B0113441B6803F05A
:1017500004027B689A607B689B68002B0CD1FB6855
:101760001A68BB681B331B0113441B685B0DC3F372
:101770000A027B681A600BE0FB681A68BB681B33BF
:101780001B0113441B68DB0823F060427B685A602E
:10179000FB681A68BB681B331B0113441B6803F00A
:1017A00002027B68DA60FB681A68BB681B331B01A6
:1017B000134404331B6803F00F027B681A61FB6853
:1017C0001A68BB681B331B01134404331B681B0AD4
:1017D000DAB27B689A61FB681A68BB681B331B012D
:1017E000134404331B681B0C9AB27B685A61FB6874
:1017F0001A68BB681B01134403F5DC731B68DAB27B
:101800003B681A703B680133FA681168BA681201C4
:101810000A4402F5DC721268120AD2B21A703B68EE
:101820000233FA681168BA6812010A4402F5DC72E0
:101830001268120CD2B21A703B680333FA6811684E
:10184000BA6812010A4402F5DC721268120ED2B2B2
:101850001A703B680433FA681168BA6812010A44C6
:1018600002F5DE721268D2B21A703B680533FA686C
:101870001168BA6812010A4402F5DE721268120A8F
:10188000D2B21A703B680633FA681168BA6812015E
:101890000A4402F5DE721268120CD2B21A703B686A
:1018A0000733FA681168BA6812010A4402F5DE7259
:1018B0001268120ED2B21A70BB68002B08D1FB68F6
:1018C0001B68FA681268D26842F02002DA6007E00A
:1018D000FB681B68FA681268126942F020021A61FC
:1018E000002306E0FB685B6A43F48022FB685A62CF
:1018F000012318461C37BD4680BC704780B485B0B4
:1019000000AF786039607B6893F82030FB73FB7B15
:10191000012B02D0FB7B022B09D17B681B687A6804
:10192000126851693A680A435A61002306E07B68ED
:101930005B6A43F480227B685A620123184614379D
:10194000BD4680BC704780B58AB000AF7860002388
:101950007B627B681B685B693B627B681B685B68BA
:10196000FB617B681B689B68BB617B681B68DB68ED
:101970007B617B681B681B693B617B681B689B699B
:10198000FB603B6A03F00103002B00F08380BB691E
:1019900003F00103002B25D07B681B6801229A60AD
:1019A000BB6903F00203002B04D07B689B6A786854
:1019B000984717E0BB6903F00403002B04D07B6A4F
:1019C00043F400637B620DE0BB6903F00803002B66
:1019D00004D07B6A43F480537B6203E07B685B6BDB
:1019E00078689847BB6903F48073002B26D07B6826
:1019F0001B684FF480729A60BB6903F40073002B7C
:101A000004D07B68DB6A7868984717E0BB6903F409
:101A10008063002B04D07B6A43F400537B620DE0AB
:101A2000BB6903F40063002B04D07B6A43F480435A
:101A30007B6203E07B689B6B78689847BB6903F423
:101A40008033002B26D07B681B684FF480329A606D
:101A5000BB6903F40033002B04D07B681B6B7868F0
:101A6000984717E0BB6903F48023002B04D07B6AFE
:101A700043F400437B620DE0BB6903F40023002BB9
:101A800004D07B6A43F480337B6203E07B68DB6BCA
:101A9000786898473B6A03F00803002B0CD07B69F9
:101AA00003F01003002B07D07B6A43F400737B62C2
:101AB0007B681B681022DA603B6A03F00403002B8A
:101AC0000CD07B6903F00803002B07D07B681B68F0
:101AD0000822DA607B685B6C786898473B6A03F0A1
:101AE0000203002B0AD07B681B68DB6803F003034A
:101AF000002B03D07B681B6C786898473B6A03F027
:101B00004003002B0CD03B6903F01003002B07D0DF
:101B10007B6A43F480637B627B681B6810221A61D6
:101B20003B6A03F02003002B0CD03B6903F0080351
:101B3000002B07D07B681B6808221A617B68DB6C6E
:101B4000786898473B6A03F01003002B0AD07B6843
:101B50001B681B6903F00303002B03D07B689B6C9D
:101B6000786898473B6A03F40033002B0CD0FB697C
:101B700003F01003002B07D07B681B6810225A600B
:101B80007B681B6D786898473B6A03F48033002BB1
:101B90000CD0FB6903F00803002B07D07B681B689F
:101BA00008225A607B685B6D786898473B6A03F44B
:101BB0000043002B75D0FB6903F00403002B6CD0AD
:101BC0003B6A03F48073002B08D0FB6803F0010329
:101BD000002B03D07B6A43F001037B623B6A03F472
:101BE0000073002B08D0FB6803F00203002B03D026
:101BF0007B6A43F002037B623B6A03F48063002B41
:101C000008D0FB6803F00403002B03D07B6A43F089
:101C100004037B623B6A03F40063002B3DD0FB6846
:101C200003F07003002B38D0FB6803F07003302BF7
:101C300017D0302B04D8102B09D0202B0CD024E047
:101C4000502B18D0602B1BD0402B0FD01DE07B6A8F
:101C500043F008037B6218E07B6A43F010037B6269
:101C600013E07B6A43F020037B620EE07B6A43F063
:101C700040037B6209E07B6A43F080037B6204E0FF
:101C80007B6A43F480737B6200BF7B681B687A6861
:101C90001268926922F070029A617B681B680422C4
:101CA0005A607B6A002B09D07B685A6A7B6A1A43A8
:101CB0007B685A627B689B6D7868984700BF2837BD
:101CC000BD4680BD80B483B000AF786000BF0C37E4
:101CD000BD4680BC704780B483B000AF786000BF61
:101CE0000C37BD4680BC704780B483B000AF7860CD
:101CF00000BF0C37BD4680BC704780B483B000AFD6
:101D0000786000BF0C37BD4680BC704780B483B09C
:101D100000AF786000BF0C37BD4680BC704780B410
:101D200083B000AF786000BF0C37BD4680BC704701
:101D300080B483B000AF786000BF0C37BD4680BC74
:101D4000704780B483B000AF786000BF0C37BD46E9
:101D500080BC704780B483B000AF786000BF0C37A0
:101D6000BD4680BC704780B483B000AF786000BFD0
:101D70000C37BD4680BC704780B483B000AF78603C
:101D800000BF0C37BD4680BC704780B483B000AF45
:101D9000786000BF0C37BD4680BC704780B485B00A
:101DA00000AF78607B6803F00703FB600C4BDB68D7
:101DB000BB60BA684FF6FF031340BB60FB681A02B2
:101DC000BB68134343F0BF6343F40033BB60044A72
:101DD000BB68D36000BF1437BD4680BC704700BFEE
:101DE00000ED00E080B400AF044BDB681B0A03F099
:101DF00007031846BD4680BC704700BF00ED00E0F9
:101E000080B483B000AF0346FB7197F90730002B15
:101E10000BDB084997F907305B09FA7902F01F02DA
:101E2000012000FA02F241F8232000BF0C37BD4622
:101E300080BC704700E100E080B483B000AF03468F
:101E40003960FB7197F90730002B0ADB0D4997F9D0
:101E500007303A68D2B21201D2B20B4483F80023A1
:101E60000AE00949FB7903F00F03043B3A68D2B258
:101E70001201D2B20B441A7600BF0C37BD4680BCAB
:101E8000704700BF00E100E000ED00E080B489B0E1
:101E900000AFF860B9607A60FB6803F00703FB618C
:101EA000FB69C3F10703042B28BF0423BB61FB6953
:101EB0000433062B02D9FB69033B00E000237B615E
:101EC0000122BB6902FA03F35A1EBB681A407B6900
:101ED0009A4001217B6901FA03F3591E7B680B408C
:101EE000134318462437BD4680BC704780B582B086
:101EF00000AF78607868FFF751FF00BF0837BD4634
:101F000080BD80B586B000AF0346B9607A60FB73D0
:101F100000237B61FFF766FF78617A68B9687869AA
:101F2000FFF7B4FF024697F90F3011461846FFF746
:101F300083FF00BF1837BD4680BD80B582B000AFBB
:101F40000346FB7197F907301846FFF759FF00BFAA
:101F50000837BD4680BD000080B485B000AF786012
:101F60000023FB607B68002B01D1012343E07B68E9
:101F70001B681A46224B1344224AA2FB03231B0967
:101F80009A007B681A647B681F4ADA637B680222C6
:101F900083F821207B681B681B68FB60FB6823F4C7
:101FA0007F5323F03003FB607B685A687B689B6833
:101FB0001A437B68DB681A437B681B691A437B689A
:101FC0005B691A437B689B691A437B68DB6913432F
:101FD000FA681343FB607B681B68FA681A607B68C9
:101FE00000229A637B68012283F821207B6800220B
:101FF00083F82020002318461437BD4680BC704764
:10200000F8FFFDBFCDCCCCCC0000024080B586B03F
:1020100000AFF860B9607A603B600023FB75FB6835
:1020200093F82030012B01D102234AE0FB68012202
:1020300083F82020FB6893F82130012B3AD1FB680C
:10204000022283F82120FB6800229A63FB681B6848
:10205000FA681268126822F001021A603B687A6816
:10206000B968F86800F0C0F9FB68DB6A002B08D09B
:10207000FB681B68FA681268126842F00E021A6068
:102080000FE0FB681B68FA681268126822F004020D
:102090001A60FB681B68FA681268126842F00A024C
:1020A0001A60FB681B68FA681268126842F0010245
:1020B0001A6005E0FB68002283F820200223FB75EC
:1020C000FB7D18461837BD4680BD000080B584B042
:1020D00000AF78600023FB737B6893F82130022BFC
:1020E00005D07B6804229A630123FB7357E07B6869
:1020F0001B687A681268126822F00E021A607B6808
:102100001B687A681268126822F001021A60264A77
:102110007B681B681946254B99422ED07B681B684B
:102120001946234B994226D07B681B681946214BE0
:1021300099421DD07B681B6819461F4B994214D0E9
:102140007B681B6819461D4B99420BD07B681B6846
:1021500019461B4B994202D14FF480130EE04FF009
:1021600080730BE04FF4803308E04FF4805305E0B8
:102170004FF4807302E0102300E0012353607B687A
:10218000012283F821207B68002283F820207B68CD
:102190005B6B002B03D07B685B6B78689847FB7B9D
:1021A00018461037BD4680BD0000024008000240BE
:1021B0001C0002403000024044000240580002402F
:1021C0006C00024080B584B000AF78607B68DB6B48
:1021D0001B68FB607B681B681B68BB607B681B6CB3
:1021E00004229A40FB681340002B55D0BB6803F0D3
:1021F0000403002B50D07B681B681B6803F020038E
:10220000002B07D17B681B687A681268126822F07D
:1022100004021A606D4A7B681B6819466C4B994230
:102220002ED07B681B6819466A4B994226D07B6882
:102230001B681946684B99421DD07B681B6819467C
:10224000664B994214D07B681B681946644B9942CF
:102250000BD07B681B681946624B994202D14FF440
:1022600080030EE04FF080630BE04FF4802308E022
:102270004FF4804305E04FF4806302E0402300E028
:10228000042353607B68DB6A002B00F09A807B6834
:10229000DB6A7868984794E07B681B6C02229A405E
:1022A000FB681340002B5CD0BB6803F00203002BDB
:1022B00057D07B681B681B6803F02003002B0BD1F1
:1022C0007B681B687A681268126822F00A021A603A
:1022D0007B68012283F821203C4A7B681B681946F1
:1022E0003B4B99422ED07B681B681946394B99426B
:1022F00026D07B681B681946374B99421DD07B68F6
:102300001B681946354B994214D07B681B681946E7
:10231000334B99420BD07B681B681946314B99426D
:1023200002D14FF400130EE04FF000730BE04FF4B6
:10233000003308E04FF4005305E04FF4007302E06F
:10234000202300E0022353607B68002283F82020D2
:102350007B689B6A002B34D07B689B6A78689847BF
:102360002FE07B681B6C08229A40FB681340002B0F
:1023700028D0BB6803F00803002B23D07B681B68C0
:102380007A681268126822F00E021A607B68DB6BB2
:102390007A68126C012101FA02F25A607B6801220C
:1023A0009A637B68012283F821207B68002283F8EE
:1023B00020207B681B6B002B04D07B681B6B78682C
:1023C000984700BF00BF1037BD4680BD00000240E7
:1023D000080002401C00024030000240440002405D
:1023E000580002406C00024080B485B000AFF86035
:1023F000B9607A603B60FB68DB6BFA68126C0121A4
:1024000001FA02F25A60FB681B683A685A60FB687E
:102410005B68102B08D1FB681B687A689A60FB68C0
:102420001B68BA68DA6007E0FB681B68BA689A60E4
:10243000FB681B687A68DA6000BF1437BD4680BC51
:102440007047000080B48BB000AF78603960002323
:102450007B6200233B6227E101227B6A02FA03F3DD
:10246000FB613B681A68FB691340BB61BA69FB6991
:102470009A4240F016813B685B68122B34D0122BD5
:102480000DD8022B2BD0022B04D8002B31D0012BDE
:102490001CD048E0032B43D0112B1BD043E0894ACA
:1024A000934226D0874A934206D8874A934220D047
:1024B000864A93421DD036E0854A934219D0854A18
:1024C000934216D0844A934213D02CE03B68DB68D9
:1024D0003B6228E03B68DB6804333B6223E03B68F7
:1024E000DB6808333B621EE03B68DB680C333B6211
:1024F00019E03B689B68002B02D104233B6212E089
:102500003B689B68012B05D108233B627B68FA6915
:102510001A6108E008233B627B68FA695A6102E0AD
:1025200000233B6200BFBB69FF2B01D87B6801E041
:102530007B6804337B61BB69FF2B02D87B6A9B00FD
:1025400002E07B6A083B9B003B617B691A680F21B4
:102550003B6901FA03F3DB431A40396A3B6901FA2C
:1025600003F31A437B691A603B685B6803F080538E
:10257000002B00F09680594A584B9B6943F00103A9
:102580009361564B9B6903F00103BB60BB68544ADF
:102590007B6A9B08023352F82330FB607B6A03F0AE
:1025A00003039B000F2202FA03F3DB43FA68134094
:1025B000FB607B684B4A934213D07B684A4A934244
:1025C0000DD07B68494A934207D07B68484A9342C2
:1025D00001D1032306E0042304E0022302E00123E7
:1025E00000E000237A6A02F0030292009340FA6846
:1025F0001343FB603A497B6A9B080233FA6841F84F
:1026000023203B685B6803F48033002B06D03949F4
:10261000384B1A68BB6913430B6006E03549354BEC
:102620001A68BB69DB4313400B603B685B6803F4CB
:102630000033002B06D02F492E4B5A68BB69134339
:102640004B6006E02B492B4B5A68BB69DB431340B8
:102650004B603B685B6803F48013002B06D0254970
:10266000244B9A68BB6913438B6006E02149214BD8
:102670009A68BB69DB4313408B603B685B6803F47B
:102680000013002B06D01B491A4BDA68BB691343B1
:10269000CB6006E01749174BDA68BB69DB43134090
:1026A000CB607B6A01337B623B681A687B6A22FAE3
:1026B00003F3002B7FF4D0AE00BF2C37BD4680BCA7
:1026C000704700BF00002110000011100000121020
:1026D00000003110000032100000221000100240F3
:1026E0000000014000080140000C014000100140C2
:1026F000001401400004014080B485B000AF786050
:102700000B467B807B689A687B881340002B02D045
:102710000123FB7301E00023FB73FB7B1846143796
:10272000BD4680BC704780B483B000AF78600B4674
:102730007B8013467B707B78002B03D07A887B6884
:102740001A6103E07B881A047B681A6100BF0C37AA
:10275000BD4680BC704780B485B000AF78600B4642
:102760007B807B68DB68FB607A88FB6813401A0417
:10277000FB68D9437B880B401A437B681A6100BF12
:102780001437BD4680BC704780B586B000AF786016
:102790007B68002B01D101236CE27B681B6803F08E
:1027A0000103002B00F08780924B5B6803F00C0361
:1027B000042B0CD08F4B5B6803F00C03082B12D159
:1027C0008C4B5B6803F48033B3F5803F0BD1894BAE
:1027D0001B6803F40033002B6CD07B685B68002B14
:1027E00068D1012346E27B685B68B3F5803F06D180
:1027F000804A804B1B6843F4803313602EE07B6873
:102800005B68002B0CD17B4A7A4B1B6823F4803326
:102810001360784A774B1B6823F4802313601DE014
:102820007B685B68B3F5A02F0CD1724A714B1B68B3
:1028300043F4802313606F4A6E4B1B6843F480336C
:1028400013600BE06B4A6B4B1B6823F480331360FF
:10285000684A684B1B6823F4802313607B685B68BD
:10286000002B13D0FEF7BAFC386108E0FEF7B6FC87
:1028700002463B69D31A642B01D90323FAE15D4B6D
:102880001B6803F40033002BF0D014E0FEF7A6FC25
:10289000386108E0FEF7A2FC02463B69D31A642BBC
:1028A00001D90323E6E1534B1B6803F40033002BEB
:1028B000F0D100E000BF7B681B6803F00203002B2F
:1028C00063D04C4B5B6803F00C03002B0BD0494BDF
:1028D0005B6803F00C03082B1CD1464B5B6803F4C8
:1028E0008033002B16D1434B1B6803F00203002BEF
:1028F00005D07B681B69012B01D00123BAE13D495A
:102900003C4B1B6823F0F8027B685B69DB001343D8
:102910000B603AE07B681B69002B20D0364B01220C
:102920001A60FEF75BFC386108E0FEF757FC0246D0
:102930003B69D31A022B01D903239BE12D4B1B6862
:1029400003F00203002BF0D02A492A4B1B6823F026
:10295000F8027B685B69DB0013430B6015E0264BD4
:1029600000221A60FEF73AFC386108E0FEF736FCF8
:1029700002463B69D31A022B01D903237AE11D4B8E
:102980001B6803F00203002BF0D17B681B6803F087
:102990000803002B3AD07B689B69002B19D0174B9A
:1029A00001221A60FEF71AFC386108E0FEF716FCF7
:1029B00002463B69D31A022B01D903235AE10D4B7E
:1029C0005B6A03F00203002BF0D0012000F00CFB47
:1029D0001CE00A4B00221A60FEF700FC38610FE091
:1029E000FEF7FCFB02463B69D31A022B08D90323EE
:1029F00040E100BF00100240000042428004424219
:102A00009E4B5B6A03F00203002BE9D17B681B68D5
:102A100003F00403002B00F0A6800023FB75974B06
:102A2000DB6903F08053002B0DD1944A934BDB6993
:102A300043F08053D361914BDB6903F08053BB605B
:102A4000BB680123FB758E4B1B6803F48073002B5E
:102A500018D18B4A8A4B1B6843F480731360FEF7CE
:102A6000BDFB386108E0FEF7B9FB02463B69D31AAB
:102A7000642B01D90323FDE0814B1B6803F48073B1
:102A8000002BF0D07B68DB68012B06D17B4A7B4BA7
:102A90001B6A43F0010313622DE07B68DB68002BA7
:102AA0000CD1764A754B1B6A23F001031362734AFB
:102AB000724B1B6A23F0040313621CE07B68DB6823
:102AC000052B0CD16D4A6D4B1B6A43F00403136256
:102AD0006A4A6A4B1B6A43F0010313620BE0674AC0
:102AE000664B1B6A23F001031362644A634B1B6A43
:102AF00023F0040313627B68DB68002B15D0FEF71C
:102B00006DFB38610AE0FEF769FB02463B69D31AA8
:102B100041F28832934201D90323ABE0574B1B6A41
:102B200003F00203002BEED014E0FEF757FB3861F0
:102B30000AE0FEF753FB02463B69D31A41F28832A2
:102B4000934201D9032395E04C4B1B6A03F0020327
:102B5000002BEED1FB7D012B05D1484A474BDB69A9
:102B600023F08053D3617B68DB69002B00F0818008
:102B7000424B5B6803F00C03082B61D07B68DB6978
:102B8000022B46D13F4B00221A60FEF727FB38612B
:102B900008E0FEF723FB02463B69D31A022B01D95A
:102BA000032367E0354B1B6803F00073002BF0D163
:102BB0007B681B6AB3F5803F08D130492F4B5B68B7
:102BC00023F400327B689B6813434B602B482B4BEC
:102BD0005B6823F474127B68196A7B685B6A0B4339
:102BE00013434360274B01221A60FEF7F7FA38615E
:102BF00008E0FEF7F3FA02463B69D31A022B01D92B
:102C0000032337E01D4B1B6803F00073002BF0D04B
:102C10002FE01C4B00221A60FEF7E0FA386108E052
:102C2000FEF7DCFA02463B69D31A022B01D90323D3
:102C300020E0124B1B6803F00073002BF0D118E06A
:102C40007B68DB69012B01D1012313E00B4B5B682F
:102C5000FB60FB6803F480327B681B6A9A4206D1F2
:102C6000FB6803F470127B685B6A9A4201D001230F
:102C700000E0002318461837BD4680BD0010024012
:102C8000007000406000424280B584B000AF7860C0
:102C900039607B68002B01D10123D0E06A4B1B68AF
:102CA00003F007023B689A4210D26749664B1B68E3
:102CB00023F007023B6813430B60634B1B6803F070
:102CC00007023B689A4201D00123B8E07B681B6889
:102CD00003F00203002B20D07B681B6803F0040381
:102CE000002B05D0594A594B5B6843F4E0635360AD
:102CF0007B681B6803F00803002B05D0534A534B35
:102D00005B6843F4605353605049504B5B6823F059
:102D1000F0027B689B6813434B607B681B6803F081
:102D20000103002B40D07B685B68012B07D1474B28
:102D30001B6803F40033002B15D101237FE07B686F
:102D40005B68022B07D1414B1B6803F00073002B1B
:102D500009D1012373E03D4B1B6803F00203002BF4
:102D600001D101236BE03949384B5B6823F0030242
:102D70007B685B6813434B60FEF730FAF8600AE04B
:102D8000FEF72CFA0246FB68D31A41F288329342CE
:102D900001D9032353E02D4B5B6803F00C027B68E1
:102DA0005B689B009A42EBD1274B1B6803F007023C
:102DB0003B689A4210D92449234B1B6823F0070231
:102DC0003B6813430B60204B1B6803F007023B6812
:102DD0009A4201D0012332E07B681B6803F00403B0
:102DE000002B08D01949194B5B6823F4E0627B681B
:102DF000DB6813434B607B681B6803F00803002B00
:102E000009D01249114B5B6823F460527B681B693F
:102E1000DB0013434B6000F021F801460B4B5B686D
:102E20001B0903F00F030A4AD35C21FA03F3094A92
:102E30001360094B1B681846FEF704F90023184677
:102E40001037BD4680BD00BF002002400010024088
:102E5000605A0008780000207C00002090B48AB0FE
:102E600000AF2A4B3C1D0FCB84E80F00284B1B887A
:102E70003B800023FB610023BB6100237B620023B6
:102E80007B6100233B62234B5B68FB61FB6903F0C2
:102E90000C03042B02D0082B03D02DE01E4B3B6209
:102EA0002DE0FB699B0C03F00F0307F1280213448C
:102EB00013F8243C7B61FB6903F48033002B13D0AF
:102EC000144B5B685B0C03F0010307F12802134409
:102ED00013F8283CBB617B690F4A02FB03F2BB6914
:102EE000B2FBF3F37B6204E07B690C4A02FB03F361
:102EF0007B627B6A3B6202E0094B3B6200BF3B6A3C
:102F000018462837BD4690BC704700BF445A000899
:102F1000545A0008001002400024F40000093D004B
:102F200000127A0080B400AF024B1B681846BD4601
:102F300080BC70477800002080B500AFFFF7F2FF3B
:102F40000146054B5B681B0A03F00703034AD35C89
:102F500021FA03F3184680BD00100240705A0008A1
:102F600080B500AFFFF7DEFF0146054B5B68DB0A6B
:102F700003F00703034AD35C21FA03F3184680BD2C
:102F800000100240705A000880B483B000AF78602F
:102F900039607B680F221A60114B5B6803F00302F3
:102FA0007B685A600E4B5B6803F0F0027B689A60A6
:102FB0000B4B5B6803F4E0627B68DA60084B5B688C
:102FC000DB0803F4E0627B681A61064B1B6803F0C0
:102FD00007023B681A6000BF0C37BD4680BC7047D3
:102FE000001002400020024080B485B000AF78603D
:102FF0000A4B1B680A4AA2FB03235B0A7A6802FB9E
:1030000003F3FB6000BFFB685A1EFA60002BF9D186
:1030100000BF1437BD4680BC704700BF7800002059
:10302000D34D621080B582B000AF78607B68002B12
:1030300001D1012341E07B6893F83D30DBB2002BE6
:1030400006D17B68002283F83C207868FDF72EFFCC
:103050007B68022283F83D207B681A687B68043312
:103060001946104600F0ACFE7B68012283F846202A
:103070007B68012283F83E207B68012283F83F2091
:103080007B68012283F840207B68012283F841207D
:103090007B68012283F842207B68012283F8432069
:1030A0007B68012283F844207B68012283F8452055
:1030B0007B68012283F83D20002318460837BD466F
:1030C00080BD000080B485B000AF78607B6893F865
:1030D0003D30DBB2012B01D001233AE07B680222B4
:1030E00083F83D207B681B687A681268D26842F0DA
:1030F0000102DA607B681B68184A93420ED07B6835
:103100001B68B3F1804F09D07B681B68144A934257
:1031100004D07B681B68134A934211D17B681B68FB
:103120009B6803F00703FB60FB68062B10D07B68ED
:103130001B687A681268126842F001021A6007E0A0
:103140007B681B687A681268126842F001021A6094
:10315000002318461437BD4680BC7047002C014040
:10316000000400400008004080B582B000AF7860E5
:103170007B68002B01D1012341E07B6893F83D304F
:10318000DBB2002B06D17B68002283F83C207868F4
:1031900000F039F87B68022283F83D207B681A68CA
:1031A0007B6804331946104600F00AFE7B68012252
:1031B00083F846207B68012283F83E207B68012249
:1031C00083F83F207B68012283F840207B6801223E
:1031D00083F841207B68012283F842207B6801222A
:1031E00083F843207B68012283F844207B68012216
:1031F00083F845207B68012283F83D200023184690
:103200000837BD4680BD80B483B000AF786000BF92
:103210000C37BD4680BC704780B586B000AFF86003
:10322000B9607A607B80BB68002B09D1FB6893F89A
:103230003E30DBB2022B0CBF01230023DBB222E0C5
:10324000BB68042B09D1FB6893F83F30DBB2022B3B
:103250000CBF01230023DBB215E0BB68082B09D1AA
:10326000FB6893F84030DBB2022B0CBF0123002334
:10327000DBB208E0FB6893F84130DBB2022B0CBFF5
:1032800001230023DBB2002B01D002234EE1BB68F7
:10329000002B09D1FB6893F83E30DBB2012B0CBF49
:1032A00001230023DBB222E0BB68042B09D1FB68B9
:1032B00093F83F30DBB2012B0CBF01230023DBB2BC
:1032C00015E0BB68082B09D1FB6893F84030DBB2EE
:1032D000012B0CBF01230023DBB208E0FB6893F84D
:1032E0004130DBB2012B0CBF01230023DBB2002BEA
:1032F00024D07B68002B04D17B88002B01D00123D4
:1033000014E1BB68002B04D1FB68022283F83E2045
:1033100016E0BB68042B04D1FB68022283F83F202F
:103320000EE0BB68082B04D1FB68022283F8402022
:1033300006E0FB68022283F8412001E00123F5E06A
:10334000BB680C2B00F2AE8001A252F823F000BF44
:1033500085330008A5340008A5340008A53400080A
:10336000CD330008A5340008A5340008A5340008B2
:1033700015340008A5340008A5340008A534000859
:103380005D340008FB685B6A6A4A9A62FB685B6AA4
:10339000694ADA62FB685B6A684A1A63FB68586AC2
:1033A0007968FB681B6834331A467B88FEF72EFE6B
:1033B0000346002B01D00123B8E0FB681B68FA68C4
:1033C0001268D26842F40072DA606CE0FB689B6AB3
:1033D000584A9A62FB689B6A574ADA62FB689B6AA2
:1033E000564A1A63FB68986A7968FB681B68383329
:1033F0001A467B88FEF70AFE0346002B01D0012304
:1034000094E0FB681B68FA681268D26842F4806234
:10341000DA6048E0FB68DB6A464A9A62FB68DB6A6E
:10342000454ADA62FB68DB6A444A1A63FB68D86A79
:103430007968FB681B683C331A467B88FEF7E6FD1B
:103440000346002B01D0012370E0FB681B68FA687B
:103450001268D26842F40062DA6024E0FB681B6BF9
:10346000344A9A62FB681B6B334ADA62FB681B6B57
:10347000324A1A63FB68186B7968FB681B68403333
:103480001A467B88FEF7C2FD0346002B01D00123BC
:103490004CE0FB681B68FA681268D26842F48052FC
:1034A000DA6000E000BFFB681B680122B9681846BB
:1034B00000F006FFFB681B68214A934207D1FB68B6
:1034C0001B68FA681268526C42F400425A64FB6846
:1034D0001B681B4A93420ED0FB681B68B3F1804FF8
:1034E00009D0FB681B68174A934204D0FB681B682D
:1034F000154A934211D1FB681B689B6803F00703D0
:103500007B617B69062B10D0FB681B68FA68126828
:10351000126842F001021A6007E0FB681B68FA6853
:103520001268126842F001021A6000231846183728
:10353000BD4680BDAF3C0008573D00081D3C00085B
:10354000002C0140000400400008004080B582B01B
:1035500000AF786039603B680C2B55D801A252F857
:1035600023F000BF99350008093600080936000825
:1035700009360008B5350008093600080936000884
:1035800009360008D1350008093600080936000858
:1035900009360008ED3500087B681B687A681268F8
:1035A000D26822F40072DA607B685B6A1846FEF724
:1035B0008DFD2AE07B681B687A681268D26822F465
:1035C0008062DA607B689B6A1846FEF77FFD1CE02C
:1035D0007B681B687A681268D26822F40062DA603D
:1035E0007B68DB6A1846FEF771FD0EE07B681B689E
:1035F0007A681268D26822F48052DA607B681B6BAA
:103600001846FEF763FD00E000BF7B681B680022E0
:103610003968184600F054FE7B681B68294A9342BB
:1036200017D17B681B681A6A41F211131340002BF3
:103630000FD17B681B681A6A40F244431340002B89
:1036400007D17B681B687A681268526C22F40042CA
:103650005A647B681B681A6A41F211131340002BED
:103660000FD17B681B681A6A40F244431340002B59
:1036700007D17B681B687A681268126822F0010221
:103680001A603B68002B04D17B68012283F83E203E
:1036900013E03B68042B04D17B68012283F83F20B0
:1036A0000BE03B68082B04D17B68012283F84020A3
:1036B00003E07B68012283F8412000231846083785
:1036C000BD4680BD002C014080B582B000AF78605F
:1036D0007B681B681B6903F00203022B22D17B6805
:1036E0001B68DB6803F00203022B1BD17B681B689D
:1036F0006FF002021A617B6801221A777B681B68EF
:103700009B6903F00303002B03D0786800F062FA92
:1037100005E0786800F055FA7868FCF70BFF7B68E5
:1037200000221A777B681B681B6903F00403042BD3
:1037300022D17B681B68DB6803F00403042B1BD1D8
:103740007B681B686FF004021A617B6802221A779B
:103750007B681B689B6903F44073002B03D0786877
:1037600000F038FA05E0786800F02BFA7868FCF78A
:10377000E1FE7B6800221A777B681B681B6903F0F7
:103780000803082B22D17B681B68DB6803F0080361
:10379000082B1BD17B681B686FF008021A617B68DD
:1037A00004221A777B681B68DB6903F00303002B94
:1037B00003D0786800F00EFA05E0786800F001FAAE
:1037C0007868FCF7B7FE7B6800221A777B681B6875
:1037D0001B6903F01003102B22D17B681B68DB6888
:1037E00003F01003102B1BD17B681B686FF01002D5
:1037F0001A617B6808221A777B681B68DB6903F40F
:103800004073002B03D0786800F0E4F905E0786895
:1038100000F0D7F97868FCF78DFE7B6800221A77F4
:103820007B681B681B6903F00103012B0ED17B68C9
:103830001B68DB6803F00103012B07D17B681B6861
:103840006FF001021A617868FDF772FA7B681B68F5
:103850001B6903F08003802B0ED17B681B68DB683B
:1038600003F08003802B07D17B681B686FF0800218
:103870001A61786800F0AFFD7B681B681B6903F074
:103880004003402B0ED17B681B68DB6803F04003CC
:10389000402B07D17B681B686FF040021A61786883
:1038A00000F0AAF97B681B681B6903F02003202B3A
:1038B0000ED17B681B68DB6803F02003202B07D147
:1038C0007B681B686FF020021A61786800F07AFD4F
:1038D00000BF0837BD4680BD80B584B000AFF8603A
:1038E000B9607A60FB6893F83C30012B01D1022368
:1038F000ACE0FB68012283F83C207B680C2B00F2D3
:103900009F8001A252F823F03D390008413A000897
:10391000413A0008413A00087D390008413A000860
:10392000413A0008413A0008BF390008413A00080E
:10393000413A0008413A0008FF390008FB681B685B
:10394000B968184600F09EFAFB681B68FA681268AE
:10395000926942F008029A61FB681B68FA68126873
:10396000926922F004029A61FB681B68FA68126887
:103970009169BA6812690A439A6162E0FB681B6840
:10398000B968184600F0E4FAFB681B68FA68126828
:10399000926942F400629A61FB681B68FA681268D7
:1039A000926922F480629A61FB681B68FA68126867
:1039B0009169BA68126912020A439A6141E0FB6890
:1039C0001B68B968184600F02DFBFB681B68FA6895
:1039D0001268D26942F00802DA61FB681B68FA6873
:1039E0001268D26922F00402DA61FB681B68FA6887
:1039F0001268D169BA6812690A43DA6121E0FB688A
:103A00001B68B968184600F077FBFB681B68FA680A
:103A10001268D26942F40062DA61FB681B68FA68D6
:103A20001268D26922F48062DA61FB681B68FA6866
:103A30001268D169BA68126912020A43DA6100E0B9
:103A400000BFFB68002283F83C2000231846103793
:103A5000BD4680BD80B584B000AF786039607B68BA
:103A600093F83C30012B01D10223A6E07B680122B0
:103A700083F83C207B68022283F83D207B681B682A
:103A80009B68FB60FB6823F07703FB60FB6823F413
:103A90007F43FB607B681B68FA689A603B681B6821
:103AA000402B67D0402B0BD8102B73D0102B02D893
:103AB000002B6FD078E0202B6CD0302B6AD073E0D5
:103AC000702B0DD0702B04D8502B33D0602B41D0ED
:103AD0006AE0B3F5805F66D0B3F5005F17D063E0AE
:103AE0007B6818683B6899683B685A683B68DB6884
:103AF00000F0C7FB7B681B689B68FB60FB6843F0BA
:103B00007703FB607B681B68FA689A604CE07B680F
:103B100018683B6899683B685A683B68DB6800F046
:103B2000B0FB7B681B687A681268926842F4804236
:103B30009A6039E07B6818683B6859683B68DB68C5
:103B40001A4600F027FB7B681B685021184600F0DE
:103B50007EFB29E07B6818683B6859683B68DB6836
:103B60001A4600F045FB7B681B686021184600F090
:103B70006EFB19E07B6818683B6859683B68DB6836
:103B80001A4600F007FB7B681B684021184600F0CE
:103B90005EFB09E07B681A683B681B6819461046A3
:103BA00000F055FB00E000BF7B68012283F83D2058
:103BB0007B68002283F83C20002318461037BD465E
:103BC00080BD80B483B000AF786000BF0C37BD46C5
:103BD00080BC704780B483B000AF786000BF0C3702
:103BE000BD4680BC704780B483B000AF786000BF32
:103BF0000C37BD4680BC704780B483B000AF78609E
:103C000000BF0C37BD4680BC704780B483B000AFA6
:103C1000786000BF0C37BD4680BC704780B584B06B
:103C200000AF78607B685B6AFB60FB685A6A7B6800
:103C30009A4207D1FB6801221A77FB68012283F8B8
:103C40003E202AE0FB689A6A7B689A4207D1FB68AB
:103C500002221A77FB68012283F83F201DE0FB68EF
:103C6000DA6A7B689A4207D1FB6804221A77FB68FC
:103C7000012283F8402010E0FB681A6B7B689A42AF
:103C800007D1FB6808221A77FB68012283F84120DC
:103C900003E0FB68012283F83D20F868FFF7B5FFD9
:103CA000FB6800221A7700BF1037BD4680BD80B583
:103CB00084B000AF78607B685B6AFB60FB685A6A1F
:103CC0007B689A420BD1FB6801221A777B689B695B
:103CD000002B36D1FB68012283F83E2031E0FB68DF
:103CE0009A6A7B689A420BD1FB6802221A777B683A
:103CF0009B69002B25D1FB68012283F83F2020E03F
:103D0000FB68DA6A7B689A420BD1FB6804221A7757
:103D10007B689B69002B14D1FB68012283F840204B
:103D20000FE0FB681A6B7B689A420AD1FB68082295
:103D30001A777B689B69002B03D1FB68012283F80B
:103D40004120F868FCF7F6FBFB6800221A7700BFF9
:103D50001037BD4680BD80B584B000AF78607B6809
:103D60005B6AFB60FB685A6A7B689A4203D1FB6816
:103D700001221A7719E0FB689A6A7B689A4203D19C
:103D8000FB6802221A7710E0FB68DA6A7B689A42C5
:103D900003D1FB6804221A7707E0FB681A6B7B6883
:103DA0009A4202D1FB6808221A77F868FFF71BFFD6
:103DB000FB6800221A7700BF1037BD4680BD0000A7
:103DC00080B485B000AF786039607B681B68FB60A9
:103DD0007B68294A93420BD07B68B3F1804F07D0B0
:103DE0007B68264A934203D07B68254A934208D1D8
:103DF000FB6823F07003FB603B685B68FA68134361
:103E0000FB607B681C4A93420BD07B68B3F1804F08
:103E100007D07B68194A934203D07B68184A9342C3
:103E200008D1FB6823F44073FB603B68DB68FA68E9
:103E30001343FB60FB6823F080023B685B6913431C
:103E4000FB607B68FA681A603B689A687B68DA6294
:103E50003B681A687B689A627B68074A934203D181
:103E60003B681A697B681A637B6801225A6100BF4C
:103E70001437BD4680BC7047002C01400004004050
:103E80000008004080B487B000AF786039607B687C
:103E90001B6A23F001027B681A627B681B6A7B61E4
:103EA0007B685B683B617B689B69FB60FB6823F018
:103EB0007003FB60FB6823F00303FB603B681B6837
:103EC000FA681343FB607B6923F002037B613B6864
:103ED0009B687A6913437B617B681C4A93420CD1CF
:103EE0007B6923F008037B613B68DB687A691343D5
:103EF0007B617B6923F004037B617B68134A9342F7
:103F000011D13B6923F480733B613B6923F4007357
:103F10003B613B685B693A6913433B613B689B6962
:103F20003A6913433B617B683A695A607B68FA6877
:103F30009A613B685A687B685A637B687A691A623F
:103F400000BF1C37BD4680BC704700BF002C01403D
:103F500080B487B000AF786039607B681B6A23F05B
:103F600010027B681A627B681B6A7B617B685B68F6
:103F70003B617B689B69FB60FB6823F4E043FB606B
:103F8000FB6823F44073FB603B681B681B02FA6804
:103F90001343FB607B6923F020037B613B689B68D4
:103FA0001B017A6913437B617B681D4A93420DD1E3
:103FB0007B6923F080037B613B68DB681B017A69C6
:103FC00013437B617B6923F040037B617B68144A68
:103FD000934213D13B6923F480633B613B6923F433
:103FE00000633B613B685B699B003A6913433B613B
:103FF0003B689B699B003A6913433B617B683A6964
:104000005A607B68FA689A613B685A687B689A6371
:104010007B687A691A6200BF1C37BD4680BC704756
:10402000002C014080B487B000AF786039607B68B5
:104030001B6A23F480727B681A627B681B6A7B614F
:104040007B685B683B617B68DB69FB60FB6823F036
:104050007003FB60FB6823F00303FB603B681B6895
:10406000FA681343FB607B6923F400737B613B6850
:104070009B681B027A6913437B617B681D4A9342EC
:104080000DD17B6923F400637B613B68DB681B0215
:104090007A6913437B617B6923F480637B617B686E
:1040A000144A934213D13B6923F480533B613B692B
:1040B00023F400533B613B685B691B013A6913437E
:1040C0003B613B689B691B013A6913433B617B6819
:1040D0003A695A607B68FA68DA613B685A687B68BB
:1040E000DA637B687A691A6200BF1C37BD4680BC00
:1040F000704700BF002C014080B487B000AF7860EB
:1041000039607B681B6A23F480527B681A627B6883
:104110001B6A3B617B685B687B617B68DB69FB607A
:10412000FB6823F4E043FB60FB6823F44073FB600F
:104130003B681B681B02FA681343FB603B6923F46E
:1041400000533B613B689B681B033A6913433B6127
:104150007B680F4A934209D17B6923F480437B61DA
:104160003B685B699B017A6913437B617B687A6971
:104170005A607B68FA68DA613B685A687B681A643F
:104180007B683A691A6200BF1C37BD4680BC704725
:10419000002C014080B487B000AFF860B9607A604D
:1041A000FB681B6A7B61FB681B6A23F00102FB68EA
:1041B0001A62FB689B693B613B6923F0F0033B613A
:1041C0007B681B013A6913433B617B6923F00A0357
:1041D0007B617A69BB6813437B61FB683A699A61CA
:1041E000FB687A691A6200BF1C37BD4680BC704705
:1041F00080B487B000AFF860B9607A60FB681B6A72
:1042000023F01002FB681A62FB689B697B61FB6804
:104210001B6A3B617B6923F470437B617B681B03F2
:104220007A6913437B613B6923F0A0033B61BB6860
:104230001B013A6913433B61FB687A699A61FB6829
:104240003A691A6200BF1C37BD4680BC704780B413
:1042500085B000AF786039607B689B68FB60FB6865
:1042600023F07003FB603A68FB68134343F00703D5
:10427000FB607B68FA689A6000BF1437BD4680BC5B
:10428000704780B487B000AFF860B9607A603B6077
:10429000FB689B687B617B6923F47F437B613B68A0
:1042A0001A027B681A43BB6813437A6913437B6124
:1042B000FB687A699A6000BF1C37BD4680BC7047B6
:1042C00080B487B000AFF860B9607A60BB6803F073
:1042D0001F03012202FA03F37B61FB681A6A7B6900
:1042E000DB431A40FB681A62FB681A6ABB6803F07A
:1042F0001F03796801FA03F31A43FB681A6200BFCF
:104300001C37BD4680BC704780B485B000AF786074
:1043100039607B6893F83C30012B01D1022346E0E1
:104320007B68012283F83C207B68022283F83D20D1
:104330007B681B685B68FB607B681B689B68BB6075
:10434000FB6823F07003FB603B681B68FA6813434B
:10435000FB607B681B68FA685A607B681B68164ABA
:1043600093420ED07B681B68B3F1804F09D07B6805
:104370001B68124A934204D07B681B68104A934220
:104380000CD1BB6823F08003BB603B685B68BA68F4
:104390001343BB607B681B68BA689A607B68012224
:1043A00083F83D207B68002283F83C2000231846D8
:1043B0001437BD4680BC7047002C0140000400400B
:1043C0000008004080B483B000AF786000BF0C37B5
:1043D000BD4680BC704780B483B000AF786000BF3A
:1043E0000C37BD4680BC704780B582B000AF7860A6
:1043F0007B68002B01D101233FE07B6893F83D30BF
:10440000DBB2002B06D17B68002283F83C20786861
:10441000FCF7CCFD7B68242283F83D207B681B6879
:104420007A681268D26822F40052DA60786800F084
:1044300029F87B681B687A681268126922F4904236
:104440001A617B681B687A681268526922F02A0236
:104450005A617B681B687A681268D26842F400521D
:10446000DA607B6800221A647B68202283F83D2092
:104470007B68202283F83E20002318460837BD467B
:1044800080BD000090B585B000AF78607B681B6888
:104490007A681268126922F440517A68D2680A4335
:1044A0001A617B689A687B681B691A437B685B6941
:1044B0001343BB607B681A687B681B68DB6823F466
:1044C000B05323F00C03B9680B43D3607B681B68BF
:1044D0007A681268526922F440717A6892690A43D4
:1044E0005A617B681B682C4A934203D1FEF738FD62
:1044F000F86002E0FEF720FDF8607B681968FA6852
:1045000013469B0013449A001A447B685B689B0027
:10451000B2FBF3F3214AA2FB03235B091801FA68FB
:1045200013469B0013449A001A447B685B689B0007
:10453000B2FBF3F2194BA3FB02435B09642404FBB7
:1045400003F3D31A1B013233144AA2FB03235B0982
:1045500003F0F0031844FA6813469B0013449A00D2
:104560001A447B685B689B00B2FBF3F20B4BA3FB26
:1045700002435B09642404FB03F3D31A1B013233A7
:10458000064AA2FB03235B0903F00F0303448B607D
:1045900000BF1437BD4690BD003801401F85EB5168
:1045A00080B485B000AF0346FB800023FB60B7F901
:1045B0000630842B05D0B7F90620FB68134403337B
:1045C000FB60FB6818461437BD4680BC704780B559
:1045D00000AF00F049FE0023184680BDF0B589B059
:1045E00004AF786039607B685B69002B20D07B6802
:1045F0009B69002B1CD07B685C687B681D687B68AE
:104600001E697B68B3F908301846FFF7C9FF0146F9
:104610007B685B697A6892690292019300913B68BA
:1046200032462946204600F065FC0346FB601CE04C
:104630007B685C687B681D687B681B699EB27B68D1
:10464000B3F908301846FFF7ABFF024607F10C0339
:10465000019300923B6832462946204600F0A3FCB5
:104660000346012B01D0002300E0FB6818461437F5
:10467000BD46F0BD80B584B000AF78607B68FB605C
:10468000FB68002B01D0FB6800E00123184600F016
:10469000B7FD002318461037BD4680BD80B483B0F7
:1046A00000AF78607B6803F108027B685A607B6822
:1046B0004FF0FF329A607B6803F108027B68DA6092
:1046C0007B6803F108027B681A617B6800221A602C
:1046D00000BF0C37BD4680BC704780B483B000AFCC
:1046E00078607B6800221A6100BF0C37BD4680BC31
:1046F000704780B485B000AF786039607B685B68D4
:10470000FB603B68FA685A60FB689A683B689A608D
:10471000FB689B683A685A60FB683A689A603B6835
:104720007A681A617B681B685A1C7B681A6000BF34
:104730001437BD4680BC704780B485B000AF786048
:1047400039603B681B68BB60BB68B3F1FF3F03D1B6
:104750007B681B69FB600CE07B680833FB6002E050
:10476000FB685B68FB60FB685B681A68BB689A4221
:10477000F6D9FB685A683B685A603B685B683A68E0
:104780009A603B68FA689A60FB683A685A603B68CE
:104790007A681A617B681B685A1C7B681A6000BFC4
:1047A0001437BD4680BC704780B485B000AF7860D8
:1047B0007B681B69FB607B685B687A6892689A60BB
:1047C0007B689B687A6852685A60FB685A687B68A5
:1047D0009A4203D17B689A68FB685A607B68002222
:1047E0001A61FB681B685A1EFB681A60FB681B682D
:1047F00018461437BD4680BC7047000080B485B0B1
:1048000000AFF860B9607A60FB68043BFB60FB684E
:104810004FF080721A60FB68043BFB60BB6823F0BA
:104820000102FB681A60FB68043BFB60084AFB68F6
:104830001A60FB68143BFB607A68FB681A60FB68CF
:10484000203BFB60FB6818461437BD4680BC7047B0
:104850005548000880B485B000AF00237B60104B42
:104860001B68B3F1FF3F09D04FF0500383F3118869
:10487000BFF36F8FBFF34F8FFB60FEE74FF0500326
:1048800083F31188BFF36F8FBFF34F8FBB6000BFFF
:104890007B68002BFCD000BF1437BD4680BC70473E
:1048A0008400002000000000000000000000000064
:1048B000074B19680868B0E8F00F80F30988BFF368
:1048C0006F8F4FF0000080F311884EF00D0E70478F
:1048D000240F002000BF00BF06480068006880F376
:1048E000088862B661B6BFF34F8FBFF36F8F00DFEA
:1048F00000BF00BF08ED00E080B584B000AF314BD1
:10490000FB60FB681B78DBB27B60FB68FF221A70E0
:10491000FB681B78DBB2FB70FB78DBB203F0500363
:10492000DAB2294B1A70294B07221A6009E0274B8B
:104930001B68013B254A1360FB78DBB25B00DBB2EE
:10494000FB70FB78DBB203F08003802BEFD01F4BB2
:104950001B68C3F10703042B09D04FF0500383F306
:104960001188BFF36F8FBFF34F8FBB60FEE7174B0C
:104970001B681B02154A1360144B1B6803F4E063A9
:10498000124A13607B68DAB2FB681A70104A104B47
:104990001B6843F4700313600D4A0D4B1B6843F012
:1049A0007043136000F0B0F80A4B00221A60FFF762
:1049B00093FF00F01DFEFFF74DFF00231846103750
:1049C000BD4680BD00E400E0040300200803002091
:1049D00020ED00E08400002080B483B000AF4FF0F1
:1049E000500383F31188BFF36F8FBFF34F8F7B604A
:1049F0000E4B1B6801330D4A13600C4B1B68012BD7
:104A00000ED10B4B1B68DBB2002B09D04FF05003CB
:104A100083F31188BFF36F8FBFF34F8F3B60FEE7C7
:104A200000BF0C37BD4680BC704700BF840000202B
:104A300004ED00E080B483B000AF104B1B68002B86
:104A400009D14FF0500383F31188BFF36F8FBFF389
:104A50004F8F7B60FEE7094B1B68013B074A1360E1
:104A6000064B1B68002B04D100233B603B6883F39B
:104A7000118800BF0C37BD4680BC70478400002001
:104A8000EFF30980BFF36F8F0D4B1A6820E9F00F29
:104A900010602DE908404FF0500080F3118800F0BD
:104AA000A7FD4FF0000080F31188BDE808401968A9
:104AB0000868B0E8F00F80F30988BFF36F8F704784
:104AC000240F002000BF00BF80B582B000AF4FF0C0
:104AD000500383F31188BFF36F8FBFF34F8F7B6059
:104AE00000F0CAFC0346002B03D0064B4FF0805267
:104AF0001A6000233B603B6883F3118800BF0837CE
:104B0000BD4680BD04ED00E080B400AF0A4B00223A
:104B10001A600A4B00221A60094A0A4B1B680A49AC
:104B2000A1FB03139B09013B1360034B07221A608F
:104B300000BFBD4680BC704710E000E018E000E018
:104B400014E000E078000020D34D621080B58AB0F8
:104B500000AF78600023FB6100F0E4FB574B1B685B
:104B6000002B01D100F00CF9554B1A687B681340FB
:104B7000002B40F08C807B68002B1CD008227B68C7
:104B800013447B607B6803F00703002B13D07B6822
:104B900023F0070308337B607B6803F00703002BD7
:104BA00009D04FF0500383F31188BFF36F8FBFF329
:104BB0004F8F7B61FEE77B68002B68D0414B1B6801
:104BC0007A689A4263D8404B3B623F4B1B687B62DA
:104BD00004E07B6A3B627B6A1B687B627B6A5A6883
:104BE0007B689A4203D27B6A1B68002BF1D1334B5E
:104BF0001B687A6A9A424AD03B6A1B6808221344AF
:104C0000FB617B6A1A683B6A1A607B6A5A687B6838
:104C1000D21A08235B009A421ED97A6A7B68134431
:104C2000BB61BB6903F00703002B09D04FF05003B1
:104C300083F31188BFF36F8FBFF34F8F3B61FEE7A4
:104C40007B6A5A687B68D21ABB695A607B6A7A6849
:104C50005A60B86900F0F6F81A4B1A687B6A5B680C
:104C6000D31A184A1360174B1A68184B1B689A42DC
:104C700003D2144B1B68154A13607B6A5A68104BA9
:104C80001B681A437B6A5A607B6A00221A6000F034
:104C900057FBFB6903F00703002B09D04FF05003CB
:104CA00083F31188BFF36F8FBFF34F8FFB60FEE775
:104CB000FB6918462837BD4680BD00BF140F002091
:104CC000200F0020180F00200C0F00201C0F0020C8
:104CD00080B586B000AF78607B687B617B68002B15
:104CE00046D008235B427A6913447B617B693B6150
:104CF0003B695A68204B1B681340002B09D14FF0C9
:104D0000500383F31188BFF36F8FBFF34F8FFB60A6
:104D1000FEE73B691B68002B09D04FF0500383F37B
:104D20001188BFF36F8FBFF34F8FBB60FEE73B6906
:104D30005A68114B1B681340002B19D03B691B6844
:104D4000002B15D13B695A680B4B1B68DB431A409B
:104D50003B695A6000F0E6FA3B695A68074B1B68EA
:104D60001344064A1360386900F06CF800F0E8FA62
:104D700000BF1837BD4680BD200F0020180F00204F
:104D800080B485B000AF4FF44063BB60274BFB603D
:104D9000FB6803F00703002B0CD0FB680733FB60B4
:104DA000FB6823F00703FB60BA68FB68D31A1F4A4D
:104DB0001344BB60FB687B601D4A7B6813601C4B1F
:104DC00000225A607A68BB681344FB600822FB68C3
:104DD0009B1AFB60FB6823F00703FB60FB68154A26
:104DE0001360144B1B6800225A60124B1B68002290
:104DF0001A607B683B603B68FA68D21A3B685A606D
:104E00000C4B1A683B681A603B685B680A4A13607F
:104E10003B685B68094A1360094B4FF000421A6017
:104E200000BF1437BD4680BC704700BF0C03002094
:104E30000C0F0020140F00201C0F0020180F002062
:104E4000200F002080B485B000AF7860274BFB6056
:104E500002E0FB681B68FB60FB681A687B689A428B
:104E6000F7D3FB68BB60FB685B68BA681A447B6871
:104E70009A4208D1FB685A687B685B681A44FB68F1
:104E80005A60FB687B607B68BB607B685B68BA6864
:104E90001A44FB681B689A4218D1FB681A68144BC5
:104EA0001B689A420DD07B685A68FB681B685B6878
:104EB0001A447B685A60FB681B681A687B681A6032
:104EC00008E00B4B1A687B681A6003E0FB681A68FD
:104ED0007B681A60FA687B689A4202D0FB687A683D
:104EE0001A6000BF1437BD4680BC70470C0F00200D
:104EF000140F002080B58EB004AFF860B9607A60FE
:104F00003B607B6B002B09D14FF0500383F311887A
:104F1000BFF36F8FBFF34F8F3B62FEE7BB6B002B7E
:104F200009D14FF0500383F31188BFF36F8FBFF3A4
:104F30004F8FFB61FEE754233B613B69542B09D043
:104F40004FF0500383F31188BFF36F8FBFF34F8F80
:104F5000BB61FEE7BB6B002B1ED07B6B002B1BD015
:104F6000BB6B7B627B6A7A6B1A637B6A022283F873
:104F70005120002303937B6A029307F114030193EA
:104F80003B6B00933B687A68B968F86800F050F8AA
:104F9000786A00F0CBF801E000237B617B6918465A
:104FA0002837BD4680BD80B58CB004AFF860B960CD
:104FB0003B601346FB80FB889B001846FFF7C6FD4D
:104FC00078617B69002B0ED05420FFF7BFFDF8619C
:104FD000FB69002B03D0FB697A691A6305E07869E5
:104FE000FFF776FE01E00023FB61FB69002B17D081
:104FF000FB69002283F85120FA8800230393FB69A0
:105000000293FB6A0193BB6A00933B68B968F86836
:1050100000F00EF8F86900F089F80123BB6102E0A6
:105020004FF0FF33BB61BB6918462037BD4680BDDA
:1050300080B588B000AFF860B9607A603B603B6BC8
:105040001A6B7B6803F18043013B9B001344BB61F7
:10505000BB6923F00703BB61BB6903F00703002BA7
:1050600009D04FF0500383F31188BFF36F8FBFF364
:105070004F8F7B61FEE70023FB6112E0BA68FB699A
:10508000134419783A6BFB69134434330A461A7097
:10509000BA68FB6913441B78002B06D0FB69013307
:1050A000FB61FB690F2BE9D900E000BF3B6B0022DD
:1050B00083F84320BB6A062B01D90623BB623B6BF6
:1050C000BA6ADA623B6BBA6A5A643B6B00229A6432
:1050D0003B6B04331846FFF700FB3B6B1833184655
:1050E000FFF7FBFA3B6B3A6B1A61BB6AC3F107022D
:1050F0003B6B9A613B6B3A6B5A623B6B0022DA6402
:105100003B6B002283F850203A68F968B869FFF7D2
:1051100075FB02463B6B1A60FB6A002B02D0FB6AF0
:105120003A6B1A6000BF2037BD4680BD80B582B0A3
:1051300000AF7860FFF750FC2A4B1B680133294A07
:105140001360294B1B68002B09D1274A7B68136029
:10515000244B1B68012B10D100F0BCFA0DE0234B4F
:105160001B68002B09D1204B1B68DA6A7B68DB6A5D
:105170009A4202D81C4A7B6813601D4B1B6801339E
:105180001B4A13607B68DB6A01229A40194B1B683B
:105190001343184A13607B68DA6A13469B00134472
:1051A0009B00154A1A447B68043319461046FFF7E2
:1051B000A0FAFFF73FFC0D4B1B68002B0ED00A4BEB
:1051C0001B68DA6A7B68DB6A9A4207D20B4B4FF0A6
:1051D00080521A60BFF34F8FBFF36F8F00BF083745
:1051E000BD4680BD24100020240F00203010002078
:1051F000401000202C100020280F002004ED00E0BB
:1052000080B584B000AF78600023FB607B68002B22
:1052100016D0134B1B68002B09D04FF0500383F3BB
:105220001188BFF36F8FBFF34F8FBB60FEE700F0B5
:1052300079F80021786800F00BFB00F081F8F86045
:10524000FB68002B07D1074B4FF080521A60BFF369
:105250004F8FBFF36F8F00BF1037BD4680BD00BFBB
:105260004C10002004ED00E080B58AB004AF0023AC
:10527000BB6000237B603A46391D07F108031846DE
:10528000FAF766FF39687B68BA68029201930023D7
:10529000009300230A461D491D48FFF72BFE0246D6
:1052A0001C4B1A601B4B1B68002B02D001237B6137
:1052B00001E000237B617B69012B15D14FF0500386
:1052C00083F31188BFF36F8FBFF34F8F3B61124B96
:1052D0004FF0FF321A60114B01221A60104B00226E
:1052E0001A60FFF709FB0DE07B69B3F1FF3F09D1BD
:1052F0004FF0500383F31188BFF36F8FBFF34F8FCD
:10530000FB60FEE700BF1837BD4680BD585A000855
:10531000A55600084810002044100020301000203E
:105320002810002080B400AF044B1B680133034AEF
:10533000136000BFBD4680BC704700BF4C1000200A
:1053400080B584B000AF0023FB600023BB60414BFD
:105350001B68002B09D14FF0500383F31188BFF372
:105360006F8FBFF34F8F3B60FEE7FFF735FB394B85
:105370001B68013B374A1360364B1B68002B61D119
:10538000354B1B68002B5DD02EE0344BDB68DB68AF
:10539000FB60FB6818331846FFF706FAFB68043316
:1053A0001846FFF701FAFB68DB6A01229A402C4B92
:1053B0001B6813432A4A1360FB68DA6A13469B0092
:1053C00013449B00274A1A44FB68043319461046CD
:1053D000FFF78FF9FB68DA6A234B1B68DB6A9A4296
:1053E00002D3224B01221A601C4B1B68002BCCD12C
:1053F000FB68002B01D000F007FA1D4B1B687B6097
:105400007B68002B10D000F037F80346002B02D049
:10541000164B01221A607B68013B7B607B68002B86
:10542000F1D1134B00221A60104B1B68002B09D0DE
:105430000123BB600F4B4FF080521A60BFF34F8FB8
:10544000BFF36F8FFFF7F6FABB6818461037BD46FB
:1054500080BD00BF4C10002024100020E40F00206D
:105460002C100020280F0020240F002038100020CE
:105470003410002004ED00E080B586B000AF0023BA
:105480007B61504B1B68002B40F08C804E4B1B689F
:1054900001333B614C4A3B6913603B69002B1FD1D0
:1054A0004A4B1B681B68002B09D04FF0500383F355
:1054B0001188BFF36F8FBFF34F8F3B60FEE7434B05
:1054C0001B68FB60424B1B68404A1360404AFB6804
:1054D0001360404B1B6801333E4A136000F094F99F
:1054E0003D4B1B683A699A424DD3384B1B681B6889
:1054F000002B01D1012300E00023002B04D0364B08
:105500004FF0FF321A603EE0304B1B68DB68DB680F
:10551000BB60BB685B687B603A697B689A4203D278
:105520002D4A7B6813602EE0BB6804331846FFF7F2
:105530003BF9BB689B6A002B04D0BB681833184644
:10554000FFF732F9BB68DB6A01229A40234B1B68E4
:105550001343224A1360BB68DA6A13469B00134464
:105560009B001F4A1A44BB68043319461046FFF7D4
:10557000C0F8BB68DA6A1B4B1B68DB6A9A42B4D37B
:1055800001237B61B1E7174B1B68DA6A14491346A4
:105590009B0013449B000B441B68012B07D901237C
:1055A0007B6104E0104B1B6801330F4A13600F4B03
:1055B0001B68002B01D001237B617B6918461837DB
:1055C000BD4680BD4C10002028100020DC0F0020BC
:1055D000E00F00203C100020441000202C10002080
:1055E000280F0020240F0020341000203810002045
:1055F00080B487B000AF264B1B68002B03D0254B2F
:1056000001221A603EE0234B00221A60224B1B68E5
:10561000FB60FB68B3FA83F3FB72FB7AC3F11F03F1
:105620007B611E497A6913469B0013449B000B441F
:105630001B68002B09D14FF0500383F31188BFF38F
:105640006F8FBFF34F8F7B60FEE77A6913469B0035
:1056500013449B00114A13443B613B695B685A68E1
:105660003B695A603B695A683B6908339A4204D1E6
:105670003B695B685A683B695A603B695B68DB68F9
:10568000074A136000BF1C37BD4680BC704700BF8F
:105690004C100020381000202C100020280F002073
:1056A000240F002080B582B000AF786000F052F87F
:1056B000064B1B68012BF9D9054B4FF080521A603D
:1056C000BFF34F8FBFF36F8FF0E700BF280F0020AD
:1056D00004ED00E080B582B000AF00237B600CE0F9
:1056E0007A6813469B0013449B00124A13441846E1
:1056F000FEF7D4FF7B6801337B607B68062BEFD914
:105700000D48FEF7CBFF0D48FEF7C8FF0C48FEF72B
:10571000C5FF0C48FEF7C2FF0B48FEF7BFFF0B4B5F
:10572000054A1A600A4B054A1A6000BF0837BD4691
:1057300080BD00BF280F0020B40F0020C80F00203C
:10574000E40F0020F80F002010100020DC0F0020D4
:10575000E00F002080B582B000AF19E0FFF73CF900
:105760000F4BDB68DB687B607B6804331846FFF710
:105770001BF80C4B1B68013B0A4A13600A4B1B6861
:10578000013B094A1360FFF755F9786800F00EF8FD
:10579000054B1B68002BE1D100BF0837BD4680BD1B
:1057A000F80F0020241000200C10002080B584B0D9
:1057B00000AF78607B6893F85130002B08D17B688C
:1057C0001B6B1846FFF784FA7868FFF781FA17E039
:1057D0007B6893F85130012B03D17868FFF778FA92
:1057E0000EE07B6893F85130022B09D04FF0500344
:1057F00083F31188BFF36F8FBFF34F8FFB60FEE71A
:1058000000BF1037BD4680BD80B483B000AF0E4BE3
:105810001B681B68002B01D1012300E00023002B33
:1058200004D00A4B4FF0FF321A6008E0064B1B68A9
:10583000DB68DB687B607B685B68044A136000BFE1
:105840000C37BD4680BC7047DC0F002044100020A0
:1058500080B584B000AF78603960294B1B68FB606D
:10586000284B1B6804331846FEF79EFF0346002BA7
:105870000BD1244B1B68DB6A012202FA03F3DA43E3
:10588000214B1B681340204A13607B68B3F1FF3F34
:105890000AD13B68002B07D01A4B1B68043319460A
:1058A0001A48FEF726FF26E0FA687B681344BB60BF
:1058B000144B1B68BA685A60BA68FB689A4209D2EE
:1058C000134B1A680F4B1B68043319461046FEF73A
:1058D00033FF10E00F4B1A680A4B1B68043319465C
:1058E0001046FEF729FF0C4B1B68BA689A4202D299
:1058F000094ABB68136000BF1037BD4680BD00BFBA
:1059000028100020240F00202C1000201010002050
:10591000E00F0020DC0F0020441000200C480D494F
:105920000D4A002302E0D458C4500433C4188C42FA
:10593000F9D30A4A0A4C002301E013600432A24260
:10594000FBD3FBF71DFC00F00FF8FAF707FE7047DA
:105950000000002088000020805A000888000020F5
:10596000C81D0020FEE7000070B500250C4E0D4C50
:10597000A41BA410A54209D100F022F800250A4E6C
:105980000A4CA41BA410A54205D170BD56F82530C1
:1059900098470135EEE756F8253098470135F2E78C
:1059A000785A0008785A0008785A00087C5A00088B
:1059B00003460244934200D1704703F8011BF9E704
:1059C000F8B500BFF8BC08BC9E467047F8B500BFEC
:0859D000F8BC08BC9E467047BC
:1059D80064656661756C745461736B00D85900080E
:1059E8003D0A0008FFFF00000000000080000000E2
:1059F800000000000000000043414E5461736B003A
:105A0800005A00084D0B00080000000000000000CC
:105A18008000000000000000000000004850540012
:105A2800245A0008190C00080100000000000000BA
:105A380080000000000000000000000002030405D0
:105A4800060708090A0B0C0D0E0F101001020000C2
:105A580049444C4500000000000000000000000020
:105A680001020304060708090000000001020304FC
:045A780035010008EC
:045A7C00110100080C
:105A8000011A0303020000000100000001000000F1
:105A90000100000000000000000000000000000005
:105AA000FF000000FF000000FF000000FF000000FA
:105AB000800000008000000000000000FF000000E7
:105AC000000000000000000000000000FF000000D7
