:020000040800F2
:1000000000800120E531000801060008070600080D
:100010000D0600081306000819060008000000007D
:10002000000000000000000000000000911F000818
:100030001F06000800000000D12100083922000836
:1000400035320008353200083532000835320008F4
:1000500035320008353200083532000835320008E4
:1000600035320008353200083532000835320008D4
:1000700035320008353200083532000835320008C4
:1000800035320008353200083532000835320008B4
:1000900035320008353200083532000835320008A4
:1000A000353200082D0600083532000835320008C8
:1000B0003532000835320008353200083532000884
:1000C0003532000835320008353200083532000874
:1000D0003532000835320008353200083532000864
:1000E0003532000835320008353200083532000854
:1000F0003532000835320008353200083532000844
:100100003532000835320008353200083532000833
:100110003532000835320008353200083532000823
:100120003532000835320008353200083532000813
:100130003532000835320008353200083532000803
:1001400035320008353200083532000835320008F3
:1001500035320008353200083532000835320008E3
:1001600035320008353200083532000835320008D3
:100170003532000835320008353200080000000032
:08018000353200083532000899
:1001900010B5054C237833B9044B13B10448AFF3C1
:1001A00000800123237010BDE0010020000000004A
:1001B000884D000808B5034B1BB103490348AFF352
:1001C000008008BD00000000E4010020884D000808
:1001D00001F0FF01102A2BDB10F0070F08D010F8F8
:1001E000013B013A8B422DD010F0070F42B3F6D1FC
:1001F000F0B441EA012141EA014122F007047FF015
:1002000000070023F0E80256083C85EA010586EA6B
:10021000010685FA47F5A3FA87F586FA47F6A5FAA7
:1002200087F68EB9EED1F0BC01F0FF0102F00702B3
:1002300032B110F8013B013A83EA010313B1F8D15E
:100240000020704701387047002D06BF354603383F
:10025000073815F0010F07D1013015F4807F02BF78
:10026000013015F4C03F0130F0BC0138704700BFC9
:1002700080B485B000AFF860B9607A60FB68074A67
:100280001A60BB68064A1A607B6880221A6000BF49
:100290001437BD465DF8047B704700BFFC010020A9
:1002A0005002002080B483B000AF78604FF060430C
:1002B000D3F8803E03F00103002B13D04FF06043CE
:1002C000D3F8003E03F00103002B0BD000E000BF89
:1002D0004FF060431B68002BF9D04FF060437A6801
:1002E000D2B21A707B6818460C37BD465DF8047BA5
:1002F000704780B586B000AFF860B9607A600023BF
:100300007B6100237B6109E0BB685A1CBA601B78E3
:100310001846FFF7C7FF7B6901337B617A697B6809
:100320009A42F1DB7B6818461837BD4680BD000055
:10033000B0B58EB000AF00F033FA00F035F81548D4
:1003400003F02CF8144B07F11C041D460FCD0FC40D
:1003500095E8070084E8070007F11C030021184610
:1003600001F091FC02460D4B1A600D4B3C461D46B8
:100370000FCD0FC495E8070084E807003B46002135
:10038000184601F080FC0246064B1A6001F074FC2E
:10039000FEE700BFA04D0008BC4D00086C11002016
:1003A000E04D00087011002080B596B000AF07F155
:1003B000140344220021184602F073FF3B4600223A
:1003C0001A605A609A60DA601A6110237B61012317
:1003D000FB6200233B6360237B630223FB630123F7
:1003E0003B6401237B642823BB640723FB64022353
:1003F0003B6502237B6507F11403184600F04CFBB4
:100400000346002B01D000F079F80F233B60032353
:100410007B600023BB600023FB6000233B613B4605
:100420000421184600F01EFF0346002B01D000F007
:1004300065F84FF4007000F0D9FA0346002B01D0A4
:1004400000F05CF800BF5837BD4680BD80B584B071
:1004500000AF786007F10F031946084802F0A6FFC5
:10046000FB7B612B02D1064802F098FF054802F0A1
:1004700095FF4FF47A7001F05EFCF7E7FC4D000841
:10048000004E0008084E000880B582B000AF7860CA
:100490000D4B1B785A1CD1B20B4A117019460B48F0
:1004A00002F008FF4FF4FA6001F045FC064B1B78A0
:1004B000042BEDD1064802F071FF064B1B6818466D
:1004C00001F02DFCE4E700BF50040020184E0008A6
:1004D0002C4E00087011002080B582B000AF78600B
:1004E0007B681B68044A934201D100F071F900BF98
:1004F0000837BD4680BD00BF002C014080B400AF6E
:1005000072B6FEE780B582B000AF114A104B1B6E89
:1005100043F0010313660E4B1B6E03F001037B6077
:100520007B680B4A0A4B9B6D43F080539365084BE5
:100530009B6D03F080533B603B6800220F216FF0FE
:10054000010000F01BFA00BF0837BD4680BD00BFA8
:100550000010024080B58CB000AF78600023FB62D1
:100560000023BB6200227968192000F007FA1920E5
:1005700000F020FA1E4A1E4B1B6E43F40063136604
:100580001B4B1B6E03F40063FB60FB6807F110025A
:1005900007F114031146184600F0F2FF00F0DAFFED
:1005A000F862FB6A134AA2FB03239B0C013BBB626C
:1005B000114B124A1A60104B40F2E732DA600E4AD1
:1005C000BB6A53600C4B00221A610B4B00229A60ED
:1005D000094801F067F80346002B04D1064801F0F2
:1005E000C3F8034600E0012318463037BD4680BDFE
:1005F0000010024083DE1B4374110020002C0140D8
:1006000080B400AFFEE780B400AFFEE780B400AF77
:10061000FEE780B400AFFEE780B400AFFEE780B431
:1006200000AF00BFBD465DF8047B704780B500AFEA
:10063000024801F009F900BF80BD00BF741100201D
:1006400090B587B000AFF860B9607A6000237B6135
:100650000AE0BC68631CBB60AFF300800346DBB2FA
:1006600023707B6901337B617A697B689A42F0DB96
:100670007B6818461C37BD4690BD000080B584B02D
:1006800000AF7860114B1B68002B02D10F4B104A52
:100690001A600E4B1B68FB600C4B1A687B68134496
:1006A0006A46934207D902F0C7FD02460C23136045
:1006B0004FF0FF3306E0054B1A687B681344034A8A
:1006C0001360FB6818461037BD4680BD54040020F7
:1006D000C811002080B483B000AF78604FF0FF33C2
:1006E00018460C37BD465DF8047B704780B483B074
:1006F00000AF786039603B684FF400525A600023C5
:1007000018460C37BD465DF8047B704780B483B053
:1007100000AF7860012318460C37BD465DF8047BB6
:10072000704780B485B000AFF860B9607A6000238C
:1007300018461437BD465DF8047B704780B400AF9F
:10074000154A154BD3F8883043F47003C2F888304B
:10075000124A124B1B6843F0010313600F4B002237
:100760009A600E4A0D4B1B6823F0A85323F4102304
:1007700013600A4B4FF48052DA60084A074B1B683B
:1007800023F480231360054B00229A6100BFBD460D
:100790005DF8047B704700BF00ED00E000100240F0
:1007A00080B582B000AF0023FB71032000F0DBF8BE
:1007B0000020FFF7CFFE0346002B02D00123FB7180
:1007C00001E0FFF79FFEFB7918460837BD4680BD64
:1007D00080B400AF064B1B781A46064B1B681344C7
:1007E000044A136000BFBD465DF8047B704700BF3C
:1007F00008000020C011002080B400AF034B1B682C
:100800001846BD465DF8047B704700BFC01100204C
:1008100080B485B000AF78607B6803F00703FB60AD
:100820000C4BDB68BB60BA684FF6FF031340BB603C
:10083000FB681A02BB68134343F0BF6343F4003301
:10084000BB60044ABB68D36000BF1437BD465DF887
:10085000047B704700ED00E080B400AF044BDB6820
:100860001B0A03F007031846BD465DF8047B70477A
:1008700000ED00E080B483B000AF0346FB7197F950
:100880000730002B0BDB094997F907305B09FA7930
:1008900002F01F02012000FA02F241F8232000BFFB
:1008A0000C37BD465DF8047B704700BF00E100E0F7
:1008B00080B483B000AF03463960FB7197F907300D
:1008C000002B0ADB0D4997F907303A68D2B21201C2
:1008D000D2B20B4483F800230AE00949FB7903F004
:1008E0000F03043B3A68D2B21201D2B20B441A761B
:1008F00000BF0C37BD465DF8047B704700E100E0A7
:1009000000ED00E080B489B000AFF860B9607A60B3
:10091000FB6803F00703FB61FB69C3F10703042BCA
:1009200028BF0423BB61FB690433062B02D9FB6992
:10093000033B00E000237B610122BB6902FA03F361
:100940005A1EBB681A407B699A4001217B6901FAF3
:1009500003F3591E7B680B40134318462437BD46EA
:100960005DF8047B704780B582B000AF786078682E
:10097000FFF74EFF00BF0837BD4680BD80B586B08B
:1009800000AF0346B9607A60FB7300237B61FFF719
:1009900063FF78617A68B9687869FFF7B3FF024648
:1009A00097F90F3011461846FFF782FF00BF18373E
:1009B000BD4680BD80B582B000AF0346FB7197F99C
:1009C00007301846FFF756FF00BF0837BD4680BD09
:1009D00080B400AF044B1B6803F4C0631846BD46E7
:1009E0005DF8047B704700BF0070004080B485B0A4
:1009F00000AF78607B68B3F5007F30D1234B1B6874
:100A000003F4C063B3F5007F38D0204A1F4B1B6846
:100A100023F4C06343F4007313601D4B1B68322240
:100A200002FB03F31B4AA2FB03239B0C0133FB6075
:100A300002E0FB68013BFB60144B5B6903F48063DD
:100A4000B3F5806F02D1FB68002BF2D10F4B5B69CD
:100A500003F48063B3F5806F10D103230FE00B4BD9
:100A60001B6803F4C063B3F5806F07D0074A074BD8
:100A70001B6823F4C06343F48063136000231846AB
:100A80001437BD465DF8047B704700BF007000401E
:100A90000000002083DE1B4380B588B000AF786083
:100AA0007B68002B01D10123D4E3A14B9B6803F0A9
:100AB0000C03BB619E4BDB6803F003037B617B6827
:100AC0001B6803F01003002B00F0E480BB69002BCF
:100AD00007D0BB690C2B40F08B807B69012B40F069
:100AE0008780934B1B6803F00203002B05D07B68C3
:100AF0009B69002B01D10123ACE37B681A6A8C4B04
:100B00001B6803F00803002B04D0894B1B6803F01B
:100B1000F00305E0864BD3F894301B0903F0F00393
:100B20009A4223D97B681B6A184600F05BFD034696
:100B3000002B01D001238DE37D4A7D4B1B6843F0E0
:100B4000080313607A497A4B1B6823F0F0027B6834
:100B50001B6A13430B607649754B5B6823F47F4235
:100B60007B68DB691B0213434B6025E0704A704BC6
:100B70001B6843F0080313606D496D4B1B6823F03D
:100B8000F0027B681B6A13430B606949684B5B6822
:100B900023F47F427B68DB691B0213434B60BB6914
:100BA000002B09D17B681B6A184600F01BFD034629
:100BB000002B01D001234DE300F036FC01465C4BD5
:100BC0009B681B0903F00F035A4AD35C03F01F0311
:100BD00021FA03F3584A1360584B1B681846FFF775
:100BE000B9FC0346FB73FB7B002B52D0FB7B31E34C
:100BF0007B689B69002B32D04D4A4D4B1B6843F0FC
:100C000001031360FFF7F8FD386108E0FFF7F4FD1A
:100C100002463B69D31A022B01D903231AE3444B42
:100C20001B6803F00203002BF0D0414A404B1B68C5
:100C300043F0080313603E493D4B1B6823F0F0026C
:100C40007B681B6A13430B603949394B5B6823F49B
:100C50007F427B68DB691B0213434B601AE0344A16
:100C6000334B1B6823F001031360FFF7C5FD3861A8
:100C700008E0FFF7C1FD02463B69D31A022B01D9F8
:100C80000323E7E22A4B1B6803F00203002BF0D199
:100C900000E000BF7B681B6803F00103002B74D0E9
:100CA000BB69082B05D0BB690C2B0ED17B69032BCC
:100CB0000BD11F4B1B6803F40033002B64D07B68FF
:100CC0005B68002B60D10123C4E27B685B68B3F5ED
:100CD000803F06D1164A164B1B6843F480331360DD
:100CE0001DE07B685B68B3F5A02F0CD1104A104B58
:100CF0001B6843F4802313600D4A0D4B1B6843F4BB
:100D0000803313600BE00A4A094B1B6823F48033DD
:100D10001360074A064B1B6823F4802313607B682B
:100D20005B68002B1CD0FFF767FD386111E000BF46
:100D300000100240544E0008000000200400002073
:100D4000FFF75AFD02463B69D31A642B01D90323EE
:100D500080E2AF4B1B6803F40033002BF0D014E0AB
:100D6000FFF74AFD386108E0FFF746FD02463B69A0
:100D7000D31A642B01D903236CE2A54B1B6803F43F
:100D80000033002BF0D100E000BF7B681B6803F04C
:100D90000203002B60D0BB69042B05D0BB690C2B70
:100DA00019D17B69022B16D1994B1B6803F4806320
:100DB000002B05D07B68DB68002B01D1012349E2C1
:100DC0009349934B5B6823F0F8527B681B691B06C1
:100DD00013434B6040E07B68DB68002B23D08C4AD8
:100DE0008B4B1B6843F480731360FFF705FD38617C
:100DF00008E0FFF701FD02463B69D31A022B01D937
:100E0000032327E2824B1B6803F48063002BF0D09E
:100E10007F497F4B5B6823F0F8527B681B691B0698
:100E200013434B6018E07A4A794B1B6823F48073B4
:100E30001360FFF7E1FC386108E0FFF7DDFC0246D4
:100E40003B69D31A022B01D9032303E2704B1B68C1
:100E500003F48063002BF0D17B681B6803F0080368
:100E6000002B3CD07B685B69002B1CD0684A684B28
:100E7000D3F8943043F00103C2F89430FFF7BCFC80
:100E8000386108E0FFF7B8FC02463B69D31A022B31
:100E900001D90323DEE15E4BD3F8943003F0020363
:100EA000002BEFD01BE05A4A594BD3F8943023F073
:100EB0000103C2F89430FFF79FFC386108E0FFF7A8
:100EC0009BFC02463B69D31A022B01D90323C1E1E3
:100ED0004F4BD3F8943003F00203002BEFD17B6823
:100EE0001B6803F00403002B00F0A6800023FB77AF
:100EF000474B9B6D03F08053002B0DD1444A444B6C
:100F00009B6D43F080539365414B9B6D03F0805381
:100F1000BB60BB680123FB773E4B1B6803F4807307
:100F2000002B18D13B4A3B4B1B6843F48073136082
:100F3000FFF762FC386108E0FFF75EFC02463B69A0
:100F4000D31A022B01D9032384E1324B1B6803F42B
:100F50008073002BF0D07B689B68012B08D12C4A52
:100F60002B4BD3F8903043F00103C2F8903024E0CB
:100F70007B689B68052B10D1254A254BD3F8903010
:100F800043F00403C2F89030214A214BD3F890304B
:100F900043F00103C2F890300FE01D4A1C4BD3F818
:100FA000903023F00103C2F89030194A184BD3F85F
:100FB000903023F00403C2F890307B689B68002BCC
:100FC00016D0FFF719FC38610AE0FFF715FC02465E
:100FD0003B69D31A41F28832934201D9032339E1A4
:100FE0000B4BD3F8903003F00203002BEDD01AE046
:100FF000FFF702FC38610FE0FFF7FEFB02463B699A
:10100000D31A41F28832934206D9032322E100BF6A
:101010000010024000700040904BD3F8903003F075
:101020000203002BE8D1FB7F012B05D18B4A8B4BB0
:101030009B6D23F0805393657B689B6A002B00F0C7
:1010400008817B689B6A022B40F0D080834BDB6871
:101050007B617B6903F003027B68DB6A9A4230D1D3
:101060007B6903F070027B681B6B013B1B019A429A
:1010700027D17B6903F4FE427B685B6B1B029A42BB
:101080001FD17B6903F400337A68926B072A14BF7F
:1010900001220022D2B2934213D17B6903F4C00231
:1010A0007B68DB6B5B08013B5B059A4209D17B697E
:1010B00003F0C0627B681B6C5B08013B5B069A42D5
:1010C0006ED0BB690C2B69D0644B1B6803F0806346
:1010D000002B05D1614B1B6803F08053002B01D01E
:1010E0000123B7E05D4A5D4B1B6823F080731360FA
:1010F000FFF782FB386108E0FFF77EFB02463B69A1
:10110000D31A022B01D90323A4E0544B1B6803F02C
:101110000073002BF0D15148504BDA68504B13400C
:101120007A68D16A7A68126B013A120111437A68BF
:10113000526B120211437A68D26B5208013A52057F
:1011400011437A68126C5208013A520611437A68C8
:10115000926B120952040A431343C3603F4A3F4B48
:101160001B6843F0807313603C4A3C4BDB6843F0E0
:101170008073D360FFF740FB386108E0FFF73CFB6A
:1011800002463B69D31A022B01D9032362E0334B99
:101190001B6803F00073002BF0D05AE0012359E0E4
:1011A0002E4B1B6803F00073002B52D12B4A2B4BA4
:1011B0001B6843F080731360284A284BDB6843F0B8
:1011C0008073D360FFF718FB386108E0FFF714FB6A
:1011D00002463B69D31A022B01D903233AE01F4B85
:1011E0001B6803F00073002BF0D032E0BB690C2BBE
:1011F0002DD01A4A194B1B6823F080731360174BCC
:101200001B6803F02053002B05D1144A134BDB68F5
:1012100023F00303D360114A104BDB6823F088737B
:1012200023F48033D360FFF7E7FA386108E0FFF773
:10123000E3FA02463B69D31A022B01D9032309E0E2
:10124000064B1B6803F00073002BF0D101E0012373
:1012500000E0002318462037BD4680BD0010024044
:101260008C809DF980B584B000AF786039607B6870
:10127000002B01D10123C8E0664B1B6803F0070275
:101280003B689A4210D26349624B1B6823F0070205
:101290003B6813430B605F4B1B6803F007023B681E
:1012A0009A4201D00123B0E07B681B6803F0010380
:1012B000002B4CD07B685B68032B07D1564B1B6817
:1012C00003F00073002B21D101239EE07B685B6853
:1012D000022B07D1504B1B6803F40033002B15D1B0
:1012E000012392E07B685B68002B07D14A4B1B68A7
:1012F00003F00203002B09D1012386E0464B1B6853
:1013000003F48063002B01D101237EE04249424B6C
:101310009B6823F003027B685B6813438B60FFF7D5
:101320006BFAF8600AE0FFF767FA0246FB68D31A27
:1013300041F28832934201D9032366E0364B9B6821
:1013400003F00C027B685B689B009A42EBD17B68E0
:101350001B6803F00203002B08D02F492E4B9B681B
:1013600023F0F0027B689B6813438B60294B1B685A
:1013700003F007023B689A4210D92649254B1B68A7
:1013800023F007023B6813430B60224B1B6803F0FA
:1013900007023B689A4201D0012336E07B681B6854
:1013A00003F00403002B08D01B491B4B9B6823F45C
:1013B000E0627B68DB6813438B607B681B6803F02B
:1013C0000803002B09D01449134B9B6823F4605287
:1013D0007B681B69DB0013438B6000F025F8014636
:1013E0000D4B9B681B0903F00F030C4AD35C03F001
:1013F0001F0321FA03F30A4A13600A4B1B681846BD
:10140000FFF7A8F80346FB72FB7A18461037BD4673
:1014100080BD00BF0020024000100240544E000872
:10142000000000200400002080B489B000AF002339
:10143000FB610023BB613D4B9B6803F00C033B61E8
:101440003A4BDB6803F00303FB603B69002B05D0DC
:101450003B690C2B21D1FB68012B1ED1334B1B6840
:1014600003F00803002B07D1304BD3F894301B0A4C
:1014700003F00F03FB6105E02C4B1B681B0903F015
:101480000F03FB612A4AFB6952F82330FB613B6979
:10149000002B0DD1FB69BB610AE03B69042B02D133
:1014A000244BBB6104E03B69082B01D1224BBB619B
:1014B0003B690C2B33D11D4BDB6803F00303BB608E
:1014C000BB68022B02D0032B03D005E0194B7B61D4
:1014D00005E0194B7B6102E0FB697B6100BF134BA8
:1014E000DB681B0903F0070301337B600F4BDB68EC
:1014F0001B0A03F07F037A6902FB03F27B68B2FBED
:10150000F3F37B61094BDB685B0E03F003030133EC
:101510005B003B607A693B68B2FBF3F3BB61BB697C
:1015200018462437BD465DF8047B70470010024022
:101530006C4E00080024F40000127A0080B400AF62
:10154000034B1B681846BD465DF8047B704700BF1F
:101550000000002080B500AFFFF7F0FF0146064B0A
:101560009B68DB0A03F00703044AD35C03F01F0304
:1015700021FA03F3184680BD00100240644E0008B3
:1015800080B483B000AF786039607B680F221A6046
:10159000124B9B6803F003027B685A600F4B9B68F9
:1015A00003F0F0027B689A600C4B9B6803F4E062E6
:1015B0007B68DA60094B9B68DB0803F4E0627B68B8
:1015C0001A61074B1B6803F007023B681A6000BFF3
:1015D0000C37BD465DF8047B704700BF0010024029
:1015E0000020024080B586B000AF786000233B61E8
:1015F0002A4B9B6D03F08053002B03D0FFF7E8F9D3
:10160000786114E0254A254B9B6D43F08053936528
:10161000224B9B6D03F08053FB60FB68FFF7D8F90A
:1016200078611E4A1D4B9B6D23F0805393657B6947
:10163000B3F5007F0BD17B68802B19D97B68A02B79
:1016400002D902233B6113E001233B6110E07B6878
:10165000802B02D903233B610AE07B68802B02D1F7
:1016600002233B6104E07B68702B01D101233B61C5
:101670000B490B4B1B6823F007023B6913430B60BC
:10168000074B1B6803F007023B699A4201D0012314
:1016900000E0002318461837BD4680BD0010024008
:1016A0000020024080B582B000AF78607B68002BDC
:1016B00001D1012349E07B6893F83D30DBB2002B78
:1016C00006D17B68002283F83C20786800F041F85E
:1016D0007B68022283F83D207B681A687B680433AC
:1016E0001946104600F0F8F97B68012283F848207B
:1016F0007B68012283F83E207B68012283F83F202B
:101700007B68012283F840207B68012283F8412016
:101710007B68012283F842207B68012283F8432002
:101720007B68012283F844207B68012283F84520EE
:101730007B68012283F846207B68012283F84720DA
:101740007B68012283F83D20002318460837BD46F8
:1017500080BD80B483B000AF786000BF0C37BD4659
:101760005DF8047B7047000080B485B000AF7860FE
:101770007B6893F83D30DBB2012B01D001234FE0B1
:101780007B68022283F83D207B681B687A681268B8
:10179000D26842F00102DA607B681B68234A9342F8
:1017A0001DD07B681B68B3F1804F18D07B681B6825
:1017B0001F4A934213D07B681B681E4A93420ED087
:1017C0007B681B681C4A934209D07B681B681B4AD4
:1017D000934204D07B681B68194A934215D17B68F9
:1017E0001B689A68174B1340FB60FB68062B15D0EB
:1017F000FB68B3F5803F11D07B681B687A6812687C
:10180000126842F001021A6008E07B681B687A687F
:101810001268126842F001021A6000E000BF002363
:1018200018461437BD465DF8047B7047002C014014
:101830000004004000080040000C0040003401405B
:10184000004001400700010080B582B000AF786021
:101850007B681B681B6903F00203022B22D17B68A3
:101860001B68DB6803F00203022B1BD17B681B683B
:101870006FF002021A617B6801221A777B681B688D
:101880009B6903F00303002B03D0786800F005F98F
:1018900005E0786800F0F7F8786800F008F97B68F0
:1018A00000221A777B681B681B6903F00403042B72
:1018B00022D17B681B68DB6803F00403042B1BD177
:1018C0007B681B686FF004021A617B6802221A773A
:1018D0007B681B689B6903F44073002B03D0786816
:1018E00000F0DBF805E0786800F0CDF8786800F0EB
:1018F000DEF87B6800221A777B681B681B6903F09F
:101900000803082B22D17B681B68DB6803F00803FF
:10191000082B1BD17B681B686FF008021A617B687B
:1019200004221A777B681B68DB6903F00303002B32
:1019300003D0786800F0B1F805E0786800F0A3F80B
:10194000786800F0B4F87B6800221A777B681B681F
:101950001B6903F01003102B22D17B681B68DB6826
:1019600003F01003102B1BD17B681B686FF0100273
:101970001A617B6808221A777B681B68DB6903F4AD
:101980004073002B03D0786800F087F805E0786892
:1019900000F079F8786800F08AF87B6800221A77FE
:1019A0007B681B681B6903F00103012B0ED17B6868
:1019B0001B68DB6803F00103012B07D17B681B6800
:1019C0006FF001021A617868FEF786FD7B681B687C
:1019D0001B6903F08003802B0ED17B681B68DB68DA
:1019E00003F08003802B07D17B681B686FF08002B7
:1019F0001A61786800F014F97B681B681B6903F4AE
:101A00008073B3F5807F0ED17B681B68DB6803F0C1
:101A10008003802B07D17B681B686FF480721A618A
:101A2000786800F007F97B681B681B6903F04003C6
:101A3000402B0ED17B681B68DB6803F04003402B12
:101A400007D17B681B686FF040021A61786800F06C
:101A500038F87B681B681B6903F02003202B0ED12C
:101A60007B681B68DB6803F02003202B07D17B68B1
:101A70001B686FF020021A61786800F0C7F800BF99
:101A80000837BD4680BD80B483B000AF786000BF2A
:101A90000C37BD465DF8047B704780B483B000AF5F
:101AA000786000BF0C37BD465DF8047B704780B49A
:101AB00083B000AF786000BF0C37BD465DF8047B93
:101AC000704780B483B000AF786000BF0C37BD466C
:101AD0005DF8047B7047000080B485B000AF78608B
:101AE00039607B681B68FB607B68404A934213D077
:101AF0007B68B3F1804F0FD07B683D4A93420BD097
:101B00007B683C4A934207D07B683B4A934203D0B0
:101B10007B683A4A934208D1FB6823F07003FB606C
:101B20003B685B68FA681343FB607B682F4A93420B
:101B30001FD07B68B3F1804F1BD07B682C4A934247
:101B400017D07B682B4A934213D07B682A4A934272
:101B50000FD07B68294A93420BD07B68284A934276
:101B600007D07B68274A934203D07B68264A93427A
:101B700008D1FB6823F44073FB603B68DB68FA68BC
:101B80001343FB60FB6823F080023B685B691343EF
:101B9000FB607B68FA681A603B689A687B68DA6267
:101BA0003B681A687B689A627B68104A93420FD040
:101BB0007B68124A93420BD07B68114A934207D04C
:101BC0007B68104A934203D07B680F4A934203D14B
:101BD0003B681A697B681A637B6801225A6100BFFF
:101BE0001437BD465DF8047B704700BF002C0140F0
:101BF0000004004000080040000C00400034014098
:101C000000400140004401400048014080B483B0DE
:101C100000AF786000BF0C37BD465DF8047B7047AD
:101C200080B483B000AF786000BF0C37BD465DF86C
:101C3000047B704780B483B000AF786000BF0C377E
:101C4000BD465DF8047B704780B485B000AF0346A5
:101C5000FB800023FB60B7F90630842B05D0B7F971
:101C60000620FB6813440333FB60FB6818461437F7
:101C7000BD465DF8047B704780B500AF00F060FFA3
:101C80000023184680BDF0B589B004AF7860396094
:101C90007B685B69002B20D07B689B69002B1CD084
:101CA0007B685C687B681D687B681E697B68B3F92C
:101CB00008301846FFF7C8FF01467B685B697A6801
:101CC00092690292019300913B6832462946204670
:101CD00000F0E4FC0346FB601CE07B685C687B680A
:101CE0001D687B681B699EB27B68B3F90830184693
:101CF000FFF7AAFF024607F10C03019300923B682D
:101D000032462946204600F023FD0346012B01D030
:101D1000002300E0FB6818461437BD46F0BD80B5CF
:101D200082B000AF7860786800F048FE0023184663
:101D30000837BD4680BD80B584B000AF78607B6851
:101D4000FB60FB68002B01D0FB6800E00123184614
:101D500000F0C2FE002318461037BD4680BD80B497
:101D600083B000AF78607B6803F108027B685A603B
:101D70007B684FF0FF329A607B6803F108027B6852
:101D8000DA607B6803F108027B681A617B680022D5
:101D90001A6000BF0C37BD465DF8047B704780B405
:101DA00083B000AF78607B6800221A6100BF0C37F7
:101DB000BD465DF8047B704780B485B000AF7860A5
:101DC00039607B685B68FB603B68FA685A60FB6857
:101DD0009A683B689A60FB689B683A685A60FB683F
:101DE0003A689A603B687A681A617B681B685A1C7B
:101DF0007B681A6000BF1437BD465DF8047B7047EE
:101E000080B485B000AF786039603B681B68BB6008
:101E1000BB68B3F1FF3F03D17B681B69FB600CE03B
:101E20007B680833FB6002E0FB685B68FB60FB6873
:101E30005B681A68BB689A42F6D9FB685A683B68C7
:101E40005A603B685B683A689A603B68FA689A60D7
:101E5000FB683A685A603B687A681A617B681B685D
:101E60005A1C7B681A6000BF1437BD465DF8047BBE
:101E7000704780B485B000AF78607B681B69FB60F9
:101E80007B685B687A6892689A607B689B687A680E
:101E900052685A60FB685A687B689A4203D17B6833
:101EA0009A68FB685A607B6800221A61FB681B68AD
:101EB0005A1EFB681A60FB681B6818461437BD463B
:101EC0005DF8047B7047000080B485B000AFF86017
:101ED000B9607A60FB68043BFB60FB684FF080727E
:101EE0001A60FB68043BFB60BB6823F00102FB68DF
:101EF0001A60FB68043BFB600C4AFB681A60FB68D5
:101F0000143BFB607A68FB681A60FB68043BFB606B
:101F1000FB686FF002021A60FB68203BFB60FB6805
:101F200018461437BD465DF8047B7047311F000822
:101F300080B485B000AF00237B60114B1B68B3F108
:101F4000FF3F09D04FF0500383F31188BFF36F8F29
:101F5000BFF34F8FFB60FEE74FF0500383F3118810
:101F6000BFF36F8FBFF34F8FBB6000BF7B68002B49
:101F7000FCD000BF1437BD465DF8047B704700BF3E
:101F80000C00002000000000000000000000000025
:101F9000074B19680868B0E8F04F80F30988BFF371
:101FA0006F8F4FF0000080F311887047AFF300800F
:101FB0003810002000BF00BF08480068006880F3A8
:101FC00008884FF0000080F3148862B661B6BFF352
:101FD0004F8FBFF36F8F00DF00BF00BF08ED00E041
:101FE00080B586B000AF444B1B68444A934209D188
:101FF0004FF0500383F31188BFF36F8FBFF34F8F00
:102000003B61FEE73C4B1B683D4A934209D14FF0D0
:10201000500383F31188BFF36F8FBFF34F8FFB60C3
:10202000FEE7384B7B617B691B78DBB27B607B69A9
:10203000FF221A707B691B78DBB2FB70FB78DBB286
:1020400003F05003DAB2304B1A70304B07221A609B
:1020500009E02E4B1B68013B2C4A1360FB78DBB276
:102060005B00DBB2FB70FB78DBB203F08003802BFC
:10207000EFD0264B1B68C3F10703042B09D04FF0A8
:10208000500383F31188BFF36F8FBFF34F8FBB6093
:10209000FEE71E4B1B681B021C4A13601B4B1B6890
:1020A00003F4E063194A13607B68DAB27B691A7043
:1020B000174A174B1B6843F470031360144A144B00
:1020C0001B6843F07043136000F0D6F8114B0022F8
:1020D0001A6000F0F5F8104A0F4B1B6843F04043BC
:1020E0001360FFF769FF00F0EBFEFFF721FF00230D
:1020F00018461837BD4680BD00ED00E071C20F41A3
:1021000070C20F4100E400E0580400205C0400208D
:1021100020ED00E00C00002034EF00E080B483B03C
:1021200000AF4FF0500383F31188BFF36F8FBFF3FD
:102130004F8F7B600E4B1B6801330D4A13600C4BB5
:102140001B68012B0ED10B4B1B68DBB2002B09D097
:102150004FF0500383F31188BFF36F8FBFF34F8F9E
:102160003B60FEE700BF0C37BD465DF8047B70475F
:102170000C00002004ED00E080B483B000AF114BF0
:102180001B68002B09D14FF0500383F31188BFF374
:102190006F8FBFF34F8F7B60FEE70A4B1B68013BDD
:1021A000084A1360074B1B68002B04D100233B60D7
:1021B0003B6883F3118800BF0C37BD465DF8047B94
:1021C000704700BF0C00002000000000000000006D
:1021D000EFF30980BFF36F8F154B1A681EF0100FD5
:1021E00008BF20ED108A20E9F04F10602DE90900AA
:1021F0004FF0500080F31188BFF34F8FBFF36F8F04
:1022000000F05EFE4FF0000080F3118809BC1968F1
:102210000868B0E8F04F1EF0100F08BFB0EC108A4D
:1022200080F30988BFF36F8F704700BFAFF3008062
:102230003810002000BF00BF80B582B000AF4FF063
:10224000500383F31188BFF36F8FBFF34F8F7B6011
:1022500000F07EFD0346002B03D0064B4FF080526A
:102260001A6000233B603B6883F3118800BF083786
:10227000BD4680BD04ED00E080B400AF0B4B0022F2
:102280001A600B4B00221A600A4A0B4B1B680B4961
:10229000A1FB03139B09013B1360044B07221A6047
:1022A00000BFBD465DF8047B704700BF10E000E052
:1022B00018E000E014E000E000000020D34D6210C0
:1022C000DFF80C00016841F470010160704700BF45
:1022D00088ED00E080B58AB000AF78600023FB6134
:1022E00000F08CFC594B1B68002B01D100F01AF94F
:1022F000574B1A687B681340002B40F091807B6835
:10230000002B1CD008227B6813447B607B6803F0A1
:102310000703002B13D07B6823F0070308337B608F
:102320007B6803F00703002B09D04FF0500383F3C1
:102330001188BFF36F8FBFF34F8F7B61FEE77B6820
:10234000002B6DD0434B1B687A689A4268D8424B89
:102350003B62414B1B687B6204E07B6A3B627B6AA9
:102360001B687B627B6A5A687B689A4203D27B6AED
:102370001B68002BF1D1354B1B687A6A9A424FD00B
:102380003B6A1B6808221344FB617B6A1A683B6A3C
:102390001A607B6A5A687B68D21A08235B009A42EB
:1023A0001ED97A6A7B681344BB61BB6903F00703DB
:1023B000002B09D04FF0500383F31188BFF36F8FC8
:1023C000BFF34F8F3B61FEE77B6A5A687B68D21A86
:1023D000BB695A607B6A7A685A60B86900F004F990
:1023E0001C4B1A687B6A5B68D31A1A4A1360194B34
:1023F0001A681A4B1B689A4203D2164B1B68174A7D
:1024000013607B6A5A68124B1B681A437B6A5A60D6
:102410007B6A00221A60124B1B680133104A13605A
:1024200000F0FAFBFB6903F00703002B09D04FF023
:10243000500383F31188BFF36F8FBFF34F8FFB609F
:10244000FEE7FB6918462837BD4680BD20100020F6
:102450003410002024100020181000202810002024
:102460002C10002080B586B000AF78607B687B615F
:102470007B68002B4BD008235B427A6913447B6155
:102480007B693B613B695A68234B1B681340002BF7
:1024900009D14FF0500383F31188BFF36F8FBFF35F
:1024A0004F8FFB60FEE73B691B68002B09D04FF0A4
:1024B000500383F31188BFF36F8FBFF34F8FBB605F
:1024C000FEE73B695A68144B1B681340002B1ED073
:1024D0003B691B68002B1AD13B695A680E4B1B687D
:1024E000DB431A403B695A6000F088FB3B695A683D
:1024F0000A4B1B681344094A1360386900F074F8EA
:10250000074B1B680133064A136000F085FB00BFD0
:102510001837BD4680BD00BF3410002024100020B5
:102520003010002080B485B000AF40F6B833BB60F7
:10253000274BFB60FB6803F00703002B0CD0FB6804
:102540000733FB60FB6823F00703FB60BA68FB6896
:10255000D31A1F4A1344BB60FB687B601D4A7B682B
:1025600013601C4B00225A607A68BB681344FB60FE
:102570000822FB689B1AFB60FB6823F00703FB60E3
:10258000FB68154A1360144B1B6800225A60124BFB
:102590001B6800221A607B683B603B68FA68D21AAD
:1025A0003B685A600C4B1A683B681A603B685B6872
:1025B0000A4A13603B685B68094A1360094B4FF095
:1025C00000421A6000BF1437BD465DF8047B7047B7
:1025D0006004002018100020201000202810002087
:1025E000241000203410002080B485B000AF786043
:1025F000284BFB6002E0FB681B68FB60FB681A6805
:102600007B689A42F7D3FB68BB60FB685B68BA687B
:102610001A447B689A4208D1FB685A687B685B68F9
:102620001A44FB685A60FB687B607B68BB607B6810
:102630005B68BA681A44FB681B689A4218D1FB6849
:102640001A68154B1B689A420DD07B685A68FB6864
:102650001B685B681A447B685A60FB681B681A68D1
:102660007B681A6008E00C4B1A687B681A6003E00C
:10267000FB681A687B681A60FA687B689A4202D025
:10268000FB687A681A6000BF1437BD465DF8047BAA
:10269000704700BF181000202010002080B58EB0B9
:1026A00004AFF860B9607A603B607B6B002B09D1A6
:1026B0004FF0500383F31188BFF36F8FBFF34F8F39
:1026C0003B62FEE7BB6B002B09D14FF0500383F355
:1026D0001188BFF36F8FBFF34F8FFB61FEE7542369
:1026E0003B613B69542B09D04FF0500383F31188B1
:1026F000BFF36F8FBFF34F8FBB61FEE73B69BB6BCF
:10270000002B1ED07B6B002B1BD0BB6B7B627B6ACC
:102710007A6B1A637B6A022283F8512000230393A9
:102720007B6A029307F1140301933B6B00933B68B0
:102730007A68B968F86800F050F8786A00F0D4F860
:1027400001E000237B617B6918462837BD4680BDC8
:1027500080B58CB004AFF860B9603B601346FB8075
:10276000FB889B001846FFF7B5FD78617B69002B5D
:102770000ED05420FFF7AEFDF861FB69002B03D0AB
:10278000FB697A691A6305E07869FFF76BFE01E07F
:102790000023FB61FB69002B17D0FB69002283F843
:1027A0005120FA8800230393FB690293FB6A01938B
:1027B000BB6A00933B68B968F86800F00EF8F869E6
:1027C00000F092F80123BB6102E04FF0FF33BB61E0
:1027D000BB6918462037BD4680BD80B588B000AFC4
:1027E000F860B9607A603B603B6B1A6B7B6803F101
:1027F0008043013B9B001344BB61BB6923F007038B
:10280000BB61BB6903F00703002B09D04FF05003F5
:1028100083F31188BFF36F8FBFF34F8F7B61FEE7A8
:10282000BB68002B1FD00023FB6112E0BA68FB6974
:10283000134419783A6BFB69134434330A461A700F
:10284000BA68FB6913441B78002B06D0FB6901337F
:10285000FB61FB690F2BE9D900E000BF3B6B002255
:1028600083F8432003E03B6B002283F83420BB6AEB
:10287000062B01D90623BB623B6BBA6ADA623B6B5B
:10288000BA6A5A643B6B00229A643B6B0433184665
:10289000FFF785FA3B6B18331846FFF780FA3B6B5E
:1028A0003A6B1A61BB6AC3F107023B6B9A613B6BDF
:1028B0003A6B5A623B6B0022DA643B6B002283F86E
:1028C00050203A68F968B869FFF7FEFA02463B6B98
:1028D0001A60FB6A002B02D0FB6A3A6B1A6000BFD9
:1028E0002037BD4680BD000080B582B000AF786063
:1028F000FFF714FC2A4B1B680133294A1360294B4C
:102900001B68002B09D1274A7B681360244B1B6886
:10291000012B10D100F046FB0DE0234B1B68002B70
:1029200009D1204B1B68DA6A7B68DB6A9A4202D8BD
:102930001C4A7B6813601D4B1B6801331B4A1360E4
:102940007B68DB6A01229A40194B1B681343184AC3
:1029500013607B68DA6A13469B0013449B00154A98
:102960001A447B68043319461046FFF725FAFFF72F
:1029700003FC0D4B1B68002B0ED00A4B1B68DA6A58
:102980007B68DB6A9A4207D20B4B4FF080521A6089
:10299000BFF34F8FBFF36F8F00BF0837BD4680BDB9
:1029A000381100203810002044110020541100205C
:1029B000401100203C10002004ED00E080B584B000
:1029C00000AF7860FFF7AAFB7B68002B02D1384B81
:1029D0001B6800E07B68FB60FB6804331846FFF768
:1029E00048FA0346002B15D1FB68DA6A31491346D1
:1029F0009B0013449B000B441B68002B0AD1FB680F
:102A0000DB6A012202FA03F3DA432B4B1B68134003
:102A1000294A1360FB689B6A002B04D0FB681833BB
:102A20001846FFF726FA254B1B680133234A13602B
:102A30001F4B1B68FA689A420BD1FB680433194696
:102A40001F48FFF7B9F91F4B1B6801331D4A13607C
:102A500009E01D4B1B68013B1B4A1360F86800F03E
:102A60000DFB00F039FBFFF787FB184B1B68002BB1
:102A70001AD00F4B1B68FA689A4215D1144B1B6889
:102A8000002B09D04FF0500383F31188BFF36F8FF1
:102A9000BFF34F8FBB60FEE70E4B4FF080521A60C2
:102AA000BFF34F8FBFF36F8F00BF1037BD4680BDA0
:102AB000381000203C10002040110020541100204C
:102AC0000C1100202011002038110020441100209A
:102AD0006011002004ED00E080B584B000AF7860A4
:102AE0000023FB607B68002B16D0134B1B68002B68
:102AF00009D04FF0500383F31188BFF36F8FBFF3FA
:102B00004F8FBB60FEE700F079F80021786800F095
:102B100003FB00F081F8F860FB68002B07D1074B3E
:102B20004FF080521A60BFF34F8FBFF36F8F00BF1B
:102B30001037BD4680BD00BF6011002004ED00E0ED
:102B400080B58AB004AF0023BB6000237B603A46A7
:102B5000391D07F108031846FDF78AFB39687B68C1
:102B6000BA68029201930023009300230A461D498C
:102B70001D48FFF793FD02461C4B1A601B4B1B6858
:102B8000002B02D001237B6101E000237B617B6984
:102B9000012B15D14FF0500383F31188BFF36F8FD2
:102BA000BFF34F8F3B61124B4FF0FF321A60114B56
:102BB00001221A60104B00221A60FFF711FA0DE093
:102BC0007B69B3F1FF3F09D14FF0500383F31188C4
:102BD000BFF36F8FBFF34F8FFB60FEE700BF183767
:102BE000BD4680BD404E0008752F00085C110020D6
:102BF00058110020441100203C11002080B400AF87
:102C0000044B1B680133034A136000BFBD465DF8E7
:102C1000047B70476011002080B584B000AF0023B2
:102C2000FB600023BB60414B1B68002B09D14FF0B8
:102C3000500383F31188BFF36F8FBFF34F8F3B6057
:102C4000FEE7FFF76BFA394B1B68013B374A13600D
:102C5000364B1B68002B61D1354B1B68002B5DD0B8
:102C60002EE0344BDB68DB68FB60FB6818331846EA
:102C7000FFF7FFF8FB6804331846FFF7FAF8FB6824
:102C8000DB6A01229A402C4B1B6813432A4A1360CB
:102C9000FB68DA6A13469B0013449B00274A1A44D8
:102CA000FB68043319461046FFF786F8FB68DA6ABA
:102CB000234B1B68DB6A9A4202D3224B01221A6023
:102CC0001C4B1B68002BCCD1FB68002B01D000F003
:102CD00003FA1D4B1B687B607B68002B10D000F053
:102CE00037F80346002B02D0164B01221A607B688E
:102CF000013B7B607B68002BF1D1134B00221A60F3
:102D0000104B1B68002B09D00123BB600F4B4FF009
:102D100080521A60BFF34F8FBFF36F8FFFF72CFA0B
:102D2000BB6818461037BD4680BD00BF601100204B
:102D300038110020F8100020401100203C10002025
:102D4000381000204C1100204811002004ED00E054
:102D500080B586B000AF00237B614E4B1B68002B13
:102D600040F08D804C4B1B6801333B614A4A3B6904
:102D700013603B69002B1FD1484B1B681B68002B5D
:102D800009D04FF0500383F31188BFF36F8FBFF367
:102D90004F8F3B60FEE7414B1B68FB60404B1B685D
:102DA0003E4A13603E4AFB6813603E4B1B6801338A
:102DB0003C4A136000F090F93B4B1B683A699A4219
:102DC00048D3364B1B681B68002B04D1364B4FF0A1
:102DD000FF321A603EE0314B1B68DB68DB68BB608A
:102DE000BB685B687B603A697B689A4203D22E4A73
:102DF0007B6813602EE0BB6804331846FFF739F890
:102E0000BB689B6A002B04D0BB6818331846FFF7D9
:102E100030F8BB68DB6A01229A40244B1B681343DD
:102E2000224A1360BB68DA6A13469B0013449B0076
:102E30001F4A1A44BB68043319461046FEF7BCFF0C
:102E4000BB68DA6A1B4B1B68DB6A9A42B9D3012361
:102E50007B61B6E7174B1B68DA6A154913469B007E
:102E600013449B000B441B68012B01D901237B6198
:102E7000114B1B68002B07D001237B6104E00F4B33
:102E80001B6801330D4A13607B6918461837BD462D
:102E900080BD00BF601100203C110020F010002018
:102EA000F410002050110020581100204011002083
:102EB0003C100020381000204C1100204811002048
:102EC00080B487B000AF264B1B68002B03D0254B86
:102ED00001221A603EE0234B00221A60224B1B683D
:102EE000FB60FB68B3FA83F3FB72FB7AC3F11F0349
:102EF0007B611E497A6913469B0013449B000B4477
:102F00001B68002B09D14FF0500383F31188BFF3E6
:102F10006F8FBFF34F8F7B60FEE77A6913469B008C
:102F200013449B00114A13443B613B695B685A6838
:102F30003B695A603B695A683B6908339A4204D13D
:102F40003B695B685A683B695A603B695B68DB6850
:102F5000074A136000BF1C37BD465DF8047B70470D
:102F6000601100204C110020401100203C10002076
:102F70003810002080B582B000AF786000F052F8C1
:102F8000064B1B68012BF9D9054B4FF080521A6094
:102F9000BFF34F8FBFF36F8FF0E700BF3C100020EF
:102FA00004ED00E080B582B000AF00237B600CE050
:102FB0007A6813469B0013449B00124A1344184638
:102FC000FEF7CDFE7B6801337B607B68062BEFD973
:102FD0000D48FEF7C4FE0D48FEF7C1FE0C48FEF793
:102FE000BEFE0C48FEF7BBFE0B48FEF7B8FE0B4BCF
:102FF000054A1A600A4B054A1A6000BF0837BD46E9
:1030000080BD00BF3C100020C8100020DC10002054
:10301000F81000200C11002024110020F0100020D6
:10302000F410002080B582B000AF19E0FFF776F809
:103030000F4BDB68DB687B607B6804331846FEF768
:1030400018FF0C4B1B68013B0A4A13600A4B1B68B4
:10305000013B094A1360FFF78FF8786800F00EF81B
:10306000054B1B68002BE1D100BF0837BD4680BD72
:103070000C110020381100202011002080B584B0F0
:1030800000AF78607B6893F85130002B08D17B68E3
:103090001B6B1846FFF7E6F97868FFF7E3F917E0CE
:1030A0007B6893F85130012B03D17868FFF7DAF988
:1030B0000EE07B6893F85130022B09D04FF050039B
:1030C00083F31188BFF36F8FBFF34F8FFB60FEE771
:1030D00000BF1037BD4680BD80B483B000AF0C4B3D
:1030E0001B681B68002B04D10A4B4FF0FF321A609B
:1030F00008E0074B1B68DB68DB687B607B685B680C
:10310000044A136000BF0C37BD465DF8047B70476E
:10311000F01000205811002080B584B000AF786016
:103120003960294B1B68FB60284B1B680433184629
:10313000FEF79FFE0346002B0BD1244B1B68DB6A76
:10314000012202FA03F3DA43214B1B681340204AA1
:1031500013607B68B3F1FF3F0AD13B68002B07D0B7
:103160001A4B1B68043319461A48FEF725FE26E061
:10317000FA687B681344BB60144B1B68BA685A60DA
:10318000BA68FB689A4209D2134B1A680F4B1B6846
:10319000043319461046FEF733FE10E00F4B1A6851
:1031A0000A4B1B68043319461046FEF729FE0C4BE8
:1031B0001B68BA689A4202D2094ABB68136000BF12
:1031C0001037BD4680BD00BF3C11002038100020E4
:1031D0004011002024110020F4100020F0100020E5
:1031E00058110020DFF834D0FDF7A8FA002103E0E1
:1031F0000B4B5B58435004310A480B4B42189A4220
:10320000F6D30A4A02E0002342F8043B084B9A42F4
:10321000F9D300F017F8FDF78BF8FEE700800120E6
:103220006450000800000020E0010020E0010020C0
:10323000C8110020FEE70000014B1868704700BF6E
:103240001000002070B50D4E0D4CA41BA4100025DD
:10325000A54209D10B4E0C4C01F096FDA41BA41005
:103260000025A54205D170BD56F825309847013597
:10327000EEE756F8253098470135F2E75C50000834
:103280005C5000085C5000086050000810B5431EF8
:103290000A44914200D110BD11F8014B03F8014FCF
:1032A000F7E702440346934200D1704703F8011B3D
:1032B000F9E700000FB40A4B13B51C6824B1A369E9
:1032C00013B9204600F04EFA05AB049AA1680193A9
:1032D000204600F027FC02B0BDE8104004B0704763
:1032E0001000002070B50E46054618B183690BB971
:1032F00000F038FAAB69AC6813B9284600F032FA2E
:10330000234B9C4217D16C68A3891B071DD52369E9
:10331000DBB1013EA36816F8011F013BA360E9B9C8
:10332000002B2EDA22460A21284600F057F80130F9
:1033300011D00A2070BD174B9C4201D1AC68E3E765
:10334000154B9C4208BFEC68DEE72146284600F09A
:1033500097F80028DDD04FF0FF3070BD002B04DA65
:10336000A269934206DB0A2904D023685A1C226012
:103370001970CFE72246284600F030F80130C9D155
:10338000E9E723680A205A1C2260187070BD00BF4C
:10339000C04E0008E04E0008A04E0008024B014657
:1033A0001868FFF79FBF00BF100000200FB40A4B42
:1033B00013B51C6824B1A36913B9204600F0D2F9F3
:1033C00005AB049A61680193204600F0ABFF02B0A0
:1033D000BDE8104004B0704710000020F8B50E465C
:1033E0001446054618B183690BB900F0BBF9214BAF
:1033F0009C422AD16C68A369A360A3891A072ED5C1
:10340000236963B323692068C01A6369F6B29842DE
:10341000374604DB2146284600F028F928BBA3687C
:10342000013BA36023685A1C22601E70636901304F
:10343000984204D0A389DB0719D50A2E17D121465B
:10344000284600F013F990B10FE00B4B9C4201D1DC
:10345000AC68D0E7094B9C4208BFEC68CBE721463B
:10346000284600F00DF80028CCD04FF0FF37384642
:10347000F8BD00BFC04E0008E04E0008A04E000896
:10348000324B70B51D6806460C4625B1AB6913B9C1
:10349000284600F067F92E4B9C420FD16C68B4F9B6
:1034A0000C309AB215072CD4D00611D40922326000
:1034B00043F04003A3814FF0FF3070BD254B9C4289
:1034C00001D1AC68EBE7244B9C4208BFEC68E6E70F
:1034D000510712D5616B41B104F14403994202D006
:1034E000304600F049FA00236363A38923F02403E4
:1034F000A3810023636023692360A38943F0080349
:10350000A38123694BB9A38903F42073B3F5007F2A
:1035100003D02146304600F0EFF9A28912F00103F2
:103520000CD00023A36063695B42A361236953B994
:10353000B4F90C3013F08000BAD170BD920758BFB7
:103540006369A360F2E70020F7E700BF10000020E6
:10355000C04E0008E04E0008A04E00088A892DE900
:10356000F041054610070C465AD44B68002B05DC89
:103570000B6C002B02DC0020BDE8F081E66A002E17
:10358000F9D0002312F480522F682B6033D0606D85
:10359000A3895A0705D56368C01A636B0BB1236C06
:1035A000C01A00230246E66A216A2846B047431C37
:1035B000A38906D129681D294BD82B4ACA40D607B2
:1035C00047D500226260D9042269226004D5421CDA
:1035D00001D12B6803B96065616B2F600029CAD0E7
:1035E00004F14403994202D0284600F0C5F90020B6
:1035F0006063BDE8F081216A01232846B047411C81
:10360000C6D12B68002BC3D01D2B01D0162B01D1A6
:103610002F60B0E7A38943F04003A381BDE8F081A8
:103620000F69002FA7D093070E6808BF4B690F6082
:1036300018BF0023A6EB07088B60B8F1000F9ADDD6
:1036400043463A46216AA66A2846B047002807DC66
:10365000A38943F04003A3814FF0FF30BDE8F08120
:103660000744A8EB0008E8E70100402038B50B69E3
:1036700005460C46DBB118B183690BB900F072F84E
:103680000C4B9C4209D16C68B4F90C307BB12146DB
:103690002846BDE83840FFF761BF074B9C4201D187
:1036A000AC68F1E7054B9C4208BFEC68ECE70020F2
:1036B00038BD00BFC04E0008E04E0008A04E000814
:1036C000014620B9044B0549186800F0D3B8044BF3
:1036D0001868FFF7CBBF00BF9C4E00086D3600088E
:1036E00010000020014900F0C5B800BF6D36000889
:1036F000002310B504460360436083608181436604
:10370000C281036143618361194608225C30FFF77F
:10371000C8FD054B6362054BA362054BE362054B95
:103720002462236310BD00BFCD470008EF470008A7
:10373000274800084B48000870B54A1E68255543C5
:103740000E4605F1740100F065F9044640B1002110
:1037500080E842000C30A06005F16802FFF7A1FD8F
:10376000204670BD836910B5044633BB8364C364CF
:103770000365124B124A1B688262984204BF012300
:10378000836100F01FF86060204600F01BF8A06025
:10379000204600F017F80022E06004216068FFF77F
:1037A000A7FF01220921A068FFF7A2FF0222122130
:1037B000E068FFF79DFF0123A36110BD9C4E000848
:1037C000E5360008F8B51C4B1E68B369074613B907
:1037D0003046FFF7C7FF4836B4687368013B03D52E
:1037E000336833B13668F7E7B4F90C506DB168341B
:1037F000F4E704213846FFF79FFF30600028F1D13D
:103800000C233B6004462046F8BD4FF6FF73E3816E
:103810000123A38165662560A560656025616561FA
:10382000A5610822294604F15C00FFF73AFD6563B3
:10383000A563A564E564E6E79C4E00082DE9F04128
:10384000884600F14804002614B93046BDE8F081EE
:10385000A5686768013F01D52468F5E7AB89012BAE
:1038600006D9B5F90E30013302D02846C0470643C9
:103870006835EFE72DE9F8438046894600F14804B2
:10388000002614B93046BDE8F883A5686768013F93
:1038900001D52468F5E7AB89012B07D9B5F90E30BE
:1038A000013303D029464046C84706436835EEE752
:1038B00070B50E46B1F90E10002990B014461D46A1
:1038C00007DA00232B60B3891A0610D44FF4806303
:1038D0000EE001AA01F0B0F90028F2DB029A02F42E
:1038E0007042A2F500535A425A412A60EEE7402343
:1038F0000020236010B070BD8B8973B59D0706460C
:103900000C4607D504F1470323602361012363615B
:1039100002B070BD01AB6A46FFF7CAFF00990546C9
:10392000304600F077F848B9B4F90C309A05EFD476
:1039300023F0030343F00203A381E3E70D4BB362DB
:10394000A389206043F08003A381009B6361019BF6
:1039500020615BB1B4F90E10304601F07FF928B157
:10396000A38923F0030343F00103A381A3891D432B
:10397000A581CDE7E536000838B50546002945D0D4
:1039800051F8043C0C1F002BB8BFE41801F0ACF94F
:103990001F4A1368104633B9636014602846BDE8B7
:1039A000384001F0A2B9A3420CD9216862189342B1
:1039B00004BF1A685B68636004BF52182260046029
:1039C000ECE713465A680AB1A242FAD919685818A6
:1039D000A0420BD120680144581882421960DDD101
:1039E000106852685A6001441960D7E702D90C2365
:1039F0002B60D3E7206821188A4204BF11685268FF
:103A0000626004BF091821605C60C7E738BD00BF71
:103A10006411002070B5CD1C25F0030508350C2D70
:103A200038BF0C25002D064601DBA94203D90C2323
:103A30003360002070BD01F057F9234A1468214615
:103A400091B9224C23681BB9304600F07FFE2060FC
:103A50002946304600F07AFE431C26D10C23336001
:103A6000304601F042F9E4E70B685B1B1AD40B2BDC
:103A70000FD90B60CD50CC18304601F036F904F167
:103A80000B00231D20F00700C31A1BD05A42E2503E
:103A900070BD8C420DBF63684B686360136018BFD4
:103AA0000C46E9E70C464968CAE7C41C24F0030445
:103AB000A04205D0211A304600F048FE0130CDD09A
:103AC0002560D9E770BD00BF641100206811002097
:103AD0009368013B002B10B4936009DA9469A34208
:103AE00002DBCBB20A2B03D15DF8044BFFF776BCA7
:103AF0001368581C10601970C8B25DF8044B704709
:103B0000F8B506460F461446D518AC4201D1002040
:103B100007E03A4614F8011B3046FFF7D9FF431C73
:103B2000F3D1F8BD2DE9F04F9DB00C461746039335
:103B3000064618B183690BB9FFF714FE7C4B9C4213
:103B400057D17468A38918075DD52369002B5AD013
:103B50000023099320238DF8293030238DF82A3053
:103B60004FF0010BB846454615F8013B002B55D1E7
:103B7000B8EB070A0BD053463A4621463046FFF7CA
:103B8000BFFF013000F0C480099B5344099398F8AB
:103B90000030002B00F0BC8000234FF0FF32049374
:103BA0000793059206938DF853301A9305222978CE
:103BB0006048FCF70DFB05F10108049B002831D19A
:103BC000D90644BF20228DF853201A0744BF2B2268
:103BD0008DF853202A782A2A2CD0079A00210A200F
:103BE000A846013598F80030303B092B6DD971B3E8
:103BF00026E0514B9C4201D1B468A3E74F4B9C4255
:103C000008BFF4689EE721463046FFF739FC0028DC
:103C10009ED04FF0FF301DB0BDE8F08F252BA7D010
:103C2000A846A0E7434A801A0BFA00F01843049014
:103C30004546BBE7039A111D12680391002A01DB78
:103C4000079204E0524243F002030792049398F86B
:103C500000302E2B10D198F801302A2B08F10101E9
:103C600037D1039B1A1D1B680392002BB8BF4FF07E
:103C7000FF3308F102080593314D98F80010032234
:103C80002846FCF7A5FA40B14023401B03FA00F098
:103C9000049B0343049308F1010898F80010294895
:103CA0008DF82810062208F10107FCF791FA002888
:103CB00034D0254B03BB039B073323F007030833A2
:103CC0000393099B4B4409934CE700FB023201210B
:103CD00086E70023059318460A258846013198F89F
:103CE0000020303A092A03D9002BC5D00590C3E73C
:103CF00005FB00200123F0E703AB00932246134BA2
:103D000004A93046AFF30080B0F1FF3F8146D8D11F
:103D1000A3895B063FF57DAF09987CE703AB009371
:103D200022460A4B04A9304600F088F8ECE700BFB1
:103D3000C04E0008004F0008E04E0008A04E0008EA
:103D4000064F00080A4F000800000000013B000871
:103D50002DE9F04791461F468A680B69DDF82080FF
:103D60009342B8BF1346C9F8003091F84320064685
:103D70000C4612B10133C9F800302368990642BFDE
:103D8000D9F800300233C9F80030256815F006056F
:103D900007D104F1190AE368D9F800209B1A9D4263
:103DA00029DB94F843302268003318BF01239206C0
:103DB0002ED404F1430239463046C047013021D0A9
:103DC0002368E568D9F8002003F00603042B08BF38
:103DD000AD1AA36822690CBF25EAE5750025934258
:103DE000C4BF9B1AED184FF000091A344D451BD182
:103DF0000020BDE8F0870123524639463046C047CF
:103E0000013003D14FF0FF30BDE8F0870135C2E744
:103E1000E1185A1C302081F84300224494F84510E0
:103E200082F843100233C4E7012322463946304664
:103E3000C0470130E6D009F10109D7E72DE9F04389
:103E400017460A7E85B06E2A984606460C460C9B9D
:103E500001F1430E00F0BC801AD8632A2ED00AD894
:103E6000002A00F0C880582A00F08A8004F1420538
:103E700084F842202AE0642A01D0692AF6D1216818
:103E80001A6811F0800F23D0111D1960136827E004
:103E9000732A00F0B48008D86F2A2AD0702AE5D19E
:103EA0000A6842F020020A6003E0752A21D0782ACD
:103EB000DCD1782284F845206E4964E01A6801F16B
:103EC0004205111D1960136884F842300123A3E0F4
:103ED00011F0400F02F104011960D7D0B2F900309F
:103EE000002B03DA2D225B4284F8432062490A2228
:103EF00017E02068196810F0800F03D0081D1860C3
:103F00000B6806E010F0400F01F104001860F7D0D4
:103F10000B8859496F2A14BF0A220822002084F80E
:103F200043006568A560002DC0F29C80206820F0E9
:103F300004002060002B3FD1002D40F09580754695
:103F4000082A0BD12368DA0708D5236962689A42E8
:103F5000DEBF302305F8013C05F1FF35AEEB05036C
:103F60002361CDF800803B4603AA21463046FFF787
:103F7000EFFE013055D14FF0FF3005B0BDE8F083C2
:103F800081F845203C492268186812F0800F00F142
:103F900004051D6001D0036802E05506FBD50388C7
:103FA000D00744BF42F0200222601BB9226822F0F1
:103FB000200222601022B1E77546B3FBF2F002FB4B
:103FC0001033CB5C05F8013D03460028F5D1B7E777
:103FD00008681A68496910F0800F04D0101D186035
:103FE0001368196007E010F0400F02F10400186038
:103FF0001368F6D01980002323617546B1E71A686B
:10400000111D19601568626800212846FCF7E0F868
:1040100008B1401B606063682361002384F843306B
:104020009FE723692A4639463046C0470130A2D06F
:1040300023689B0707D5002504F11909E368039A53
:104040009B1A9D4205DBE068039B9842B8BF184667
:1040500093E701234A4639463046C04701308AD0AB
:104060000135EBE7002BA7D10B7884F8423004F13F
:10407000420565E7224F0008114F00082DE9F04F77
:10408000ADF5257D0DF10C08019300234693479370
:10409000A04BA293DFF884929F4BCDF82081064677
:1040A0000C46A39392460A279AF80030002B00F0A2
:1040B0002F8100F0E7FD9AF800B05844437813F0E0
:1040C000080343D1BBF1250F0AF1010540F09980A7
:1040D000459343939AF801302A2B03D1102343933D
:1040E0000AF102052978A1F13002092AAA4605F150
:1040F000010541D903228948FCF76AF838B1A0EBE1
:10410000090301209840439B18434390AA469AF81C
:104110000030672B0AF101054AD8652B80F0B78083
:10412000472B2FD8452B80F0B280002B00F08280E7
:10413000252B66D003234993449745E047990131E5
:104140004791616801330139616023606368002B26
:104150000BDD00F097FD23681978084441780D07BE
:10416000ECD40AF10105AA469EE7A39B21463046FE
:1041700098470028EDD0F4E7459B07FB0313303B3D
:104180004593AFE75B2B61D00CD8582BD2D1439A23
:1041900042F400724392102244926F2BB4BF032367
:1041A000042310E0632B5CD0642BC3D14497F4E765
:1041B000702B42D01DD86E2B59D043D8692BB9D162
:1041C00000234493032349936368002B61DD439BE1
:1041D00059066FD5499B022B7CDC01AB224643A9D3
:1041E000304600F0C7F8012800F092800228BAD1CA
:1041F0001DE0752BDAD0782BC9D0732B9AD102230E
:10420000E1E76368002B0CDD23681A7893457FD1C2
:10421000013362682360479B013A01336260479330
:10422000A1E7A39B2146304698470028ECD046984A
:10423000002863D14FF0FF3066E0439A42F020023D
:104240004392A4E7082344930423BCE7294640464D
:1042500000F08CFA439B43F040034393054601234F
:10426000B1E7439B43F0400343930023ABE7439AFA
:10427000D0063FF578AF12F0010F019A479B02F18B
:1042800004010191126814BF138013606BE70523CA
:1042900099E7A39B214630469847002897D0C6E768
:1042A000479A013247926268013A002A62600ADD49
:1042B0000133236000F0E6FC23681A78104442784A
:1042C0001207EDD486E7A39B214630469847002885
:1042D000F0D0ACE7042B06DC01AB224643A9304604
:1042E00000F0ACF87FE70E4B002B3FF43CAF01AB86
:1042F000224643A93046AFF3008074E7A38913F048
:10430000400F18BF4FF0FF300DF5257DBDE8F08F51
:104310004698F9E7114B000839460008064F000897
:10432000000000002DE9F0410C4616461F460546E8
:1043300018B183690BB9FFF715FA0B4B9C4208D1F2
:104340006C683B46324621462846BDE8F041FFF7FF
:1043500095BE064B9C4201D1AC68F2E7044B9C42EF
:1043600008BFEC68EDE700BFC04E0008E04E000853
:10437000A04E00082DE9F04115468A6880460C469B
:1043800032B98A69002A0CBF01224FF0FF328A60DD
:104390002268D1065FBF1A68111D196017680026D0
:1043A000A369DBB1012B07D12B6862691B78D35C51
:1043B000A3B9002E32D106E0022B07D0002E2DD15A
:1043C000A369012B2AD10120BDE8F08100F05AFC3D
:1043D0002B681B78184443781B07EFD42368DA0650
:1043E0005EBF2B681B783B702A686B6802F1010284
:1043F0002A60A26803F1FF3302F1FF326B6006F11D
:10440000010658BF0137A26042B1002BC8DCD4F8C6
:1044100080312946404698470028C1D0236813F0D0
:10442000100305D1E2680132E260A26902B13B707B
:1044300023691E4426610020BDE8F0812DE9F04F7C
:104440009A46744B0C468346164693E8070087B09D
:1044500003ABA76883E807006F4BA1696F4A032984
:1044600018BF1A467B1EB3F5AE7F84BF40F25D13C2
:10447000A3602368009243F4506388BF6FF4AE7565
:1044800004F11C0923608CBF7F1900274B464FF0B5
:1044900000080193316803AB022253F82800097821
:1044A000FBF796FE019B28B3B8F1010F56D1626865
:1044B0002AB908226260226842F4007222602268EF
:1044C00022F4A0622260A268511EA16092B13268FB
:1044D000511C316012781A705D1C7368013B002B0F
:1044E000736006DCD4F8803131465846984700287E
:1044F00076D12B4608F10108B8F1030FC9D16268E3
:104500000AB90A2262606268454960690193891AA2
:1045100000F02CF9019B4FF000081D46A368002B0A
:1045200038D0316860690A78805C002832D0302A3F
:10453000226821D110051FD508F1010817B10133F8
:10454000013FA3607368013B002B73601BDD336880
:1045500001333360A368013BA360DFE7B8F1020FCA
:10456000B1D1226802F4C061B1F5007FC2D110213F
:10457000616042F48072A5E722F4106222600B7839
:104580002B700135DEE7D4F8803131465846984724
:104590000028DFD02368D9050CD54D4508D915F87A
:1045A000011CD4F87C313246584698476F1E3D4670
:1045B0004D452CD0226812F010021ED12A7063687B
:1045C000009E49465846B0472268DAF8003012F09B
:1045D000200F08D01A1DCAF800201B68186009E0D7
:1045E0004FF00008D6E7D207F4D51A1DCAF800200C
:1045F0001B681880E3680133E360A5EB0905A84454
:10460000256945442561002007B0BDE8F08F0120F1
:10461000FAE700BF484E0008754A000855490008EF
:10462000434F0008838903F00903092B01D1FFF7E9
:1046300047B8002070470000F8B50C46054618B191
:1046400083690BB9FFF78EF83B4B9C420AD16C682B
:10465000B4F90C200023636093B29E060CD54FF092
:10466000FF30F8BD354B9C4201D1AC68F0E7344BCC
:104670009C4208BFEC68EBE7580748D4D90605D43C
:10468000092342F040022B60A281E8E71A070BD50C
:1046900021462846FEF7EAFF0028E0D1A389A06062
:1046A00023F00803A381A061A38943F00403A3813D
:1046B00023691BB921462846FFF71EF9B4F90C708F
:1046C000BEB2B3070FD00123A3811E4B1E49186849
:1046D00006F00906FFF7B2F8092EA78103D121469B
:1046E0002846FEF73BFF22692260666A6369216AF9
:1046F0002846B047002860601CDCA38917BF002251
:1047000043F0200343F040036260A381A7E7616B9D
:104710000029CDD004F14403994202D02846FFF786
:104720002BF9236C636000206063002BC0D0E36B27
:104730002360F8BD0020F8BDC04E0008E04E000820
:10474000A04E00089C4E00082546000838B5064CCF
:104750000023054608462360FBF790FF431C02D167
:10476000236803B12B6038BDC411002070B50B78ED
:104770005E2B13BF4A1C8A1C4B78002108BF012105
:10478000441E00F1FF0504F8011FA542FBD113B937
:10479000013A104670BD81F00104C45411460D78F1
:1047A0002D2D01F1010206D05D2DF2D00DB90A4682
:1047B000EFE72B46F1E74E785D2EFAD0B342F8DCF6
:1047C000023101339E42C454FBDCE8E710B50C46CD
:1047D000B1F90E1000F0B0FA0028ABBF636DA389E9
:1047E0001B1823F48053ACBF6365A38110BD2DE972
:1047F000F0411F468B89DB0505460C46164605D55C
:1048000002230022B1F90E1000F04AFAA389B4F98C
:104810000E1023F48053A38132463B462846BDE860
:10482000F04100F0E7B910B50C46B1F90E1000F0F8
:1048300037FA431CA38915BF606523F4805343F402
:104840008053A38118BFA38110BDB1F90E1000F0F1
:10485000E3B92DE9F84F8046894692461F468B46BC
:104860005D460A9815F8014B00F008FA2044467896
:1048700016F008060BD12D2C0BD12C7801260BF14C
:10488000020567B1102F14D1302C0AD011E0AB46CD
:10489000E6E72B2C04BF2C780BF10205F1E7302C56
:1048A00027D12B7803F0DF03582B4BD16C781027DE
:1048B0000235002E0CBF6FF000414FF00041002286
:1048C000B1FBF7FE104607FB1E1CA4F13003092BB9
:1048D00011D81C46A7421DDD531C07D0864516D3B0
:1048E00001D1A44513DB00FB0740012215F8014B61
:1048F000EBE70A27DDE7A4F14103192B01D8373C88
:10490000E8E7A4F16103192B04D8573CE2E74FF024
:10491000FF32EBE7531C08D12223C8F800300846C9
:10492000BAF1000F07D1BDE8F88F06B14042BAF1E5
:10493000000F0CD022B1013DCAF80050BDE8F88F3D
:104940004D46F9E73024002FB3D10827B1E7BDE881
:10495000F88F000037B5064C064D2468246A002CF9
:1049600008BF2C460094FFF774FF03B030BD00BFB2
:1049700010000020740000202DE9F0478046894691
:1049800092461E460F463D46089815F8014B00F02A
:1049900075F92044437813F008030AD12D2C0AD16D
:1049A0002C780123BD1C5EB1102E13D1302C09D000
:1049B00010E02F46E7E72B2C04BF2C78BD1CF2E754
:1049C000302C25D12A7802F0DF02582A4AD16C789F
:1049D000102602354FF0FF310027B1FBF6F106FB40
:1049E00001FE6FEA0E0E3846A4F13002092A11D8F2
:1049F0001446A6421DDD002F18DB814216D301D1DB
:104A0000A64513DB00FB0640012715F8014BEBE739
:104A10000A26DFE7A4F14102192A01D8373CE8E76A
:104A2000A4F16102192A04D8573CE2E74FF0FF379E
:104A3000EBE7002F09DA2223C8F800304FF0FF30EF
:104A4000BAF1000F07D1BDE8F08703B14042BAF1D7
:104A5000000F0CD027B1013DCAF80050BDE8F08727
:104A60004D46F9E73024002EB4D10826B2E7BDE860
:104A7000F087000037B5064C064D2468246A002CE8
:104A800008BF2C460094FFF777FF03B030BD00BF8E
:104A900010000020740000202DE9F0410C46496B05
:104AA00004F1440399421ED14FF48061FEF7B2FF36
:104AB00018B94FF0FF30BDE8F0814FF48063A36375
:104AC00094F84630606380F8FF3394F8453080F8FE
:104AD000FE3394F8443080F8FD3300F2FD3020605E
:104AE0000020BDE8F081A66B77003A4600F0FEF8A2
:104AF00005460028DDD000EB060801463246404658
:104B0000FEF7C4FBC4F800806563A763E8E7000014
:104B10004B1C70B506460D46144603D14FF0FF35C9
:104B2000284670BD18B183690BB9FEF71BFE2E4BEA
:104B30009C422CD17468B4F90C3023F02003A3817B
:104B40009BB2590713D4DA06E8D51B070BD52146CB
:104B50003046FEF78BFD0028E0D1A389A06023F04A
:104B60000803A381A061A38943F00403A381636BBD
:104B70006268EDB2E3B1A36B9A4212DA23685A1E5F
:104B8000226003F8015C636801336360C8E7174B78
:104B90009C4201D1B468CEE7154B9C4208BFF46833
:104BA000C9E721463046FFF777FF0028E6D0B5E792
:104BB0002169236851B1994208D213F8011C8D4232
:104BC00004D1013B013223606260A9E7E36304F191
:104BD000440363630323A3632346226403F8465F0D
:104BE00023600123D1E700BFC04E0008E04E00085B
:104BF000A04E000838B5074C05460846114600226D
:104C000022601A46FBF775FB431C02D1236803B1EF
:104C10002B6038BDC411002038B5064C0023054672
:104C200008462360FBF756FD431C02D1236803B1FD
:104C30002B6038BDC411002038B5074C0023054651
:104C4000084611462360FBF751FD431C02D123683F
:104C500003B12B6038BD00BFC411002038B5064C2D
:104C60000023054608462360FBF750FD431C02D194
:104C7000236803B12B6038BDC4110020D0F8EC00CC
:104C800070470000044B054A1B681B6A002B08BFD5
:104C90001346D3F8EC007047100000207400002089
:104CA00038B5074C054608461146002222601A46D0
:104CB000FBF737FD431C02D1236803B12B6038BDDD
:104CC000C411002082B001B901A942B14BB11378DF
:104CD0000B601278101C18BF012002B070471046FC
:104CE000FBE76FF00100F8E770477047F8B507463B
:104CF00014460E4621B91146BDE8F840FEF78ABEBB
:104D000022B9FEF739FE25462846F8BD00F033F8F3
:104D100084420FD921463846FEF77CFE054600281E
:104D2000F2D031462246FEF7B1FA31463846FEF758
:104D300023FEE9E73546E7E738B5074C0546084660
:104D40001146002222601A46FBF77AFC431C02D16E
:104D5000236803B12B6038BDC411002049B1FF2A7C
:104D600085BF8A2303600A704FF0FF3098BF01208F
:104D700070470846704751F8040C0028A0F1040061
:104D8000BCBF0B58C0187047F8B500BFF8BC08BCD2
:104D90009E467047F8B500BFF8BC08BC9E467047F9
:104DA0007374617274696E672E2E2E2E00000000DF
:104DB00064656661756C745461736B00B04D000876
:104DC0004D0400080000000000000000800000000A
:104DD00000000000000000005461736B320000000E
:104DE000D84D000889040008010000000000000000
:104DF00080000000000000000000000025630000AB
:104E0000616161610000000064656661756C742019
:104E10007461736B000000007461736B322C696EF7
:104E20006478203D2025640A000000007465726DDE
:104E3000696E617465206D7973656C6600000000B1
:104E400049444C4500000000454F0008484F000809
:104E50004B4F0008000000000000000001020304A6
:104E6000060708090000000001020304A0860100F3
:104E7000400D0300801A060000350C0040420F0070
:104E800080841E0000093D0000127A000024F40016
:104E900000366E010048E801006CDC0214000020BE
:104EA0000000000000000000000000000000000002
:104EB00000000000000000000000000000000000F2
:104EC00000000000000000000000000000000000E2
:104ED00000000000000000000000000000000000D2
:104EE00000000000000000000000000000000000C2
:104EF00000000000000000000000000000000000B2
:104F0000232D302B2000686C4C00656667454647B2
:104F10000030313233343536373839414243444535
:104F200046003031323334353637383961626364A4
:104F3000656600412D46612D663839303132333493
:104F40003536375D002B2D00303000785800430097
:104F5000504F534958002E000020202020202020B0
:104F60002020282828282820202020202020202019
:104F70002020202020202020208810101010101029
:104F80001010101010101010100404040404040475
:104F9000040404101010101010104141414141410F
:104FA00001010101010101010101010101010101F1
:104FB0000101010110101010101042424242424201
:104FC00002020202020202020202020202020202C1
:104FD0000202020210101010200000000000000069
:104FE00000000000000000000000000000000000C1
:104FF00000000000000000000000000000000000B1
:1050000000000000000000000000000000000000A0
:105010000000000000000000000000000000000090
:105020000000000000000000000000000000000080
:105030000000000000000000000000000000000070
:105040000000000000000000000000000000000060
:0C50500000000000000000000000000054
:04505C00B501000892
:0450600091010008B2
:1050640000093D001000000001000000AAAAAAAA3D
:105074001400002000000000C04E0008E04E0008AC
:10508400A04E000800000000000000000000000026
:10509400000000000000000000000000000000000C
:1050A40000000000000000000000000000000000FC
:1050B40000000000000000000000000000000000EC
:1050C40000000000000000000000000000000000DC
:1050D4000000000043000000000000000000000089
:1050E40000000000000000000000000000000000BC
:1050F4000000000043000000000000000000000069
:10510400000000000000000000000000000000009B
:105114000000000043000000000000000000000048
:10512400000000000000000000000000000000007B
:105134000000000043000000000000000000000028
:10514400000000000000000000000000000000005B
:105154000000000043000000000000000000000008
:10516400000000000000000000000000000000003B
:1051740000000000430000000000000000000000E8
:10518400000000000000000000000000000000001B
:1051940000000000430000000000000000000000C8
:1051A40000000000000000000000000000000000FB
:1051B400000000005D4D0008C54C00080000000020
:1051C400584F0008564F0008054F0008054F0008C7
:1051D400054F0008054F0008054F0008054F00085B
:1051E400054F0008054F0008054F0008FFFFFFFFAB
:1051F400FFFFFFFFFFFFFFFFFFFF00000100415320
:1052040043494900000000000000000000000000C5
:1052140000000000000000000000000000004153F6
:1052240043494900000000000000000000000000A5
:10523400000000000000000000000000000000006A
:04000005080031E5D9
:00000001FF
