:020000040800F2
:1000000000800120695C00084116000847160008BE
:100010004D1600085316000859160008000000008D
:100020000000000000000000000000005F16000853
:100030006D160008000000007B16000889160008F5
:10004000B95C0008B95C0008B95C0008B95C00083C
:10005000B95C0008B95C0008B95C0008B95C00082C
:10006000B95C0008B95C0008B95C0008B95C00081C
:10007000B95C0008B95C0008B95C0008B95C00080C
:10008000B95C0008B95C0008B95C0008B95C0008FC
:10009000B95C0008B95C0008B95C00089516000856
:1000A000B95C0008B95C0008B95C0008B95C0008DC
:1000B000B95C0008B95C0008B95C0008B95C0008CC
:1000C000B95C0008B95C0008B95C0008B95C0008BC
:1000D000B95C0008B95C0008B95C0008B95C0008AC
:1000E000B7160008B95C0008B95C0008B95C0008E4
:1000F000B95C0008B95C0008B95C0008B95C00088C
:10010000B95C0008B95C0008B95C0008B95C00087B
:10011000B95C0008B95C0008B95C0008B95C00086B
:10012000B95C0008B95C0008B95C0008B95C00085B
:10013000B95C0008B95C0008B95C0008B95C00084B
:10014000B95C0008B95C0008B95C0008B95C00083B
:10015000B95C0008B95C0008B95C0008B95C00082B
:10016000B95C0008B95C0008B95C0008B95C00081B
:10017000B95C0008B95C0008000000000000000045
:08018000B95C0008B95C00083D
:1001900010B5054C237833B9044B13B10448AFF3C1
:1001A00000800123237010BD140100200000000016
:1001B000E865000808B5034B1BB103490348AFF3DA
:1001C000008008BD0000000018010020E86500085C
:1001D00001F0FF01102A2BDB10F0070F08D010F8F8
:1001E000013B013A8B422DD010F0070F42B3F6D1FC
:1001F000F0B441EA012141EA014122F007047FF015
:1002000000070023F0E80256083C85EA010586EA6B
:10021000010685FA47F5A3FA87F586FA47F6A5FAA7
:1002200087F68EB9EED1F0BC01F0FF0102F00702B3
:1002300032B110F8013B013A83EA010313B1F8D15E
:100240000020704701387047002D06BF354603383F
:10025000073815F0010F07D1013015F4807F02BF78
:10026000013015F4C03F0130F0BC0138704700BFC9
:1002700081F0004102E000BF83F0004330B54FEA57
:1002800041044FEA430594EA050F08BF90EA020FC4
:100290001FBF54EA000C55EA020C7FEA645C7FEA57
:1002A000655C00F0E2804FEA5454D4EB5555B8BF7A
:1002B0006D420CDD2C4480EA020281EA030382EAEB
:1002C000000083EA010180EA020281EA0303362D7D
:1002D00088BF30BD11F0004F4FEA01314FF4801C50
:1002E0004CEA113102D0404261EB410113F0004F62
:1002F0004FEA03334CEA133302D0524263EB430319
:1003000094EA050F00F0A780A4F10104D5F1200EB6
:100310000DDB02FA0EFC22FA05F2801841F1000111
:1003200003FA0EF2801843FA05F359410EE0A5F1E5
:1003300020050EF1200E012A03FA0EFC28BF4CF016
:10034000020C43FA05F3C01851EBE37101F00045CC
:1003500007D54FF0000EDCF1000C7EEB00006EEBD9
:100360000101B1F5801F1BD3B1F5001F0CD3490863
:100370005FEA30004FEA3C0C04F101044FEA4452BA
:1003800012F5800F80F09A80BCF1004F08BF5FEA41
:10039000500C50F1000041EB045141EA050130BD21
:1003A0005FEA4C0C404141EB010111F4801FA4F1C4
:1003B0000104E9D191F0000F04BF01460020B1FA19
:1003C00081F308BF2033A3F10B03B3F120020CDA51
:1003D0000C3208DD02F1140CC2F10C0201FA0CF02F
:1003E00021FA02F10CE002F11402D8BFC2F1200C94
:1003F00001FA02F120FA0CFCDCBF41EA0C0190404A
:10040000E41AA2BF01EB0451294330BD6FEA040492
:100410001F3C1CDA0C340EDC04F11404C4F120027D
:1004200020FA04F001FA02F340EA030021FA04F38F
:1004300045EA030130BDC4F10C04C4F1200220FAE6
:1004400002F001FA04F340EA0300294630BD21FA24
:1004500004F0294630BD94F0000F83F4801306BFEA
:1004600081F480110134013D4EE77FEA645C18BFDE
:100470007FEA655C29D094EA050F08BF90EA020F75
:1004800005D054EA000C04BF1946104630BD91EA6D
:10049000030F1EBF0021002030BD5FEA545C05D170
:1004A0004000494128BF41F0004130BD14F58004AF
:1004B0003CBF01F5801130BD01F0004545F0FE4123
:1004C00041F470014FF0000030BD7FEA645C1ABF58
:1004D000194610467FEA655C1CBF0B46024650EA8F
:1004E000013406BF52EA033591EA030F41F40021BB
:1004F00030BD00BF90F0000F04BF0021704730B541
:100500004FF4806404F132044FF000054FF0000115
:1005100050E700BF90F0000F04BF0021704730B5D6
:100520004FF4806404F1320410F0004548BF4042AB
:100530004FF000013EE700BF42004FEAE2014FEA00
:1005400031014FEA02701FBF12F07F4393F07F4FDB
:1005500081F06051704792F0000F14BF93F07F4F0D
:10056000704730B54FF4607401F0004521F0004150
:1005700020E700BF50EA010208BF704730B54FF0D6
:1005800000050AE050EA010208BF704730B511F0DB
:10059000004502D5404261EB41014FF4806404F113
:1005A00032045FEA915C3FF4DCAE4FF003025FEA95
:1005B000DC0C18BF03325FEADC0C18BF033202EB1D
:1005C000DC02C2F1200300FA03FC20FA02F001FA77
:1005D00003FE40EA0E0021FA02F11444C1E600BF16
:1005E0004FEA410212F5001215D211D56FF478735B
:1005F000B3EB625212D94FEAC12343F0004343EAFE
:10060000505311F0004F23FA02F018BF40427047D8
:100610004FF00000704750EA013005D111F0004062
:1006200008BF6FF0004070474FF00000704700BFF8
:1006300053B94AB9002908BF00281CBF4FF0FF3149
:100640004FF0FF3000F07AB9ADF1080C6DE904CE3F
:1006500000F006F8DDF804E0DDE9022304B070479D
:100660002DE9F0478C460D460446089E002B51D1DB
:100670008A4217466DD9B2FA82FEBEF1000F0BD046
:10068000CEF1200C01FA0EF520FA0CFC02FA0EF75E
:100690004CEA050C00FA0EF44FEA174A250CBCFB95
:1006A000FAF81FFA87F90AFB18CC45EA0C4508FB53
:1006B00009F3AB420AD9ED1908F1FF3280F023812A
:1006C000AB4240F22081A8F102083D44ED1AA4B2E9
:1006D000B5FBFAF00AFB105544EA054400FB09F9A2
:1006E000A14509D9E41900F1FF3380F00A81A14541
:1006F00040F2078102383C44A4EB090440EA084078
:100700000021002E61D024FA0EF4002334607360BF
:10071000BDE8F0878B4207D9002E54D0002186E82F
:1007200021000846BDE8F087B3FA83F1002940F0C4
:100730008E80AB4202D3824200F2FA80841A65EBCB
:1007400003050120AC46002E3FD086E81010BDE81E
:10075000F08712B90127B7FBF2F7B7FA87FEBEF1AF
:10076000000F34D1EB1B3A0C1FFA87FC0121B3FBBD
:10077000F2F8250C02FB183345EA03450CFB08F39D
:10078000AB4207D9ED1908F1FF3002D2AB4200F2BB
:10079000D1808046ED1AA3B2B5FBF2F002FB1055F2
:1007A00043EA05440CFB00FCA44507D9E41900F119
:1007B000FF3302D2A44500F2B8801846A4EB0C0423
:1007C00040EA08409DE731463046BDE8F087CEF16B
:1007D000200405FA0EF307FA0EF720FA04F83A0C93
:1007E00025FA04F448EA0308B4FBF2F14FEA18458D
:1007F00002FB11441FFA87FC45EA044501FB0CF398
:10080000AB4200FA0EF409D9ED1901F1FF3080F086
:100810008A80AB4240F2878002393D44EB1A1FFACE
:1008200088F5B3FBF2F002FB103345EA034500FB09
:100830000CF3AB4207D9ED1900F1FF386FD2AB4290
:100840006DD902383D44EB1A40EA01418FE7C1F10E
:10085000200722FA07F88B4005FA01F448EA03035F
:1008600020FA07FE4FEA134CFD404EEA040EB5FB9A
:10087000FCF94FEA1E440CFB19551FFA83F844EAB1
:10088000054509FB08F4AC4202FA01F200FA01FA4C
:1008900008D9ED1809F1FF3043D2AC4241D9A9F192
:1008A00002091D442D1B1FFA8EFEB5FBFCF00CFB4C
:1008B00010554EEA054400FB08F8A04507D9E41896
:1008C00000F1FF3529D2A04527D902381C4440EA5F
:1008D0000940A4EB0804A0FB02894C45C6464D46DE
:1008E00015D312D056B1BAEB0E0364EB050404FA2B
:1008F00007F7CB401F43CC40376074600021BDE850
:10090000F0871846F8E69046E0E6C245EAD2B8EB32
:10091000020E69EB03050138E4E72846D7E74046B5
:1009200091E78146BEE7014678E702383C4445E757
:10093000084608E7A8F102083D442BE7704700BFCE
:1009400090B587B002AF01F05BF900F07BF800F0E2
:1009500085FA00F01BF900F051F900F08DF900F074
:10096000B1F900F0EDF900F01BFA00F049FA4FF48C
:100970007A7330222B492C4804F089FA4FF47A73A9
:100980002F222A49284804F082FA01F05BF84FF43C
:100990007A7331222649244804F079FA01F06EF87E
:1009A000F0EE407A234BC3ED007A224BD3ED007A70
:1009B000FDEEE77A17EE903AFB601E4B93ED007A5E
:1009C000FB6807EE903AF8EEE77A77EE677AC7EDC4
:1009D000027AD7ED027A9FED187A67EE877A17EEE2
:1009E000900AFFF7A9FD03460C4644EC103B05F0C6
:1009F000C5FD54EC103B18462146FFF7F1FD0346B8
:100A00007B607B680093FB680C4A64210C4805F00E
:100A100087F94FF47A7364220949034804F037FADE
:100A2000BCE700BF00000020440700203000002089
:100A300060000020300100200000C842006600086D
:100A40003401002080B5B8B000AF07F19C03442208
:100A50000021184605F05CF907F1880300221A60AE
:100A60005A609A60DA601A613B4688220021184673
:100A700005F04EF902F032FD424A424BD3F8903075
:100A800023F01803C2F890301423C7F89C300123D8
:100A9000C7F8A4300123C7F8B4300023C7F8B83032
:100AA0006023C7F8BC300223C7F8C4300123C7F85D
:100AB000C8300123C7F8CC302823C7F8D03007232B
:100AC000C7F8D4300223C7F8D8300223C7F8DC3087
:100AD00007F19C03184602F041FE0346002B01D0AB
:100AE00000F06CFB0F23C7F888300323C7F88C3065
:100AF0000023C7F890300023C7F894300023C7F8CC
:100B0000983007F188030421184603F00DFA0346D4
:100B1000002B01D000F052FB1B4B3B600023BB635A
:100B200000233B6400237B650023C7F880304FF02F
:100B30008063FB6601237B600123BB601823FB609D
:100B400007233B6102237B610223BB614FF48013C7
:100B5000FB613B46184603F0EBFB0346002B01D03C
:100B600000F02CFB4FF4007002F0D6FC0346002B83
:100B700001D000F023FB03F0C1FE00BFE037BD460B
:100B800080BD00BF001002408520010080B500AF8D
:100B9000184B194A1A60174B01221A71154B002283
:100BA0009A60144B0222DA60124B00221A61114B38
:100BB00000225A610F4B4FF480729A610D4B002254
:100BC000DA610C4B04221A620A4B00225A62094B6A
:100BD00001229A62074B0022DA62064B00221A6356
:100BE000044801F0B3F90346002B01D000F0E6FA07
:100BF00000BF80BDD00100202060014080B500AF63
:100C00001B4B1C4A1A601A4B40F614625A60184B70
:100C100000229A60164B0122DA60154B00221A61FD
:100C2000134B00225A61124B00229A61104B002292
:100C3000DA610F4B00221A620D4801F06AFD03468B
:100C4000002B01D000F0BAFA0021094802F066FA40
:100C50000346002B01D000F0B1FA0021044802F055
:100C6000A8FA0346002B01D000F0A8FA00BF80BD0F
:100C7000940600200058004080B500AF0F4B104A8A
:100C80001A600E4B02225A600C4B04229A600B4BE6
:100C90001022DA60094B17221A61084B00225A61B0
:100CA000064B00229A61054802F09CFC0346002B8B
:100CB00001D000F083FA00BF80BD00BFC80700204C
:100CC000001000A080B500AF1B4B1C4A1A601A4BE5
:100CD0004FF482725A60184B00229A60164B4FF400
:100CE0004072DA60144B00221A61134B00225A61E1
:100CF000114B4FF400729A610F4B0022DA610E4BD8
:100D000000221A620C4B00225A620B4B00229A629C
:100D1000094B0722DA62084B00221A63064B0822AD
:100D20005A63054803F0C4FF0346002B01D000F0CE
:100D300045FA00BF80BD00BFE0060020003C004037
:100D400080B500AF144B154A1A60134B4FF4E132D3
:100D50005A60114B00229A600F4B0022DA600E4B52
:100D600000221A610C4B0C225A610B4B00229A6133
:100D7000094B0022DA61084B00221A62064B00225E
:100D80005A62054804F035F80346002B01D000F004
:100D900015FA00BF80BD00BF4407002000380140A5
:100DA00080B500AF144B154A1A60134B4FF4E13273
:100DB0005A60114B00229A600F4B0022DA600E4BF2
:100DC00000221A610C4B0C225A610B4B00229A61D3
:100DD000094B0022DA61084B00221A62064B0022FE
:100DE0005A62054804F005F80346002B01D000F0D4
:100DF000E5F900BF80BD00BF0802002000480040A8
:100E000080B500AF144B4FF0A0421A60124B06227F
:100E10005A60114B0222DA600F4B02229A610E4B8C
:100E20000022DA610C4B00221A620B4B00225A623C
:100E3000094B00229A62084B00221A63064B0022DB
:100E4000DA62054802F001FA0346002B01D000F0F7
:100E5000B5F900BF80BD00BF8C02002080B58AB00C
:100E600000AF07F1140300221A605A609A60DA603A
:100E70001A61BA4AB94BDB6C43F01003D364B74B29
:100E8000DB6C03F010033B613B69B44AB34BDB6C92
:100E900043F00403D364B14BDB6C03F00403FB6049
:100EA000FB68AE4AAD4BDB6C43F00103D364AB4B44
:100EB000DB6C03F00103BB60BB68A84AA74BDB6C8B
:100EC00043F00203D364A54BDB6C03F002037B60A9
:100ED0007B68A24AA14BDB6C43F00803D3649F4BB1
:100EE000DB6C03F008033B603B6800224FF48A711F
:100EF0009B4801F0D3FB002248F204114FF09040D0
:100F000001F0CCFB00224FF21401964801F0C6FB21
:100F1000002241F28101944801F0C0FB01224FF40C
:100F20000051914801F0BAFB00224FF410718F4834
:100F300001F0B4FB012220218A4801F0AFFB01221D
:100F40000121874801F0AAFB40F215137B610123C0
:100F5000BB610023FB6100233B6207F114031946C8
:100F60007F4801F0FFF86A237B61814BBB6100235E
:100F7000FB6107F114031946794801F0F3F84FF4C7
:100F800000537B617B4BBB610023FB6107F11403C2
:100F90001946764801F0E6F83F237B610B23BB61DD
:100FA0000023FB6107F114031946704801F0DAF8D9
:100FB00003237B610223BB610023FB6103233B62AC
:100FC00008237B6207F1140319464FF0904001F0AB
:100FD000C9F848F204137B610123BB610023FB6164
:100FE00000233B6207F1140319464FF0904001F0D3
:100FF000B9F808237B610223BB610023FB61002356
:101000003B6201237B6207F1140319464FF09040C5
:1010100001F0A8F810237B610B23BB610023FB6167
:1010200007F1140319464FF0904001F09BF8E023BC
:101030007B610223BB610023FB6103233B62052329
:101040007B6207F1140319464FF0904001F08AF8D3
:1010500001237B61464BBB610023FB6107F1140355
:101060001946404801F07EF802237B610B23BB61E7
:101070000023FB6107F1140319463A4801F072F8A6
:101080004FF234037B610123BB610023FB6100232A
:101090003B6207F114031946324801F063F84CF63D
:1010A00004437B61324BBB610023FB6107F11403F6
:1010B00019462D4801F056F843F281037B61012364
:1010C000BB610023FB6100233B6207F11403194657
:1010D000254801F047F84FF410737B610123BB6191
:1010E0000023FB6100233B6207F1140319461F48EC
:1010F00001F038F84FF4C0737B611D4BBB610023D6
:10110000FB6107F114031946184801F02BF802237C
:101110007B610223BB610023FB6103233B62052348
:101120007B6207F1140319460F4801F01BF878237E
:101130007B610223BB610023FB6103233B62072326
:101140007B6207F114031946074801F00BF84FF4CE
:1011500040737B611223BB6101230DE0001002404C
:101160000010004800040048000C00480008004837
:101170000000111000002110FB6103233B620423D7
:101180007B6207F1140319460B4800F0EBFF0022C5
:101190000021172000F0A3FE172000F0BCFE002263
:1011A0000021282000F09BFE282000F0B4FE00BFA4
:1011B0002837BD4680BD00BF0004004880B400AFA2
:1011C00072B6FEE780B483B000AF0F4A0E4B1B6EC1
:1011D00043F0010313660C4B1B6E03F001037B60AD
:1011E0007B68094A084B9B6D43F080539365064B1F
:1011F0009B6D03F080533B603B6800BF0C37BD46DE
:101200005DF8047B704700BF0010024080B58AB0D3
:1012100000AF786007F1140300221A605A609A60E8
:10122000DA601A611A4B1B68002B2DD1194A194B31
:101230001B6E43F080731366164B1B6E03F08073B6
:101240003B613B69134A134BDB6C43F01003D364DF
:10125000104BDB6C03F01003FB60FB684FF4207352
:101260007B610223BB610023FB6100233B620623F9
:101270007B6207F114031946074800F073FF044B23
:101280001B680133024A136000BF2837BD4680BD8A
:1012900098010020001002400010004880B58AB07C
:1012A00000AF786007F1140300221A605A609A6058
:1012B000DA601A617B681B68174A934228D1174A83
:1012C000164BDB6C43F00203D364144BDB6C03F06E
:1012D00002033B613B694FF440637B611223BB61B6
:1012E0000123FB6103233B6204237B6207F11403A8
:1012F00019460B4800F036FF084A084B9B6D43F433
:1013000080039365054B9B6D03F48003FB60FB68D2
:1013100000BF2837BD4680BD005800400010024085
:101320000004004880B582B000AF78607B681B681D
:101330000B4A93420FD10B4A0A4B9B6D23F4800357
:1013400093654FF48061084801F0B4F84FF40061F0
:10135000054801F0AFF800BF0837BD4680BD00BFAB
:1013600000580040001002400004004880B58AB0D8
:1013700000AF786007F1140300221A605A609A6087
:10138000DA601A617B681B68174A934228D1174AB2
:10139000164B1B6D43F480731365144B1B6D03F4E4
:1013A00080733B613B69114A104BDB6C43F01003C7
:1013B000D3640E4BDB6C03F01003FB60FB684FF44F
:1013C0007C437B610223BB610023FB6103233B62FF
:1013D0000A237B6207F114031946054800F0C2FE98
:1013E00000BF2837BD4680BD001000A0001002409D
:1013F0000010004880B58AB000AF786007F1140390
:1014000000221A605A609A60DA601A617B681B6871
:10141000174A934228D1174A164B9B6D43F4004359
:101420009365144B9B6D03F400433B613B69114A88
:10143000104BDB6C43F00403D3640E4BDB6C03F006
:101440000403FB60FB684FF4E0537B610223BB6144
:101450000023FB6103233B6206237B6207F1140335
:101460001946054800F07EFE00BF2837BD4680BD06
:10147000003C0040001002400008004880B58CB0DD
:1014800000AF786007F11C0300221A605A609A606E
:10149000DA601A617B681B682E4A934228D12E4A73
:1014A0002D4B1B6E43F4804313662B4B1B6E03F4D2
:1014B0008043BB61BB69284A274BDB6C43F00203C6
:1014C000D364254BDB6C03F002037B617B69C02393
:1014D000FB6102233B6200237B620323BB62072381
:1014E000FB6207F11C0319461C4800F03BFE2DE08F
:1014F0007B681B681A4A934228D1174A164B9B6D8A
:1015000043F480239365144B9B6D03F480233B616C
:101510003B69114A104BDB6C43F00803D3640E4B5C
:10152000DB6C03F00803FB60FB684FF44073FB6166
:1015300002233B6200237B620323BB620723FB621F
:1015400007F11C031946074800F00CFE00BF3037B6
:10155000BD4680BD00380140001002400004004834
:1015600000480040000C004880B58AB000AF7860A9
:1015700007F1140300221A605A609A60DA601A6157
:101580007B681B68B3F1A04F54D12C4A2B4BDB6C0A
:1015900043F00103D364294BDB6C03F001033B618F
:1015A0003B694FF400737B610023BB610023FB6147
:1015B00007F1140319464FF0904000F0D3FD4FF4AB
:1015C000E0537B610223BB610023FB6103233B6289
:1015D0000A237B6207F1140319464FF0904000F094
:1015E000C1FD164A154BDB6C43F48053D364134B97
:1015F000DB6C03F48053FB60FB68104B9B6D03F0C6
:101600008053002B14D10D4A0C4B9B6D43F080533B
:1016100093650A4B9B6D03F08053BB60BB6801F080
:10162000D1FF064A054B9B6D23F08053936501E083
:1016300001F0C8FF00BF2837BD4680BD0010024042
:1016400080B400AFFEE780B400AFFEE780B400AF27
:10165000FEE780B400AFFEE780B400AFFEE780B4E1
:1016600000AF00BFBD465DF8047B704780B400AF9B
:1016700000BFBD465DF8047B704780B400AF00BF7B
:10168000BD465DF8047B704780B500AF00F00CFBF1
:1016900000BF80BD80B500AF202001F017F84020CA
:1016A00001F014F8802001F011F84FF4807001F07F
:1016B0000DF800BF80BD80B500AF4FF4806001F031
:1016C00005F84FF4006001F001F84FF4005000F00D
:1016D000FDFF4FF4804000F0F9FF4FF4004000F0B0
:1016E000F5FF00BF80BD000080B584B000AF78601A
:1016F000114B1B68002B02D10F4B104A1A600E4B86
:101700001B68FB600C4B1A687B6813446A46934263
:1017100007D904F0D3FA02460C2313604FF0FF33CD
:1017200006E0054B1A687B681344034A1360FB68A4
:1017300018461037BD4680BD9C010020E4080020FB
:1017400080B400AF154A154BD3F8883043F47003CA
:10175000C2F88830124A124B1B6843F00103136031
:101760000F4B00229A600E4A0D4B1B6823F0A853C2
:1017700023F4102313600A4B4FF48052DA60084AB6
:10178000074B1B6823F480231360054B00229A61EA
:1017900000BFBD465DF8047B704700BF00ED00E070
:1017A0000010024080B58AB000AF7860274A274B0E
:1017B000DB6C43F00203D364244BDB6C03F00203C5
:1017C0003B613B694FF440637B611223BB610123A2
:1017D000FB6103233B6204237B6207F11403194678
:1017E0001B4800F0BFFC07F114031946184800F02D
:1017F000B9FC164A154B9B6D43F480039365134B5C
:101800009B6D03F48003FB60FB68104A0F4B9B6BDE
:1018100043F4800393630D4A0C4B9B6B23F48003CA
:10182000936300220F21212000F059FB212000F0BA
:1018300072FB00220F21222000F051FB222000F039
:101840006AFB00BF2837BD4680BD00BF00100240C4
:101850000004004880B582B000AF78607B68124A0F
:101860001A607B68114A5A607B6800229A607B6824
:101870000122DA607B6800221A617B6800225A61CB
:101880007B680022DA617B6800221A627868FFF7C1
:1018900089FF786800F03DFF0021786801F03EFC88
:1018A00000BF0837BD4680BD00580040812670004B
:1018B00080B58AB004AFF860084611461A46034660
:1018C000FB720B463B811346FB800023FB75FB7AC2
:1018D00099B2F8883A894FF47A730293BB8C0193DA
:1018E0003B6A00930346F86801F0E4F80346FB7591
:1018F000FB7D002B04D0FB7A1946F86800F032F823
:10190000FB7D18461837BD4680BD80B58AB004AF50
:10191000F860084611461A460346FB720B463B81A7
:101920001346FB800023FB75FB7A99B2F8883A894D
:101930004FF47A730293BB8C01933B6A0093034686
:10194000F86800F0A3FF0346FB75FB7D002B04D075
:10195000FB7A1946F86800F005F8FB7D1846183741
:10196000BD4680BD80B582B000AF78600B46FB708D
:10197000786800F05CFF7868FFF76CFF00BF0837FD
:10198000BD4680BD80B500AF0248FFF763FF00BFD2
:1019900080BD00BF9008002080B584B002AF034630
:1019A000FB710B46BB7113467B71BB799AB2F97917
:1019B000012301937B1D009301230348FFF7A5FF3B
:1019C00000BF0837BD4680BD9008002080B586B0B6
:1019D00002AF03460A46FB711346BB710023FB733B
:1019E000BB799AB2F9790123019307F10F030093B0
:1019F00001230448FFF75CFFFB7B18461037BD4608
:101A000080BD00BF9008002080B584B002AF3A606E
:101A10001A460346FB710B46BB711346BB80BB796C
:101A20009AB2F979BB8801933B680093012304487B
:101A3000FFF73EFF03469BB218460837BD4680BD00
:101A40009008002080B582B000AF0123FB71094BE4
:101A5000094A1A60FFF796FF064B1B681B680021B6
:101A6000BE2098470023FB71FB7918460837BD4616
:101A700080BD00BFA00100209800002080B500AF0D
:101A8000044B1B68DB68BE209847F0EE407AB0EE4E
:101A9000670A80BDA001002080B584B000AF034676
:101AA0003960FB80FB88DBB220211846FFF78EFFF0
:101AB0000346FB73FB7B23F00403FB73FB7B43F0C8
:101AC0000403FB73FB7B23F00303FB73FB7B43F0FB
:101AD0000103FB73FB7B63F07F03FB73FB88DBB2CB
:101AE000FA7B20211846FFF757FF00BF1037BD468D
:101AF00080BD80B588B000AF0346FB80FB88D8B2BC
:101B000007F108020223B221FFF77EFFFB88DBB258
:101B100035211846FFF75AFF0346FB77FB7F1B0270
:101B20001BB203F440731AB23B7A1BB21343BB835C
:101B3000FB7F9B011BB203F440731AB27B7A1BB28A
:101B400013437B83B7F91C30DB103B83B7F91A30A2
:101B5000DB10FB82FB88D8B207F108020423BC210A
:101B6000FFF752FF7B7A1B021AB23B7A1BB2134378
:101B7000BB82FB7A1B021AB2BB7A1BB213437B8275
:101B8000FB88D8B207F108020223AA21FFF73CFF25
:101B90007B7A1B021AB23B7A1BB213433B82B7F922
:101BA0001020B7F91430D31A07EE903AB8EEE77A5E
:101BB000B7F91620B7F91830D31A07EE903AF8EEB5
:101BC000E77A67EE276AB7F91220B7F91430D31A0B
:101BD00007EE903AF8EEE77A86EEA77AB7F9183072
:101BE00007EE903AF8EEE77A77EE277AC7ED037AB8
:101BF000FB6807EE903AB0EE670A2037BD4680BD1D
:101C000080B582B000AF0023FB71032000F05CF9C7
:101C1000002000F00DF80346002B02D00123FB71D9
:101C200001E0FFF7CFFAFB7918460837BD4680BDC3
:101C300080B584B000AF78600023FB73174B1B782E
:101C4000002B23D0164B1A68144B1B7819464FF4FF
:101C50007A73B3FBF1F3B2FBF3F3184600F069F9C2
:101C60000346002B0FD17B680F2B09D8002279681F
:101C70004FF0FF3000F033F90A4A7B68136007E049
:101C80000123FB7304E00123FB7301E00123FB73D9
:101C9000FB7B18461037BD4680BD00BFAC0000205E
:101CA00094000020A800002080B400AF064B1B78F1
:101CB0001A46064B1B681344044A136000BFBD4616
:101CC0005DF8047B704700BFAC000020DC080020FA
:101CD00080B400AF034B1B681846BD465DF8047B1B
:101CE000704700BFDC08002080B584B000AF78608A
:101CF000FFF7EEFFB8607B68FB60FB68B3F1FF3F66
:101D000005D0094B1B781A46FB681344FB6000BFE3
:101D1000FFF7DEFF0246BB68D21AFB689A42F7D390
:101D200000BF1037BD4680BDAC00002080B485B038
:101D300000AF78607B6803F00703FB600C4BDB6847
:101D4000BB60BA684FF6FF031340BB60FB681A0222
:101D5000BB68134343F0BF6343F40033BB60044AE2
:101D6000BB68D36000BF1437BD465DF8047B704785
:101D700000ED00E080B400AF044BDB681B0A03F009
:101D800007031846BD465DF8047B704700ED00E090
:101D900080B483B000AF0346FB7197F90730002B86
:101DA0000BDB094997F907305B09FA7902F01F024A
:101DB000012000FA02F241F8232000BF0C37BD4693
:101DC0005DF8047B704700BF00E100E080B483B0A1
:101DD00000AF03463960FB7197F90730002B0ADB2F
:101DE0000D4997F907303A68D2B21201D2B20B44CA
:101DF00083F800230AE00949FB7903F00F03043B51
:101E00003A68D2B21201D2B20B441A7600BF0C3734
:101E1000BD465DF8047B704700E100E000ED00E0A6
:101E200080B489B000AFF860B9607A60FB6803F0F5
:101E30000703FB61FB69C3F10703042B28BF0423DD
:101E4000BB61FB690433062B02D9FB69033B00E04D
:101E500000237B610122BB6902FA03F35A1EBB68AF
:101E60001A407B699A4001217B6901FA03F3591EEC
:101E70007B680B40134318462437BD465DF8047B4E
:101E80007047000080B582B000AF78607B68013B8E
:101E9000B3F1807F01D301230FE00A4A7B68013B45
:101EA00053600F214FF0FF30FFF790FF054B0022EA
:101EB0009A60044B07221A60002318460837BD4673
:101EC00080BD00BF10E000E080B582B000AF786058
:101ED0007868FFF72BFF00BF0837BD4680BD80B58F
:101EE00086B000AF0346B9607A60FB7300237B6164
:101EF000FFF740FF78617A68B9687869FFF790FF6B
:101F0000024697F90F3011461846FFF75FFF00BFF2
:101F10001837BD4680BD80B582B000AF0346FB7167
:101F200097F907301846FFF733FF00BF0837BD4663
:101F300080BD80B582B000AF78607868FFF7A2FFFF
:101F4000034618460837BD4680BD000080B582B004
:101F500000AF78607B68002B01D10123ACE07B6887
:101F60001B68184600F0B2F80246554B53F8223071
:101F7000002B01D001239FE07868FFF747F9514B10
:101F80001B6801334F4A13604E4B1B68012B25D150
:101F90004D4A4D4B1B6823F0804313604A494A4B1E
:101FA0001A687B689B6813430B60474A464B1B6863
:101FB00023F47F0313607B681B79012B08D142490E
:101FC000414B1A687B68DB68013B1B0413430B60C1
:101FD0003D4A3D4B1B6843F0004313607B681B6820
:101FE0007A681268126822F471421A607B681B6872
:101FF0007A68126811687A6810697A6852691043C1
:102000007A68926902430A431A607B681B687A689F
:102010001268126822F00F021A607B681B687A68E7
:10202000126811687A68D0697A68126A02430A43B2
:102030001A607B681B687A681268926822F45F02F3
:102040009A607B681B687A68126891687A68506A3F
:102050007A68926A013A120402430A439A607B68E2
:102060001B687A681268526802F007025A607B683F
:102070001B687A68126851687A68D26A10027A68B6
:10208000126BD20002430A435A607B681B687A686D
:102090001268126842F080021A607B68012283F89D
:1020A00034207B681B68184600F010F80146044A8B
:1020B0007B6842F82130002318460837BD4680BDB2
:1020C000A8010020A40100200060014080B485B078
:1020D00000AF78607B681C4A934202D10023FB600A
:1020E0002BE07B68194A934202D10123FB6024E074
:1020F0007B68174A934202D10223FB601DE07B6894
:10210000144A934202D10423FB6016E07B68124A12
:10211000934202D10523FB600FE07B680F4A934294
:1021200002D10623FB6008E07B680D4A934202D18E
:102130000723FB6001E00323FB60FB6818461437AC
:10214000BD465DF8047B704700600140206001409F
:102150004060014080600140A0600140C0600140DB
:10216000E060014080B487B000AF78603960002340
:102170007B617FE13B681A6801217B6901FA03F307
:102180001340FB60FB68002B00F071813B685B68CB
:10219000012B0BD03B685B68022B07D03B685B6868
:1021A000112B03D03B685B68122B30D17B689B6896
:1021B0003B617B695B00032202FA03F3DB433A696C
:1021C00013403B613B68DA687B695B0002FA03F30A
:1021D0003A6913433B617B683A699A607B685B6844
:1021E0003B6101227B6902FA03F3DB433A69134046
:1021F0003B613B685B681B0903F001027B6902FAE3
:1022000003F33A6913433B617B683A695A603B6860
:102210005B6803F00303032B18D17B68DB6A3B6127
:1022200001227B6902FA03F3DB433A6913403B6105
:102230003B685B68DB0803F001027B6902FA03F389
:102240003A6913433B617B683A69DA627B68DB6811
:102250003B617B695B00032202FA03F3DB433A69CB
:1022600013403B613B689A687B695B0002FA03F3A9
:102270003A6913433B617B683A69DA603B685B68A3
:10228000022B03D03B685B68122B23D17B69DA08F1
:102290007B68083253F822303B617B6903F0070307
:1022A0009B000F2202FA03F3DB433A6913403B61C0
:1022B0003B681A697B6903F007039B0002FA03F38A
:1022C0003A6913433B617B69DA087B6808323969F4
:1022D00043F822107B681B683B617B695B0003222B
:1022E00002FA03F3DB433A6913403B613B685B68E6
:1022F00003F003027B695B0002FA03F33A691343BC
:102300003B617B683A691A603B685B6803F0805305
:10231000002B00F0AC805E4A5D4B1B6E43F0010366
:1023200013665B4B1B6E03F00103BB60BB68594A2D
:102330007B699B08023352F823303B617B6903F0D1
:1023400003039B000F2202FA03F3DB433A691340B5
:102350003B617B68B3F1904F25D07B684E4A934236
:102360001FD07B684D4A934219D07B684C4A9342F8
:1023700013D07B684B4A93420DD07B684A4A934204
:1023800007D07B68494A934201D106230CE007231A
:102390000AE0052308E0042306E0032304E0022307
:1023A00002E0012300E000237A6902F003029200B8
:1023B00093403A6913433B6136497B699B0802337A
:1023C0003A6941F823203A4B1B683B61FB68DB43C9
:1023D0003A6913403B613B685B6803F48033002B30
:1023E00003D03A69FB6813433B61314A3B69136090
:1023F0002F4B5B683B61FB68DB433A6913403B61F1
:102400003B685B6803F40033002B03D03A69FB6838
:1024100013433B61264A3B695360254B9B683B61F4
:10242000FB68DB433A6913403B613B685B6803F43C
:102430008013002B03D03A69FB6813433B611C4AAD
:102440003B6993601A4BDB683B61FB68DB433A698D
:1024500013403B613B685B6803F40013002B03D01F
:102460003A69FB6813433B61114A3B69D3607B695E
:1024700001337B613B681A687B6922FA03F3002B06
:102480007FF478AE00BF1C37BD465DF8047B704713
:10249000001002400000014000040048000800480D
:1024A000000C0048001000480014004800180048C4
:1024B0000004014080B487B000AF78603960002329
:1024C0007B61CDE001227B699A403B6813403B6110
:1024D0003B69002B00F0C180684A7B699B0802338E
:1024E00052F82330FB607B6903F003039B000F224B
:1024F00002FA03F3FA681340FB607B68B3F1904F74
:1025000025D07B685E4A93421FD07B685D4A934228
:1025100019D07B685C4A934213D07B685B4A934234
:102520000DD07B685A4A934207D07B68594A934240
:1025300001D106230CE007230AE0052308E0042369
:1025400006E0032304E0022302E0012300E000236D
:102550007A6902F00302920003FA02F2FB689A42DF
:1025600032D14D494C4B1A683B69DB4313400B6039
:102570004949494B5A683B69DB4313404B60464924
:10258000454B9A683B69DB4313408B604249424BA1
:10259000DA683B69DB431340CB607B6903F00303DC
:1025A0009B000F2202FA03F3FB6034487B699B080F
:1025B00032497A699208023251F82210FA68D243FD
:1025C0000A40023340F823207B681A687B695B006D
:1025D000032101FA03F31A437B681A607B69DA0866
:1025E0007B69D9087B68083153F821107B6903F0B7
:1025F00007039B000F2000FA03F3DB4319407B68BD
:10260000083243F822107B689A687B695B000321DB
:1026100001FA03F3DB431A407B689A607B685A68CF
:1026200001217B6901FA03F3DB431A407B685A609E
:102630007B68DA687B695B00032101FA03F3DB4303
:102640001A407B68DA607B68DA6A01217B6901FAEB
:1026500003F3DB431A407B68DA627B6901337B61F9
:102660003A687B6922FA03F3002B7FF42BAF00BF9B
:102670001C37BD465DF8047B704700BF0000014079
:102680000004004800080048000C00480010004802
:1026900000140048001800480004014080B483B0D2
:1026A00000AF78600B467B8013467B707B78002BF5
:1026B00003D07A887B689A6102E07A887B689A62A4
:1026C00000BF0C37BD465DF8047B704780B582B013
:1026D00000AF0346FB80084B5A69FB881340002B70
:1026E00006D0054AFB885361FB88184600F006F8BF
:1026F00000BF0837BD4680BD0004014080B483B0F0
:1027000000AF0346FB8000BF0C37BD465DF8047B7D
:10271000704780B582B000AF78607B68002B01D134
:10272000012380E07B6893F84130DBB2002B06D1B7
:102730007B68002283F840207868FEF7AFFD7B6855
:10274000242283F841207B681B687A68126812682B
:1027500022F001021A607B681B687A68526822F0D6
:1027600070621A617B681B687A681268926822F44A
:1027700000429A607B68DB68012B07D17B681B688D
:102780007A68926842F400429A6006E07B681B68AF
:102790007A68926842F404429A607B68DB68022B94
:1027A00004D17B681B684FF400625A607B681A682A
:1027B0007B681B685B6843F0007343F4004353601D
:1027C0007B681B687A681268D26822F40042DA607B
:1027D0007B681B687A6811697A68526911437A6864
:1027E000926912020A43DA607B681B687A68D169D1
:1027F0007A68126A0A431A607B681B687A681268F2
:10280000126842F001021A607B6800225A647B68F9
:10281000202283F841207B6800221A637B68002213
:1028200083F84220002318460837BD4680BD80B596
:1028300082B000AF78607B68002B01D1012321E0DA
:102840007B68242283F841207B681B687A681268C1
:10285000126822F001021A607868FEF763FD7B6857
:1028600000225A647B68002283F841207B680022A2
:102870001A637B68002283F842207B68002283F879
:102880004020002318460837BD4680BD80B588B07B
:1028900002AFF860084611461A4603467B810B4694
:1028A0003B811346FB80FB6893F84130DBB2202B61
:1028B00040F0F9803B6A002B02D0BB8C002B05D185
:1028C000FB684FF400725A640123EDE0FB6893F853
:1028D0004030012B01D10223E6E0FB68012283F89E
:1028E0004020FFF7F5F978617B69009319230122F5
:1028F0004FF40041F86800F0C3FA0346002B01D002
:102900000123D1E0FB68212283F84120FB684022AB
:1029100083F84220FB6800225A64FB683A6A5A62D4
:10292000FB68BA8C5A85FB6800225A63F8883A899A
:1029300079897B690193BB6A00930346F86800F0CC
:10294000D3F90346002B05D0FB68002283F8402012
:102950000123A9E0FB685B8D9BB2FF2B0ED9FB68BE
:10296000FF221A85FB681B8DDAB279890023009358
:102970004FF08073F86800F0A5FB0FE0FB685B8DFB
:102980009AB2FB681A85FB681B8DDAB2798900233D
:1029900000934FF00073F86800F094FB7A69B96A0D
:1029A000F86800F0ADFA0346002B01D001237BE06C
:1029B000FB681B68FA68526A12789A62FB685B6A65
:1029C0005A1CFB685A62FB685B8D9BB2013B9AB252
:1029D000FB685A85FB681B8D013B9AB2FB681A8520
:1029E000FB685B8D9BB2002B34D0FB681B8D002BEA
:1029F00030D17B690093BB6A00228021F86800F027
:102A00003FFA0346002B01D001234DE0FB685B8DAC
:102A10009BB2FF2B0ED9FB68FF221A85FB681B8D2A
:102A2000DAB27989002300934FF08073F86800F0E0
:102A300049FB0FE0FB685B8D9AB2FB681A85FB6867
:102A40001B8DDAB27989002300934FF00073F86888
:102A500000F038FBFB685B8D9BB2002B9ED17A693E
:102A6000B96AF86800F08CFA0346002B01D0012304
:102A70001AE0FB681B682022DA61FB681A68FB68B1
:102A80001B6859680A4B0B405360FB68202283F88F
:102A90004120FB68002283F84220FB68002283F873
:102AA0004020002300E0022318461837BD4680BDB1
:102AB00000E800FE80B588B002AFF8600846114615
:102AC0001A4603467B810B463B811346FB80FB681D
:102AD00093F84130DBB2202B40F0FD803B6A002BA5
:102AE00002D0BB8C002B05D1FB684FF400725A64F6
:102AF0000123F1E0FB6893F84030012B01D1022360
:102B0000EAE0FB68012283F84020FFF7E1F87861F2
:102B10007B690093192301224FF40041F86800F00B
:102B2000AFF90346002B01D00123D5E0FB68222238
:102B300083F84120FB68402283F84220FB68002292
:102B40005A64FB683A6A5A62FB68BA8C5A85FB6819
:102B500000225A63F8883A8979897B690193BB6AB4
:102B600000930346F86800F013F90346002B05D0E4
:102B7000FB68002283F840200123ADE0FB685B8DF9
:102B80009BB2FF2B0ED9FB68FF221A85FB681B8DB9
:102B9000DAB27989524B00934FF08073F86800F0F5
:102BA00091FA0FE0FB685B8D9AB2FB681A85FB68AF
:102BB0001B8DDAB279894A4B00934FF00073F868A5
:102BC00000F080FA7B690093BB6A00220421F86858
:102BD00000F056F90346002B01D001237CE0FB688E
:102BE0005B6AFA681268526AD2B21A70FB685B6A52
:102BF0005A1CFB685A62FB681B8D013B9AB2FB684A
:102C00001A85FB685B8D9BB2013B9AB2FB685A85C3
:102C1000FB685B8D9BB2002B34D0FB681B8D002BB7
:102C200030D17B690093BB6A00228021F86800F0F4
:102C300027F90346002B01D001234DE0FB685B8D93
:102C40009BB2FF2B0ED9FB68FF221A85FB681B8DF8
:102C5000DAB27989002300934FF08073F86800F0AE
:102C600031FA0FE0FB685B8D9AB2FB681A85FB684E
:102C70001B8DDAB27989002300934FF00073F86856
:102C800000F020FAFB685B8D9BB2002B9AD17A6929
:102C9000B96AF86800F074F90346002B01D00123EB
:102CA0001AE0FB681B682022DA61FB681A68FB687F
:102CB0001B6859680B4B0B405360FB68202283F85C
:102CC0004120FB68002283F84220FB68002283F841
:102CD0004020002300E0022318461837BD4680BD7F
:102CE0000024008000E800FE80B586B002AFF860E6
:102CF000084611461A4603467B810B463B81134624
:102D0000FB80FB88DAB27989204B00934FF0807307
:102D1000F86800F0D7F9FA69B969F86800F0F0F8D6
:102D20000346002B01D001232CE0FB88012B05D1A9
:102D3000FB681B683A89D2B29A6215E0FB681B688F
:102D40003A89120A92B2D2B29A62FA69B969F868FB
:102D500000F0D6F80346002B01D0012312E0FB68F7
:102D60001B683A89D2B29A62FB690093BB69002260
:102D70008021F86800F084F80346002B01D001237D
:102D800000E0002318461037BD4680BD00200080BB
:102D900080B586B002AFF860084611461A46034671
:102DA0007B810B463B811346FB80FB88DAB2798935
:102DB000204B00930023F86800F084F9FA69B969A0
:102DC000F86800F09DF80346002B01D001232CE0A9
:102DD000FB88012B05D1FB681B683A89D2B29A6245
:102DE00015E0FB681B683A89120A92B2D2B29A6265
:102DF000FA69B969F86800F083F80346002B01D03E
:102E0000012312E0FB681B683A89D2B29A62FB691F
:102E10000093BB6900224021F86800F031F80346B6
:102E2000002B01D0012300E0002318461037BD46D7
:102E300080BD00BF0020008080B483B000AF786008
:102E40007B681B689B6903F00203022B03D17B683C
:102E50001B6800229A627B681B689B6903F0010370
:102E6000012B07D07B681B687A681268926942F070
:102E700001029A6100BF0C37BD465DF8047B7047C4
:102E800080B584B000AFF860B9603B601346FB7159
:102E900022E03B68B3F1FF3F1ED0FEF719FF024668
:102EA000BB69D21A3B689A4202D83B68002B13D107
:102EB000FB685B6C43F02002FB685A64FB682022CD
:102EC00083F84120FB68002283F84220FB6800223F
:102ED00083F8402001230FE0FB681B689A69BB68F8
:102EE0001A40BB689A420CBF01230023DBB21A468A
:102EF000FB799A42CDD0002318461037BD4680BDDD
:102F000080B584B000AFF860B9607A602CE07A6870
:102F1000B968F86800F070F80346002B01D001236F
:102F20002AE0BB68B3F1FF3F1ED0FEF7D1FE024698
:102F30007B68D21ABB689A4202D8BB68002B13D1B7
:102F4000FB685B6C43F02002FB685A64FB6820223C
:102F500083F84120FB68002283F84220FB680022AE
:102F600083F84020012307E0FB681B689B6903F09E
:102F70000203022BCBD1002318461037BD4680BD7B
:102F800080B584B000AFF860B9607A6028E07A68F4
:102F9000B968F86800F030F80346002B01D001232F
:102FA00026E0FEF795FE02467B68D21ABB689A427D
:102FB00002D8BB68002B13D1FB685B6C43F0200286
:102FC000FB685A64FB68202283F84120FB680022DA
:102FD00083F84220FB68002283F84020012307E0A9
:102FE000FB681B689B6903F02003202BCFD10023D3
:102FF00018461037BD4680BD80B584B000AFF8607C
:10300000B9607A60FB681B689B6903F01003102BA2
:1030100051D122E0BB68B3F1FF3F1ED0FEF758FE4E
:1030200002467B68D21ABB689A4202D8BB68002B62
:1030300013D1FB685B6C43F02002FB685A64FB68A9
:10304000202283F84120FB68002283F84220FB689D
:10305000002283F8402001232EE0FB681B689B6957
:1030600003F02003202BD5D1FB681B681022DA6106
:10307000FB681B682022DA61F868FFF7DDFEFB6859
:103080001A68FB681B6859680D4B0B405360FB685E
:103090005B6C43F00402FB685A64FB68202283F8EF
:1030A0004120FB68002283F84220FB68002283F85D
:1030B0004020012300E0002318461037BD4680BDA4
:1030C00000E800FE80B485B000AFF8607B600B467E
:1030D0007B8113467B72FB681A68FB681B68596822
:1030E000BB695B0D03F480600B4B0343DB4319406A
:1030F0007B89C3F309007B7A1B0403F47F03184325
:103100007B681843BB6903430B43536000BF14370C
:10311000BD465DF8047B7047FF63FF0380B483B056
:1031200000AF786039607B6893F84130DBB2202BC8
:1031300038D17B6893F84030012B01D1022332E073
:103140007B68012283F840207B68242283F8412099
:103150007B681B687A681268126822F001021A60A4
:103160007B681B687A681268126822F480521A60C1
:103170007B681B687A68126811683A680A431A60AB
:103180007B681B687A681268126842F001021A6054
:103190007B68202283F841207B68002283F840204E
:1031A000002300E0022318460C37BD465DF8047B7F
:1031B000704780B485B000AF786039607B6893F861
:1031C0004130DBB2202B39D17B6893F84030012BA2
:1031D00001D1022333E07B68012283F840207B6821
:1031E000242283F841207B681B687A681268126881
:1031F00022F001021A607B681B681B68FB60FB6899
:1032000023F47063FB603B681B02FA681343FB60A6
:103210007B681B68FA681A607B681B687A681268AA
:10322000126842F001021A607B68202283F8412074
:103230007B68002283F84020002300E00223184628
:103240001437BD465DF8047B7047F0B58FB00AAF08
:1032500078607B68002B01D1012316E17B681B6835
:10326000BB607B6893F8BD33DBB2002B06D17B6873
:10327000002283F8BC237868FEF776F97B68032286
:1032800083F8BD23BB68DB6B03F48073002B02D192
:103290007B6800221A617B681B68184602F0A3FA5B
:1032A0007B681B683B607E686D4606F110040FCC9E
:1032B0000FC50FCC0FC594E8030085E80300331D4C
:1032C0000ECB386802F063FA0346002B05D07B680A
:1032D000022283F8BD230123D7E07B681B6800210D
:1032E000184602F091FA0023FB734AE0FA7B7968F2
:1032F0001346DB009B1A9B000B443D3301221A70DE
:10330000FA7B79681346DB009B1A9B000B443C3325
:10331000FA7B1A70FA7BFB7B98B279681346DB0064
:103320009B1A9B000B44423302461A80FA7B796851
:103330001346DB009B1A9B000B443F3300221A709C
:10334000FA7B79681346DB009B1A9B000B444433DD
:1033500000221A60FA7B79681346DB009B1A9B00F7
:103360000B44483300221A60FA7B79681346DB006D
:103370009B1A9B000B44503300221A60FB7B0133E5
:10338000FB73FA7B7B685B689A42AFD30023FB73C5
:1033900044E0FA7B79681346DB009B1A9B000B44E0
:1033A00003F2FD1300221A70FA7B79681346DB00E2
:1033B0009B1A9B000B4403F5FE73FA7B1A70FA7B91
:1033C00079681346DB009B1A9B000B4403F2FF1342
:1033D00000221A70FA7B79681346DB009B1A9B0067
:1033E0000B4403F5017300221A60FA7B79681346D7
:1033F000DB009B1A9B000B4403F5027300221A604A
:10340000FA7B79681346DB009B1A9B000B4403F59B
:10341000047300221A60FB7B0133FB73FA7B7B6829
:103420005B689A42B5D37B681B683B607E686D46DB
:1034300006F110040FCC0FC50FCC0FC594E80300A4
:1034400085E80300331D0ECB386802F007FA034607
:10345000002B05D07B68022283F8BD23012314E0F2
:103460007B68002283F838207B68012283F8BD2323
:103470007B685B6A012B02D1786800F00AF87B68F0
:103480001B68184602F098FB002318461437BD4607
:10349000F0BD80B485B000AF78607B681B68FB60CE
:1034A0007B680122C3F8FC237B68002283F8F423A5
:1034B000FB689B6943F00062FB689A61FB685B6D87
:1034C00043F0805343F00303FA6853650023184622
:1034D0001437BD465DF8047B7047000080B400AF30
:1034E000054A054B1B6843F48073136000BFBD465B
:1034F0005DF8047B704700BF0070004080B400AFEF
:10350000044B1B6803F4C0631846BD465DF8047B9A
:10351000704700BF0070004080B485B000AF786095
:103520007B68B3F5007F30D1234B1B6803F4C06385
:10353000B3F5007F38D0204A1F4B1B6823F4C063CB
:1035400043F4007313601D4B1B68322202FB03F32C
:103550001B4AA2FB03239B0C0133FB6002E0FB68C8
:10356000013BFB60144B5B6903F48063B3F5806F30
:1035700002D1FB68002BF2D10F4B5B6903F480632F
:10358000B3F5806F10D103230FE00B4B1B6803F4DE
:10359000C063B3F5806F07D0074A074B1B6823F45D
:1035A000C06343F480631360002318461437BD469C
:1035B0005DF8047B704700BF00700040940000205D
:1035C00083DE1B4380B400AF054A054B5B6843F4C0
:1035D0008063536000BFBD465DF8047B704700BF49
:1035E0000070004080B586B002AF7860FEF770FBD7
:1035F000F8607B68002B01D1012363E07B6893F8BE
:103600003930DBB2002B0BD17B68002283F83820E5
:103610007868FDF7ABFE41F28831786800F058F821
:103620007B681B687A681268126822F470617A6895
:103630009268013A12020A431A607B681B6C00937D
:10364000FB6800222021786800F050F80346FB72E6
:10365000FB7A002B31D17B681A687B681B681B687A
:1036600023F07F4323F010037968496808067968DE
:10367000C96801430B4313607B681A687B681B6849
:103680005968124B0B4079680969080479684969DF
:1036900008437968896901430B4353607B681B6861
:1036A0007A681268126842F001021A607B68002290
:1036B000DA637B68012283F839207B68002283F873
:1036C0003820FB7A18461037BD4680BDFEF8E0FF73
:1036D00080B483B000AF786039607B683A681A6460
:1036E00000BF0C37BD465DF8047B704780B584B0E1
:1036F00000AFF860B9603B601346FB711AE0BB692C
:10370000B3F1FF3F16D0FEF7E3FA02463B68D21A48
:10371000BB699A4202D8BB69002B0BD1FB6804221B
:1037200083F83920FB68DB6B43F00102FB68DA6346
:1037300001230EE0FB681B689A68BB681340002BEE
:1037400014BF01230023DBB21A46FB799A42D6D17B
:10375000002318461037BD4680BD000080B588B0F4
:1037600000AF78607B68002B01D10123D4E3A14B2B
:103770009B6803F00C03BB619E4BDB6803F0030303
:103780007B617B681B6803F01003002B00F0E48072
:10379000BB69002B07D0BB690C2B40F08B807B6989
:1037A000012B40F08780934B1B6803F00203002B32
:1037B00005D07B689B69002B01D10123ACE37B68BA
:1037C0001A6A8C4B1B6803F00803002B04D0894B4A
:1037D0001B6803F0F00305E0864BD3F894301B0917
:1037E00003F0F0039A4223D97B681B6A184600F065
:1037F0003FFD0346002B01D001238DE37D4A7D4B25
:103800001B6843F0080313607A497A4B1B6823F066
:10381000F0027B681B6A13430B607649754B5B684B
:1038200023F47F427B68DB691B0213434B6025E076
:10383000704A704B1B6843F0080313606D496D4B71
:103840001B6823F0F0027B681B6A13430B60694915
:10385000684B5B6823F47F427B68DB691B02134380
:103860004B60BB69002B09D17B681B6A184600F0CE
:10387000FFFC0346002B01D001234DE300F036FC92
:1038800001465C4B9B681B0903F00F035A4AD35C4B
:1038900003F01F0321FA03F3584A1360584B1B68C7
:1038A0001846FEF7C5F90346FB73FB7B002B52D08D
:1038B000FB7B31E37B689B69002B32D04D4A4D4B3B
:1038C0001B6843F001031360FEF702FA386108E059
:1038D000FEF7FEF902463B69D31A022B01D90323F6
:1038E0001AE3444B1B6803F00203002BF0D0414A5B
:1038F000404B1B6843F0080313603E493D4B1B6877
:1039000023F0F0027B681B6A13430B603949394B83
:103910005B6823F47F427B68DB691B0213434B60C7
:103920001AE0344A334B1B6823F001031360FEF79F
:10393000CFF9386108E0FEF7CBF902463B69D31AAC
:10394000022B01D90323E7E22A4B1B6803F0020391
:10395000002BF0D100E000BF7B681B6803F001037F
:10396000002B74D0BB69082B05D0BB690C2B0ED182
:103970007B69032B0BD11F4B1B6803F40033002B17
:1039800064D07B685B68002B60D10123C4E27B6854
:103990005B68B3F5803F06D1164A164B1B6843F4AB
:1039A000803313601DE07B685B68B3F5A02F0CD1FA
:1039B000104A104B1B6843F4802313600D4A0D4BD3
:1039C0001B6843F4803313600BE00A4A094B1B6801
:1039D00023F480331360074A064B1B6823F48023CB
:1039E00013607B685B68002B1CD0FEF771F93861AF
:1039F00011E000BF001002401C6600089400002087
:103A0000A8000020FEF764F902463B69D31A642B34
:103A100001D9032380E2AF4B1B6803F40033002B72
:103A2000F0D014E0FEF754F9386108E0FEF750F9E1
:103A300002463B69D31A642B01D903236CE2A54BE0
:103A40001B6803F40033002BF0D100E000BF7B685B
:103A50001B6803F00203002B60D0BB69042B05D068
:103A6000BB690C2B19D17B69022B16D1994B1B68B2
:103A700003F48063002B05D07B68DB68002B01D149
:103A8000012349E29349934B5B6823F0F8527B682A
:103A90001B691B0613434B6040E07B68DB68002B0F
:103AA00023D08C4A8B4B1B6843F480731360FEF762
:103AB0000FF9386108E0FEF70BF902463B69D31AAB
:103AC000022B01D9032327E2824B1B6803F4806396
:103AD000002BF0D07F497F4B5B6823F0F8527B6866
:103AE0001B691B0613434B6018E07A4A794B1B682D
:103AF00023F480731360FEF7EBF8386108E0FEF7FB
:103B0000E7F802463B69D31A022B01D9032303E2EB
:103B1000704B1B6803F48063002BF0D17B681B683B
:103B200003F00803002B3CD07B685B69002B1CD0A2
:103B3000684A684BD3F8943043F00103C2F89430DC
:103B4000FEF7C6F8386108E0FEF7C2F802463B69A6
:103B5000D31A022B01D90323DEE15E4BD3F8943054
:103B600003F00203002BEFD01BE05A4A594BD3F865
:103B7000943023F00103C2F89430FEF7A9F83861BD
:103B800008E0FEF7A5F802463B69D31A022B01D9DB
:103B90000323C1E14F4BD3F8943003F00203002B11
:103BA000EFD17B681B6803F00403002B00F0A680B4
:103BB0000023FB77474B9B6D03F08053002B0DD107
:103BC000444A444B9B6D43F080539365414B9B6D3E
:103BD00003F08053BB60BB680123FB773E4B1B683F
:103BE00003F48073002B18D13B4A3B4B1B6843F412
:103BF00080731360FEF76CF8386108E0FEF768F830
:103C000002463B69D31A022B01D9032384E1324BCC
:103C10001B6803F48073002BF0D07B689B68012B3A
:103C200008D12C4A2B4BD3F8903043F00103C2F853
:103C3000903024E07B689B68052B10D1254A254BEA
:103C4000D3F8903043F00403C2F89030214A214B5E
:103C5000D3F8903043F00103C2F890300FE01D4AD2
:103C60001C4BD3F8903023F00103C2F89030194A6E
:103C7000184BD3F8903023F00403C2F890307B68DF
:103C80009B68002B16D0FEF723F838610AE0FEF798
:103C90001FF802463B69D31A41F28832934201D998
:103CA000032339E10B4BD3F8903003F00203002BD0
:103CB000EDD01AE0FEF70CF838610FE0FEF708F8D7
:103CC00002463B69D31A41F28832934206D9032354
:103CD00022E100BF0010024000700040904BD3F87A
:103CE000903003F00203002BE8D1FB7F012B05D1BC
:103CF0008B4A8B4B9B6D23F0805393657B689B6A4B
:103D0000002B00F008817B689B6A022B40F0D0807A
:103D1000834BDB687B617B6903F003027B68DB6AB2
:103D20009A4230D17B6903F070027B681B6B013BC8
:103D30001B019A4227D17B6903F4FE427B685B6BCF
:103D40001B029A421FD17B6903F400337A68926B9D
:103D5000072A14BF01220022D2B2934213D17B69F9
:103D600003F4C0027B68DB6B5B08013B5B059A4296
:103D700009D17B6903F0C0627B681B6C5B08013B67
:103D80005B069A426ED0BB690C2B69D0644B1B68F2
:103D900003F08063002B05D1614B1B6803F0805357
:103DA000002B01D00123B7E05D4A5D4B1B6823F077
:103DB00080731360FDF78CFF386108E0FDF788FF22
:103DC00002463B69D31A022B01D90323A4E0544BCA
:103DD0001B6803F00073002BF0D15148504BDA6898
:103DE000504B13407A68D16A7A68126B013A12011B
:103DF00011437A68526B120211437A68D26B5208EF
:103E0000013A520511437A68126C5208013A52067F
:103E100011437A68926B120952040A431343C36038
:103E20003F4A3F4B1B6843F0807313603C4A3C4B56
:103E3000DB6843F08073D360FDF74AFF386108E028
:103E4000FDF746FF02463B69D31A022B01D9032333
:103E500062E0334B1B6803F00073002BF0D05AE094
:103E6000012359E02E4B1B6803F00073002B52D145
:103E70002B4A2B4B1B6843F080731360284A284B56
:103E8000DB6843F08073D360FDF722FF386108E000
:103E9000FDF71EFF02463B69D31A022B01D903230B
:103EA0003AE01F4B1B6803F00073002BF0D032E0A8
:103EB000BB690C2B2DD01A4A194B1B6823F0807359
:103EC0001360174B1B6803F02053002B05D1144AD5
:103ED000134BDB6823F00303D360114A104BDB68FC
:103EE00023F0887323F48033D360FDF7F1FE38614B
:103EF00008E0FDF7EDFE02463B69D31A022B01D91B
:103F0000032309E0064B1B6803F00073002BF0D17C
:103F100001E0012300E0002318462037BD4680BDA4
:103F2000001002408C809DF980B584B000AF7860AD
:103F300039607B68002B01D10123C8E0664B1B6808
:103F400003F007023B689A4210D26349624B1B6838
:103F500023F007023B6813430B605F4B1B6803F0C1
:103F600007023B689A4201D00123B0E07B681B68DE
:103F700003F00103002B4CD07B685B68032B07D157
:103F8000564B1B6803F00073002B21D101239EE0E8
:103F90007B685B68022B07D1504B1B6803F400332E
:103FA000002B15D1012392E07B685B68002B07D1C1
:103FB0004A4B1B6803F00203002B09D1012386E062
:103FC000464B1B6803F48063002B01D101237EE084
:103FD0004249424B9B6823F003027B685B681343B2
:103FE0008B60FDF775FEF8600AE0FDF771FE024692
:103FF000FB68D31A41F28832934201D9032366E069
:10400000364B9B6803F00C027B685B689B009A420E
:10401000EBD17B681B6803F00203002B08D02F490B
:104020002E4B9B6823F0F0027B689B6813438B60E8
:10403000294B1B6803F007023B689A4210D92649B6
:10404000254B1B6823F007023B6813430B60224B90
:104050001B6803F007023B689A4201D0012336E057
:104060007B681B6803F00403002B08D01B491B4B23
:104070009B6823F4E0627B68DB6813438B607B689A
:104080001B6803F00803002B09D01449134B9B68ED
:1040900023F460527B681B69DB0013438B6000F0E4
:1040A00025F801460D4B9B681B0903F00F030C4AD2
:1040B000D35C03F01F0321FA03F30A4A13600A4B8F
:1040C0001B681846FDF7B4FD0346FB72FB7A1846E1
:1040D0001037BD4680BD00BF0020024000100240E6
:1040E0001C66000894000020A800002080B489B05D
:1040F00000AF0023FB610023BB613D4B9B6803F0D5
:104100000C033B613A4BDB6803F00303FB603B6944
:10411000002B05D03B690C2B21D1FB68012B1ED154
:10412000334B1B6803F00803002B07D1304BD3F847
:1041300094301B0A03F00F03FB6105E02C4B1B6856
:104140001B0903F00F03FB612A4AFB6952F8233075
:10415000FB613B69002B0DD1FB69BB610AE03B6948
:10416000042B02D1244BBB6104E03B69082B01D135
:10417000224BBB613B690C2B33D11D4BDB6803F039
:104180000303BB60BB68022B02D0032B03D005E006
:10419000194B7B6105E0194B7B6102E0FB697B6198
:1041A00000BF134BDB681B0903F0070301337B607F
:1041B0000F4BDB681B0A03F07F037A6902FB03F2F3
:1041C0007B68B2FBF3F37B61094BDB685B0E03F0AA
:1041D000030301335B003B607A693B68B2FBF3F396
:1041E000BB61BB6918462437BD465DF8047B704748
:1041F00000100240346600080024F40000127A0027
:1042000080B400AF034B1B681846BD465DF8047BC5
:10421000704700BF9400002080B500AFFFF7F0FFAB
:104220000146064B9B681B0A03F00703044AD35C54
:1042300003F01F0321FA03F3184680BD001002406B
:104240002C66000880B500AFFFF7DAFF0146064B89
:104250009B68DB0A03F00703044AD35C03F01F03E7
:1042600021FA03F3184680BD001002402C660008B6
:1042700080B586B000AF786000233B612A4B9B6D10
:1042800003F08053002B03D0FFF738F9786114E076
:10429000254A254B9B6D43F080539365224B9B6DC4
:1042A00003F08053FB60FB68FFF728F978611E4A32
:1042B0001D4B9B6D23F0805393657B69B3F5007FA5
:1042C0000BD17B68802B19D97B68A02B02D90223E4
:1042D0003B6113E001233B6110E07B68802B02D936
:1042E00003233B610AE07B68802B02D102233B6100
:1042F00004E07B68702B01D101233B610B490B4B20
:104300001B6823F007023B6913430B60074B1B68D4
:1043100003F007023B699A4201D0012300E0002329
:1043200018461837BD4680BD0010024000200240EC
:1043300080B586B000AF78600023FB740023BB74A7
:104340007B681B6803F40063002B3FD07B685B6EC7
:10435000B3F5800F1CD0B3F5800F02D8002B0ED020
:104360001FE0B3F5000F03D0B3F5400F1CD018E0E9
:10437000854A854BDB6843F48033D36015E07B6866
:1043800004330021184600F0C9FA0346FB740CE020
:104390007B6820330021184600F0B0FB0346FB7415
:1043A00003E00123FB7400E000BFFB7C002B0BD17A
:1043B0007549754BD3F8883023F440027B685B6EF7
:1043C0001343C1F8883001E0FB7CBB747B681B6839
:1043D00003F48053002B3FD07B689B6EB3F1807F4A
:1043E0001CD0B3F1807F02D8002B0ED01FE0B3F1B8
:1043F000007F03D0B3F1407F1CD018E0624A624BCB
:10440000DB6843F48033D36015E07B68043300211C
:10441000184600F083FA0346FB740CE07B682033F7
:104420000021184600F06AFB0346FB7403E00123F9
:10443000FB7400E000BFFB7C002B0BD15249524BB8
:10444000D3F8883023F040727B689B6E1343C1F829
:10445000883001E0FB7CBB747B681B6803F400338D
:10446000002B00F0A08000237B74474B9B6D03F072
:104470008053002B01D1012300E00023002B0DD03D
:10448000414A414B9B6D43F0805393653E4B9B6D7E
:1044900003F08053BB60BB6801237B743B4A3B4BFA
:1044A0001B6843F480731360FDF712FCF86009E0A9
:1044B000FDF70EFC0246FB68D31A022B02D9032338
:1044C000FB7405E0314B1B6803F48073002BEFD0C5
:1044D000FB7C002B5CD12C4BD3F8903003F4407361
:1044E0007B617B69002B1FD07B68D3F884207B69BC
:1044F0009A4219D0244BD3F8903023F440737B6157
:10450000214A214BD3F8903043F48033C2F89030E5
:104510001D4A1D4BD3F8903023F48033C2F89030FD
:10452000194A7B69C2F890307B6903F00103002BC4
:1045300016D0FDF7CDFBF8600BE0FDF7C9FB024696
:10454000FB68D31A41F28832934202D90323FB74E9
:1045500006E00D4BD3F8903003F00203002BECD0B3
:10456000FB7C002B0CD10849074BD3F8903023F487
:1045700040727B68D3F884301343C1F8903009E06F
:10458000FB7CBB7406E000BF0010024000700040DE
:10459000FB7CBB747B7C012B05D19E4A9D4B9B6DA4
:1045A00023F0805393657B681B6803F00103002BA5
:1045B0000AD09849974BD3F8883023F003027B68E0
:1045C0009B6B1343C1F888307B681B6803F00203C0
:1045D000002B0AD08F498F4BD3F8883023F00C0280
:1045E0007B68DB6B1343C1F888307B681B6803F082
:1045F0000403002B0AD08749864BD3F8883023F078
:1046000030027B681B6C1343C1F888307B681B68E1
:1046100003F00803002B0AD07E497E4BD3F8883084
:1046200023F0C0027B685B6C1343C1F888307B6861
:104630001B6803F01003002B0AD07649754BD3F8A2
:10464000883023F440727B689B6C1343C1F8883038
:104650007B681B6803F02003002B0AD06D496D4B6B
:10466000D3F8883023F440627B68DB6C1343C1F8D5
:1046700088307B681B6803F40073002B0AD06549FF
:10468000644BD3F8883023F440227B68DB6D1343FE
:10469000C1F888307B681B6803F48063002B0AD064
:1046A0005C495C4BD3F8883023F440127B681B6E66
:1046B0001343C1F888307B681B6803F04003002B6C
:1046C0000AD05449534BD3F8883023F440527B68C6
:1046D0001B6D1343C1F888307B681B6803F08003AF
:1046E000002B0AD04B494B4BD3F8883023F440427F
:1046F0007B685B6D1343C1F888307B681B6803F4EB
:104700008073002B0AD04349424BD3F8883023F4FE
:1047100040327B689B6D1343C1F888307B681B680F
:1047200003F40053002B28D03A493A4BD3F8883091
:1047300023F040627B68DB6E1343C1F888307B68EE
:10474000DB6EB3F1006F06D1324A324BDB6843F4C3
:104750008013D36011E07B68DB6EB3F1806F0CD106
:104760007B6804330121184600F0D8F80346FB7437
:10477000FB7C002B01D0FB7CBB747B681B6803F4C3
:104780000023002B28D02349224BD3F8883023F074
:1047900040627B681B6F1343C1F888307B681B6FD6
:1047A000B3F1006F06D11B4A1A4BDB6843F4801348
:1047B000D36011E07B681B6FB3F1806F0CD17B6815
:1047C00004330121184600F0A9F80346FB74FB7C72
:1047D000002B01D0FB7CBB747B681B6803F4802337
:1047E000002B2BD00B490B4BD3F8883023F04062C1
:1047F0007B685B6F1343C1F888307B685B6FB3F1F4
:10480000006F09D1034A034BDB6843F48013D36084
:1048100014E000BF001002407B685B6FB3F1806F53
:104820000CD17B6804330121184600F077F8034669
:10483000FB74FB7C002B01D0FB7CBB747B681B688A
:1048400003F48043002B2FD02B492B4BD3F8883017
:1048500023F040527B689B6F1343C1F888307B681C
:104860009B6FB3F1805F0DD17B6804330221184642
:1048700000F054F80346FB74FB7C002B14D0FB7C47
:10488000BB7411E07B689B6FB3F1005F0CD17B6858
:1048900020330221184600F031F90346FB74FB7CFB
:1048A000002B01D0FB7CBB747B681B6803F40043C6
:1048B000002B0AD01049104BD3F8883023F08042E7
:1048C0007B68DB6F1343C1F888307B681B6803F497
:1048D0008033002B0BD00849074BD3F8883023F0E6
:1048E00000427B68D3F880301343C1F88830BB7C2A
:1048F00018461837BD4680BD0010024080B400AF96
:10490000054A054B1B6843F00403136000BFBD4616
:104910005DF8047B704700BF0010024080B584B092
:1049200000AF786039600023FB73734BDB6803F0E2
:104930000303002B18D0704BDB6803F003027B6885
:104940001B689A420DD17B681B68002B09D06A4B0B
:10495000DB681B0903F007035A1C7B685B689A42FB
:1049600044D00123FB7341E07B681B68022B0CD011
:10497000032B13D0012B20D15F4B1B6803F00203E4
:10498000002B1DD10123FB731AE05B4B1B6803F462
:104990008063002B16D10123FB7313E0564B1B6879
:1049A00003F40033002B0FD1534B1B6803F4802317
:1049B000002B09D10123FB7306E00123FB7304E004
:1049C00000BF02E000BF00E000BFFB7B002B0DD169
:1049D0004948494BDB6823F073027B6819687B68A0
:1049E0005B68013B1B010B431343C360FB7B002B44
:1049F0007DD1414A404B1B6823F080631360FDF773
:104A000067F9B86009E0FDF763F90246BB68D31A9D
:104A1000022B02D90323FB7305E0374B1B6803F01D
:104A20000063002BEFD1FB7B002B60D13B68002B98
:104A300011D13148304B1B6923F41F3323F44073E9
:104A40007A68926811027A68D268120952040A439D
:104A50001343036127E03B68012B12D12648264B04
:104A60001B6923F4C00323F4FE437A6892681102A1
:104A70007A6812695208013A52050A4313430361E6
:104A800011E01D481C4B1B6923F0C06323F4FE4357
:104A90007A68926811027A6852695208013A52069D
:104AA0000A4313430361144A134B1B6843F08063AA
:104AB0001360FDF70DF9B86009E0FDF709F902464A
:104AC000BB68D31A022B02D90323FB7305E00A4B00
:104AD0001B6803F00063002BEFD0FB7B002B06D19B
:104AE0000549054B1A697B689B6913430B61FB7B86
:104AF00018461037BD4680BD0010024080B584B016
:104B000000AF786039600023FB73684BDB6803F00B
:104B10000303002B18D0654BDB6803F003027B68AE
:104B20001B689A420DD17B681B68002B09D05F4B34
:104B3000DB681B0903F007035A1C7B685B689A4219
:104B400044D00123FB7341E07B681B68022B0CD02F
:104B5000032B13D0012B20D1544B1B6803F002030D
:104B6000002B1DD10123FB731AE0504B1B6803F48B
:104B70008063002B16D10123FB7313E04B4B1B68A2
:104B800003F40033002B0FD1484B1B6803F4802340
:104B9000002B09D10123FB7306E00123FB7304E022
:104BA00000BF02E000BF00E000BFFB7B002B0DD187
:104BB0003E483E4BDB6823F073027B6819687B68D4
:104BC0005B68013B1B010B431343C360FB7B002B62
:104BD00067D1364A354B1B6823F080531360FDF7CD
:104BE00077F8B86009E0FDF773F80246BB68D31A9E
:104BF000022B02D90323FB7305E02C4B1B6803F047
:104C00000053002BEFD1FB7B002B4AD13B68002BDC
:104C100011D12648254B5B6923F41F3323F44073DD
:104C20007A68926811027A68D268120952040A43BB
:104C30001343436111E01D481C4B5B6923F0C063C3
:104C400023F4FE437A68926811027A681269520866
:104C5000013A52060A4313434361144A134B1B683B
:104C600043F080531360FDF733F8B86009E0FDF7B7
:104C70002FF80246BB68D31A022B02D90323FB7319
:104C800005E00A4B1B6803F00053002BEFD0FB7BC1
:104C9000002B06D10549054B5A697B685B691343B4
:104CA0004B61FB7B18461037BD4680BD00100240AB
:104CB00080B584B000AF78607B68002B01D1012300
:104CC00093E07B685B6A002B08D17B685B68B3F577
:104CD000827F09D07B680022DA6105E07B680022D0
:104CE0001A617B6800225A617B6800229A627B68A5
:104CF00093F85D30DBB2002B06D17B68002283F88D
:104D00005C207868FCF776FB7B68022283F85D20E4
:104D10007B681B687A681268126822F040021A6089
:104D20007B68DB68B3F5E06F02D90023FB6002E02B
:104D30004FF48053FB607B68DB68B3F5706F07D07E
:104D40007B68DB68B3F5E06F02D07B6800229A6273
:104D50007B681B687A68526802F482717A6892688C
:104D600002F4044211437A68126902F0020211430C
:104D70007A68526902F0010211437A68926902F47A
:104D8000007211437A68D26902F0380211437A68DE
:104D9000126A02F0800211437A68926A02F40052A9
:104DA0000A431A607B681B687A689269120C02F0E9
:104DB00004017A68526A02F0100211437A68526B59
:104DC00002F0080211437A68D26802F4706211435B
:104DD000FA6802F480520A435A607B6800221A661D
:104DE0007B68012283F85D20002318461037BD46FA
:104DF00080BD80B582B000AF78607B68002B01D1A8
:104E0000012340E07B689B6F002B06D17B6800226A
:104E100083F874207868FCF731FB7B6824229A675A
:104E20007B681B687A681268126822F001021A60B7
:104E3000786800F0C1F80346012B01D1012322E07C
:104E40007B685B6A002B02D0786800F039FB7B68D6
:104E50001B687A681268526822F490425A607B6834
:104E60001B687A681268926822F02A029A607B684E
:104E70001B687A681268126842F001021A6078684A
:104E800000F0C0FB034618460837BD4680BD80B51C
:104E90008AB002AFF860B9603B601346FB80FB68E4
:104EA0009B6F202B40F08280BB68002B02D0FB88D8
:104EB000002B01D101237AE0FB6893F87430012BB9
:104EC00001D1022373E0FB68012283F87420FB68A0
:104ED0000022C3F88020FB6821229A67FCF7F8FEC5
:104EE0007861FB68FA88A3F85020FB68FA88A3F879
:104EF0005220FB689B68B3F5805F08D1FB681B6993
:104F0000002B04D10023FB61BB68BB6103E0BB68DD
:104F1000FB610023BB61FB68002283F874202DE055
:104F20003B6800937B6900228021F86800F0B3FBA6
:104F30000346002B01D0032339E0FB69002B0BD182
:104F4000FB681B68BA691288C2F3080292B21A851C
:104F5000BB690233BB6108E0FB681B68FA69127821
:104F600092B21A85FB690133FB61FB68B3F85230DA
:104F70009BB2013B9AB2FB68A3F85220FB68B3F8DE
:104F800052309BB2002BCBD13B6800937B6900224F
:104F90004021F86800F07FFB0346002B01D003237B
:104FA00005E0FB6820229A67002300E002231846F0
:104FB0002037BD4680BD0000B0B588B000AF786036
:104FC0000023BB767B689A687B681B691A437B6801
:104FD0005B691A437B68DB691343FB617B681A6872
:104FE0007B681B681968AC4B0B40F9690B43136075
:104FF0007B681B687A681268526822F440517A68AC
:10500000D2680A435A607B689B69FB617B681B68B6
:10501000A24A934204D07B681B6AFA691343FB617E
:105020007B681B687A681268926822F43061FA69BA
:105030000A439A607B681B68994A934222D1994B34
:10504000D3F8883003F00303032B17D801A252F8DA
:1050500023F000BF65500008715000086B50000835
:10506000775000080123FB76E8E00223FB76E5E0B9
:105070000423FB76E2E00823FB76DFE01023FB76D7
:1050800000BFDBE07B681B68874A934234D1854BC5
:10509000D3F8883003F00C030C2B29D801A252F866
:1050A00023F000BFD9500008F1500008F15000086B
:1050B000F1500008E5500008F1500008F1500008D8
:1050C000F1500008DF500008F1500008F1500008CE
:1050D000F1500008EB5000080023FB76AEE00223FD
:1050E000FB76ABE00423FB76A8E00823FB76A5E083
:1050F0001023FB7600BFA1E07B681B686B4A9342DC
:1051000020D1684BD3F8883003F03003102B0FD038
:10511000102B02D8002B05D010E0202B05D0302B0F
:1051200009D00BE00023FB7688E00223FB7685E0C4
:105130000423FB7682E00823FB767FE01023FB76D6
:1051400000BF7BE07B681B68594A934220D1554BD6
:10515000D3F8883003F0C003402B0FD0402B02D887
:10516000002B05D010E0802B05D0C02B09D00BE020
:105170000023FB7662E00223FB765FE00423FB76EC
:105180005CE00823FB7659E01023FB7600BF55E076
:105190007B681B68474A934224D1424BD3F888303E
:1051A00003F44073B3F5807F12D0B3F5807F02D84B
:1051B000002B07D012E0B3F5007F06D0B3F5407F97
:1051C00009D00BE00023FB7638E00223FB7635E0C4
:1051D0000423FB7632E00823FB762FE01023FB76D6
:1051E00000BF2BE07B681B682C4A934224D12D4BD7
:1051F000D3F8883003F44063B3F5806F12D0B3F571
:10520000806F02D8002B07D012E0B3F5006F06D0F4
:10521000B3F5406F09D00BE00023FB760EE00223CC
:10522000FB760BE00423FB7608E00823FB7605E021
:105230001023FB7600BF01E01023FB767B681B6820
:10524000164A934240F08080FB7E082B36D801A29C
:1052500052F823F079520008BD520008815200082C
:10526000BD52000887520008BD520008BD52000818
:10527000BD5200088F520008FEF7CEFF786122E091
:105280000D4B7B611FE0FEF731FF78611BE04FF4AF
:1052900000437B6117E000BFF369FFEF008000402F
:1052A0000038014000100240004400400048004027
:1052B000004C0040005000400024F40000237B61BB
:1052C0000123BB7600BF7B69002B00F0EB807B687D
:1052D0005A6813465B001A447B699A4205D87B687A
:1052E0005B681A037B699A4202D20123BB76D9E03C
:1052F0007B691A464FF000031D0245EA126514024D
:105300007B685B685B081A464FF00003A01845EB0A
:1053100003017B685B684FF000041A462346FBF7E5
:1053200087F903460C463B613B69B3F5407F08D3E0
:105330003B69B3F5801F04D27B681B683A69DA6069
:10534000B0E00123BB76ADE07B68DB69B3F5004FCD
:105350005CD1FB7E082B28D801A252F823F000BFB5
:10536000855300088D53000895530008AB5300087F
:105370009B530008AB530008AB530008AB53000825
:10538000A3530008FEF748FF786113E0FEF75AFFC9
:1053900078610FE0494B7B610CE0FEF7A7FE786176
:1053A00008E04FF400437B6104E000237B610123AC
:1053B000BB7600BF7B69002B74D07B695A007B6889
:1053C0005B685B081A447B685B68B2FBF3F39BB2D3
:1053D0003B613B690F2B16D93B69B3F5803F12D275
:1053E0003B699BB223F00F03FB813B695B089BB2D7
:1053F00003F007039AB2FB891343FB817B681B68A8
:10540000FA89DA604EE00123BB764BE0FB7E082B85
:1054100027D801A252F823F03D5400084554000853
:105420004D540008635400085354000863540008A6
:1054300063540008635400085B540008FEF7ECFE58
:10544000786113E0FEF7FEFE78610FE01B4B7B6195
:105450000CE0FEF74BFE786108E04FF400437B61FF
:1054600004E000237B610123BB7600BF7B69002B36
:1054700018D07B685B685A087B691A447B685B6854
:10548000B2FBF3F39BB23B613B690F2B08D93B693D
:10549000B3F5803F04D27B681B683A69DA6001E0AB
:1054A0000123BB767B6800225A667B6800229A66DD
:1054B000BB7E18462037BD46B0BD00BF0024F400B7
:1054C00080B483B000AF78607B685B6A03F001034F
:1054D000002B0AD07B681B687A681268526822F435
:1054E00000317A68926A0A435A607B685B6A03F00B
:1054F0000203002B0AD07B681B687A681268526826
:1055000022F480317A68D26A0A435A607B685B6A07
:1055100003F00403002B0AD07B681B687A681268CA
:10552000526822F480217A68126B0A435A607B68C1
:105530005B6A03F00803002B0AD07B681B687A685B
:105540001268526822F400417A68526B0A435A602A
:105550007B685B6A03F01003002B0AD07B681B6832
:105560007A681268926822F480517A68926B0A43D2
:105570009A607B685B6A03F02003002B0AD07B688B
:105580001B687A681268926822F400517A68D26BBC
:105590000A439A607B685B6A03F04003002B1AD0D1
:1055A0007B681B687A681268526822F480117A68F6
:1055B000126C0A435A607B681B6CB3F5801F0AD1DA
:1055C0007B681B687A681268526822F4C0017A68A6
:1055D000526C0A435A607B685B6A03F08003002BBD
:1055E0000AD07B681B687A681268526822F400212E
:1055F0007A68926C0A435A6000BF0C37BD465DF86A
:10560000047B704780B586B002AF78607B6800226B
:10561000C3F88020FCF75CFBF8607B681B681B68A4
:1056200003F00803082B0ED16FF07E430093FB6854
:1056300000224FF40011786800F02DF80346002B8B
:1056400001D0032323E07B681B681B6803F004037D
:10565000042B0ED16FF07E430093FB6800224FF4C1
:105660008001786800F017F80346002B01D003236F
:105670000DE07B6820229A677B682022DA677B68CE
:1056800000221A667B68002283F8742000231846E3
:105690001037BD4680BD80B584B000AFF860B960FA
:1056A0003B601346FB715EE0BB69B3F1FF3F5AD02C
:1056B000FCF70EFB02463B68D21ABB699A4202D83D
:1056C000BB69002B1BD1FB681B68FA681268126863
:1056D00022F4D0721A60FB681B68FA68126892683C
:1056E00022F001029A60FB6820229A67FB68202260
:1056F000DA67FB68002283F87420032343E0FB6829
:105700001B681B6803F00403002B2CD0FB681B688C
:10571000DB6903F40063B3F5006F24D1FB681B68F9
:105720004FF400621A62FB681B68FA68126812681C
:1057300022F4D0721A60FB681B68FA6812689268DB
:1057400022F001029A60FB6820229A67FB682022FF
:10575000DA67FB682022C3F88020FB68002283F808
:10576000742003230FE0FB681B68DA69BB681A40EA
:10577000BB689A420CBF01230023DBB21A46FB79B7
:105780009A4291D0002318461037BD4680BD84B0A0
:1057900080B584B000AF786007F11C0080E80E008F
:1057A0007B68DB6843F040027B68DA60786800F071
:1057B00027FA0346FB733B6C002B06D17B689B6B7F
:1057C00043F480327B689A6305E07B689B6B23F42B
:1057D00080327B689A63FB7B18461037BD46BDE874
:1057E000804004B0704780B483B000AF78607B68BD
:1057F0009B6823F001027B689A60002318460C37EF
:10580000BD465DF8047B704780B582B000AF78601C
:105810000B46FB707B68DB6823F0C0427B68DA6074
:10582000FB78012B06D17B68DB6843F000527B6874
:10583000DA600BE0FB78002B06D17B68DB6843F075
:1058400080427B68DA6001E0012303E03220FCF74C
:105850004BFA002318460837BD4680BD84B080B59A
:1058600086B000AF786007F1240080E80E000023C6
:10587000FB757B68FB6000233B6109E07A683B694C
:1058800040339B00134400225A603B6901333B6163
:105890003B690E2BF2D9FB6C002B1DD1FB6803F585
:1058A00000631A46FB6803F500635B6843F002037C
:1058B00053607B689B6B23F400127B689A637B6860
:1058C0001B6843F040027B681A607B681B6843F0EA
:1058D00080027B681A6005E07B689B6B43F40012D2
:1058E0007B689A63FB6803F560631A4600231360C4
:1058F000FB6803F500631A46FB6803F500631B6849
:1059000013600321786800F03DF91021786800F0F9
:10591000F1F80346002B01D00123FB75786800F0F5
:105920000FF90346002B01D00123FB75FB6803F53B
:1059300000631A4600231361FB6803F500631A46EF
:1059400000235361FB6803F500631A460023D3610B
:1059500000233B6143E03B695A01FB68134403F5B4
:1059600010631B6803F00043B3F1004F18D13B698B
:10597000002B0AD13B695A01FB68134403F51063FD
:105980001A464FF00063136013E03B695A01FB684D
:10599000134403F510631A464FF09043136008E078
:1059A0003B695A01FB68134403F510631A46002350
:1059B00013603B695A01FB68134403F510631A46F0
:1059C000002313613B695A01FB68134403F510631C
:1059D0001A464FF67F3393603B6901333B617A6A25
:1059E0003B699A42B7D800233B6143E03B695A01C7
:1059F000FB68134403F530631B6803F00043B3F105
:105A0000004F18D13B69002B0AD13B695A01FB6852
:105A1000134403F530631A464FF00063136013E03C
:105A20003B695A01FB68134403F530631A464FF093
:105A30009043136008E03B695A01FB68134403F587
:105A400030631A46002313603B695A01FB68134414
:105A500003F530631A46002313613B695A01FB6862
:105A6000134403F530631A464FF67F3393603B6966
:105A700001333B617A6A3B699A42B7D8FB6803F508
:105A800000631A46FB6803F500631B6923F4807307
:105A900013617B6800229A617B686FF080425A61D3
:105AA0007B689B6943F010027B689A617B689A6906
:105AB0000F4B13437A689361FB6B002B05D07B6817
:105AC0009B6943F008027B689A61FB6C012B07D14C
:105AD0007B689B6943F0804343F004037A689361D9
