:020000040800F2
:10000000008001208D6100086D0A0008730A000855
:10001000790A00087F0A0008850A0008000000002D
:10002000000000000000000000000000D13A0008BD
:100030008B0A000800000000113D0008793D00080F
:10004000DD610008DD610008DD610008DD61000898
:10005000DD610008DD610008DD610008DD61000888
:10006000DD610008DD610008DD610008DD61000878
:10007000DD610008DD610008DD610008DD61000868
:10008000DD610008DD610008DD610008DD61000858
:10009000DD610008DD610008DD610008DD61000848
:1000A000DD610008990A0008DD610008DD610008D3
:1000B000DD610008DD610008DD610008DD61000828
:1000C000DD610008DD610008DD610008DD61000818
:1000D000DD610008DD610008DD610008DD61000808
:1000E000DD610008DD610008DD610008DD610008F8
:1000F000DD610008DD610008DD610008DD610008E8
:10010000DD610008DD610008DD610008DD610008D7
:10011000DD610008DD610008DD610008DD610008C7
:10012000DD610008DD610008DD610008DD610008B7
:10013000DD610008DD610008DD610008DD610008A7
:10014000DD610008DD610008DD610008DD61000897
:10015000DD610008DD610008DD610008DD61000887
:10016000DD610008DD610008DD610008DD61000877
:10017000DD610008DD610008DD61000800000000AD
:08018000DD610008DD610008EB
:1001900010B5054C237833B9044B13B10448AFF3C1
:1001A00000800123237010BD10000020000000001B
:1001B0005062000808B5034B1BB103490348AFF375
:1001C000008008BD000000001400002050620008FC
:1001D00053B94AB9002908BF00281CBF4FF0FF31AE
:1001E0004FF0FF3000F07AB9ADF1080C6DE904CEA4
:1001F00000F006F8DDF804E0DDE9022304B0704702
:100200002DE9F0478C460D460446089E002B51D13F
:100210008A4217466DD9B2FA82FEBEF1000F0BD0AA
:10022000CEF1200C01FA0EF520FA0CFC02FA0EF7C2
:100230004CEA050C00FA0EF44FEA174A250CBCFBF9
:10024000FAF81FFA87F90AFB18CC45EA0C4508FBB7
:1002500009F3AB420AD9ED1908F1FF3280F023818E
:10026000AB4240F22081A8F102083D44ED1AA4B24D
:10027000B5FBFAF00AFB105544EA054400FB09F906
:10028000A14509D9E41900F1FF3380F00A81A145A5
:1002900040F2078102383C44A4EB090440EA0840DC
:1002A0000021002E61D024FA0EF400233460736024
:1002B000BDE8F0878B4207D9002E54D0002186E894
:1002C00021000846BDE8F087B3FA83F1002940F029
:1002D0008E80AB4202D3824200F2FA80841A65EB30
:1002E00003050120AC46002E3FD086E81010BDE883
:1002F000F08712B90127B7FBF2F7B7FA87FEBEF114
:10030000000F34D1EB1B3A0C1FFA87FC0121B3FB21
:10031000F2F8250C02FB183345EA03450CFB08F301
:10032000AB4207D9ED1908F1FF3002D2AB4200F21F
:10033000D1808046ED1AA3B2B5FBF2F002FB105556
:1003400043EA05440CFB00FCA44507D9E41900F17D
:10035000FF3302D2A44500F2B8801846A4EB0C0487
:1003600040EA08409DE731463046BDE8F087CEF1CF
:10037000200405FA0EF307FA0EF720FA04F83A0CF7
:1003800025FA04F448EA0308B4FBF2F14FEA1845F1
:1003900002FB11441FFA87FC45EA044501FB0CF3FC
:1003A000AB4200FA0EF409D9ED1901F1FF3080F0EB
:1003B0008A80AB4240F2878002393D44EB1A1FFA33
:1003C00088F5B3FBF2F002FB103345EA034500FB6E
:1003D0000CF3AB4207D9ED1900F1FF386FD2AB42F5
:1003E0006DD902383D44EB1A40EA01418FE7C1F173
:1003F000200722FA07F88B4005FA01F448EA0303C4
:1004000020FA07FE4FEA134CFD404EEA040EB5FBFE
:10041000FCF94FEA1E440CFB19551FFA83F844EA15
:10042000054509FB08F4AC4202FA01F200FA01FAB0
:1004300008D9ED1809F1FF3043D2AC4241D9A9F1F6
:1004400002091D442D1B1FFA8EFEB5FBFCF00CFBB0
:1004500010554EEA054400FB08F8A04507D9E418FA
:1004600000F1FF3529D2A04527D902381C4440EAC3
:100470000940A4EB0804A0FB02894C45C6464D4642
:1004800015D312D056B1BAEB0E0364EB050404FA8F
:1004900007F7CB401F43CC40376074600021BDE8B4
:1004A000F0871846F8E69046E0E6C245EAD2B8EB97
:1004B000020E69EB03050138E4E72846D7E740461A
:1004C00091E78146BEE7014678E702383C4445E7BC
:1004D000084608E7A8F102083D442BE7704700BF33
:1004E00080B485B000AFF860B9607A60FB68074AF5
:1004F0001A60BB68064A1A607B6880221A6000BFD7
:100500001437BD465DF8047B704700BF2C00002007
:100510008000002080B485B000AFF860B9607A60D8
:10052000FB68074A1A60BB68064A1A607B684FF48A
:1005300080721A6000BF1437BD465DF8047B7047B7
:1005400080020020D4020020B0B592B000AF00F0CD
:10055000DFFA00F057F800F0FDF800F0CBF8214B7F
:100560003B6400237B6407F140030022012118460D
:1005700003F01EF902461C4B1A601C4BBB630023A0
:10058000FB6307F1380300220021184603F010F93D
:100590000246174B1A60174B07F11C041D460FCD7E
:1005A0000FC495E8070084E8070007F11C03002149
:1005B000184603F09DF802460F4B1A600F4B3C465D
:1005C0001D460FCD0FC495E8070084E807003B46A1
:1005D0000021184603F08CF80246094B1A6003F01C
:1005E00080F8FEE76D0800086C15002091080008EF
:1005F000E014002074620008E414002098620008EF
:10060000DC14002080B5B8B000AF07F19C03442291
:100610000021184605F013FE07F1880300221A6036
:100620005A609A60DA601A613B46882200211846B7
:1006300005F005FE1023C7F89C300123C7F8B4303D
:100640000023C7F8B8306023C7F8BC300223C7F8CE
:10065000C4300123C7F8C8300123C7F8CC302823A1
:10066000C7F8D0300723C7F8D4300223C7F8D830F2
:100670000223C7F8DC3007F19C03184600F09CFD0C
:100680000346002B01D000F02DF90F23C7F8883066
:100690000323C7F88C300023C7F890300023C7F835
:1006A00094300023C7F8983007F1880304211846D6
:1006B00001F068F90346002B01D000F013F9022382
:1006C0003B600023FB633B46184601F091FB034669
:1006D000002B01D000F006F94FF4007000F016FD79
:1006E0000346002B01D000F0FDF800BFE037BD4607
:1006F00080BD000080B500AF144B154A1A60134B43
:100700004FF4E1325A60114B00229A600F4B0022E5
:10071000DA600E4B00221A610C4B0C225A610B4B13
:1007200000229A61094B0022DA61084B00221A620A
:10073000064B00225A62054802F0DCFA0346002B01
:1007400001D000F0CFF800BF80BD00BFE81400204A
:100750000044004080B588B000AF07F10C030022D0
:100760001A605A609A60DA601A611F4A1E4BDB6C8D
:1007700043F00403D3641C4BDB6C03F00403BB6045
:10078000BB68194A184BDB6C43F00103D364164B6A
:10079000DB6C03F001037B607B68002220214FF0BB
:1007A000904000F08DFC4FF40053FB6000233B6150
:1007B00000237B6107F10C0319460C4800F0C0FAD6
:1007C0002023FB6001233B6100237B610023BB618D
:1007D00007F10C0319464FF0904000F0B1FA00BF4A
:1007E0002037BD4680BD00BF001002400008004811
:1007F00080B582B000AF7860084B1B684FF47A7107
:10080000184603F009F8642317220549054802F049
:10081000BFFA4FF4FA6002F0B7FFF4E76C1500205E
:10082000B4620008E814002080B582B000AF7860A0
:100830004FF400510B4800F02BFC0346002B0CD169
:10084000012220214FF0904000F03AFC064B1B683B
:100850004FF47A61184602F0DFFF142002F094FF93
:10086000E6E700BF00080048E014002080B582B031
:1008700000AF786064231C220349044802F088FA20
:1008800000BF0837BD4680BDCC620008E8140020D8
:1008900080B582B000AF786064231C220649074807
:1008A00002F076FA002220214FF0904000F008FC80
:1008B00000BF0837BD4680BDEC620008E814002088
:1008C00080B582B000AF78607B681B68044A9342B1
:1008D00001D100F035F900BF0837BD4680BD00BF2B
:1008E000002C014080B400AF72B6FEE780B582B044
:1008F00000AF114A104B1B6E43F0010313660E4B01
:100900001B6E03F001037B607B680B4A0A4B9B6DF7
:1009100043F080539365084B9B6D03F080533B601D
:100920003B6800220F216FF0010000F0DFF900BFEB
:100930000837BD4680BD00BF0010024080B58AB0B8
:1009400000AF786007F1140300221A605A609A60C1
:10095000DA601A617B681B68174A934228D1174AEC
:10096000164B9B6D43F400339365144B9B6D03F45E
:1009700000333B613B69114A104BDB6C43F00103D0
:10098000D3640E4BDB6C03F00103FB60FB680C23AC
:100990007B610223BB610023FB6103233B620723CE
:1009A0007B6207F1140319464FF0904000F0C8F93C
:1009B00000BF2837BD4680BD004400400010024003
:1009C00080B58CB000AF78600023FB620023BB626F
:1009D00000227968192000F089F9192000F0A2F9A5
:1009E0001E4A1E4B1B6E43F4006313661B4B1B6EAB
:1009F00003F40063FB60FB6807F1100207F11403C6
:100A00001146184601F062F901F04AF9F862FB6AF2
:100A1000134AA2FB03239B0C013BBB62114B124AFE
:100A20001A60104B40F2E732DA600E4ABB6A53603C
:100A30000C4B00221A610B4B00229A60094801F00E
:100A400087FE0346002B04D1064801F0E3FE03466F
:100A500000E0012318463037BD4680BD001002403B
:100A600083DE1B4370150020002C014080B400AFD2
:100A7000FEE780B400AFFEE780B400AFFEE780B4CD
:100A800000AFFEE780B400AFFEE780B400AF00BF68
:100A9000BD465DF8047B704780B500AF024801F0A9
:100AA00029FF00BF80BD00BF7015002080B400AFDB
:100AB000154A154BD3F8883043F47003C2F88830D8
:100AC000124A124B1B6843F0010313600F4B0022C4
:100AD0009A600E4A0D4B1B6823F0A85323F4102391
:100AE00013600A4B4FF48052DA60084A074B1B68C8
:100AF00023F480231360054B00229A6100BFBD469A
:100B00005DF8047B704700BF00ED00E0001002407C
:100B100080B582B000AF0023FB71032000F0DBF84A
:100B20000020FFF74DFF0346002B02D00123FB718D
:100B300001E0FFF7DBFEFB7918460837BD4680BDB4
:100B400080B400AF064B1B781A46064B1B68134453
:100B5000044A136000BFBD465DF8047B704700BFC8
:100B600008000020BC15002080B400AF034B1B68B8
:100B70001846BD465DF8047B704700BFBC150020D9
:100B800080B485B000AF78607B6803F00703FB603A
:100B90000C4BDB68BB60BA684FF6FF031340BB60C9
:100BA000FB681A02BB68134343F0BF6343F400338E
:100BB000BB60044ABB68D36000BF1437BD465DF814
:100BC000047B704700ED00E080B400AF044BDB68AD
:100BD0001B0A03F007031846BD465DF8047B704707
:100BE00000ED00E080B483B000AF0346FB7197F9DD
:100BF0000730002B0BDB094997F907305B09FA79BD
:100C000002F01F02012000FA02F241F8232000BF87
:100C10000C37BD465DF8047B704700BF00E100E083
:100C200080B483B000AF03463960FB7197F9073099
:100C3000002B0ADB0D4997F907303A68D2B212014E
:100C4000D2B20B4483F800230AE00949FB7903F090
:100C50000F03043B3A68D2B21201D2B20B441A76A7
:100C600000BF0C37BD465DF8047B704700E100E033
:100C700000ED00E080B489B000AFF860B9607A6040
:100C8000FB6803F00703FB61FB69C3F10703042B57
:100C900028BF0423BB61FB690433062B02D9FB691F
:100CA000033B00E000237B610122BB6902FA03F3EE
:100CB0005A1EBB681A407B699A4001217B6901FA80
:100CC00003F3591E7B680B40134318462437BD4677
:100CD0005DF8047B704780B582B000AF78607868BB
:100CE000FFF74EFF00BF0837BD4680BD80B586B018
:100CF00000AF0346B9607A60FB7300237B61FFF7A6
:100D000063FF78617A68B9687869FFF7B3FF0246D4
:100D100097F90F3011461846FFF782FF00BF1837CA
:100D2000BD4680BD80B582B000AF0346FB7197F928
:100D300007301846FFF756FF00BF0837BD4680BD95
:100D400080B487B000AF7860396000237B617FE1B9
:100D50003B681A6801217B6901FA03F31340FB60C9
:100D6000FB68002B00F071813B685B68012B0BD0A6
:100D70003B685B68022B07D03B685B68112B03D094
:100D80003B685B68122B30D17B689B683B617B6959
:100D90005B00032202FA03F3DB433A6913403B6131
:100DA0003B68DA687B695B0002FA03F33A69134334
:100DB0003B617B683A699A607B685B683B610122B2
:100DC0007B6902FA03F3DB433A6913403B613B68FA
:100DD0005B681B0903F001027B6902FA03F33A69BD
:100DE00013433B617B683A695A603B685B6803F078
:100DF0000303032B18D17B68DB6A3B6101227B690B
:100E000002FA03F3DB433A6913403B613B685B68DA
:100E1000DB0803F001027B6902FA03F33A6913432A
:100E20003B617B683A69DA627B68DB683B617B69BE
:100E30005B00032202FA03F3DB433A6913403B6190
:100E40003B689A687B695B0002FA03F33A691343D3
:100E50003B617B683A69DA603B685B68022B03D0D0
:100E60003B685B68122B23D17B69DA087B68083208
:100E700053F822303B617B6903F007039B000F228C
:100E800002FA03F3DB433A6913403B613B681A699A
:100E90007B6903F007039B0002FA03F33A691343EB
:100EA0003B617B69DA087B680832396943F82210B4
:100EB0007B681B683B617B695B00032202FA03F3DA
:100EC000DB433A6913403B613B685B6803F0030214
:100ED0007B695B0002FA03F33A6913433B617B6869
:100EE0003A691A603B685B6803F08053002B00F09E
:100EF000AC805E4A5D4B1B6E43F0010313665B4B97
:100F00001B6E03F00103BB60BB68594A7B699B08F9
:100F1000023352F823303B617B6903F003039B00EB
:100F20000F2202FA03F3DB433A6913403B617B680B
:100F3000B3F1904F25D07B684E4A93421FD07B6817
:100F40004D4A934219D07B684C4A934213D07B6838
:100F50004B4A93420DD07B684A4A934207D07B6844
:100F6000494A934201D106230CE007230AE00523F6
:100F700008E0042306E0032304E0022302E0012347
:100F800000E000237A6902F00302920093403A697C
:100F900013433B6136497B699B0802333A6941F848
:100FA00023203A4B1B683B61FB68DB433A691340E3
:100FB0003B613B685B6803F48033002B03D03A69E4
:100FC000FB6813433B61314A3B6913602F4B5B68FD
:100FD0003B61FB68DB433A6913403B613B685B68FC
:100FE00003F40033002B03D03A69FB6813433B61E1
:100FF000264A3B695360254B9B683B61FB68DB439A
:101000003A6913403B613B685B6803F48013002B33
:1010100003D03A69FB6813433B611C4A3B69936008
:101020001A4BDB683B61FB68DB433A6913403B6169
:101030003B685B6803F40013002B03D03A69FB683C
:1010400013433B61114A3B69D3607B6901337B6188
:101050003B681A687B6922FA03F3002B7FF478AEB1
:1010600000BF1C37BD465DF8047B7047001002408E
:10107000000001400004004800080048000C00483F
:101080000010004800140048001800480004014007
:1010900080B485B000AF78600B467B807B681A69AE
:1010A0007B881340002B02D00123FB7301E0002357
:1010B000FB73FB7B18461437BD465DF8047B704715
:1010C00080B483B000AF78600B467B8013467B70A2
:1010D0007B78002B03D07A887B689A6102E07A885B
:1010E0007B689A6200BF0C37BD465DF8047B704791
:1010F00080B400AF044B1B6803F4C0631846BD46C0
:101100005DF8047B704700BF0070004080B485B07C
:1011100000AF78607B68B3F5007F30D1234B1B684C
:1011200003F4C063B3F5007F38D0204A1F4B1B681F
:1011300023F4C06343F4007313601D4B1B68322219
:1011400002FB03F31B4AA2FB03239B0C0133FB604E
:1011500002E0FB68013BFB60144B5B6903F48063B6
:10116000B3F5806F02D1FB68002BF2D10F4B5B69A6
:1011700003F48063B3F5806F10D103230FE00B4BB2
:101180001B6803F4C063B3F5806F07D0074A074BB1
:101190001B6823F4C06343F4806313600023184684
:1011A0001437BD465DF8047B704700BF00700040F7
:1011B0000000002083DE1B4380B588B000AF78605C
:1011C0007B68002B01D10123D4E3A14B9B6803F082
:1011D0000C03BB619E4BDB6803F003037B617B6800
:1011E0001B6803F01003002B00F0E480BB69002BA8
:1011F00007D0BB690C2B40F08B807B69012B40F042
:101200008780934B1B6803F00203002B05D07B689B
:101210009B69002B01D10123ACE37B681A6A8C4BDC
:101220001B6803F00803002B04D0894B1B6803F0F4
:10123000F00305E0864BD3F894301B0903F0F0036C
:101240009A4223D97B681B6A184600F071FD034659
:10125000002B01D001238DE37D4A7D4B1B6843F0B9
:10126000080313607A497A4B1B6823F0F0027B680D
:101270001B6A13430B607649754B5B6823F47F420E
:101280007B68DB691B0213434B6025E0704A704B9F
:101290001B6843F0080313606D496D4B1B6823F016
:1012A000F0027B681B6A13430B606949684B5B68FB
:1012B00023F47F427B68DB691B0213434B60BB69ED
:1012C000002B09D17B681B6A184600F031FD0346EC
:1012D000002B01D001234DE300F036FC01465C4BAE
:1012E0009B681B0903F00F035A4AD35C03F01F03EA
:1012F00021FA03F3584A1360584B1B681846FFF74E
:101300005FFB0346FB73FB7B002B52D0FB7B31E37F
:101310007B689B69002B32D04D4A4D4B1B6843F0D4
:1013200001031360FFF720FC386108E0FFF71CFCA5
:1013300002463B69D31A022B01D903231AE3444B1B
:101340001B6803F00203002BF0D0414A404B1B689E
:1013500043F0080313603E493D4B1B6823F0F00245
:101360007B681B6A13430B603949394B5B6823F474
:101370007F427B68DB691B0213434B601AE0344AEF
:10138000334B1B6823F001031360FFF7EDFB38615B
:1013900008E0FFF7E9FB02463B69D31A022B01D9AB
:1013A0000323E7E22A4B1B6803F00203002BF0D172
:1013B00000E000BF7B681B6803F00103002B74D0C2
:1013C000BB69082B05D0BB690C2B0ED17B69032BA5
:1013D0000BD11F4B1B6803F40033002B64D07B68D8
:1013E0005B68002B60D10123C4E27B685B68B3F5C6
:1013F000803F06D1164A164B1B6843F480331360B6
:101400001DE07B685B68B3F5A02F0CD1104A104B30
:101410001B6843F4802313600D4A0D4B1B6843F493
:10142000803313600BE00A4A094B1B6823F48033B6
:101430001360074A064B1B6823F4802313607B6804
:101440005B68002B1CD0FFF78FFB386111E000BFF9
:101450000010024028630008000000200400002063
:10146000FFF782FB02463B69D31A642B01D90323A1
:1014700080E2AF4B1B6803F40033002BF0D014E084
:10148000FFF772FB386108E0FFF76EFB02463B692D
:10149000D31A642B01D903236CE2A54B1B6803F418
:1014A0000033002BF0D100E000BF7B681B6803F025
:1014B0000203002B60D0BB69042B05D0BB690C2B49
:1014C00019D17B69022B16D1994B1B6803F48063F9
:1014D000002B05D07B68DB68002B01D1012349E29A
:1014E0009349934B5B6823F0F8527B681B691B069A
:1014F00013434B6040E07B68DB68002B23D08C4AB1
:101500008B4B1B6843F480731360FFF72DFB38612E
:1015100008E0FFF729FB02463B69D31A022B01D9E9
:10152000032327E2824B1B6803F48063002BF0D077
:101530007F497F4B5B6823F0F8527B681B691B0671
:1015400013434B6018E07A4A794B1B6823F480738D
:101550001360FFF709FB386108E0FFF705FB02465F
:101560003B69D31A022B01D9032303E2704B1B689A
:1015700003F48063002BF0D17B681B6803F0080341
:10158000002B3CD07B685B69002B1CD0684A684B01
:10159000D3F8943043F00103C2F89430FFF7E4FA33
:1015A000386108E0FFF7E0FA02463B69D31A022BE4
:1015B00001D90323DEE15E4BD3F8943003F002033C
:1015C000002BEFD01BE05A4A594BD3F8943023F04C
:1015D0000103C2F89430FFF7C7FA386108E0FFF75B
:1015E000C3FA02463B69D31A022B01D90323C1E196
:1015F0004F4BD3F8943003F00203002BEFD17B68FC
:101600001B6803F00403002B00F0A6800023FB7787
:10161000474B9B6D03F08053002B0DD1444A444B44
:101620009B6D43F080539365414B9B6D03F080535A
:10163000BB60BB680123FB773E4B1B6803F48073E0
:10164000002B18D13B4A3B4B1B6843F4807313605B
:10165000FFF78AFA386108E0FFF786FA02463B692D
:10166000D31A022B01D9032384E1324B1B6803F404
:101670008073002BF0D07B689B68012B08D12C4A2B
:101680002B4BD3F8903043F00103C2F8903024E0A4
:101690007B689B68052B10D1254A254BD3F89030E9
:1016A00043F00403C2F89030214A214BD3F8903024
:1016B00043F00103C2F890300FE01D4A1C4BD3F8F1
:1016C000903023F00103C2F89030194A184BD3F838
:1016D000903023F00403C2F890307B689B68002BA5
:1016E00016D0FFF741FA38610AE0FFF73DFA0246EB
:1016F0003B69D31A41F28832934201D9032339E17D
:101700000B4BD3F8903003F00203002BEDD01AE01E
:10171000FFF72AFA38610FE0FFF726FA02463B6925
:10172000D31A41F28832934206D9032322E100BF43
:101730000010024000700040904BD3F8903003F04E
:101740000203002BE8D1FB7F012B05D18B4A8B4B89
:101750009B6D23F0805393657B689B6A002B00F0A0
:1017600008817B689B6A022B40F0D080834BDB684A
:101770007B617B6903F003027B68DB6A9A4230D1AC
:101780007B6903F070027B681B6B013B1B019A4273
:1017900027D17B6903F4FE427B685B6B1B029A4294
:1017A0001FD17B6903F400337A68926B072A14BF58
:1017B00001220022D2B2934213D17B6903F4C0020A
:1017C0007B68DB6B5B08013B5B059A4209D17B6957
:1017D00003F0C0627B681B6C5B08013B5B069A42AE
:1017E0006ED0BB690C2B69D0644B1B6803F080631F
:1017F000002B05D1614B1B6803F08053002B01D0F7
:101800000123B7E05D4A5D4B1B6823F080731360D2
:10181000FFF7AAF9386108E0FFF7A6F902463B692D
:10182000D31A022B01D90323A4E0544B1B6803F005
:101830000073002BF0D15148504BDA68504B1340E5
:101840007A68D16A7A68126B013A120111437A6898
:10185000526B120211437A68D26B5208013A520558
:1018600011437A68126C5208013A520611437A68A1
:10187000926B120952040A431343C3603F4A3F4B21
:101880001B6843F0807313603C4A3C4BDB6843F0B9
:101890008073D360FFF768F9386108E0FFF764F9F7
:1018A00002463B69D31A022B01D9032362E0334B72
:1018B0001B6803F00073002BF0D05AE0012359E0BD
:1018C0002E4B1B6803F00073002B52D12B4A2B4B7D
:1018D0001B6843F080731360284A284BDB6843F091
:1018E0008073D360FFF740F9386108E0FFF73CF9F7
:1018F00002463B69D31A022B01D903233AE01F4B5E
:101900001B6803F00073002BF0D032E0BB690C2B96
:101910002DD01A4A194B1B6823F080731360174BA4
:101920001B6803F02053002B05D1144A134BDB68CE
:1019300023F00303D360114A104BDB6823F0887354
:1019400023F48033D360FFF70FF9386108E0FFF725
:101950000BF902463B69D31A022B01D9032309E094
:10196000064B1B6803F00073002BF0D101E001234C
:1019700000E0002318462037BD4680BD001002401D
:101980008C809DF980B584B000AF786039607B6849
:10199000002B01D10123C8E0664B1B6803F007024E
:1019A0003B689A4210D26349624B1B6823F00702DE
:1019B0003B6813430B605F4B1B6803F007023B68F7
:1019C0009A4201D00123B0E07B681B6803F0010359
:1019D000002B4CD07B685B68032B07D1564B1B68F0
:1019E00003F00073002B21D101239EE07B685B682C
:1019F000022B07D1504B1B6803F40033002B15D189
:101A0000012392E07B685B68002B07D14A4B1B687F
:101A100003F00203002B09D1012386E0464B1B682B
:101A200003F48063002B01D101237EE04249424B45
:101A30009B6823F003027B685B6813438B60FFF7AE
:101A400093F8F8600AE0FFF78FF80246FB68D31AB4
:101A500041F28832934201D9032366E0364B9B68FA
:101A600003F00C027B685B689B009A42EBD17B68B9
:101A70001B6803F00203002B08D02F492E4B9B68F4
:101A800023F0F0027B689B6813438B60294B1B6833
:101A900003F007023B689A4210D92649254B1B6880
:101AA00023F007023B6813430B60224B1B6803F0D3
:101AB00007023B689A4201D0012336E07B681B682D
:101AC00003F00403002B08D01B491B4B9B6823F435
:101AD000E0627B68DB6813438B607B681B6803F004
:101AE0000803002B09D01449134B9B6823F4605260
:101AF0007B681B69DB0013438B6000F025F801460F
:101B00000D4B9B681B0903F00F030C4AD35C03F0D9
:101B10001F0321FA03F30A4A13600A4B1B68184695
:101B2000FEF74EFF0346FB72FB7A18461037BD46A0
:101B300080BD00BF00200240001002402863000862
:101B4000000000200400002080B489B000AF002312
:101B5000FB610023BB613D4B9B6803F00C033B61C1
:101B60003A4BDB6803F00303FB603B69002B05D0B5
:101B70003B690C2B21D1FB68012B1ED1334B1B6819
:101B800003F00803002B07D1304BD3F894301B0A25
:101B900003F00F03FB6105E02C4B1B681B0903F0EE
:101BA0000F03FB612A4AFB6952F82330FB613B6952
:101BB000002B0DD1FB69BB610AE03B69042B02D10C
:101BC000244BBB6104E03B69082B01D1224BBB6174
:101BD0003B690C2B33D11D4BDB6803F00303BB6067
:101BE000BB68022B02D0032B03D005E0194B7B61AD
:101BF00005E0194B7B6102E0FB697B6100BF134B81
:101C0000DB681B0903F0070301337B600F4BDB68C4
:101C10001B0A03F07F037A6902FB03F27B68B2FBC5
:101C2000F3F37B61094BDB685B0E03F003030133C5
:101C30005B003B607A693B68B2FBF3F3BB61BB6955
:101C400018462437BD465DF8047B704700100240FB
:101C5000406300080024F40000127A0080B400AF52
:101C6000034B1B681846BD465DF8047B704700BFF8
:101C70000000002080B500AFFFF7F0FF0146064BE3
:101C80009B681B0A03F00703044AD35C03F01F039D
:101C900021FA03F3184680BD0010024038630008A3
:101CA00080B500AFFFF7DAFF0146064B9B68DB0A01
:101CB00003F00703044AD35C03F01F0321FA03F384
:101CC000184680BD001002403863000880B483B01D
:101CD00000AF786039607B680F221A60124B9B68F6
:101CE00003F003027B685A600F4B9B6803F0F0021D
:101CF0007B689A600C4B9B6803F4E0627B68DA6057
:101D0000094B9B68DB0803F4E0627B681A61074BB0
:101D10001B6803F007023B681A6000BF0C37BD4622
:101D20005DF8047B704700BF0010024000200240B5
:101D300080B586B000AF786000233B612A4B9B6D75
:101D400003F08053002B03D0FFF7D2F9786114E041
:101D5000254A254B9B6D43F080539365224B9B6D29
:101D600003F08053FB60FB68FFF7C2F978611E4AFD
:101D70001D4B9B6D23F0805393657B69B3F5007F0A
:101D80000BD17B68802B19D97B68A02B02D9022349
:101D90003B6113E001233B6110E07B68802B02D99B
:101DA00003233B610AE07B68802B02D102233B6165
:101DB00004E07B68702B01D101233B610B490B4B85
:101DC0001B6823F007023B6913430B60074B1B683A
:101DD00003F007023B699A4201D0012300E000238F
:101DE00018461837BD4680BD001002400020024052
:101DF00080B586B000AF78600023FB740023BB740D
:101E00007B681B6803F40063002B3FD07B685B6E2C
:101E1000B3F5800F1CD0B3F5800F02D8002B0ED085
:101E20001FE0B3F5000F03D0B3F5400F1CD018E04E
:101E3000854A854BDB6843F48033D36015E07B68CB
:101E400004330021184600F0B9FA0346FB740CE095
:101E50007B6820330021184600F0A0FB0346FB748A
:101E600003E00123FB7400E000BFFB7C002B0BD1DF
:101E70007549754BD3F8883023F440027B685B6E5C
:101E80001343C1F8883001E0FB7CBB747B681B689E
:101E900003F48053002B3FD07B689B6EB3F1807FAF
:101EA0001CD0B3F1807F02D8002B0ED01FE0B3F11D
:101EB000007F03D0B3F1407F1CD018E0624A624B30
:101EC000DB6843F48033D36015E07B680433002182
:101ED000184600F073FA0346FB740CE07B6820336D
:101EE0000021184600F05AFB0346FB7403E001236F
:101EF000FB7400E000BFFB7C002B0BD15249524B1E
:101F0000D3F8883023F040727B689B6E1343C1F88E
:101F1000883001E0FB7CBB747B681B6803F40033F2
:101F2000002B00F0A08000237B74474B9B6D03F0D7
:101F30008053002B01D1012300E00023002B0DD0A2
:101F4000414A414B9B6D43F0805393653E4B9B6DE3
:101F500003F08053BB60BB6801237B743B4A3B4B5F
:101F60001B6843F480731360FEF7FEFDF86009E020
:101F7000FEF7FAFD0246FB68D31A022B02D90323AF
:101F8000FB7405E0314B1B6803F48073002BEFD02A
:101F9000FB7C002B5CD12C4BD3F8903003F44073C6
:101FA0007B617B69002B1FD07B68D3F884207B6921
:101FB0009A4219D0244BD3F8903023F440737B61BC
:101FC000214A214BD3F8903043F48033C2F890304B
:101FD0001D4A1D4BD3F8903023F48033C2F8903063
:101FE000194A7B69C2F890307B6903F00103002B2A
:101FF00016D0FEF7B9FDF8600BE0FEF7B5FD02461E
:10200000FB68D31A41F28832934202D90323FB744E
:1020100006E00D4BD3F8903003F00203002BECD018
:10202000FB7C002B0CD10849074BD3F8903023F4EC
:1020300040727B68D3F884301343C1F8903009E0D4
:10204000FB7CBB7406E000BF001002400070004043
:10205000FB7CBB747B7C012B05D19E4A9D4B9B6D09
:1020600023F0805393657B681B6803F00103002B0A
:102070000AD09849974BD3F8883023F003027B6845
:102080009B6B1343C1F888307B681B6803F0020325
:10209000002B0AD08F498F4BD3F8883023F00C02E5
:1020A0007B68DB6B1343C1F888307B681B6803F0E7
:1020B0000403002B0AD08749864BD3F8883023F0DD
:1020C00030027B681B6C1343C1F888307B681B6847
:1020D00003F00803002B0AD07E497E4BD3F88830EA
:1020E00023F0C0027B685B6C1343C1F888307B68C7
:1020F0001B6803F01003002B0AD07649754BD3F808
:10210000883023F440727B689B6C1343C1F888309D
:102110007B681B6803F02003002B0AD06D496D4BD0
:10212000D3F8883023F440627B68DB6C1343C1F83A
:1021300088307B681B6803F40073002B0AD0654964
:10214000644BD3F8883023F440227B68DB6D134363
:10215000C1F888307B681B6803F48063002B0AD0C9
:102160005C495C4BD3F8883023F440127B681B6ECB
:102170001343C1F888307B681B6803F04003002BD1
:102180000AD05449534BD3F8883023F440527B682B
:102190001B6D1343C1F888307B681B6803F0800314
:1021A000002B0AD04B494B4BD3F8883023F44042E4
:1021B0007B685B6D1343C1F888307B681B6803F450
:1021C0008073002B0AD04349424BD3F8883023F464
:1021D00040327B689B6D1343C1F888307B681B6875
:1021E00003F40053002B28D03A493A4BD3F88830F7
:1021F00023F040627B68DB6E1343C1F888307B6854
:10220000DB6EB3F1006F06D1324A324BDB6843F428
:102210008013D36011E07B68DB6EB3F1806F0CD16B
:102220007B6804330121184600F0C8F80346FB74AC
:10223000FB7C002B01D0FB7CBB747B681B6803F428
:102240000023002B28D02349224BD3F8883023F0D9
:1022500040627B681B6F1343C1F888307B681B6F3B
:10226000B3F1006F06D11B4A1A4BDB6843F48013AD
:10227000D36011E07B681B6FB3F1806F0CD17B687A
:1022800004330121184600F099F80346FB74FB7CE7
:10229000002B01D0FB7CBB747B681B6803F480239C
:1022A000002B2BD00B490B4BD3F8883023F0406226
:1022B0007B685B6F1343C1F888307B685B6FB3F159
:1022C000006F09D1034A034BDB6843F48013D360EA
:1022D00014E000BF001002407B685B6FB3F1806FB9
:1022E0000CD17B6804330121184600F067F80346DF
:1022F000FB74FB7C002B01D0FB7CBB747B681B68F0
:1023000003F48043002B2FD02B492B4BD3F888307C
:1023100023F040527B689B6F1343C1F888307B6881
:102320009B6FB3F1805F0DD17B68043302211846A7
:1023300000F044F80346FB74FB7C002B14D0FB7CBC
:10234000BB7411E07B689B6FB3F1005F0CD17B68BD
:1023500020330221184600F021F90346FB74FB7C70
:10236000002B01D0FB7CBB747B681B6803F400432B
:10237000002B0AD01049104BD3F8883023F080424C
:102380007B68DB6F1343C1F888307B681B6803F4FC
:102390008033002B0BD00849074BD3F8883023F04B
:1023A00000427B68D3F880301343C1F88830BB7C8F
:1023B00018461837BD4680BD0010024080B584B075
:1023C00000AF786039600023FB73734BDB6803F068
:1023D0000303002B18D0704BDB6803F003027B680B
:1023E0001B689A420DD17B681B68002B09D06A4B91
:1023F000DB681B0903F007035A1C7B685B689A4281
:1024000044D00123FB7341E07B681B68022B0CD096
:10241000032B13D0012B20D15F4B1B6803F0020369
:10242000002B1DD10123FB731AE05B4B1B6803F4E7
:102430008063002B16D10123FB7313E0564B1B68FE
:1024400003F40033002B0FD1534B1B6803F480239C
:10245000002B09D10123FB7306E00123FB7304E089
:1024600000BF02E000BF00E000BFFB7B002B0DD1EE
:102470004948494BDB6823F073027B6819687B6825
:102480005B68013B1B010B431343C360FB7B002BC9
:102490007DD1414A404B1B6823F080631360FEF7F7
:1024A00063FBB86009E0FEF75FFB0246BB68D31A26
:1024B000022B02D90323FB7305E0374B1B6803F0A3
:1024C0000063002BEFD1FB7B002B60D13B68002B1E
:1024D00011D13148304B1B6923F41F3323F440736F
:1024E0007A68926811027A68D268120952040A4323
:1024F0001343036127E03B68012B12D12648264B8A
:102500001B6923F4C00323F4FE437A689268110226
:102510007A6812695208013A52050A43134303616B
:1025200011E01D481C4B1B6923F0C06323F4FE43DC
:102530007A68926811027A6852695208013A520622
:102540000A4313430361144A134B1B6843F080632F
:102550001360FEF709FBB86009E0FEF705FB0246D1
:10256000BB68D31A022B02D90323FB7305E00A4B85
:102570001B6803F00063002BEFD0FB7B002B06D120
:102580000549054B1A697B689B6913430B61FB7B0B
:1025900018461037BD4680BD0010024080B584B09B
:1025A00000AF786039600023FB73684BDB6803F091
:1025B0000303002B18D0654BDB6803F003027B6834
:1025C0001B689A420DD17B681B68002B09D05F4BBA
:1025D000DB681B0903F007035A1C7B685B689A429F
:1025E00044D00123FB7341E07B681B68022B0CD0B5
:1025F000032B13D0012B20D1544B1B6803F0020393
:10260000002B1DD10123FB731AE0504B1B6803F410
:102610008063002B16D10123FB7313E04B4B1B6827
:1026200003F40033002B0FD1484B1B6803F48023C5
:10263000002B09D10123FB7306E00123FB7304E0A7
:1026400000BF02E000BF00E000BFFB7B002B0DD10C
:102650003E483E4BDB6823F073027B6819687B6859
:102660005B68013B1B010B431343C360FB7B002BE7
:1026700067D1364A354B1B6823F080531360FEF751
:1026800073FAB86009E0FEF76FFA0246BB68D31A26
:10269000022B02D90323FB7305E02C4B1B6803F0CC
:1026A0000053002BEFD1FB7B002B4AD13B68002B62
:1026B00011D12648254B5B6923F41F3323F4407363
:1026C0007A68926811027A68D268120952040A4341
:1026D0001343436111E01D481C4B5B6923F0C06349
:1026E00023F4FE437A68926811027A6812695208EC
:1026F000013A52060A4313434361144A134B1B68C1
:1027000043F080531360FEF72FFAB86009E0FEF73C
:102710002BFA0246BB68D31A022B02D90323FB73A0
:1027200005E00A4B1B6803F00053002BEFD0FB7B46
:10273000002B06D10549054B5A697B685B69134339
:102740004B61FB7B18461037BD4680BD0010024030
:1027500080B582B000AF78607B68002B01D1012387
:1027600049E07B6893F83D30DBB2002B06D17B68F3
:10277000002283F83C20786800F041F87B68022250
:1027800083F83D207B681A687B680433194610463D
:1027900000F0F8F97B68012283F848207B68012269
:1027A00083F83E207B68012283F83F207B6801226A
:1027B00083F840207B68012283F841207B68012256
:1027C00083F842207B68012283F843207B68012242
:1027D00083F844207B68012283F845207B6801222E
:1027E00083F846207B68012283F847207B6801221A
:1027F00083F83D20002318460837BD4680BD80B4CD
:1028000083B000AF786000BF0C37BD465DF8047B35
:102810007047000080B485B000AF78607B6893F8A3
:102820003D30DBB2012B01D001234FE07B68022257
:1028300083F83D207B681B687A681268D26842F092
:102840000102DA607B681B68234A93421DD07B68D3
:102850001B68B3F1804F18D07B681B681F4A9342F6
:1028600013D07B681B681E4A93420ED07B681B689E
:102870001C4A934209D07B681B681B4A934204D0D0
:102880007B681B68194A934215D17B681B689A685C
:10289000174B1340FB60FB68062B15D0FB68B3F5A4
:1028A000803F11D07B681B687A681268126842F01A
:1028B00001021A6008E07B681B687A681268126877
:1028C00042F001021A6000E000BF002318461437EE
:1028D000BD465DF8047B7047002C014000040040B9
:1028E00000080040000C004000340140004001405E
:1028F0000700010080B582B000AF78607B681B687C
:102900001B6903F00203022B22D17B681B68DB6882
:1029100003F00203022B1BD17B681B686FF00202DD
:102920001A617B6801221A777B681B689B6903F038
:102930000303002B03D0786800F005F905E0786800
:1029400000F0F7F8786800F008F97B6800221A7741
:102950007B681B681B6903F00403042B22D17B688E
:102960001B68DB6803F00403042B1BD17B681B6826
:102970006FF004021A617B6802221A777B681B6879
:102980009B6903F44073002B03D0786800F0DBF8F8
:1029900005E0786800F0CDF8786800F0DEF87B6834
:1029A00000221A777B681B681B6903F00803082B59
:1029B00022D17B681B68DB6803F00803082B1BD15E
:1029C0007B681B686FF008021A617B6804221A7723
:1029D0007B681B68DB6903F00303002B03D0786876
:1029E00000F0B1F805E0786800F0A3F8786800F02E
:1029F000B4F87B6800221A777B681B681B6903F0B8
:102A00001003102B22D17B681B68DB6803F01003D6
:102A1000102B1BD17B681B686FF010021A617B685A
:102A200008221A777B681B68DB6903F44073002B6C
:102A300003D0786800F087F805E0786800F079F84E
:102A4000786800F08AF87B6800221A777B681B6838
:102A50001B6903F00103012B0ED17B681B68DB6847
:102A600003F00103012B07D17B681B686FF00102A3
:102A70001A617868FDF724FF7B681B681B6903F007
:102A80008003802B0ED17B681B68DB6803F080031A
:102A9000802B07D17B681B686FF080021A61786811
:102AA00000F014F97B681B681B6903F48073B3F5AD
:102AB000807F0ED17B681B68DB6803F08003802B6E
:102AC00007D17B681B686FF480721A61786800F028
:102AD00007F97B681B681B6903F04003402B0ED18C
:102AE0007B681B68DB6803F04003402B07D17B68E1
:102AF0001B686FF040021A61786800F038F87B6854
:102B00001B681B6903F02003202B0ED17B681B6818
:102B1000DB6803F02003202B07D17B681B686FF074
:102B200020021A61786800F0C7F800BF0837BD4678
:102B300080BD80B483B000AF786000BF0C37BD4665
:102B40005DF8047B704780B483B000AF786000BF4D
:102B50000C37BD465DF8047B704780B483B000AF8E
:102B6000786000BF0C37BD465DF8047B704780B4C9
:102B700083B000AF786000BF0C37BD465DF8047BC2
:102B80007047000080B485B000AF786039607B6822
:102B90001B68FB607B68404A934213D07B68B3F1AB
:102BA000804F0FD07B683D4A93420BD07B683C4AF4
:102BB000934207D07B683B4A934203D07B683A4AF2
:102BC000934208D1FB6823F07003FB603B685B68AD
:102BD000FA681343FB607B682F4A93421FD07B68DF
:102BE000B3F1804F1BD07B682C4A934217D07B688F
:102BF0002B4A934213D07B682A4A93420FD07B68BA
:102C0000294A93420BD07B68284A934207D07B68BD
:102C1000274A934203D07B68264A934208D1FB6837
:102C200023F44073FB603B68DB68FA681343FB6086
:102C3000FB6823F080023B685B691343FB607B68A1
:102C4000FA681A603B689A687B68DA623B681A68BF
:102C50007B689A627B68104A93420FD07B68124A65
:102C600093420BD07B68114A934207D07B68104A8D
:102C7000934203D07B680F4A934203D13B681A69A1
:102C80007B681A637B6801225A6100BF1437BD4616
:102C90005DF8047B704700BF002C01400004004039
:102CA00000080040000C004000340140004001409A
:102CB000004401400048014080B483B000AF786018
:102CC00000BF0C37BD465DF8047B704780B483B00D
:102CD00000AF786000BF0C37BD465DF8047B7047DD
:102CE00080B483B000AF786000BF0C37BD465DF89C
:102CF000047B704780B582B000AF78607B68002BA2
:102D000001D1012340E07B689B6F002B06D17B68DB
:102D1000002283F874207868FDF710FE7B68242277
:102D20009A677B681B687A681268126822F0010251
:102D30001A60786800F0C0F80346012B01D1012326
:102D400022E07B685B6A002B02D0786800F038FBD9
:102D50007B681B687A681268526822F490425A6055
:102D60007B681B687A681268926822F02A029A606F
:102D70007B681B687A681268126842F001021A6068
:102D8000786800F0BFFB034618460837BD4680BD93
:102D900080B58AB002AFF860B9603B601346FB8033
:102DA000FB689B6F202B40F08280BB68002B02D019
:102DB000FB88002B01D101237AE0FB6893F8743083
:102DC000012B01D1022373E0FB68012283F87420F8
:102DD000FB680022C3F88020FB6821229A67FDF778
:102DE000C3FE7861FB68FA88A3F85020FB68FA8874
:102DF000A3F85220FB689B68B3F5805F08D1FB689D
:102E00001B69002B04D10023FB61BB68BB6103E09D
:102E1000BB68FB610023BB61FB68002283F8742060
:102E20002DE03B6800937B6900228021F86800F068
:102E3000B2FB0346002B01D0032339E0FB69002BD2
:102E40000BD1FB681B68BA691288C2F3080292B200
:102E50001A85BB690233BB6108E0FB681B68FA692D
:102E6000127892B21A85FB690133FB61FB68B3F8F3
:102E700052309BB2013B9AB2FB68A3F85220FB6828
:102E8000B3F852309BB2002BCBD13B6800937B69E7
:102E900000224021F86800F07EFB0346002B01D0A1
:102EA000032305E0FB6820229A67002300E0022349
:102EB00018462037BD4680BDB0B588B000AF7860F9
:102EC0000023BB767B689A687B681B691A437B6822
:102ED0005B691A437B68DB691343FB617B681A6893
:102EE0007B681B681968AC4B0B40F9690B43136096
:102EF0007B681B687A681268526822F440517A68CD
:102F0000D2680A435A607B689B69FB617B681B68D7
:102F1000A24A934204D07B681B6AFA691343FB619F
:102F20007B681B687A681268926822F43061FA69DB
:102F30000A439A607B681B68994A934222D1994B55
:102F4000D3F8883003F00303032B17D801A252F8FB
:102F500023F000BF652F0008712F00086B2F0008B9
:102F6000772F00080123FB76E8E00223FB76E5E0FB
:102F70000423FB76E2E00823FB76DFE01023FB76F8
:102F800000BFDBE07B681B68874A934234D1854BE6
:102F9000D3F8883003F00C030C2B29D801A252F887
:102FA00023F000BFD92F0008F12F0008F12F0008EF
:102FB000F12F0008E52F0008F12F0008F12F00087D
:102FC000F12F0008DF2F0008F12F0008F12F000873
:102FD000F12F0008EB2F00080023FB76AEE0022360
:102FE000FB76ABE00423FB76A8E00823FB76A5E0A4
:102FF0001023FB7600BFA1E07B681B686B4A9342FD
:1030000020D1684BD3F8883003F03003102B0FD059
:10301000102B02D8002B05D010E0202B05D0302B30
:1030200009D00BE00023FB7688E00223FB7685E0E5
:103030000423FB7682E00823FB767FE01023FB76F7
:1030400000BF7BE07B681B68594A934220D1554BF7
:10305000D3F8883003F0C003402B0FD0402B02D8A8
:10306000002B05D010E0802B05D0C02B09D00BE041
:103070000023FB7662E00223FB765FE00423FB760D
:103080005CE00823FB7659E01023FB7600BF55E097
:103090007B681B68474A934224D1424BD3F888305F
:1030A00003F44073B3F5807F12D0B3F5807F02D86C
:1030B000002B07D012E0B3F5007F06D0B3F5407FB8
:1030C00009D00BE00023FB7638E00223FB7635E0E5
:1030D0000423FB7632E00823FB762FE01023FB76F7
:1030E00000BF2BE07B681B682C4A934224D12D4BF8
:1030F000D3F8883003F44063B3F5806F12D0B3F592
:10310000806F02D8002B07D012E0B3F5006F06D015
:10311000B3F5406F09D00BE00023FB760EE00223ED
:10312000FB760BE00423FB7608E00823FB7605E042
:103130001023FB7600BF01E01023FB767B681B6841
:10314000164A934240F08080FB7E082B36D801A2BD
:1031500052F823F079310008BD31000881310008B0
:10316000BD31000887310008BD310008BD310008BD
:10317000BD3100088F310008FEF77CFD786122E048
:103180000D4B7B611FE0FEF7DFFC78611BE04FF425
:1031900000437B6117E000BFF369FFEF0080004050
:1031A0000038014000100240004400400048004048
:1031B000004C0040005000400024F40000237B61DC
:1031C0000123BB7600BF7B69002B00F0EB807B689E
:1031D0005A6813465B001A447B699A4205D87B689B
:1031E0005B681A037B699A4202D20123BB76D9E05D
:1031F0007B691A464FF000031D0245EA126514026E
:103200007B685B685B081A464FF00003A01845EB2B
:1032100003017B685B684FF000041A462346FCF705
:10322000D7FF03460C463B613B69B3F5407F08D3AB
:103230003B69B3F5801F04D27B681B683A69DA608A
:10324000B0E00123BB76ADE07B68DB69B3F5004FEE
:103250005CD1FB7E082B28D801A252F823F000BFD6
:10326000853200088D32000895320008AB32000824
:103270009B320008AB320008AB320008AB320008CA
:10328000A3320008FEF7F6FC786113E0FEF708FDB4
:1032900078610FE0494B7B610CE0FEF755FC7861EB
:1032A00008E04FF400437B6104E000237B610123CD
:1032B000BB7600BF7B69002B74D07B695A007B68AA
:1032C0005B685B081A447B685B68B2FBF3F39BB2F4
:1032D0003B613B690F2B16D93B69B3F5803F12D296
:1032E0003B699BB223F00F03FB813B695B089BB2F8
:1032F00003F007039AB2FB891343FB817B681B68C9
:10330000FA89DA604EE00123BB764BE0FB7E082BA6
:1033100027D801A252F823F03D33000845330008B6
:103320004D3300086333000853330008633300084B
:1033300063330008633300085B330008FEF79AFC30
:10334000786113E0FEF7ACFC78610FE01B4B7B610A
:103350000CE0FEF7F9FB786108E04FF400437B6175
:1033600004E000237B610123BB7600BF7B69002B57
:1033700018D07B685B685A087B691A447B685B6875
:10338000B2FBF3F39BB23B613B690F2B08D93B695E
:10339000B3F5803F04D27B681B683A69DA6001E0CC
:1033A0000123BB767B6800225A667B6800229A66FE
:1033B000BB7E18462037BD46B0BD00BF0024F400D8
:1033C00080B483B000AF78607B685B6A03F0010370
:1033D000002B0AD07B681B687A681268526822F456
:1033E00000317A68926A0A435A607B685B6A03F02C
:1033F0000203002B0AD07B681B687A681268526847
:1034000022F480317A68D26A0A435A607B685B6A28
:1034100003F00403002B0AD07B681B687A681268EB
:10342000526822F480217A68126B0A435A607B68E2
:103430005B6A03F00803002B0AD07B681B687A687C
:103440001268526822F400417A68526B0A435A604B
:103450007B685B6A03F01003002B0AD07B681B6853
:103460007A681268926822F480517A68926B0A43F3
:103470009A607B685B6A03F02003002B0AD07B68AC
:103480001B687A681268926822F400517A68D26BDD
:103490000A439A607B685B6A03F04003002B1AD0F2
:1034A0007B681B687A681268526822F480117A6817
:1034B000126C0A435A607B681B6CB3F5801F0AD1FB
:1034C0007B681B687A681268526822F4C0017A68C7
:1034D000526C0A435A607B685B6A03F08003002BDE
:1034E0000AD07B681B687A681268526822F400214F
:1034F0007A68926C0A435A6000BF0C37BD465DF88B
:10350000047B704780B586B002AF78607B6800228C
:10351000C3F88020FDF728FBF8607B681B681B68F8
:1035200003F00803082B0ED16FF07E430093FB6875
:1035300000224FF40011786800F02DF80346002BAC
:1035400001D0032323E07B681B681B6803F004039E
:10355000042B0ED16FF07E430093FB6800224FF4E2
:103560008001786800F017F80346002B01D0032390
:103570000DE07B6820229A677B682022DA677B68EF
:1035800000221A667B68002283F874200023184604
:103590001037BD4680BD80B584B000AFF860B9601B
:1035A0003B601346FB715EE0BB69B3F1FF3F5AD04D
:1035B000FDF7DAFA02463B68D21ABB699A4202D892
:1035C000BB69002B1BD1FB681B68FA681268126884
:1035D00022F4D0721A60FB681B68FA68126892685D
:1035E00022F001029A60FB6820229A67FB68202281
:1035F000DA67FB68002283F87420032343E0FB684A
:103600001B681B6803F00403002B2CD0FB681B68AD
:10361000DB6903F40063B3F5006F24D1FB681B681A
:103620004FF400621A62FB681B68FA68126812683D
:1036300022F4D0721A60FB681B68FA6812689268FC
:1036400022F001029A60FB6820229A67FB68202220
:10365000DA67FB682022C3F88020FB68002283F829
:10366000742003230FE0FB681B68DA69BB681A400B
:10367000BB689A420CBF01230023DBB21A46FB79D8
:103680009A4291D0002318461037BD4680BD80B4C1
:1036900085B000AF0346FB800023FB60B7F906301E
:1036A000842B05D0B7F90620FB6813440333FB6075
:1036B000FB6818461437BD465DF8047B704780B43C
:1036C00083B000AFEFF305837B607B68002B14BFF2
:1036D00001230023DBB218460C37BD465DF8047B9E
:1036E000704780B500AF01F04FFC0023184680BD45
:1036F000F0B589B004AF786039607B685B69002BF6
:1037000020D07B689B69002B1CD07B685C687B6841
:103710001D687B681E697B68B3F908301846FFF79F
:10372000B6FF01467B685B697A68926902920193F1
:1037300000913B6832462946204601F061FA034673
:10374000FB601CE07B685C687B681D687B681B69AC
:103750009EB27B68B3F908301846FFF798FF02461F
:1037600007F10C03019300923B683246294620463C
:1037700001F0A0FA0346012B01D0002300E0FB6812
:1037800018461437BD46F0BD80B584B000AF7860F0
:103790007B68FB60FB68002B01D0FB6800E0012325
:1037A000184601F0BDFB002318461037BD4680BD0A
:1037B00080B586B002AFF8600B467A60FB72FB689A
:1037C0005B68002B13D0FB7A012B01D1012100E0B3
:1037D0000021FB681B68FA685268019200937B68BD
:1037E0000A4601210B4802F074F903460EE0FB7A09
:1037F000012B01D1012200E00022FB681B6800932D
:103800007B680121034802F043F90346184610374C
:10381000BD4680BD0C63000880B588B002AF7860FB
:10382000396000237B610023FB603B683B613B699F
:10383000002B01D101233B61FFF741FF0346002B21
:103840001BD007F10C020023009313463A690921AB
:10385000786802F0B5F90346012B02D0FF237B61A3
:1038600018E0FB68002B15D00D4B4FF080521A600A
:10387000BFF34F8FBFF36F8F0CE000230093002343
:103880003A690421786802F09BF90346012B01D0C4
:10389000FF237B617B6918461837BD4680BD00BF9A
:1038A00004ED00E080B483B000AF78607B6803F182
:1038B00008027B685A607B684FF0FF329A607B6831
:1038C00003F108027B68DA607B6803F108027B6819
:1038D0001A617B6800221A6000BF0C37BD465DF894
:1038E000047B704780B483B000AF78607B680022AF
:1038F0001A6100BF0C37BD465DF8047B704780B489
:1039000085B000AF786039607B685B68FB603B68BE
:10391000FA685A60FB689A683B689A60FB689B6823
:103920003A685A60FB683A689A603B687A681A613C
:103930007B681B685A1C7B681A6000BF1437BD4641
:103940005DF8047B704780B485B000AF7860396063
:103950003B681B68BB60BB68B3F1FF3F03D17B686A
:103960001B69FB600CE07B680833FB6002E0FB68CE
:103970005B68FB60FB685B681A68BB689A42F6D9B3
:10398000FB685A683B685A603B685B683A689A60B3
:103990003B68FA689A60FB683A685A603B687A68E4
:1039A0001A617B681B685A1C7B681A6000BF143759
:1039B000BD465DF8047B704780B485B000AF786089
:1039C0007B681B69FB607B685B687A6892689A60B9
:1039D0007B689B687A6852685A60FB685A687B68A3
:1039E0009A4203D17B689A68FB685A607B68002220
:1039F0001A61FB681B685A1EFB681A60FB681B682B
:103A000018461437BD465DF8047B704780B485B016
:103A100000AFF860B9607A60FB68043BFB60FB684C
:103A20004FF080721A60FB68043BFB60BB6823F0B8
:103A30000102FB681A60FB68043BFB600C4AFB68F0
:103A40001A60FB68143BFB607A68FB681A60FB68CD
:103A5000043BFB60FB686FF002021A60FB68203BCE
:103A6000FB60FB6818461437BD465DF8047B704761
:103A7000753A000880B485B000AF00237B60114B1D
:103A80001B68B3F1FF3F09D04FF0500383F3118857
:103A9000BFF36F8FBFF34F8FFB60FEE74FF0500314
:103AA00083F31188BFF36F8FBFF34F8FBB6000BFED
:103AB0007B68002BFCD000BF1437BD465DF8047B4B
:103AC000704700BF0C000020000000000000000054
:103AD000074B19680868B0E8F04F80F30988BFF316
:103AE0006F8F4FF0000080F311887047AFF30080B4
:103AF000B412002000BF00BF08480068006880F3CF
:103B000008884FF0000080F3148862B661B6BFF3F6
:103B10004F8FBFF36F8F00DF00BF00BF08ED00E0E5
:103B200080B586B000AF444B1B68444A934209D12C
:103B30004FF0500383F31188BFF36F8FBFF34F8FA4
:103B40003B61FEE73C4B1B683D4A934209D14FF075
:103B5000500383F31188BFF36F8FBFF34F8FFB6068
:103B6000FEE7384B7B617B691B78DBB27B607B694E
:103B7000FF221A707B691B78DBB2FB70FB78DBB22B
:103B800003F05003DAB2304B1A70304B07221A6040
:103B900009E02E4B1B68013B2C4A1360FB78DBB21B
:103BA0005B00DBB2FB70FB78DBB203F08003802BA1
:103BB000EFD0264B1B68C3F10703042B09D04FF04D
:103BC000500383F31188BFF36F8FBFF34F8FBB6038
:103BD000FEE71E4B1B681B021C4A13601B4B1B6835
:103BE00003F4E063194A13607B68DAB27B691A70E8
:103BF000174A174B1B6843F470031360144A144BA5
:103C00001B6843F07043136000F0D6F8114B00229C
:103C10001A6000F0F5F8104A0F4B1B6843F0404360
:103C20001360FFF769FF01F085FBFFF723FF002317
:103C300018461837BD4680BD00ED00E071C20F4147
:103C400070C20F4100E400E0D4060020D806002036
:103C500020ED00E00C00002034EF00E080B483B0E1
:103C600000AF4FF0500383F31188BFF36F8FBFF3A2
:103C70004F8F7B600E4B1B6801330D4A13600C4B5A
:103C80001B68012B0ED10B4B1B68DBB2002B09D03C
:103C90004FF0500383F31188BFF36F8FBFF34F8F43
:103CA0003B60FEE700BF0C37BD465DF8047B704704
:103CB0000C00002004ED00E080B483B000AF114B95
:103CC0001B68002B09D14FF0500383F31188BFF319
:103CD0006F8FBFF34F8F7B60FEE70A4B1B68013B82
:103CE000084A1360074B1B68002B04D100233B607C
:103CF0003B6883F3118800BF0C37BD465DF8047B39
:103D0000704700BF0C000020000000000000000011
:103D1000EFF30980BFF36F8F154B1A681EF0100F79
:103D200008BF20ED108A20E9F04F10602DE909004E
:103D30004FF0500080F31188BFF34F8FBFF36F8FA8
:103D400001F0F8FA4FF0000080F3118809BC1968FF
:103D50000868B0E8F04F1EF0100F08BFB0EC108AF2
:103D600080F30988BFF36F8F704700BFAFF3008007
:103D7000B412002000BF00BF80B582B000AF4FF08A
:103D8000500383F31188BFF36F8FBFF34F8F7B60B6
:103D900001F018FA0346002B03D0064B4FF0805277
:103DA0001A6000233B603B6883F3118800BF08372B
:103DB000BD4680BD04ED00E080B400AF0B4B002297
:103DC0001A600B4B00221A600A4A0B4B1B680B4906
:103DD000A1FB03139B09013B1360044B07221A60EC
:103DE00000BFBD465DF8047B704700BF10E000E0F7
:103DF00018E000E014E000E000000020D34D621065
:103E0000DFF80C00016841F470010160704700BFE9
:103E100088ED00E080B485B000AFEFF30583FB6070
:103E2000FB680F2B13D9164AFB6813441B78FB72EF
:103E3000144B1B78FA7A9A4209D24FF0500383F35D
:103E40001188BFF36F8FBFF34F8F7B60FEE70E4B80
:103E50001B6803F4E0620D4B1B689A4209D94FF0CE
:103E6000500383F31188BFF36F8FBFF34F8F3B6015
:103E7000FEE700BF1437BD465DF8047B704700BF06
:103E8000F0E300E0D40600200CED00E0D8060020AE
:103E900080B58AB000AF78600023FB6101F0D8F8EC
:103EA000594B1B68002B01D100F01AF9574B1A68C7
:103EB0007B681340002B40F091807B68002B1CD066
:103EC00008227B6813447B607B6803F00703002BA8
:103ED00013D07B6823F0070308337B607B6803F013
:103EE0000703002B09D04FF0500383F31188BFF371
:103EF0006F8FBFF34F8F7B61FEE77B68002B6DD028
:103F0000434B1B687A689A4268D8424B3B62414BEC
:103F10001B687B6204E07B6A3B627B6A1B687B6296
:103F20007B6A5A687B689A4203D27B6A1B68002BC3
:103F3000F1D1354B1B687A6A9A424FD03B6A1B68B5
:103F400008221344FB617B6A1A683B6A1A607B6A29
:103F50005A687B68D21A08235B009A421ED97A6A93
:103F60007B681344BB61BB6903F00703002B09D0D6
:103F70004FF0500383F31188BFF36F8FBFF34F8F60
:103F80003B61FEE77B6A5A687B68D21ABB695A605C
:103F90007B6A7A685A60B86900F004F91C4B1A68A9
:103FA0007B6A5B68D31A1A4A1360194B1A681A4B5A
:103FB0001B689A4203D2164B1B68174A13607B6A30
:103FC0005A68124B1B681A437B6A5A607B6A00224C
:103FD0001A60124B1B680133104A136001F046F857
:103FE000FB6903F00703002B09D04FF0500383F364
:103FF0001188BFF36F8FBFF34F8FFB60FEE7FB6944
:1040000018462837BD4680BD9C120020B012002003
:10401000A012002094120020A4120020A812002058
:1040200080B586B000AF78607B687B617B68002BD1
:104030004BD008235B427A6913447B617B693B6107
:104040003B695A68234B1B681340002B09D14FF082
:10405000500383F31188BFF36F8FBFF34F8FFB6063
:10406000FEE73B691B68002B09D04FF0500383F338
:104070001188BFF36F8FBFF34F8FBB60FEE73B69C3
:104080005A68144B1B681340002B1ED03B691B68F9
:10409000002B1AD13B695A680E4B1B68DB431A4050
:1040A0003B695A6000F0D4FF3B695A680A4B1B68B1
:1040B0001344094A1360386900F074F8074B1B6811
:1040C0000133064A136000F0D1FF00BF1837BD4628
:1040D00080BD00BFB0120020A0120020AC12002052
:1040E00080B485B000AF40F6B833BB60274BFB60AF
:1040F000FB6803F00703002B0CD0FB680733FB6061
:10410000FB6823F00703FB60BA68FB68D31A1F4AF9
:104110001344BB60FB687B601D4A7B6813601C4BCB
:1041200000225A607A68BB681344FB600822FB686F
:104130009B1AFB60FB6823F00703FB60FB68154AD2
:104140001360144B1B6800225A60124B1B6800223C
:104150001A607B683B603B68FA68D21A3B685A6019
:104160000C4B1A683B681A603B685B680A4A13602C
:104170003B685B68094A1360094B4FF000421A60C4
:1041800000BF1437BD465DF8047B7047DC06002095
:10419000941200209C120020A4120020A0120020E3
:1041A000B012002080B485B000AF7860284BFB606F
:1041B00002E0FB681B68FB60FB681A687B689A4238
:1041C000F7D3FB68BB60FB685B68BA681A447B681E
:1041D0009A4208D1FB685A687B685B681A44FB689E
:1041E0005A60FB687B607B68BB607B685B68BA6811
:1041F0001A44FB681B689A4218D1FB681A68154B71
:104200001B689A420DD07B685A68FB681B685B6824
:104210001A447B685A60FB681B681A687B681A60DE
:1042200008E00C4B1A687B681A6003E0FB681A68A8
:104230007B681A60FA687B689A4202D0FB687A68E9
:104240001A6000BF1437BD465DF8047B704700BF9D
:10425000941200209C12002080B584B000AF7860DA
:1042600039607B68FB60FB68002B09D14FF050037D
:1042700083F31188BFF36F8FBFF34F8FBB60FEE7EF
:10428000FFF7ECFCFB681A68FB68DB6BF968096CEC
:1042900001FB03F31A44FB689A60FB6800229A63EF
:1042A000FB681A68FB685A60FB681A68FB68DB6B7E
:1042B000013BF968096C01FB03F31A44FB68DA60FF
:1042C000FB68FF2283F84420FB68FF2283F8452027
:1042D0003B68002B14D1FB681B69002B1AD0FB68CC
:1042E0001033184601F0CEF80346002B12D00D4BC8
:1042F0004FF080521A60BFF34F8FBFF36F8F09E00A
:10430000FB6810331846FFF7CDFAFB6824331846D4
:10431000FFF7C8FAFFF7D0FC012318461037BD4657
:1043200080BD00BF04ED00E080B58EB002AFF86044
:10433000B9607A603B60FB68002B09D14FF05003F5
:1043400083F31188BFF36F8FBFF34F8FBB62FEE71C
:104350003B68002B09D14FF0500383F31188BFF362
:104360006F8FBFF34F8F7B62FEE77B68002B02D01D
:10437000BB68002B01D0012300E00023002B09D1F2
:104380004FF0500383F31188BFF36F8FBFF34F8F4C
:104390003B62FEE77B68002B02D1BB68002B01D19A
:1043A000012300E00023002B09D14FF0500383F3D9
:1043B0001188BFF36F8FBFF34F8FFB61FEE7482378
:1043C0007B617B69482B09D04FF0500383F3118840
:1043D000BFF36F8FBFF34F8FBB61FEE77B693B6815
:1043E000FB62FB6A002B0DD0FB6A012283F846209A
:1043F00097F83820FB6A009313467A68B968F86822
:1044000000F005F8FB6A18463037BD4680BD80B520
:1044100084B000AFF860B9607A60FB70BB68002BB5
:1044200003D1BB69BA691A6002E0BB697A681A6095
:10443000BB69FA68DA63BB69BA681A640121B869B2
:10444000FFF70AFF00BF1037BD4680BD80B58EB0B4
:1044500000AFF860B9607A603B6000237B63FB6863
:104460003B633B6B002B09D14FF0500383F3118862
:10447000BFF36F8FBFF34F8FBB62FEE7BB68002BAC
:1044800003D13B6B1B6C002B01D1012300E0002307
:10449000002B09D14FF0500383F31188BFF36F8FC6
:1044A000BFF34F8F7B62FEE73B68022B03D13B6B70
:1044B000DB6B012B01D1012300E00023002B09D18C
:1044C0004FF0500383F31188BFF36F8FBFF34F8F0B
:1044D0003B62FEE701F08CF90346002B02D17B68BA
:1044E000002B01D1012300E00023002B09D14FF064
:1044F000500383F31188BFF36F8FBFF34F8FFB61BE
:10450000FEE7FFF7ABFB3B6B9A6B3B6BDB6B9A42B7
:1045100002D33B68022B29D13A68B968386B00F0A6
:1045200003FAF8623B6B5B6A002B10D03B6B2433C1
:10453000184600F0A7FF0346002B13D03F4B4FF067
:1045400080521A60BFF34F8FBFF36F8F0AE0FB6A90
:10455000002B07D0394B4FF080521A60BFF34F8FBA
:10456000BFF36F8FFFF7A8FB012363E07B68002B8D
:1045700003D1FFF7A1FB00235CE07B6B002B06D18E
:1045800007F11403184600F0DFFF01237B63FFF7F8
:1045900093FB00F05DFDFFF761FB3B6B93F844304C
:1045A0005BB2B3F1FF3F03D13B6B002283F84420A1
:1045B0003B6B93F845305BB2B3F1FF3F03D13B6BEC
:1045C000002283F84520FFF777FB3A1D07F114031B
:1045D0001146184600F0CEFF0346002B24D1386B5D
:1045E00000F09AFA0346002B18D03B6B10337A6820
:1045F0001146184600F0F8FE386B00F025FA00F07E
:1046000035FD0346002B7FF47CAF0C4B4FF08052FE
:104610001A60BFF34F8FBFF36F8F72E7386B00F0F4
:1046200013FA00F023FD6CE7386B00F00DFA00F090
:104630001DFD002318463837BD4680BD04ED00E05F
:1046400080B590B000AFF860B9607A603B60FB68FD
:10465000BB63BB6B002B09D14FF0500383F3118870
:10466000BFF36F8FBFF34F8FBB62FEE7BB68002BBA
:1046700003D1BB6B1B6C002B01D1012300E0002395
:10468000002B09D14FF0500383F31188BFF36F8FD4
:10469000BFF34F8F7B62FEE73B68022B03D1BB6BFE
:1046A000DB6B012B01D1012300E00023002B09D19A
:1046B0004FF0500383F31188BFF36F8FBFF34F8F19
:1046C0003B62FEE7FFF7A6FBEFF311824FF05003CA
:1046D00083F31188BFF36F8FBFF34F8FFA61BB6114
:1046E000FB697B63BB6B9A6BBB6BDB6B9A4202D340
:1046F0003B68022B2FD1BB6B93F8453087F83330E2
:10470000BB6B9B6BFB623A68B968B86B00F00CF945
:1047100097F93330B3F1FF3F12D1BB6B5B6A002BCB
:1047200016D0BB6B2433184600F0ACFE0346002BBA
:104730000ED07B68002B0BD07B6801221A6007E04B
:1047400097F833300133DBB25AB2BB6B83F84520A4
:104750000123FB6301E00023FB637B6B7B617B69CF
:1047600083F31188FB6B18464037BD4680BD0000BF
:1047700080B58CB000AFF860B9607A600023FB624E
:10478000FB68BB62BB6A002B09D14FF0500383F377
:104790001188BFF36F8FBFF34F8F3B62FEE7BB689B
:1047A000002B03D1BB6A1B6C002B01D1012300E05D
:1047B0000023002B09D14FF0500383F31188BFF37E
:1047C0006F8FBFF34F8FFB61FEE701F011F80346D7
:1047D000002B02D17B68002B01D1012300E00023D4
:1047E000002B09D14FF0500383F31188BFF36F8F73
:1047F000BFF34F8FBB61FEE7FFF730FABB6A9B6BDD
:104800007B627B6A002B1FD0B968B86A00F0F6F8AB
:104810007B6A5A1EBB6A9A63BB6A1B69002B0FD066
:10482000BB6A1033184600F02DFE0346002B07D05C
:104830003C4B4FF080521A60BFF34F8FBFF36F8F26
:10484000FFF73AFA012369E07B68002B03D1FFF7F9
:1048500033FA002362E0FB6A002B06D107F1100354
:10486000184600F071FE0123FB62FFF725FA00F005
:10487000EFFBFFF7F3F9BB6A93F844305BB2B3F197
:10488000FF3F03D1BB6A002283F84420BB6A93F840
:1048900045305BB2B3F1FF3F03D1BB6A002283F81E
:1048A0004520FFF709FA3A1D07F110031146184693
:1048B00000F060FE0346002B23D1B86A00F016F921
:1048C0000346002B17D0BB6A24337A68114618467A
:1048D00000F08AFDB86A00F0B7F800F0C7FB0346A5
:1048E000002B89D10F4B4FF080521A60BFF34F8FCE
:1048F000BFF36F8F80E7B86A00F0A6F800F0B6FB50
:104900007AE7B86A00F0A0F800F0B0FBB86A00F0EF
:10491000EDF80346002B3FF46FAF00231846303705
:10492000BD4680BD04ED00E080B586B000AFF86004
:10493000B9607A6000237B61FB689B6B3B61FB681D
:104940001B6C002B0DD1FB681B68002B4DD1FB6845
:104950009B68184600F06AFF7861FB6800229A6045
:1049600043E07B68002B19D1FB685868FB681B6C1F
:104970001A46B96801F058FCFB685A68FB681B6C62
:104980001A44FB685A60FB685A68FB689B689A4245
:104990002BD3FB681A68FB685A6026E0FB68D8686E
:1049A000FB681B6C1A46B96801F03EFCFB68DA68CC
:1049B000FB681B6C5B421A44FB68DA60FB68DA68D0
:1049C000FB681B689A4207D2FB689A68FB681B6CFD
:1049D0005B421A44FB68DA607B68022B05D13B69B5
:1049E000002B02D03B69013B3B613B695A1CFB68D1
:1049F0009A637B6918461837BD4680BD80B582B082
:104A000000AF786039607B681B6C002B18D07B6826
:104A1000DA687B681B6C1A447B68DA607B68DA684A
:104A20007B689B689A4203D37B681A687B68DA606C
:104A30007B68D9687B681B6C1A46386801F0F4FB08
:104A400000BF0837BD4680BD80B584B000AF786038
:104A5000FFF704F97B6893F84530FB7311E07B683E
:104A60005B6A002B12D07B682433184600F00AFDE5
:104A70000346002B01D000F0DDFDFB7B013BDBB2E8
:104A8000FB7397F90F30002BE9DC00E000BF7B6877
:104A9000FF2283F84520FFF70FF9FFF7DFF87B6867
:104AA00093F84430BB7311E07B681B69002B12D074
:104AB0007B681033184600F0E5FC0346002B01D05C
:104AC00000F0B8FDBB7B013BDBB2BB7397F90E3046
:104AD000002BE9DC00E000BF7B68FF2283F8442064
:104AE000FFF7EAF800BF1037BD4680BD80B584B03F
:104AF00000AF7860FFF7B2F87B689B6B002B02D1A8
:104B00000123FB6001E00023FB60FFF7D5F8FB68A1
:104B100018461037BD4680BD80B584B000AF7860C0
:104B2000FFF79CF87B689A6B7B68DB6B9A4202D13B
:104B30000123FB6001E00023FB60FFF7BDF8FB6889
:104B400018461037BD4680BD80B485B000AF786090
:104B500039600023FB6014E00E4AFB6852F83330E2
:104B6000002B0BD10B49FB683A6841F83320094A06
:104B7000FB68DB0013447A685A6005E0FB68013388
:104B8000FB60FB68072BE7D900BF1437BD465DF813
:104B9000047B7047C015002080B586B000AFF86078
:104BA000B9607A60FB687B61FFF758F87B6993F81E
:104BB00044305BB2B3F1FF3F03D17B69002283F83D
:104BC00044207B6993F845305BB2B3F1FF3F03D1DA
:104BD0007B69002283F84520FFF76EF87B699B6BA9
:104BE000002B06D17B6924337A68B968184600F037
:104BF0001FFC7869FFF728FF00BF1837BD4680BD4E
:104C000080B58EB004AFF860B9607A603B607B6BB2
:104C1000002B09D14FF0500383F31188BFF36F8F3E
:104C2000BFF34F8F3B62FEE7BB6B002B09D14FF008
:104C3000500383F31188BFF36F8FBFF34F8FFB6176
:104C4000FEE754233B613B69542B09D04FF05003DE
:104C500083F31188BFF36F8FBFF34F8FBB61FEE704
:104C60003B69BB6B002B1ED07B6B002B1BD0BB6B3F
:104C70007B627B6A7A6B1A637B6A022283F851201B
:104C8000002303937B6A029307F1140301933B6BA8
:104C900000933B687A68B968F86800F050F8786A61
:104CA00000F0D4F801E000237B617B6918462837C7
:104CB000BD4680BD80B58CB004AFF860B9603B6084
:104CC0001346FB80FB889B001846FFF7E1F87861EC
:104CD0007B69002B0ED05420FFF7DAF8F861FB69EE
:104CE000002B03D0FB697A691A6305E07869FFF746
:104CF00097F901E00023FB61FB69002B17D0FB69EA
:104D0000002283F85120FA8800230393FB69029361
:104D1000FB6A0193BB6A00933B68B968F86800F0CE
:104D20000EF8F86900F092F80123BB6102E04FF041
:104D3000FF33BB61BB6918462037BD4680BD80B5D7
:104D400088B000AFF860B9607A603B603B6B1A6B6B
:104D50007B6803F18043013B9B001344BB61BB694B
:104D600023F00703BB61BB6903F00703002B09D0E5
:104D70004FF0500383F31188BFF36F8FBFF34F8F52
:104D80007B61FEE7BB68002B1FD00023FB6112E0B4
:104D9000BA68FB69134419783A6BFB6913443433DE
:104DA0000A461A70BA68FB6913441B78002B06D0B8
:104DB000FB690133FB61FB690F2BE9D900E000BF00
:104DC0003B6B002283F8432003E03B6B002283F817
:104DD0003420BB6A062B01D90623BB623B6BBA6A3F
:104DE000DA623B6BBA6A5A643B6B00229A643B6B93
:104DF00004331846FEF776FD3B6B18331846FEF772
:104E000071FD3B6B3A6B1A61BB6AC3F107023B6BE6
:104E10009A613B6B3A6B5A623B6B0022DA643B6BE4
:104E2000002283F850203A68F968B869FEF7EEFD71
:104E300002463B6B1A60FB6A002B02D0FB6A3A6B9E
:104E40001A6000BF2037BD4680BD000080B582B02B
:104E500000AF7860FEF702FF2A4B1B680133294A36
:104E60001360294B1B68002B09D1274A7B6813600C
:104E7000244B1B68012B10D100F000FC0DE0234BEC
:104E80001B68002B09D1204B1B68DA6A7B68DB6A40
:104E90009A4202D81C4A7B6813601D4B1B68013381
:104EA0001B4A13607B68DB6A01229A40194B1B681E
:104EB0001343184A13607B68DA6A13469B00134455
:104EC0009B00154A1A447B68043319461046FEF7C6
:104ED00016FDFEF7F1FE0D4B1B68002B0ED00A4BA2
:104EE0001B68DA6A7B68DB6A9A4207D20B4B4FF089
:104EF00080521A60BFF34F8FBFF36F8F00BF083728
:104F0000BD4680BDB4130020B4120020C0130020A1
:104F1000D0130020BC130020B812002004ED00E0E4
:104F200080B584B000AF78600023FB607B68002B05
:104F300016D0134B1B68002B09D04FF0500383F39E
:104F40001188BFF36F8FBFF34F8FBB60FEE700F098
:104F50007FF80021786800F0EDFC00F087F8F86039
:104F6000FB68002B07D1074B4FF080521A60BFF34C
:104F70004F8FBFF36F8F00BF1037BD4680BD00BF9E
:104F8000DC13002004ED00E080B58AB004AF0023FC
:104F9000BB6000237B603A46391D07F108031846C1
:104FA000FBF79EFA39687B68BA6802920193002386
:104FB000009300230A4620492048FFF721FE0246BD
:104FC0001F4B1A601E4B1B68002B02D001237B6114
:104FD00001E000237B617B69012B02D100F010FD11
:104FE00078617B69012B15D14FF0500383F3118851
:104FF000BFF36F8FBFF34F8F3B61124B4FF0FF3208
:105000001A60114B01221A60104B00221A60FEF741
:1050100087FD0DE07B69B3F1FF3F09D14FF05003ED
:1050200083F31188BFF36F8FBFF34F8FFB60FEE7F1
:1050300000BF1837BD4680BD106300084D560008FC
:10504000D8130020D4130020C0130020B813002070
:1050500080B400AF044B1B680133034A136000BFE8
:10506000BD465DF8047B7047DC13002080B584B03A
:1050700000AF0023FB600023BB60414B1B68002B8B
:1050800009D14FF0500383F31188BFF36F8FBFF343
:105090004F8F3B60FEE7FEF7E1FD394B1B68013B9C
:1050A000374A1360364B1B68002B61D1354B1B68A8
:1050B000002B5DD02EE0344BDB68DB68FB60FB68C7
:1050C00018331846FEF778FCFB6804331846FEF7E1
:1050D00073FCFB68DB6A01229A402C4B1B6813436C
:1050E0002A4A1360FB68DA6A13469B0013449B004C
:1050F000274A1A44FB68043319461046FEF7FFFBA3
:10510000FB68DA6A234B1B68DB6A9A4202D3224BA4
:1051100001221A601C4B1B68002BCCD1FB68002BB2
:1051200001D000F045FB1D4B1B687B607B68002BAA
:1051300010D000F047F80346002B02D0164B012296
:105140001A607B68013B7B607B68002BF1D1134BBD
:1051500000221A60104B1B68002B09D00123BB6092
:105160000F4B4FF080521A60BFF34F8FBFF36F8F1A
:10517000FEF7A2FDBB6818461037BD4680BD00BFD4
:10518000DC130020B413002074130020BC13002093
:10519000B8120020B4120020C8130020C41300204D
:1051A00004ED00E080B483B000AF054B1B687B606A
:1051B0007B6818460C37BD465DF8047B704700BF1E
:1051C000B813002080B586B000AF00237B614E4B42
:1051D0001B68002B40F08D804C4B1B6801333B61FA
:1051E0004A4A3B6913603B69002B1FD1484B1B683F
:1051F0001B68002B09D04FF0500383F31188BFF3D5
:105200006F8FBFF34F8F3B60FEE7414B1B68FB6026
:10521000404B1B683E4A13603E4AFB6813603E4B9E
:105220001B6801333C4A136000F0C2FA3B4B1B6819
:105230003A699A4248D3364B1B681B68002B04D14D
:10524000364B4FF0FF321A603EE0314B1B68DB6893
:10525000DB68BB60BB685B687B603A697B689A42CD
:1052600003D22E4A7B6813602EE0BB6804331846D5
:10527000FEF7A2FBBB689B6A002B04D0BB68183307
:105280001846FEF799FBBB68DB6A01229A40244B63
:105290001B681343224A1360BB68DA6A13469B00FB
:1052A00013449B001F4A1A44BB6804331946104636
:1052B000FEF725FBBB68DA6A1B4B1B68DB6A9A4268
:1052C000B9D301237B61B6E7174B1B68DA6A15492E
:1052D00013469B0013449B000B441B68012B01D910
:1052E00001237B61114B1B68002B07D001237B61DD
:1052F00004E00F4B1B6801330D4A13607B691846AD
:105300001837BD4680BD00BFDC130020B813002055
:105310006C13002070130020CC130020D413002045
:10532000BC130020B8120020B4120020C8130020C3
:10533000C413002080B487B000AF264B1B68002B3D
:1053400003D0254B01221A603EE0234B00221A6055
:10535000224B1B68FB60FB68B3FA83F3FB72FB7A9A
:10536000C3F11F037B611E497A6913469B001344F6
:105370009B000B441B68002B09D14FF0500383F3B3
:105380001188BFF36F8FBFF34F8F7B60FEE77A69A1
:1053900013469B0013449B00114A13443B613B6935
:1053A0005B685A683B695A603B695A683B690833D5
:1053B0009A4204D13B695B685A683B695A603B6911
:1053C0005B68DB68074A136000BF1C37BD465DF8A9
:1053D000047B7047DC130020C8130020BC1300209E
:1053E000B8120020B412002080B584B000AF7860FD
:1053F00039607B68002B09D14FF0500383F311888B
:10540000BFF36F8FBFF34F8FFB60FEE7074B1B6847
:10541000183319467868FEF796FA0121386800F0CB
:1054200089FA00BF1037BD4680BD00BFB41200200E
:1054300080B586B000AFF860B9607A60FB68002B79
:1054400009D14FF0500383F31188BFF36F8FBFF37F
:105450004F8F7B61FEE70A4B1B6818331946F868CB
:10546000FEF74DFA7B68002B02D04FF0FF33BB6094
:105470007968B86800F05EFA00BF1837BD4680BD95
:10548000B412002080B586B000AF78607B68DB681E
:10549000DB683B613B69002B09D14FF0500383F37C
:1054A0001188BFF36F8FBFF34F8FFB60FEE73B693F
:1054B00018331846FEF780FA1D4B1B68002B1CD1D1
:1054C0003B6904331846FEF777FA3B69DB6A012231
:1054D0009A40184B1B681343164A13603B69DA6AFB
:1054E00013469B0013449B00134A1A443B69043340
:1054F00019461046FEF703FA05E03B6918331946D2
:105500000E48FEF7FCF93B69DA6A0D4B1B68DB6A53
:105510009A4205D901237B610A4B01221A6001E0FE
:1055200000237B617B6918461837BD4680BD00BFEC
:10553000DC130020BC130020B812002074130020DC
:10554000B4120020C813002080B483B000AF78608C
:10555000064B1A687B681A60054B1A687B685A60AC
:1055600000BF0C37BD465DF8047B7047CC130020AC
:10557000B813002080B588B000AF786039607B68D0
:10558000002B09D14FF0500383F31188BFF36F8FC5
:10559000BFF34F8F3B61FEE73B68002B09D14FF013
:1055A000500383F31188BFF36F8FBFF34F8FFB60FE
:1055B000FEE7FEF753FB1D4B1B68BB617B685B6816
:1055C000BA69D31A7B613B681B68B3F1FF3F02D114
:1055D0000023FB6123E07B681A68154B1B689A4225
:1055E00007D07B685A68BB699A4202D80123FB61E5
:1055F00015E03B681A687B699A420BD93B681A68C8
:105600007B69D21A3B681A607868FFF79DFF002318
:10561000FB6104E03B6800221A600123FB61FEF796
:105620004BFBFB6918462037BD4680BDB8130020F0
:10563000CC13002080B400AF034B01221A6000BFDE
:10564000BD465DF8047B7047C813002080B582B06A
:1056500000AF786000F052F8064B1B68012BF9D9B7
:10566000054B4FF080521A60BFF34F8FBFF36F8F1F
:10567000F0E700BFB812002004ED00E080B582B072
:1056800000AF00237B600CE07A6813469B00134454
:105690009B00124A13441846FEF704F97B68013355
:1056A0007B607B68062BEFD90D48FEF7FBF80D48B1
:1056B000FEF7F8F80C48FEF7F5F80C48FEF7F2F89C
:1056C0000B48FEF7EFF80B4B054A1A600A4B054AE8
:1056D0001A6000BF0837BD4680BD00BFB812002069
:1056E0004413002058130020741300208813002056
:1056F000A01300206C1300207013002080B582B02E
:1057000000AF19E0FEF7AAFA0F4BDB68DB687B609D
:105710007B6804331846FEF74FF90C4B1B68013BBE
:105720000A4A13600A4B1B68013B094A1360FEF7E3
:10573000C3FA786800F00EF8054B1B68002BE1D126
:1057400000BF0837BD4680BD88130020B413002079
:105750009C13002080B584B000AF78607B6893F81C
:105760005130002B08D17B681B6B1846FEF758FCA4
:105770007868FEF755FC17E07B6893F85130012BF1
:1057800003D17868FEF74CFC0EE07B6893F851304B
:10579000022B09D04FF0500383F31188BFF36F8FB2
:1057A000BFF34F8FFB60FEE700BF1037BD4680BDE3
:1057B00080B483B000AF0C4B1B681B68002B04D176
:1057C0000A4B4FF0FF321A6008E0074B1B68DB689A
:1057D000DB687B607B685B68044A136000BF0C3742
:1057E000BD465DF8047B70476C130020D413002085
:1057F00080B483B000AF0B4B1B68002B02D1012398
:105800007B6008E0084B1B68002B02D102237B6001
:1058100001E000237B607B6818460C37BD465DF8CD
:10582000047B7047C0130020DC13002080B586B0D5
:1058300000AF78607B683B6100237B617B68002B55
:105840006CD0394B1B683A699A4209D04FF050032B
:1058500083F31188BFF36F8FBFF34F8FFB60FEE7B9
:105860003B699B6C002B09D14FF0500383F31188E7
:10587000BFF36F8FBFF34F8FBB60FEE73B699B6C3D
:105880005A1E3B699A643B69DA6A3B695B6C9A42CF
:1058900044D03B699B6C002B40D13B6904331846D4
:1058A000FEF78AF80346002B15D13B69DA6A1F49D7
:1058B00013469B0013449B000B441B68002B0AD12A
:1058C0003B69DB6A012202FA03F3DA43184B1B68D7
:1058D0001340174A13603B695A6C3B69DA623B69B3
:1058E000DB6AC3F107023B699A613B69DB6A01220B
:1058F0009A400F4B1B6813430D4A13603B69DA6AE9
:1059000013469B0013449B00084A1A443B69043326
:1059100019461046FDF7F3FF01237B617B691846AA
:105920001837BD4680BD00BFB4120020B812002059
:10593000BC13002080B584B000AF78603960294B7B
:105940001B68FB60284B1B6804331846FEF734F8CD
:105950000346002B0BD1244B1B68DB6A012202FAA1
:1059600003F3DA43214B1B681340204A13607B6822
:10597000B3F1FF3F0AD13B68002B07D01A4B1B68DD
:10598000043319461A48FDF7BAFF26E0FA687B6827
:105990001344BB60144B1B68BA685A60BA68FB6852
:1059A0009A4209D2134B1A680F4B1B6804331946ED
:1059B0001046FDF7C8FF10E00F4B1A680A4B1B6832
:1059C000043319461046FDF7BEFF0C4B1B68BA683E
:1059D0009A4202D2094ABB68136000BF1037BD4625
:1059E00080BD00BFB8130020B4120020BC130020FB
:1059F000A0130020701300206C130020D41300208B
:105A000080B58AB004AF00237B6100F07FFB1C4BA4
:105A10001B68002B21D00023FB600023BB603A1DD4
:105A200007F1080107F10C031846FAF773FD7968CE
:105A3000BB68FA68029201930623009300230A468A
:105A400010491148FFF7DCF80246104B1A600F4B63
:105A50001B68002B01D001237B617B69002B09D1DE
:105A60004FF0500383F31188BFF36F8FBFF34F8F55
:105A70003B61FEE77B6918461837BD4680BD00BF15
:105A80001014002018630008F15C000814140020B2
:105A900080B588B002AFF860B9607A603B602820BA
:105AA000FEF7F6F978617B69002B0DD07B69002247
:105AB00083F824207B6901933B6A00933B687A68F2
:105AC000B968F86800F041F87B6918461837BD4698
:105AD00080BD80B58AB002AFF860B9607A603B6083
